:100000000C946F000C9470020C9497020C9497005F
:100010000C9497000C9497000C9497000C94970004
:100020000C9497000C9497000C9497000C949700F4
:100030000C9497000C9497000C9497000C949700E4
:100040000C94BE020C9497000C9479050C94AB05AB
:100050000C9497000C9497000C9497000C949700C4
:100060000C9497000C94970049535220547269677E
:10007000676572656400536574757020446F6E65C2
:100080000054657374205661723A20000000000825
:10009000000201000003040700000000000000004F
:1000A000010204081020408001020408102001020F
:1000B00004081020040404040404040402020202DC
:1000C00002020303030303030000000025002800CD
:1000D0002B0000000000240027002A00DB0511246B
:1000E0001FBECFEFD8E0DEBFCDBF11E0A0E0B1E092
:1000F000E6E8FEE002C005900D92AA32B107D9F7FA
:1001000021E0AAE2B1E001C01D92AA3BB207E1F7EB
:1001100010E0CEEDD0E004C02297FE010E943D0722
:10012000CC3DD107C9F70E9409070C9441070C94F4
:100130000000289A1092B80161E08AE00E94C90389
:1001400060E08AE00E94020461E089E00E94C90345
:1001500061E089E00E9402040E94DD0160E089E024
:100160000E9402048FEF0E94100261E089E00E9469
:100170000204289864E670E080E090E00C942B0381
:100180006FE080E00E94ED0080E00E94D500809347
:100190002A0186E00E947F0141E065E084E091E071
:1001A0000E943C0181E00C945E01CF93C82F60E077
:1001B00089E00E940204CF718C2F90E0982F88274D
:1001C0008F6F0E941702C82F9093B90161E089E0F8
:1001D0000E9402048C2FCF910895CF93DF93D82FE4
:1001E000C62F60E089E00E9402042D2F2F7120624B
:1001F0008C2F90E0922B0E9417029093B90161E03E
:1002000089E00E94020480E0DF91CF910895CF92AF
:10021000DF92FF920F931F93CF93DF931F92CDB77F
:10022000DEB7F82E162F042F60E089E079830E9454
:1002300002048F2D80620E9410028093B901F12E7A
:10024000C12E7981D72E8C2D8F19801730F4F601AD
:1002500081916F010E941002F6CF61E089E00E9457
:1002600002048091B9010F90DF91CF911F910F91FE
:10027000FF90DF90CF900895CF93C42F463048F47D
:10028000423040F0FC0160818AE0840F0E94ED0062
:1002900007C0C1E0462FBC018AE08C0F0E94070115
:1002A00082E00E94D50061E070E001C0660FCA954F
:1002B000EAF7682B82E0CF910C94ED001F93CF9367
:1002C000DF93182F64E08DE10E94ED008CE10E9425
:1002D000D500C1E0D0E001C0CC0F1A95EAF76C2F31
:1002E000682B8CE10E94ED0081E00E94D5006C2F0C
:1002F000682B81E0DF91CF911F910C94ED00682F66
:100300006F7286E00C94ED0068E670E08BE391E09C
:100310000C948306209A26E040E855E260E070E005
:100320008BE391E00E94170561E085E00E94C9031C
:1003300061E085E00E9402040E9499000E94C000D2
:1003400062E082E00E94C90342E050E064E871E0AC
:1003500080E00E94500261E870E08BE391E00E942F
:100360005C0642E050E060912A018BE391E00E943C
:10037000F10666E770E08BE391E00C948306089544
:100380000CB405FC0DC09EBD00000DB407FEFDCFF2
:100390009EB58EBD00000DB407FEFDCF8EB508954D
:1003A0008EBD00000DB407FEFDCF8EB59EBD0000D2
:1003B0000DB407FEFDCF9EB5089581E391E09093C3
:1003C0002C0180932B010E94190280912F01882318
:1003D00099F09FB7F89480912F01813059F48DB333
:1003E00080932D012DB380912E01809582238DBBAA
:1003F0009FBF02C090932D0181E58CBD1DBC8091F3
:100400002F01882361F09FB7F89420912F018091EC
:100410002D01213019F48DBB9FBF08958FBF089522
:100420008EBD00000DB407FEFDCF8EB508950C946F
:10043000C001CF93CFB7F89480913001811127C0CC
:10044000EEEBF0E08491EAEAF0E09491E82FF0E03E
:10045000EE0FFF1FEE52FF4FA591B4918C918923AF
:1004600021F461E08AE00E94020461E08AE00E94D7
:10047000C9038CB580618CBD8CB580648CBD61E096
:100480008DE00E94C90361E08BE00E94C903809166
:1004900030018F5F80933001CFBFCF9108950895D1
:1004A0008230E8F4E82FF0E0EE0FFF1FE050FF4F3E
:1004B00071836083813041F0809169008C7F842B4F
:1004C00080936900E89A089580916900440F551F50
:1004D000440F551F837F842B80936900E99A089508
:1004E0001F920F920FB60F9211242F933F934F93A9
:1004F0005F936F937F938F939F93AF93BF93EF938C
:10050000FF93E0910001F09101010995FF91EF91B6
:10051000BF91AF919F918F917F916F915F914F911B
:100520003F912F910F900FBE0F901F9018951F9223
:100530000F920FB60F9211242F933F934F935F9317
:100540006F937F938F939F93AF93BF93EF93FF939B
:10055000E0910201F09103010995FF91EF91BF91A4
:10056000AF919F918F917F916F915F914F913F914B
:100570002F910F900FBE0F901F9018951F920F9202
:100580000FB60F9211242F933F938F939F93AF93A6
:10059000BF938091330190913401A0913501B091C6
:1005A00036013091320123E0230F2D3720F40196DC
:1005B000A11DB11D05C026E8230F0296A11DB11D86
:1005C000209332018093330190933401A09335013D
:1005D000B09336018091370190913801A091390193
:1005E000B0913A010196A11DB11D809337019093FE
:1005F0003801A0933901B0933A01BF91AF919F9117
:100600008F913F912F910F900FBE0F901F901895D3
:100610003FB7F8948091370190913801A09139014A
:10062000B0913A0126B5A89B05C02F3F19F001965D
:10063000A11DB11D3FBF6627782F892F9A2F620F0A
:10064000711D811D911D42E0660F771F881F991F44
:100650004A95D1F708958F929F92AF92BF92CF9211
:10066000DF92EF92FF926B017C010E9408034B0125
:100670005C01C114D104E104F104F1F00E941807F7
:100680000E940803681979098A099B09683E73402A
:100690008105910570F321E0C21AD108E108F10843
:1006A00088EE880E83E0981EA11CB11CC114D104F1
:1006B000E104F10429F7DDCFFF90EF90DF90CF90B8
:1006C000BF90AF909F908F900895789484B582608A
:1006D00084BD84B5816084BD85B5826085BD85B5E6
:1006E000816085BDEEE6F0E0808181608083E1E895
:1006F000F0E01082808182608083808181608083CD
:10070000E0E8F0E0808181608083E1EBF0E08081CF
:1007100084608083E0EBF0E0808181608083EAE7A1
:10072000F0E080818460808380818260808380812A
:10073000816080838081806880831092C1000895E9
:10074000833081F028F4813099F08230A1F008954F
:100750008730A9F08830B9F08430D1F480918000DE
:100760008F7D03C0809180008F77809380000895F3
:1007700084B58F7702C084B58F7D84BD0895809144
:10078000B0008F7703C08091B0008F7D8093B00060
:100790000895CF93DF9390E0FC01E056FF4F249142
:1007A000FC01EC54FF4F8491882349F190E0880FBD
:1007B000991FFC01EE52FF4FA591B49188539F4FB2
:1007C000FC01C591D4919FB7611108C0F8948C9138
:1007D000209582238C93888182230AC0623051F451
:1007E000F8948C91322F309583238C938881822BBF
:1007F000888304C0F8948C91822B8C939FBFDF91E7
:10080000CF9108950F931F93CF93DF931F92CDB78E
:10081000DEB7282F30E0F901E457FF4F8491F9014A
:10082000E056FF4F1491F901EC54FF4F049100235F
:10083000C9F0882321F069830E94A0036981E02F19
:10084000F0E0EE0FFF1FE853FF4FA591B4919FB763
:10085000F8948C91611103C01095812301C0812B04
:100860008C939FBF0F90DF91CF911F910F910895AF
:10087000FC01818D228D90E08096821B91098F7101
:1008800099270895FC01918D828D981731F0828D02
:10089000E80FF11D858D90E008958FEF9FEF08958B
:1008A000FC01918D828D981761F0828DDF01A80F78
:1008B000B11D5D968C91928D9F5F9F71928F90E09C
:1008C00008958FEF9FEF089581ED95E0892B49F012
:1008D00080E090E0892B29F00E94D10581110C94D1
:1008E00000000895FC01848DDF01A80FB11DDD9685
:1008F0002C91848D90E001968F739927848FA6891F
:10090000B7892C93A089B1898C9180648C93938D45
:10091000848D981306C00288F389E02D80818F7D35
:1009200080830895CF93DF93EC01888D8823C9F0ED
:10093000EA89FB89808185FD05C0A889B9898C91E8
:1009400086FD0FC00FB607FCF5CF808185FFF2CF83
:10095000A889B9898C9185FFEDCFCE010E947204E0
:10096000E7CFDF91CF910895CF92DF92FF920F935F
:100970001F93CF93DF931F92CDB7DEB76C0181E059
:10098000D60158968C9358975B969C915B975C9692
:100990008C915C97981307C05096ED91FC915197FC
:1009A000808185FD2CC0F601038D10E00F5F1F4F85
:1009B0000F731127F02EF601848DF81211C00FB6B7
:1009C00007FCF9CFD6015096ED91FC9151978081AB
:1009D00085FFF1CFC60169830E9472046981EBCF64
:1009E000838DE80FF11D65AFD6015B960C935B9785
:1009F0005296ED91FC915397808180620CC0D60194
:100A00005696ED91FC91579760835096ED91FC912D
:100A1000519780818064808381E090E00F90DF9126
:100A2000CF911F910F91FF90DF90CF900895BF92CB
:100A3000CF92DF92EF92FF92CF93DF93EC016A01A6
:100A40007B01B22EE889F98982E08083411581EE2D
:100A5000580761057105A1F060E079E08DE390E051
:100A6000A70196010E941907215031094109510936
:100A70005695479537952795211580E1380798F0C9
:100A8000E889F989108260E874E88EE190E0A701B6
:100A900096010E94190721503109410951095695C3
:100AA000479537952795EC85FD853083EE85FF8545
:100AB0002083188EEC89FD89B082EA89FB898081C8
:100AC00080618083EA89FB89808188608083EA89EC
:100AD000FB89808180688083EA89FB8980818F7DA2
:100AE0008083DF91CF91FF90EF90DF90CF90BF9008
:100AF00008951F920F920FB60F9211242F938F9388
:100B00009F93EF93FF93E0914B01F0914C01808113
:100B1000E0915101F091520182FD12C090818091CB
:100B200054018F5F8F7120915501821751F0E09130
:100B30005401F0E0E55CFE4F958F8093540101C0B5
:100B40008081FF91EF919F918F912F910F900FBE18
:100B50000F901F9018951F920F920FB60F921124AD
:100B60002F933F934F935F936F937F938F939F93B5
:100B7000AF93BF93EF93FF938BE391E00E947204D6
:100B8000FF91EF91BF91AF919F918F917F916F9165
:100B90005F914F913F912F910F900FBE0F901F903B
:100BA00018958BE391E00E94380421E0892B09F429
:100BB00020E0822F089510923E0110923D0188EEB0
:100BC00093E0A0E0B0E080933F0190934001A093B8
:100BD0004101B09342018DE091E090933C018093FC
:100BE0003B0185EC90E0909348018093470184ECB1
:100BF00090E090934A018093490180EC90E09093BB
:100C00004C0180934B0181EC90E090934E018093D6
:100C10004D0182EC90E09093500180934F0186EC5F
:100C200090E09093520180935101109254011092E0
:100C3000550110925601109257010895CF92DF92FC
:100C4000EF92FF920F931F93CF93DF937C016A0182
:100C5000EB0100E010E00C151D0571F06991D70162
:100C6000ED91FC910190F081E02DC7010995892B50
:100C700019F00F5F1F4FEFCFC801DF91CF911F9188
:100C80000F91FF90EF90DF90CF900895611571055F
:100C900081F0DB010D900020E9F7AD0141505109D1
:100CA000461B570BDC01ED91FC910280F381E02D96
:100CB000099480E090E00895EF92FF920F931F93C4
:100CC000CF93DF938C017B01C0E0D0E0F701EC0F04
:100CD000FD1F6491662359F0F801A081B181ED9167
:100CE000FC91C8010995892B11F02196EFCFCE0117
:100CF000DF91CF911F910F91FF90EF90089569E1DF
:100D000071E00C9446060F931F93CF93DF93EC0191
:100D10000E945C068C01CE010E947F06800F911F0D
:100D2000DF91CF911F910F9108958F929F92AF9273
:100D3000BF92DF92EF92FF920F931F93CF93DF93B7
:100D4000CDB7DEB7A1970FB6F894DEBF0FBECDBF0B
:100D50007C01F42FD52ECB0119A2223008F42AE011
:100D60008E010F5D1F4F822E912CA12CB12C6F2F65
:100D70007D2DA50194010E941907F22FD32ECA01DF
:100D8000015011096A3014F4E0E301C0E7E3E60F13
:100D9000D801EC93232B242B252B49F7B801C7014D
:100DA0000E944606A1960FB6F894DEBF0FBECDBFD7
:100DB000DF91CF911F910F91FF90EF90DF90BF9047
:100DC000AF909F908F9008952115310541F4DC017B
:100DD000ED91FC910190F081E02D642F09940C9429
:100DE00095060F931F93CF93DF93EC019A01462F43
:100DF00050E060E070E00E94E4068C01CE010E94A9
:100E00007F06800F911FDF91CF911F910F91089561
:100E100008950E9465030E9408070E948A01C4E6A3
:100E2000D4E00E94BF012097E1F30E946404F9CF4F
:100E30000895A1E21A2EAA1BBB1BFD010DC0AA1F1B
:100E4000BB1FEE1FFF1FA217B307E407F50720F033
:100E5000A21BB30BE40BF50B661F771F881F991FAE
:100E60001A9469F760957095809590959B01AC01F7
:100E7000BD01CF010895EE0FFF1F0590F491E02D05
:060E80000994F894FFCF75
:100E86004F024F02010203040500000000B4041ED5
:100E96000638045004420492040D0A006E616E0086
:0A0EA600696E66006F7666002E008C
:00000001FF
