:100000000C9460060C944C1E0C94251E0C94921FAC
:100010000C94921F0C94921F0C94C31F0C9488068E
:100020000C9488060C9488060C9488060C94880618
:100030000C949C1F0C9488060C9488060C948806DB
:100040000C94DB1D0C9488060C94A91D0C94831D44
:100050000C9488060C9488060C9488060C948806E8
:100060000C94731E0C94880608000000BE9224496C
:10007000123EABAAAA2ABECDCCCC4C3E00000080DA
:10008000BEABAAAAAA3E00000000BF000000803F4D
:100090000000000000084178D3BB4387D1133D190D
:1000A0000E3CC3BD4282AD2B3E68EC8276BED98F3A
:1000B000E1A93E4C80EFFFBE01C4FF7F3F0000007E
:1000C0000000332E2055524C00322E2053616D70AB
:1000D0006C696E6720496E74657276616C00312EB2
:1000E00020446576696365204944004765747469F6
:1000F0006E67205254432074696D650055706461C9
:1001000074696E67205254432054696D65005254DF
:10011000432074696D65206973207570646174652E
:100120006400525443205365633A20003C504F57BB
:1001300045525F444F574E3E003C5354414E44425B
:1001400059313E003C54584D4F44453E003C5354B9
:10015000414E444259323E003C52584D4F44453E78
:100160000043455F50494E203A20003C6D61785F66
:1001700072745F6972713E003C72785F6972713EA1
:10018000003C74785F6972713E004E5246205354B1
:10019000415455533A000D0A0020200050696E6703
:1001A000204661696C656400436865636B73756DB7
:1001B000206E6F74206D61746368656400436865C8
:1001C000636B73756D206D6174636865640043686B
:1001D00065636B73756D203A20006F70636F6465A3
:1001E000203A200074797065203A20006D73203A1F
:1001F00020007365636F6E64203A200054582052CB
:100200006561647920666F72205472616E736D69E6
:1002100074004D657468616E65203A2000416D6D13
:100220006F6E6961203A200048756D696469747960
:10023000203A200054656D70657261747572652096
:100240003A20004944203A200054696D65203A2044
:10025000003C2D2D2D2D2D2D2D2D2D53656E736FC5
:100260007220446174612D2D2D2D2D2D2D2D2D2DC0
:100270002D2D2D2D2D2D2D3E0072616D5120436FA2
:10028000756E746572203A0043616C696220536137
:1002900076696E6720666F72206D71340043616C01
:1002A000696220526164696E6720666F72206D71A9
:1002B000340043616C696220536176696E67206621
:1002C0006F72206D713133350043616C6962205269
:1002D0006164696E6720666F72206D71313335001D
:1002E000496E70757420436D64203A004C6F6F70D6
:1002F00020627265616B73203A2000427566666504
:10030000723A20002D2D3E003C2D2D466C61736805
:1003100020526561643A002D2D2D2D2D3E526561D0
:1003200064204D656D203A204F6C640063203A20B4
:10033000006D203A200043616C6962726174696EDD
:10034000672E2E001F1C1F1E1F1E1F1F1E1F1E009C
:10035000000000240027002A0000000000250028DB
:10036000002B004E524620536574757020646F6EEA
:1003700065005F4D696C6C6973206973206E756CE4
:100380006C2C206E6565642074696D652066756EE1
:100390006374696F6E7300526164696F2073657472
:1003A000757020646F6E65005254432041646A7515
:1003B000737465640030313A32313A313900466540
:1003C000622032352032303231002D2D3E525443DE
:1003D0002069732052756E6E696E67005254432017
:1003E000466F756E6400525443204E6F7420466F02
:1003F000756E6400207C205072657363616C657259
:10040000203A200054696D65724120746F70203A63
:1004100000466C61736820456E64204164647220FC
:100420003A2000466C6173682053746172742041F5
:10043000646472203A20004C6173742041646472D9
:100440003A20004C6566742042797465203A200099
:10045000656E6420736563203A200053656E736F88
:10046000722069732043616C696272617465640013
:1004700053656E736F72206E6F742043616C696296
:10048000726174656400546F74616C205461736BA5
:10049000733A20006173796E6358666572207365E4
:1004A00074757020646F6E65007C2D2D2D2D2D2DA3
:1004B0002D2D2D2D2D2D2D2D2D2D2D2D2D2D2D2D6C
:1004C0002D2D2D2D2D2D2D2D2D2D2D2D2D2D2D2D5C
:1004D0002D2D2D2D2D2D2D2D2D2D7C007C20202002
:1004E0002020202020412050726F64756374206F9B
:1004F000662041646F7273686F205072616E697319
:10050000686562612020202020202020207C007C43
:1005100020202020202020202020202020202020DB
:100520002020204761732053656E736F7220202056
:1005300020202020202020202020202020202020BB
:100540007C007C2D2D2D2D2D2D2D2D2D2D2D2D2D6A
:100550002D2D2D2D2D2D2D2D2D2D2D2D2D2D2D2DCB
:100560002D2D2D2D2D2D2D2D2D2D2D2D2D2D2D2DBB
:100570002D2D2D7C00302E204578697420436F6E20
:1005800066696700322E20506172616D6574657214
:100590002053657474696E6700312E204465766956
:1005A00063652053657474696E6700302E2045784A
:1005B0006974205365747570204D656E7500352E15
:1005C0002043616C6962726174652053656E736F5C
:1005D0007200342E204C6F67204F666600332E2049
:1005E0004C6F67204F6E00322E20466163746F722D
:1005F0007920526573657400312E205265736574DD
:1006000020466C617368204D656D0072696E6742AB
:1006100075666665722E6572617365645365637491
:100620006F72203A20002D2D3E45726173696E670E
:1006300020536563746F72203A20004572617369BC
:100640006E6720466C61736820427566666572004D
:10065000556E6B6E6F776E20636D640045786974BC
:1006600065642044657669636520436D6400436179
:100670006C6962726174696E672053656E736F7224
:10068000004C6F67204F6666004C6F67204F6E000E
:10069000466163746F727920526573657474696E14
:1006A00067204465766963652E2E00457261736923
:1006B0006E6720466C6173682E2E00457869742041
:1006C000506172616D2053657474696E6700446592
:1006D0007669636520696E74657276616C3A004470
:1006E0006576696365206964203A0053616D706CBA
:1006F000696E6720496E74657276616C203A2000DD
:10070000446576696365204964203A20002D2D2DCB
:100710002D3E4578697420436F6E66696700556E9B
:100720006B6E6F776E206D61696E20636D6400453E
:100730004E54455245442053455455500057445457
:100740002054696D65286D7329203A006D5F5354FC
:100750004154453A20434845434B5F484152445732
:10076000415245006D5F53544154453A2053544F14
:1007700050006D5F53544154453A2053594E435FE6
:10078000444556494345006D5F53544154453A2012
:1007900053544152545F444556494345003C2D2D26
:1007A0002D2D2D2D2D2D2D2D2D2D2D2D2D2D2D2D79
:1007B0002D3E004C6F67696320506F7765723A2059
:1007C00000466C617368203A005254433A20004E50
:1007D0005246203A003C2D2D486172647761726563
:1007E000205374617475732D2D3E002D2D2D2D2DEC
:1007F0002D2D2D2D2D2D2D2D2D3E53616D706C65C4
:1008000020496E74657276616C20757064617465E0
:1008100064004164647220526376204661696C65AD
:100820006400436865636B73756D206E6F74206D33
:1008300061746368656400436865636B73756D20FC
:100840006D61746368656400436865636B73756D9F
:10085000203A20006F70636F6465203A200074793D
:100860007065203A200041646472203A20004E52A4
:100870004620454550524F4D2052656164696E6770
:100880002E2E00446576696365206873206E6F20A4
:10089000616464726573730044657669636520689A
:1008A00061732061646472657373004E5246204523
:1008B0004550524F4D20536176696E672E2E00547D
:1008C000582041646472203A200047657474696E50
:1008D0006720416464722066726F6D204253002D60
:1008E0002D2D3E00554E53594E434544005254431E
:1008F0005F53594E434544004E54505F53594E4345
:100900004544003C2D2D54696D65722073796E63EA
:1009100020537461747573203A2000556E73796E9C
:1009200063656420616E6420525443204661696CA3
:100930006564003E3E3E4164762E204572617369D7
:100940006E6720536563746F72203A20003C3D3D12
:100950005570646174696E6720464C6173682050FD
:100960006F696E7465723D3D3E003E3E3E4572616C
:1009700073696E6720536563746F72203A20002D8F
:100980002D3E003C2D2D466C6173682057726974B2
:10099000653A002D2D2D2D2D3E546F74616C20581D
:1009A000666572205061636B6574203A200058665A
:1009B00065723A4661696C656400586665723A53BF
:1009C0007563636573737C54696D653A0072756E07
:1009D0005374617465203A2052554E5F54585F58E5
:1009E0004645520072756E5374617465203A205208
:1009F000554E5F43484B5F42535F434F4E4E002D71
:100A00002D3E4163636964656E74616C2044656664
:100A100061756C74206D6F646500476F696E672047
:100A2000746F20576169740072756E203A205255B8
:100A30004E5F54585F58464552003C3D3D4253205E
:100A40004E6F7420436F6E6E65637465643D3D3E0A
:100A50000054696D6520746F206461746120736552
:100A60006E64004A616E4665624D61724170724DFE
:100A700061794A756E4A756C4175675365704F634D
:100A8000744E6F764465630053756E4D6F6E54758A
:100A90006557656454687546726953617400202017
:100AA0002020202020207C0D0A7C2D2D2D2D2D2D69
:100AB0002D2D2D2D2D2D2D2D2D2D2D2D2D2D2D2D66
:100AC0002D2D2D2D2D2D2D2D2D2D2D2D2D2D7C0034
:100AD0007C2D2D2D2D2D2D2D2D2D2D2D2D2D2D2DF7
:100AE0002D2D2D2D2D2D2D2D2D2D2D2D2D2D2D2D36
:100AF0002D2D2D2D2D7C0D0A7C2020202020202026
:100B00002020004461696C79205363686564756CCA
:100B10006500486F75726C79205363686564756C05
:100B200065005374617274696E67204F70657261FD
:100B300074696F6E006D5F53544154453A204348C9
:100B400045434B5F484152445741524500646F6EE4
:100B500065203A200061697252735230203A2000B9
:100B60005230203A2000524C203A20006D203A208A
:100B70000063203A20003C2D2D4D512043616C69CB
:100B800062726174696F6E2D2D2D2D3E004E52469E
:100B900020517565727920416363657074656400E6
:100BA0004E524620517565727920526563656976AB
:100BB000656400517565727920537563636573735D
:100BC00066756C2100000000002300260029000447
:100BD00004040404040404020202020202030303E4
:100BE00003030301020408102040800102040810DE
:100BF000200102040810200000000800020100008B
:100C000003040700000000000000002D2D2D2D2DF5
:100C10002D2D2D2D2D2D2D2D2D2D2D2D2D2D2D2D04
:100C20002D00526567697374726174696F6E3A2042
:100C3000004465627567204F66663A200053616D17
:100C40007020496E74657276616C3A200044657656
:100C50006963652049643A20007C204465766963B5
:100C60006520436F6E66696720506172616D207CFC
:100C70000D0A2D2D2D2D2D2D2D2D2D2D2D2D2D2DE7
:100C80002D2D2D2D2D2D2D2D002D2D2D2D2D2D2DC1
:100C90002D2D2D2D2D2D2D2D2D2D2D2D2D2D2D00B1
:100CA000526561642050616765203A200044756D8B
:100CB00070696E672050616765203A200000F51F5B
:100CC00011241FBECFEFD8E0DEBFCDBF25E0AAE7DD
:100CD000B1E001C01D92A835B207E1F711E0A0E034
:100CE000B1E0E6ECF8E602C005900D92AA37B10734
:100CF000D9F716E0C0E6D6E004C02197FE010E94B5
:100D00001C33CF35D107C9F70E94C5200C9461343C
:100D10000C940000089508956091850270918602F8
:100D2000809187029091880208952FB7F89460917E
:100D3000FB017091FC018091FD019091FE012FBF9C
:100D400008953091A502E091A302F091A4022081C0
:100D500081E090E002C0880F991F3A95E2F78095F4
:100D600090958223808308958091850290918602D8
:100D7000A0918702B09188020196A11DB11D8093B8
:100D8000850290938602A0938702B0938802809197
:100D9000090290910A02A0910B02B0910C020196F7
:100DA000A11DB11D8093090290930A02A0930B022A
:100DB000B0930C0208950895EF92FF920F931F9342
:100DC000CF93DF938C017B01D0E0C0E0F701EC0F03
:100DD000FD1F6491662361F0D801ED91FC910190B3
:100DE000F081E02DC8010995892B11F02196EECFF5
:100DF000CE01DF91CF911F910F91FF90EF90089559
:100E0000AF92BF92CF92DF92EF92FF920F931F9318
:100E1000CF93DF936C017B018B01040F151FEB0156
:100E20005E01AE18BF08C017D10759F06991D6010D
:100E3000ED91FC910190F081E02DC6010995892B7F
:100E400079F7C501DF91CF911F910F91FF90EF903E
:100E5000DF90CF90BF90AF900895FC01538D448DEB
:100E6000252F30E0842F90E0821B930B541710F055
:100E7000CF96089501970895FC01918D828D981762
:100E800061F0A28DAE0FBF2FB11D5D968C91928D3A
:100E90009F5F9F73928F90E008958FEF9FEF08956B
:100EA000FC01918D828D981731F0828DE80FF11D34
:100EB000858D90E008958FEF9FEF08950F931F9316
:100EC0000E94950660932A0470932B0480932C044F
:100ED00090932D0482E294E00E94500797FF1DC07A
:100EE0000E94950600912A0410912B0420912C0455
:100EF00030912D04601B710B820B930B0091260423
:100F0000109127042091280430912904601771075B
:100F100082079307F8F28FEF9FEF1F910F910895CB
:100F2000FC01918D228D892F90E0805C9F4F821B68
:100F300091098F739927089582E294E00E949007A7
:100F400021E0892B09F420E0822F089580E090E0D1
:100F5000892B29F00E949C0781110C9400000895B0
:100F6000FC01A48DA80FB92FB11DA35ABF4F2C911E
:100F7000848D90E001968F739927848FA689B78915
:100F80002C93A089B1898C91837080648C93938D0C
:100F9000848D981306C00288F389E02D80818F7DAF
:100FA00080830895EF92FF920F931F93CF93DF9367
:100FB000EC0181E0888F9B8D8C8D98131AC0E88995
:100FC000F989808185FF15C09FB7F894EE89FF8964
:100FD0006083E889F98980818370806480839FBF02
:100FE00081E090E0DF91CF911F910F91FF90EF9002
:100FF0000895F62E0B8D10E00F5F1F4F0F73112712
:10100000E02E8C8D8E110CC00FB607FCFACFE8894C
:10101000F989808185FFF5CFCE010E94B007F1CF1D
:10102000EB8DEC0FFD2FF11DE35AFF4FF0829FB7C0
:10103000F8940B8FEA89FB8980818062CFCFCF93B0
:10104000DF93EC01888D8823B9F0AA89BB89E889F0
:10105000F9898C9185FD03C0808186FD0DC00FB696
:1010600007FCF7CF8C9185FFF2CF808185FFEDCF14
:10107000CE010E94B007E9CFDF91CF910895833070
:1010800081F028F4813099F08230A9F008958730FA
:10109000A9F08830C9F08430B1F4809180008F7D50
:1010A00003C0809180008F7780938000089584B57D
:1010B0008F7784BD089584B58F7DFBCF8091B0007C
:1010C0008F778093B00008958091B0008F7DF9CF25
:1010D000CF93DF93E9EFFBE08491E5EEFBE0D49161
:1010E000E1EDFBE0C491CC23A1F081110E943F0807
:1010F000EC2FF0E0EE0FFF1FEB53F44FA591B491EE
:10110000EC91ED2381E090E009F480E0DF91CF9154
:10111000089580E090E0FACF1F93CF93DF93282FBC
:1011200030E0F901E950F44F8491F901ED51F44FA9
:10113000D491F901E153F44FC491CC23A9F0162FB7
:1011400081110E943F08EC2FF0E0EE0FFF1FE75ADD
:10115000FC4FA591B4918FB7F894EC91111108C090
:10116000D095DE23DC938FBFDF91CF911F9108953F
:10117000DE2BF8CFCF93DF9390E0FC01ED51F44FDD
:1011800024918153944FFC0184918823C9F090E00D
:10119000880F991FFC01E15BFC4FA591B491FC0104
:1011A000E75AFC4FC591D49161110DC09FB7F894D7
:1011B0008C91209582238C938881282328839FBF3C
:1011C000DF91CF910895623051F49FB7F8943C912C
:1011D000822F809583238C93E8812E2BEFCF8FB7BE
:1011E000F894EC912E2B2C938FBFEACF3FB7F89455
:1011F0008091FF0190910002A0910102B091020242
:1012000026B5A89B05C02F3F19F00196A11DB11D61
:101210003FBFBA2FA92F982F8827BC01CD01620F9D
:10122000711D811D911D42E0660F771F881F991F58
:101230004A95D1F708958F929F92AF92BF92CF9225
:10124000DF92EF92FF924B015C010E94F6086B0166
:101250007C010E94F6086C197D098E099F09683E81
:10126000734081059105A8F321E0821A9108A10835
:10127000B10888EEC80E83E0D81EE11CF11C811471
:101280009104A104B10429F7FF90EF90DF90CF9073
:10129000BF90AF909F908F90089508952091D701AF
:1012A000260F3327331F21323105ECF42091EC0255
:1012B000FC0190E080E0243069F082E00895A09184
:1012C000D7012191AC0149545E4FA40FB52FB11D38
:1012D0002C930196861798F38091D701680F60933D
:1012E000D70180E0089581E008951092EC0281E03A
:1012F0008093EB021092C60261E082E10E948C08AA
:1013000061E083E10E948C08E9EBF0E080818E7F50
:10131000808380818D7F808388E48093B80085E41A
:101320008093BC00089510921B0310921A03109230
:101330001903109218030E9475098AE896E09093A9
:101340001703809316038BE896E090931503809320
:1013500014030895CF93DF9391E09093B60188230F
:10136000B9F0C091B800D091BA008091BC008A7BDE
:101370008093BC0060E082E10E948C0860E083E121
:101380000E948C080E947509D093BA00C093B800DF
:10139000DF91CF9108958F929F92AF92BF92CF929B
:1013A000DF92EF92FF920F931F93CF93DF93D09131
:1013B0001803D13208F0D7C0182FC09113030E9430
:1013C000F6086B017C018091EC0281116BC082E018
:1013D0008093EC021093EB028FEF8093EA0210925D
:1013E000E902D093E802A3EFB2E0E8ECF2E080E09B
:1013F000D81391C01092C7028091C702CC0FC82B9E
:10140000C093C7028091C602813009F088C0109253
:10141000C6020E94F6086B017C018091C70280938E
:10142000BB008091EE029091EF02A091F002B0918A
:10143000F102892B8A2B8B2BA1F00E94F6080091D8
:10144000EE021091EF022091F0023091F1026C193E
:101450007D098E099F09061717072807390708F421
:1014600042C08091BC0083FDD8CF85EC8093BC0046
:101470000E94F6086B017C018091EC02823009F435
:1014800050C08091EA028F3F09F46FC08091EA0258
:10149000803209F46CC08091EA02803309F469C09B
:1014A00084E026C08091EE029091EF02A091F002BC
:1014B000B091F102892B8A2B8B2B09F484CF0E94E7
:1014C000F6088090EE029090EF02A090F002B090AB
:1014D000F1026C197D098E099F0986169706A806E8
:1014E000B90608F070CF8091ED020E94AA0985E04C
:1014F00010921903109218031092F202DF91CF910B
:101500001F910F91FF90EF90DF90CF90BF90AF9021
:101510009F908F9008959D9191938F5F69CF85EEF5
:10152000A5CF8091EE029091EF02A091F002B091D0
:10153000F102892B8A2B8B2B09F49ECF0E94F6088F
:101540000091EE021091EF022091F0023091F10231
:101550006C197D098E099F09061717072807390797
:1015600008F08ACFC0CF81E0C3CF80E0C1CF82E056
:10157000BFCF83E0BDCFCF92DF92EF92FF920F9368
:101580001F93CF93DF93D82FC62F613208F098C0F6
:101590000E94F6086B017C018091EC0281116BC006
:1015A00081E08093EC028093EB029FEF9093EA023C
:1015B0001092E9029C0F9093E8028093C7028091F9
:1015C000C702DD0FD82BD093C7028091C6028130AD
:1015D00009F078C01092C6020E94F6086B017C01E7
:1015E0008091C7028093BB008091EE029091EF0240
:1015F000A091F002B091F102892B8A2B8B2BA1F0E4
:101600000E94F6080091EE021091EF022091F00284
:101610003091F1026C197D098E099F090617170791
:101620002807390708F448C08091BC0083FDD8CF53
:1016300085EC8093BC000E94F6086B017C018091D0
:10164000EC02813009F440C08091E9028C1710F45B
:10165000C091E902E8ECF2E0A6EAB2E080E08C1387
:1016600055C08C2FDF91CF911F910F91FF90EF907C
:10167000DF90CF9008958091EE029091EF02A091BB
:10168000F002B091F102892B8A2B8B2B09F484CFC5
:101690000E94F6080091EE021091EF022091F002F4
:1016A0003091F1026C197D098E099F090617170701
:1016B0002807390708F070CF8091ED020E94AA092F
:1016C000C0E0CFCF85EEB5CF8091EE029091EF02D2
:1016D000A091F002B091F102892B8A2B8B2B09F497
:1016E000AECF0E94F6080091EE021091EF02209119
:1016F000F0023091F1026C197D098E099F090617DD
:1017000017072807390708F09ACFD6CF91919D93F4
:101710008F5FA5CF0895E0911B0380911A03E8170E
:1017200030F4F0E0EA55FD4F808190E008958FEFAE
:101730009FEF089590911B0380911A032FEF3FEFC5
:10174000981748F4E92FF0E0EA55FD4F208130E08A
:101750009F5F90931B03C901089580911A03909194
:101760001B03891B990B0895CF92DF92EF92FF9292
:101770000F931F93CF93DF937C01CB018A012091BC
:10178000F202222389F0EB016B01C40ED51ECC15A9
:10179000DD0569F06991D701ED91FC910190F0812F
:1017A000E02DC7010995F3CF642F0E944E09C801AF
:1017B000DF91CF911F910F91FF90EF90DF90CF902D
:1017C0000895CF93DF931F92CDB7DEB76983209141
:1017D000F2022223F9F020911803203258F021E080
:1017E00030E0FC013383228390E080E00F90DF91B2
:1017F000CF91089580911903E82FF0E0ED50FD4F4F
:10180000998190838F5F809319038093180381E0FF
:1018100090E0ECCF61E0CE0101960E944E09F7CF37
:10182000CF93CFB7F8948091B501811127C0E9ED2E
:10183000FBE08491EDEEFBE09491E82FF0E0EE0FF9
:10184000FF1FE15BFC4FA591B491EC91E92321F4DA
:1018500061E08AE00E948C0861E08AE00E94BA0898
:101860008CB580618CBD8CB580648CBD61E08DE0F1
:101870000E94BA0861E08BE00E94BA088091B5012D
:101880008F5F8093B501CFBFCF91089590E080E046
:1018900008950CB405FC0DC09EBD00000DB407FEFC
:1018A000FDCF9EB58EBD00000DB407FEFDCF8EB5F9
:1018B00008958EBD00000DB407FEFDCF8EB59EBD10
:1018C00000000DB407FEFDCF9EB50895BC018091C8
:1018D0006A0290916B020C94DC061F93CF93DF9306
:1018E000EC0181E08093F20288E68093130310926A
:1018F00019031092180360E08FEB94E00E94E10B53
:101900002D811AE0822F612F0E94DA32682F660F34
:10191000680F660F620F8FEB94E00E94E10B2C8141
:10192000822F612F0E94DA32682F660F680F660FD0
:10193000620F8FEB94E00E94E10B2B81822F612FCD
:101940000E94DA32682F660F680F660F620F8FEB06
:1019500094E00E94E10B60E08FEB94E00E94E10BC9
:101960002A81822F612F0E94DA32682F660F680F5A
:10197000660F620F8FEB94E00E94E10B2981822FAA
:10198000612F0E94DA32682F660F680F660F620FB0
:101990008FEB94E00E94E10B2881822F612F0E943F
:1019A000DA32682F660F680F660F620F8FEB94E0D4
:1019B0000E94E10B81E0DF91CF911F910C94CB0944
:1019C000FC01908190539A3008F090E0818180531F
:1019D0002AE0929F800D112408958F929F92AF92DA
:1019E000BF92CF92DF92EF92FF92CF93DF93EC0101
:1019F0006A017B0180E8C81A83E4D80A8DE6E80A08
:101A000088E3F80A8CE3882E912CA12CB12CC70115
:101A1000B601A50194010E94FA326D83CA01B90191
:101A2000A50194010E94FA326C83C701B60120E13E
:101A30003EE040E050E00E94FA32CA01B90128E1DC
:101A400030E040E050E00E94FA326B83C701B601FB
:101A500020E831E541E050E00E94FA32188263E963
:101A60007EEF8881982F937041E050E011F050E0B4
:101A700040E0FA01E359FE4F2E173F0740F0FB010B
:101A8000E41BF50B2E0F3F1F8F5F8883EACF81E0A9
:101A9000898389818C30A0F4482F4150550BFA017D
:101AA000EC5BFC4FE491911103C0823009F4EF5FCD
:101AB000F0E02E173F0720F02E1B3F0B8F5FE8CF83
:101AC0002F5F2A83DF91CF91FF90EF90DF90CF902F
:101AD000BF90AF909F908F900895DC0150E0E4E4B8
:101AE000F3E081E0861730F49491490F511D8F5F28
:101AF0003196F8CF633038F0CD0183709927892B68
:101B000011F44F5F5F4F9D012D5F3F4F3695279535
:101B1000369527956DE671E0A69FC001A79F900DB1
:101B2000B69F900D11240197820F931F840F951F6C
:101B300008958EBD00000DB407FEFDCF8EB508954B
:101B4000EF92FF920F931F93CF93DF937B0140910E
:101B5000A502E091A302F091A402908121E030E07F
:101B6000B90102C0660F771F4A95E2F7AB014095B5
:101B70005095942390834091A2020091A00210916D
:101B8000A102F801908102C0220F331F4A95E2F7AB
:101B9000209530952923208380620E94990D80939F
:101BA0009F02E701F5E0EF0EF11C89910E94990D6B
:101BB000CE15DF05D1F79091A202F801808121E0D6
:101BC00030E001C0220F9A95EAF7822B8083DF91E3
:101BD000CF911F910F91FF90EF9008958CBD9DBD07
:101BE0000895CF92DF92EF92FF92E0919B02F091E5
:101BF0009C0209956B017C01809198029091990259
:101C0000883C9105C1F08439914071F0E0919B02CC
:101C1000F0919C0209956C197D098E099F0960322B
:101C200071058105910540F38FEF9FEFFF90EF90D5
:101C3000DF90CF900895109257021092560288ECD0
:101C400090E0F4CFCF92DF92EF92FF920E94950640
:101C50006B017C0182E294E00E943C071816190691
:101C60006CF00E9495066C197D098E099F09683EEB
:101C700073408105910570F38FEF9FEFFF90EF9018
:101C8000DF90CF900895CF93DF93EC0182E08883BB
:101C900060911E0370911F037B836A83809185028C
:101CA00090918602A0918702B09188028C839D83D7
:101CB000AE83BF8390E080E00E94E62F6C8B7D8B2B
:101CC0008E8B9F8B688B798B8A8B9B8B68877987B0
:101CD0008A879B876C877D878E879F87CE01DF9160
:101CE000CF9108950F931F93CF93DF939091A2020A
:101CF000C091A002D091A102888101E010E098017A
:101D000002C0220F331F9A95E2F720953095822367
:101D1000888382EE0E94990D80939F029091A20287
:101D2000888101C0000F9A95EAF7082B0883DF919C
:101D3000CF911F910F9108950F931F93CF93DF932E
:101D40009091A202C091A002D091A102888101E0ED
:101D500010E0980102C0220F331F9A95E2F72095F8
:101D600030958223888381EE0E94990D80939F0293
:101D70009091A202888101C0000F9A95EAF7082B82
:101D80000883DF91CF911F910F9108950E94720EE9
:101D90000C949C0E0F931F93CF93DF932091A2027C
:101DA000C091A002D091A102988101E010E0A801A9
:101DB00002C0440F551F2A95E2F79A0120953095ED
:101DC00092239883982F862F90620E94490C20912D
:101DD000A202888101C0000F2A95EAF7082B088328
:101DE00090939F02DF91CF911F910F9108950F93D0
:101DF0001F93CF93DF932091A202C091A002D091B4
:101E0000A102988101E010E0A80102C0440F551F13
:101E10002A95E2F79A01209530959223988390E0D5
:101E2000982F88278F6F0E94490C3091A202288139
:101E300001C0000F3A95EAF7022B088390939F02A6
:101E4000DF91CF911F910F910895CF93DF93D82FFA
:101E5000C62F0E94F70E682F6C2B8D2FDF91CF912C
:101E60000C94CA0ECF92DF92EF92FF920F931F93C2
:101E7000CF93DF93F82ED92EE62E9091A502E09114
:101E8000A302F091A4028081C1E0D0E09E0102C0D3
:101E9000220F331F9A95E2F7209530958223808395
:101EA0000E949C0E9091A2020091A0021091A102AA
:101EB000F801808102C0CC0FDD1F9A95E2F7C09532
:101EC000D095C823C08380EA0E94990DCF2CCF2DD6
:101ED000DD2D89910E94990D8C2F8C198E15C8F3D8
:101EE0009091A202F801808121E030E001C0220F30
:101EF0009A95EAF7822B80838DEA91E0909399027C
:101F000080939802DF91CF911F910F91FF90EF90F6
:101F1000DF90CF9008953091A502E091A302F09157
:101F2000A402208181E090E0AC0101C0440F3A9509
:101F3000EAF7242B2083A7E3B0E01197F1F7309163
:101F4000A502208102C0880F991F3A95E2F780957B
:101F5000909582238083089560E20E94320F0C9452
:101F60008B0F0F931F93CF93DF939091A502009156
:101F7000A3021091A402F8018081C1E0D0E09E018B
:101F800002C0220F331F9A95E2F7209530958223E5
:101F9000808360E787E00E94CA0E0E949C0E80E06A
:101FA0000E94F70E682F6E7F80E00E94CA0E90910B
:101FB000A502F801808102C0CC0FDD1F9A95E2F7DF
:101FC000C095D095C823C083DF91CF911F910F9109
:101FD00008951F93CF93DF93182F64E08DE10E9443
:101FE000CA0EC1E0D0E001C0CC0F1A95EAF76C2F01
:101FF0008CE10E94250F6C2F81E0DF91CF911F9122
:102000000C94250F08951F93CF93DF93EC0160E0AC
:1020100088810E948C0885E00E94990D80E00E94D2
:10202000990D182F61E088810E948C08812FDF9123
:10203000CF911F910895CF93DF93EC01CE010E94C1
:10204000031080FDFBCFDF91CF910895BF92CF9217
:10205000DF92EF92FF920F931F93CF93DF937C0158
:10206000EA01B62E69010E941B1060E0F701808131
:102070000E948C0883E00E94990D8B2D0E94990D7F
:102080008D2F0E94990D8C2F0E94990DE6010C0D49
:102090001D1DC017D10729F080E00E94990D89937A
:1020A000F8CF61E0F7018081DF91CF911F910F910F
:1020B000FF90EF90DF90CF90BF900C948C08CF935F
:1020C000DF93EC0160E088810E948C0886E00E942A
:1020D000990D61E088810E948C08CE010E94031056
:1020E00086958170DF91CF910895FF920F931F9392
:1020F000CF93DF93EC01142F052FF62E0E941B10B7
:10210000CE010E945F108823C9F060E088810E94A0
:102110008C0880E20E94990D8F2D0E94990D802FCE
:102120000E94990D812F0E94990D61E088810E9483
:102130008C08CE010E94031081FDFBCFDF91CF916F
:102140001F910F91FF900895CF92DF92EF92FF922F
:102150000F931F93CF93DF93C1EDD4E08EECC82E85
:1021600084E0D82E0D81F090D104E090D20418E0E4
:10217000602F661F6627661F8E2D0E948C08000F39
:1021800061E08F2D0E948C0860E08F2D0E948C08EA
:10219000115071F72197CC16DD0621F761E080918F
:1021A000D3040E948C0860E08091D304DF91CF912A
:1021B0001F910F91FF90EF90DF90CF900C948C08BF
:1021C000E82FE695E695E695F0E0EF52FB4F238188
:1021D000382F377081E090E0A0E0B0E004C0880FB5
:1021E000991FAA1FBB1F3A95D2F7662321F0822BB5
:1021F00083830C94A41080958223FACFEF92FF92F0
:102200000F931F93CF93DF938BE991E00E94430ECE
:102210008C01FC0160897189828993890E94143242
:10222000862F64E10E94DA32C5E0D0E07E01E81A30
:10223000F10861E0EC16FD060CF060E08C2F0E94C6
:10224000E0102197B1F7F80164897589868997892B
:102250000E941432862F6AE00E94DA32CAE0D0E08F
:102260007E01E81AF10861E0EC16FD060CF060E072
:102270008C2F0E94E0102197C530D105A1F7F801FD
:1022800064857585868597850E941432862F65E062
:102290000E94DA32CFE0D0E07E01E81AF10861E076
:1022A000EC16FD060CF060E08C2F0E94E0102197E8
:1022B000CA30D105A1F7F8016085718582859385C3
:1022C0000E941432862F6AE00E94DA32C4E1D0E024
:1022D0008E01081B110961E00C171D070CF060E06E
:1022E0008C2F0E94E0102197CF30D105A1F7DF910C
:1022F000CF911F910F91FF90EF90089581E080930F
:10230000F20288E6809313031092190310921803C7
:1023100060E08FEB94E00E94E10B81E00E94CB092A
:1023200061E088E60E94BB0A10921B0380931A03A7
:102330008FEB94E00E949A0B805887FB882780F9E6
:102340000895CF93DF93EC013091A502E091A302B1
:10235000F091A402208181E090E002C0880F991FD3
:102360003A95E2F78095909582238083BE0180E1C3
:102370000E94A00DBE018AE00E94A00D61E082E0F3
:102380000E94250F80E0DF91CF910C94E90F0F930D
:102390001F93CF938C01C0E0F8018281C81748F4E5
:1023A0008081918160E08C0F911D0E940D31CF5F83
:1023B000F3CFCF911F910F910895FB010190002061
:1023C000E9F73197AF01461B570BDC01ED91FC910A
:1023D0000280F381E02D099463E371E00C94DD1138
:1023E0000F931F93CF93DF93EC010E94DC068C01C7
:1023F000CE010E94EC11800F911FDF91CF911F91B0
:102400000F910895BC0180916A0290916B020C9427
:10241000F0112F923F924F925F926F927F928F9224
:102420009F92AF92BF92CF92DF92EF92FF920F9363
:102430001F93CF93DF9300D01F92CDB7DEB7E62E68
:10244000272E4B8398EC99838A8380919D029091EB
:102450009E020E94A1110E94B10F62E0CE0101967E
:102460000E94320F0E948B0FE0919B02F0919C0220
:1024700009952B013C01CC24C394D12C93E5A92EC2
:1024800092E0B92E2DEA822E99249394809198029D
:1024900090919902883C9105A9F08A3C910509F434
:1024A0007DC0E0919B02F0919C0209956419750929
:1024B00086099709683E73408105910538F3E12C40
:1024C000212CAEC060919D0270919E02F090970207
:1024D0009091A5020091A3021091A402F8018081BD
:1024E000960102C0220F331F9A95E2F7209530958E
:1024F00082238083F5E0FF1508F449C021E03F2CDA
:102500002F1508F046C0FB0160818AE08F0D0E9404
:10251000CA0EB60101C0660F3A94EAF782E00E9443
:10252000250F8F2D0E94E90F9091A502F80180815F
:10253000960102C0220F331F9A95E2F7209530953D
:102540008223808360E787E00E94CA0E0E94720E99
:1025500061E080E00E94250F9091A502F801808142
:10256000960101C0220F9A95EAF7822B8083C5015C
:102570000197F1F780919A02882321F08DE89BE082
:102580000E94021290929902809298028ACF33247C
:1025900033948AE0830D0E94A00DBBCF80919A02F4
:1025A000882321F080EA9BE00E9402123091A2026F
:1025B000C090A002D090A102F601208181E090E0BD
:1025C00002C0880F991F3A95E2F780959095822373
:1025D000808381E60E94990DFE2C0E2D122D8FEF27
:1025E0000E94990DF80181938F018E2F8F19FB8125
:1025F0008F17A8F39091A202F601808121E030E0CC
:1026000001C0220F9A95EAF7822B80830E94720EF6
:1026100080919A02882321F083EB9BE00E940212B2
:102620008E2D922D0F900F900F90DF91CF911F91D3
:102630000F91FF90EF90DF90CF90BF90AF909F9061
:102640008F907F906F905F904F903F902F90089564
:102650008CE592E00E94A11162E080E00E94250FCB
:1026600062E070E080E090E00E941B090E94B10FE0
:102670008CEF91E00C940212FF920F931F93CF9373
:10268000DF930E947E11882309F4C9C06BEE70E0CD
:1026900082E294E00E94F01181E08093F20288E6E9
:1026A00080931303109219031092180360E08FEBCC
:1026B00094E00E94E10B81E00E94CB0967E088E68C
:1026C0000E94BB0A10921B0380931A038FEB94E0C5
:1026D0000E949A0B8F77282F30E094E0359527954C
:1026E0009A95E1F7922F990F990FC22FC91BCC0F22
:1026F000C80F8FEB94E00E949A0B9C0144E0359543
:1027000027954A95E1F72F703327922F990F990F4C
:10271000D22FD91BDD0FD80F8FEB94E00E949A0BBC
:102720009C0154E0359527955A95E1F72F70332792
:10273000922F990F990F122F191B110F180F8FEB52
:1027400094E00E949A0B8FEB94E00E949A0B9C01FC
:1027500064E0359527956A95E1F72F703327922F1E
:10276000990F990FF22EF91AFF0CF80E8FEB94E0E7
:102770000E949A0B9C0174E0359527957A95E1F7B4
:102780002F703327922F990F990F022F091B000FDB
:10279000080F8FEB94E00E949A0B9C01E4E03595C2
:1027A0002795EA95E1F72F703327922F990F990F0C
:1027B000291B220F820F4F2D602F90E00E946D0D7C
:1027C0009C01A8E1B0E00E9426319B01AC01210FE1
:1027D000311D411D511DACE3B0E00E941B319B0136
:1027E000AC012D0F311D411D511D0E941B31AB014C
:1027F000BC018C2F90E0B0E0A0E080589C4BA24937
:10280000B74C8A019B01080F191F2A1F3B1FC901E2
:10281000B801DF91CF911F910F91FF90089560E073
:1028200070E0CB01F6CF8F929F92AF92BF92EF9262
:10283000FF920F931F93CF93DF93CDB7DEB7A1978E
:102840000FB6F894DEBF0FBECDBF7C01FA01CB01FD
:1028500019A2223008F42AE08E010F5D1F4F822E4C
:10286000912CB12CA12CBF01A50194010E94FA3238
:10287000F901CA016A300CF5605DD8016E938D01D3
:10288000232B242B252B79F790E080E0109721F063
:10289000BD01C7010E94DD11A1960FB6F894DEBFFD
:1028A0000FBECDBFDF91CF911F910F91FF90EF90A1
:1028B000BF90AF909F908F900895695CDECF0F938B
:1028C0001F93CF93DF93EC01AB0170E060E02AE04F
:1028D0000E9413148C01CE010E94EC11800F911FF5
:1028E000DF91CF911F910F910895CF92DF92EF92D8
:1028F000FF92CF93DF936B017C016DE282E294E063
:102900000E94D207EC0144275527BA014C195D09F2
:102910006E097F092AE082E294E00E9413148C0F72
:102920009D1FDF91CF91FF90EF90DF90CF900895A2
:10293000CF93DF93AC01990F660B770B77FF0EC037
:10294000CB01BA010E947514EC0182E294E00E946E
:10295000EC118C0F9D1FDF91CF9108952AE082E248
:1029600094E00E941314F0CFCF92DF92EF92FF9287
:10297000CF9380EEC82E83E9D82E84E0E82EF12C88
:1029800082E294E00E949007892B69F481E0C81AE2
:10299000D108E108F10839F061E070E080E090E0F2
:1029A0000E941B09EDCF6CEE72E082E294E00E947F
:1029B000DC062AE0B701A60182E294E00E9413142B
:1029C00082E294E00E94EC110E945E07FC0197FDF8
:1029D00057C08D32910521F0C0970A9708F049C081
:1029E000C12CD12C7601C0E0E130F105D9F0ED32F7
:1029F000F10509F443C0CF01C0970A9798F4AAE003
:102A0000B0E0A70196010E941B316F01FF0FEE0895
:102A1000FF08C60ED71EE81EF91E80E3C81AD108AB
:102A2000E108F10882E294E00E943C070E945E0700
:102A3000FC01C0970A97C0F2E130F105A9F2CC235E
:102A400041F0F094E094D094C094C11CD11CE11CDE
:102A5000F11C60EE72E082E294E00E94DC06C601A6
:102A60000E9498148C2DCF91FF90EF90DF90CF9023
:102A7000089582E294E00E943C07A6CFC1E0D2CF45
:102A8000C12CD12C7601E5CF0F931F93CF93DF9309
:102A9000EC012AE00E9413148C01CE010E94EC117B
:102AA000800F911FDF91CF911F910F9108958F9209
:102AB0009F92AF92BF92CF92DF92EF92FF92CF930D
:102AC000DF9300D000D000D0CDB7DEB76B017C0122
:102AD0000E947E118823D9F10E943C134B015C01B6
:102AE00062E271E082E294E00E94DC06B501A4019A
:102AF00082E294E00E944415D701C6018819990921
:102B0000AA09BB09181619061A061B065CF40297D7
:102B1000A105B10564F46EE071E082E294E00E94E8
:102B2000F01115C08F3F9F4FAF4FBF4FA4F76CEF11
:102B300070E082E294E00E94F011B701A601CE019C
:102B400001960E94ED0CCE0101960E946D0C269616
:102B50000FB6F894DEBF0FBECDBFDF91CF91FF90CF
:102B6000EF90DF90CF90BF90AF909F908F9008959F
:102B70000F931F93CF93DF93162F082FEC014991EA
:102B800050E070E060E02AE080916A0290916B0270
:102B90000E94131489E991E00E94660C8C2F801B1F
:102BA000811768F386E991E0DF91CF911F910F9132
:102BB0000C94660C0F931F93CF93DF93EC01462F79
:102BC00050E070E060E02AE00E9413148C01CE0116
:102BD0000E94EC11800F911FDF91CF911F910F91F7
:102BE0000895CF93DF9369E87CE082E294E00E944D
:102BF000F01169E57CE082E294E00E94F0116DE45E
:102C00007CE082E294E00E94DC06CCE1D3E06A81C1
:102C10007B8182E294E00E945F146DE37CE082E2BB
:102C200094E00E94DC066C817D8182E294E00E9447
:102C30005F1461E37CE082E294E00E94DC0689811B
:102C400090E00E94981462E27CE082E294E00E94AC
:102C5000DC06688182E294E00E94DA156BE07CE099
:102C600082E294E0DF91CF910C94F011682F809173
:102C70006A0290916B020C94DA15CF93DF9380E097
:102C80000E94F70ED82F81FF54C0E091A302F0916B
:102C9000A4023297C0812091A50281E090E001C09A
:102CA000880F2A95EAF7C82380919A02882351F069
:102CB00081E691E00E94660C81E0C11101C080E0D4
:102CC0000E943616D0FF0DC0CC23F1F180919A02FC
:102CD000882321F088E591E00E94021283E090E0D1
:102CE00033C0CC23D9F087E10E94F70E84FF0BC0DC
:102CF00080919A02882321F08DE491E00E940212D3
:102D000082E090E021C080919A02882321F084E43F
:102D100091E00E94021284E090E016C080919A0235
:102D2000882321F089E391E00E94021281E090E083
:102D30000BC080919A02882321F08CE291E00E94DE
:102D4000021290E080E000C0DF91CF91089560E72B
:102D500087E00E94CA0E80919A02882341F08AE897
:102D600091E00E94660C80919F020E94361680912D
:102D70009F0285FF15C088EC90E0909399028093A4
:102D80009802E0910702F0910802309709F0099546
:102D900080919A02882381F181E891E00C940212DB
:102DA00080919F0286FF14C08AEC90E09093990274
:102DB00080939802E0910502F0910602309709F0A5
:102DC000099580919A028823B9F088E791E0E6CFCF
:102DD00084E991E09093990280939802E091030234
:102DE000F0910402309709F0099580919A028823A6
:102DF00019F08BE691E0D2CF08950F931F93CF93F4
:102E0000DF93CDB7DEB72C970FB6F894DEBF0FBEB9
:102E1000CDBF62E080E00E94250F62E070E080E0BC
:102E200090E00E941B090E94B10F4CE0BE016F5F51
:102E30007F4F89EC0E9409128C01892B09F45EC036
:102E400082EF91E00E94660CF8014081518162811D
:102E5000738180916A0290916B020E9444158CEEFE
:102E600091E00E94660CF80144815581668177816A
:102E700080916A0290916B020E94441584EE91E069
:102E80000E94660CF80180850E9436168AED91E05A
:102E90000E94660CF80181850E9436168EEC91E046
:102EA0000E94660CF80183850E943616FE01319659
:102EB0009E01245F3F4F90E080E04191840F911D7F
:102EC000E217F307D1F7F8019385981314C08DEB3F
:102ED00091E00E940212F8016081718182819381E8
:102EE0002C960FB6F894DEBF0FBECDBFDF91CF9109
:102EF0001F910F91089588EA91E0EBCF8CE991E062
:102F00000E94660C60E070E0CB01EACFCF93DF93C4
:102F1000BC0182E294E00E94DD11EC0182E294E0C7
:102F20000E94EC118C0F9D1FDF91CF9108954F925D
:102F30005F926F927F928F929F92AF92BF92CF9249
:102F4000DF92EF92FF920F931F93CF936B017C015F
:102F5000742EAC019B010E94A03266E371E08111E6
:102F600026C046015701E894B7F82FEF3FEF4FE72F
:102F70005FE7C501B4010E94A03281110CC02FEFA0
:102F80003FEF4FE75FE7C501B4010E94E12F6AE31D
:102F900071E0181664F02FEF3FEF4FE75FE4C701D1
:102FA000B6010E9443321816ACF46EE371E082E27F
:102FB00094E0CF911F910F91FF90EF90DF90CF9011
:102FC000BF90AF909F908F907F906F905F904F9049
:102FD0000C94DD112FEF3FEF4FE75FECC701B60117
:102FE0000E94E12F87FDE1CF20E030E0A901C70179
:102FF000B6010E94E12F10E000E087FF0AC06DE2F9
:1030000082E294E00E94D2078C01F7FAF094F7F87C
:10301000F094C0E060E070E080E09FE37C1641F057
:1030200020E030E040E251E40E94A231CF5FF6CFD1
:10303000A70196010E9436312B013C010E941432F7
:103040004B015C012AE0BC01A40182E294E00E94F1
:1030500013147C01E00EF11ECC23D1F1C501B401A3
:103060000E94E62F9B01AC01C301B2010E943531E1
:103070004B015C016EE282E294E00E94D207E80E0E
:10308000F91EC15028F120E030E040E251E4C501D2
:10309000B4010E9447302B013C010E9414324B01C5
:1030A000B12CA12C2AE0B501A40182E294E00E9497
:1030B0001314E80EF91EC501B4010E94E62F9B010E
:1030C000AC01C301B2010E9435314B015C01D9CF83
:1030D000C701CF911F910F91FF90EF90DF90CF909C
:1030E000BF90AF909F908F907F906F905F904F9028
:1030F0000895CF93DF930E949717EC0182E294E04A
:103100000E94EC118C0F9D1FDF91CF910895CF93FA
:10311000DF93EC0166E77BE082E294E00E94F0112D
:1031200061E77BE082E294E00E94DC0668817981BD
:103130008A819B8142E050E00E9479186CE67BE036
:1031400082E294E00E94DC066C817D818E819F8109
:1031500042E050E00E94791866E67BE082E294E06B
:103160000E94DC06688579858A859B8542E050E06F
:103170000E94791860E67BE082E294E00E94DC061F
:103180006C857D858E859F8542E050E00E94791890
:1031900065E57BE082E294E00E94DC06688979893B
:1031A0008A899B8942E050E00E9479186DE47BE0B7
:1031B00082E294E00E94DC068C8990E0DF91CF915E
:1031C0000C949814CF93DF93C0911002D091110208
:1031D000CE010E94430E61E572E082E294E00E941B
:1031E000F01169E472E082E294E00E94DC064C8116
:1031F0005D816E817F8182E294E00E94441563E4E8
:1032000072E082E294E00E94DC066A817B8182E2C5
:1032100094E00E945F1464E372E082E294E00E9412
:10322000DC066C897D898E899F8942E00E94971710
:1032300082E491E00E94861768E272E082E294E004
:103240000E94DC06688979898A899B8942E00E940C
:10325000971785E491E00E9486176DE172E082E2A3
:1032600094E00E94DC06688579858A859B8542E02A
:103270000E9497178AE491E00E94861762E172E04B
:1032800082E294E00E94DC066C857D858E859F85B8
:1032900042E00E9497178AE491E00E94861769E74E
:1032A00072E082E294E00E94DC0680917A01082EAE
:1032B000000C990B0E94981480917A018F5F809383
:1032C0007A0180910F022091100230911102820F39
:1032D000932F911D909311028093100220910D0263
:1032E00030910E028217930758F08217930759F412
:1032F0008091140290911502909359028093580284
:10330000DF91CF91089540911202509113028417DA
:103310009507B1F710927A018091140290911502ED
:103320009093110280931002309359022093580217
:10333000E7CFCF92DF92EF92FF920F931F93CF933D
:10334000DF93EC016A017B016DEA7CE082E294E0AC
:103350000E94DC06B701A60182E294E00E944415B7
:1033600060EA7CE082E294E00E94DC06B701A601FC
:1033700082E294E00E9444157E2D6D2D5C2D442741
:1033800000E011E022E233E0CE010E94261002E2CA
:1033900013E0C0E17801D0E0F70141917F0150E0F6
:1033A00070E060E02AE082E294E00E94131462E59B
:1033B00071E082E294E00E94DD11DF5FD03161F7BD
:1033C00082E294E00E94EC11C150005F1F4FC111D6
:1033D000E1CFDF91CF911F910F91FF90EF90DF90A0
:1033E000CF9008954F925F926F927F928F929F92AB
:1033F000AF92BF92CF92DF92EF92FF921F93CF9343
:10340000DF9300D000D000D0CDB7DEB79E838D8390
:1034100049835A836B837C8366E373E082E294E0A2
:103420000E94F01114E122E340E050E0BA01ED8186
:10343000FE8180818E3008F08E508770806480938A
:103440007C0080917A00806480937A0080917A0079
:1034500086FDFCCF8091780090917900092E000CB8
:10346000AA0BBB0B480F591F6A1F7B1F2150F9F68F
:10347000CB01BA0122E330E040E050E00E94FA3292
:1034800049015A016FEF73E080E090E06819790913
:103490008A099B090E94E62FED81FE8121853285F4
:1034A000438554850E9447302B013C01C501B4017E
:1034B0000E94E62F9B01AC01C301B2010E94A23120
:1034C0004B015C0164E670E080E090E00E941B0923
:1034D000A5019401C701B6010E9436316B017C0140
:1034E000115009F0A0CF20E030E040EA51E40E9402
:1034F000A23129813A814B815C810E94A2316B010A
:103500007C016FE471E082E294E00E94DD1142E010
:1035100050E0C701B6010E94791820E030E0A9010F
:10352000C701B6010E94E12F87FF03C0C12CD12C37
:103530007601C701B60126960FB6F894DEBF0FBE1E
:10354000CDBFDF91CF911F91FF90EF90DF90CF9093
:10355000BF90AF909F908F907F906F905F904F90B3
:1035600008950F931F93CF93DF938091560290910C
:103570005702892B09F0BAC04091090550910A05FC
:1035800060910B0570910C058091050590910605E1
:10359000A0910705B0910805481759076A077B07EE
:1035A00009F49BC0809115058823C9F068E073E099
:1035B00082E294E00E94DC064091090550910A05E0
:1035C00060910B0570910C052AE082E294E00E9464
:1035D000131464E073E082E294E00E94F011C09161
:1035E000F7040C2F10E0E0911105F09112053097CF
:1035F00009F009954091090550910A0560910B0564
:1036000070910C052BE731E08091F3049091F40464
:103610000E942610E0910F05F0911005309709F0F7
:1036200009958091090590910A05A0910B05B0912B
:103630000C058C0F911DA11DB11D80930905909360
:103640000A05A0930B05B0930C054091FF0450911F
:103650000005609101057091020584179507A60782
:10366000B70780F08091FB049091FC04A091FD04C9
:10367000B091FE048093090590930A05A0930B0571
:10368000B0930C05809113058F5F809313058BE732
:1036900091E090935702809356026BEF72E082E2C2
:1036A00094E00E94DC06CBE7D1E00BE911E0499100
:1036B00050E070E060E02AE082E294E00E9413149F
:1036C00062E571E082E294E00E94DD110C171D07B3
:1036D00071F782E294E00E94EC1180915602909181
:1036E0005702DF91CF911F910F91089567E173E029
:1036F00082E294E00E94F011F0CFFF920F931F93AB
:10370000CF93DF93EC01F62E08811981C8010E9446
:103710000531F81621F06F2DC8010E940D31CE0140
:10372000DF91CF911F910F91FF900895CF92DF927B
:10373000EF92FF920F931F93CF93DF9300D0CDB7FB
:10374000DEB76C0162EB72E082E294E00E94F0115D
:10375000760105E110E0F70161917F011A83098389
:10376000CE0101960E947D1B0F5F1F4F0A3211058B
:1037700091F7C6010E9487180F900F90DF91CF91AB
:103780001F910F91FF90EF90DF90CF900895CF920F
:10379000DF92EF92FF920F931F93CF93DF9300D0AE
:1037A000CDB7DEB76C0168E872E082E294E00E9477
:1037B000F011760110E000E0F70161917F011A83BA
:1037C0000983CE0101960E947D1B0F5F1F4F0531BB
:1037D000110591F7C6010E9487180F900F90DF9195
:1037E000CF911F910F91FF90EF90DF90CF900895B0
:1037F0000F931F93CF938C01C0E0F80180819181DA
:103800008C0F911D0E940531982F81E08C0FCF3FC6
:1038100059F0992329F0C82FF8019281981768F779
:10382000CF911F910F91089580E0FACFEF92FF9210
:103830000F931F93CF93DF93EC010E94F81B182F77
:103840008A81811720F4CE010E94C71111E02FEF69
:10385000210FE22EF12C8A8148815981840F952F06
:10386000911D3B81239F800D911D11249D838C838D
:1038700000E08B81081770F4802F90E0FC01EB5F73
:10388000FA4F2C813D816081820F931F0E940D3180
:103890000F5FEFCF88819981612F8E0D9F1DDF9182
:1038A000CF911F910F91FF90EF900C940D31EF92FB
:1038B000FF920F931F93CF93DF937C0169EC72E02B
:1038C00082E294E00E94F0118701C5E1D0E0CE01D0
:1038D0000E940531F80181938F012196CA32D105EA
:1038E000B1F7C701DF91CF911F910F91FF90EF903A
:1038F0000C948718EF92FF920F931F93CF93DF934F
:103900007C016DE972E082E294E00E94F01187018F
:10391000D0E0C0E0CE010E940531F80181938F0113
:103920002196C531D105B1F7C701DF91CF911F9124
:103930000F91FF90EF900C9487180F931F93CF93E4
:10394000DF93EC018B0184E090E00E942233FC01C4
:103950001382128211830083FE01209731F4DF91DC
:10396000CF911F910F910895F90122813381211583
:103970003105D1F793838283CE01F1CF85ED80931A
:10398000BC008091EE029091EF02A091F002B09104
:10399000F1020796A11DB11D23E0B695A795979555
:1039A00087952A95D1F72091BC0024FD03C0109281
:1039B000EC0208954091EE025091EF026091F00206
:1039C0007091F102452B462B472B69F30097A10517
:1039D000B10541F025E32A95F1F700000197A1090F
:1039E000B109E1CF8091ED020C94AA092F923F9288
:1039F0004F925F926F927F928F929F92AF92BF92FF
:103A0000CF92DF92EF92FF920F931F93CF93DF93AA
:103A100000D000D0CDB7DEB71C012A013B010983DD
:103A20001A832B833C83A7019601C501B4010E9430
:103A3000A2310E9448324B015C01A30192016981CD
:103A40007A818B819C810E94A2310E9448329B0125
:103A5000AC01C501B4010E94A2314B015C01F1012E
:103A600085829682A782B086C701B6010E9448323D
:103A70006B017C01C301B2010E9448329B01AC0181
:103A8000C501B4010E9447309B01AC01C701B601DA
:103A90000E943531F101618372838383948361E3F2
:103AA00073E082E294E00E94DC06F1016581768198
:103AB0008781908546E050E00E9479186CE273E0BF
:103AC00082E294E00E94DC06F101618172818381CF
:103AD000948142E050E00F900F900F900F90DF9193
:103AE000CF911F910F91FF90EF90DF90CF90BF90FB
:103AF000AF909F908F907F906F905F904F903F908E
:103B00002F900C9479181F920F920FB60F921124D8
:103B10002F933F934F935F936F937F938F939F93D5
:103B2000AF93BF93EF93FF9382E294E00E94B007BC
:103B3000FF91EF91BF91AF919F918F917F916F9185
:103B40005F914F913F912F910F900FBE0F901F905B
:103B500018951F920F920FB60F9211242F938F93E7
:103B60009F93EF93FF93E0913204F09133048081AF
:103B7000E0913804F091390482FD1BC0908180915E
:103B80003B048F5F8F7320913C04821741F0E091DA
:103B90003B04F0E0EE5DFB4F958F80933B04FF917B
:103BA000EF919F918F912F910F900FBE0F901F90CB
:103BB00018958081F4CF1F920F920FB60F921124A7
:103BC0002F933F938F939F93AF93BF938091FB016C
:103BD0009091FC01A091FD01B091FE013091FA019C
:103BE00023E0230F2D3758F50196A11DB11D209319
:103BF000FA018093FB019093FC01A093FD01B09327
:103C0000FE018091FF0190910002A0910102B0910C
:103C100002020196A11DB11D8093FF019093000245
:103C2000A0930102B0930202BF91AF919F918F9137
:103C30003F912F910F900FBE0F901F90189526E87F
:103C4000230F0296A11DB11DD2CF1F920F920FB666
:103C50000F9211242F933F934F935F936F937F9312
:103C60008F939F93AF93BF93EF93FF93E0910701DF
:103C7000F09108010995FF91EF91BF91AF919F914C
:103C80008F917F916F915F914F913F912F910F9005
:103C90000FBE0F901F9018951F920F920FB60F92A4
:103CA00011242F933F934F935F936F937F938F9341
:103CB0009F93AF93BF93EF93FF93E0910501F09132
:103CC00006010995FF91EF91BF91AF919F918F915F
:103CD0007F916F915F914F913F912F910F900FBE08
:103CE0000F901F9018951F920F920FB60F921124EC
:103CF0002F933F934F935F936F937F938F939F93F4
:103D0000AF93BF93EF93FF938091B900887F803684
:103D100009F44AC0F0F5883209F4A7C018F58031DB
:103D200009F49BC0B8F4882309F4F9C0883009F479
:103D300094C0FF91EF91BF91AF919F918F917F912F
:103D40006F915F914F913F912F910F900FBE0F9008
:103D50001F901895883109F488C0803251F78093FC
:103D6000EA0214C0803409F49DC040F48033B9F3F2
:103D70008833F9F68093EA0285ECB0C0803509F407
:103D800085C0883509F496C0883499F60E94BE1C17
:103D9000D0CF883909F48CC038F5883729F050F431
:103DA000883611F0803729F683E08093EC02109278
:103DB000F90157C0883809F47BC0803919F0803880
:103DC00009F0B7CF8091F901803208F071C0E0911D
:103DD000F90181E08E0F8093F9018091BB00F0E042
:103DE000E752FE4F80833DC0803B39F0E0F4803ADB
:103DF00009F479C0883A09F09CCF84E08093EC0202
:103E00001092D8011092D701E0911603F091170398
:103E100009958091D70181110FC081E08093D7016E
:103E20001092B70109C0803C09F4A6CF883C09F480
:103E3000A3CF883B09F07DCFE091D80181E08E0FC0
:103E40008093D801F0E0E954FE4F80818093BB005D
:103E50009091D8018091D70129C08091C7028093A9
:103E6000BB0085EC8093BC0064CF9091E902809107
:103E7000E802981758F5E091E90281E08E0F8093EF
:103E8000E902F0E0E853FD4F8081E9CFE091E902DB
:103E900081E08E0F8093E9028091BB00F0E0E8534F
:103EA000FD4F80839091E9028091E8029817C8F253
:103EB00085E8D8CFE091E90281E08E0F8093E90296
:103EC0008091BB00F0E0E853FD4F80838091EB02CE
:103ED00081115CCF81E08093C60284EA8093BC00AC
:103EE0001092EC0226CF85EC8093BC001092EC027D
:103EF0008091F901803230F4E091F901F0E0E7526D
:103F0000FE4F10826091F90170E0E0911403F0918E
:103F1000150389ED91E009951092F9010ACF1092ED
:103F2000EA0234CF1F920F920FB60F9211240F9016
:103F30000FBE0F901F9018951F920F920FB60F9201
:103F400011242F933F934F935F936F937F938F939E
:103F50009F93AF93BF93EF93FF93E0916102F09132
:103F600062020995FF91EF91BF91AF919F918F915F
:103F70007F916F915F914F913F912F910F900FBE65
:103F80000F901F9018951F920F920FB60F92112449
:103F90002F933F934F935F936F937F938F939F9351
:103FA000AF93BF93EF93FF93E0915A02F0915B02BE
:103FB000309709F0099514BE809160008861809364
:103FC000600088E080936000FF91EF91BF91AF9116
:103FD0009F918F917F916F915F914F913F912F9121
:103FE0000F900FBE0F901F901895E2E2F4E013823D
:103FF000128288EE93E0A0E0B0E084839583A683EC
:10400000B78323E131E03183208325EC30E035872D
:10401000248724EC30E03787268720EC30E0318B92
:10402000208B21EC30E0338B228B22EC30E0358B7F
:10403000248B26EC30E0378B268B118E128E138E5C
:10404000148EEFEBF4E01382128284839583A683AF
:10405000B78385E291E09183808340E853E46DE685
:1040600078E38BEC94E00E94ED0CE1EDF4E086E067
:10407000808387E0818385E0828361E086E00E941F
:10408000BA0861E087E00E94BA0861E085E00E941A
:10409000BA0860E086E00E948C0860E087E00E9439
:1040A0008C0860E085E00E948C08E4EDF4E083E099
:1040B000DF011D928A95E9F70E94A410E6E1F5E080
:1040C0008FEF818388E08083E3EFF4E0158E148E18
:1040D000178E168E10A211A212A280E090E1A0E02D
:1040E000B0E080879187A287B3878FEF9FE4A6E037
:1040F000B0E084879587A687B787EDEEF4E088E483
:1041000090E09183808384E0828382E08383E2EE87
:10411000F4E08EEF90E1918380838AE090E0A0E06C
:10412000B0E082839383A483B583128616821782BC
:1041300010861186E7EDF4E082EE98E191838083AA
:1041400085E090E0A0E0B0E082839383A483B58310
:10415000128616821782108611862EE020932E0575
:104160002FE02093180510924805E9E4F5E02DE3CF
:1041700036E13183208382839383A483B5831286BF
:1041800016821782108611860895CF93DF93CDB7DC
:10419000DEB7AE970FB6F894DEBF0FBECDBF7894F2
:1041A00084B5826084BD84B5816084BD85B582603C
:1041B00085BD85B5816085BD80916E0081608093ED
:1041C0006E00109281008091810082608093810056
:1041D0008091810081608093810080918000816066
:1041E000809380008091B10084608093B1008091C1
:1041F000B00081608093B00080917A0084608093E9
:104200007A0080917A00826080937A0080917A00AF
:10421000816080937A0080917A00806880937A0030
:104220001092C100E0913204F091330422E0208327
:10423000E0912E04F0912F041082E0913004F0916F
:10424000310487E0808310923A04E0913604F091C3
:10425000370486E08083E0913404F0913504808156
:1042600080618083E0913404F0913504808188601E
:104270008083E0913404F0913504808180688083EC
:10428000E0913404F091350480818F7D808385E94D
:1042900096E090939C0280939B0285E290E090933D
:1042A000A4028093A3022093A5029093A10280937D
:1042B000A00231E03093A20284B1866084B94091BB
:1042C000A502E091A302F091A402208181E090E098
:1042D000BC0102C0660F771F4A95E2F7AB0140951B
:1042E0005095242320834091A2020091A0021091B6
:1042F000A102D8012C9101C0880F4A95EAF7822BC0
:104300008C938DEA91E09093990280939802109299
:1043100008021092070210920602109205021092F3
:1043200004021092030230939A020E94100C81E55D
:1043300090E00E94EE0D80919A02882331F082E293
:1043400094E090936B0280936A0264E670E080E0F0
:1043500090E00E941B099091A202F8018081EE2456
:10436000E394F12C970102C0220F331F9A95E2F7D4
:1043700020953095822380838FEF0E94990D909134
:10438000A202D8018C9101C0EE0C9A95EAF7E82AB6
:10439000EC926CE780E00E94CA0E60E787E00E9422
:1043A000CA0E60E082E00E94CA0E60E081E00E94D6
:1043B000CA0E60E08CE10E94CA0E68E785E00E94A8
:1043C000CA0E63E083E00E94CA0E6FE784E00E9499
:1043D000CA0E6EE086E00E94CA0E0E949C0E0E94E9
:1043E000720E6CE080E00E94CA0E80919B02909158
:1043F0009C02892B21F482E793E00E94660C83E6FD
:1044000093E00E9402128BED96E090930802809355
:10441000070282E090E1909306028093050286EC09
:104420009EE0909304028093030280E091E09093D9
:104430009E0280939D021092970280E00E94F70EE8
:10444000682F6D7F80E00E94CA0E67E973E082E208
:1044500094E00E94F0110E94930981E08093F2029F
:1044600088E680931303109219031092180381E0D9
:104470000E94CB096CED73E0882311F066EE73E0C7
:1044800082E294E00E94F0110E947E116AEC73E0D7
:10449000811157C04BE050E06EEB73E0CE01019606
:1044A0000E94BB2FCE010A960E94E00C89A3E981ED
:1044B000E154E33120F50E2E000CFF0BEE59FD4DBB
:1044C0000C941C33E7247F227F22FB247F22E524E7
:1044D0007F227F227F2275227F227F22EE24F924F1
:1044E000F7247F227F227F22F5248A81813609F4F6
:1044F00068C28B818E3609F066C286E08AA3CE013F
:1045000005960E94E00C8BA348E050E065EB73E059
:10451000CE0101960E94BB2FCE0101960E94E00CB5
:104520008CA3CE0104960E94E00C8DA3CE010796C9
:104530000E94E00C8EA3CE0181960E946D0C68EA69
:1045400073E082E294E00E94F0118CE393E1909397
:1045500065028093640287E595E1909369028093F8
:1045600068021092850210928602109287021092C1
:10457000880210928102109282021092830210929D
:1045800084021092090210920A0210920B021092F9
:104590000C0210928A021092890282E090E09093BD
:1045A0006702809366021092800210927F0210923E
:1045B0008000109281008091810088618093810049
:1045C0008091800082608093800084E08093630209
:1045D00064E074E082E294E00E94DC062AE044E2B7
:1045E00054EF60E070E082E294E00E94131464EF04
:1045F00073E082E294E00E94DC066091630282E252
:1046000094E00E94DA158FB7F89423E234EF3093E8
:104610008700209386008FBF84EB96E09093620220
:1046200080936102789480916F00846080936F0022
:1046300086E192E0909315028093140226E532E021
:104640003093130220931202909311028093100270
:1046500010E210930F02109259021092580286E352
:1046600092E090930E0280930D0282E294E0909388
:104670006B0280936A0261E084E00E94BA0860E005
:1046800084E00E948C081092D4041092D5041092F9
:10469000D6040E94A41061E080E00E94E01067ED63
:1046A00074E080918B0290918C020E949D1C62EEBE
:1046B00074E00E949D1C90938C0280938B0286E193
:1046C00095E09093F4048093F30488E592E090934E
:1046D000F6048093F5041093F70481E08093F804C6
:1046E00080E290E09093FA048093F90460E574E02E
:1046F00082E294E00E94DC064091FF0450910005A4
:10470000609101057091020582E294E00E944415D7
:104710006091FF0470910005809101059091020560
:104720000091FB041091FC042091FD043091FE04E3
:10473000601B710B820B930B2091F9043091FA04EA
:1047400050E040E00E94FA326B017C0163E474E0C7
:1047500082E294E00E94DC06B60182E294E00E94CC
:104760005F148091FF0490910005A0910105B09124
:1047700002058C199D09AE09BF098093FF0490932F
:104780000005A0930105B093020567E374E082E29F
:1047900094E00E94DC064091FF0450910005609176
:1047A00001057091020582E294E00E944415009197
:1047B000F3041091F40461E0F80180810E94BA08CA
:1047C00061E0D8018C910E948C08F80181818F3FB3
:1047D00049F061E00E94BA0861E0D80111968C911D
:1047E0000E948C0881E590E00E94EE0D0E94100C62
:1047F00061E070E080E090E00E941B09C8010E9427
:104800001B10C8010E945F1060E0F80180810E94C7
:104810008C0881E00E94990D80E00E94990D61E072
:10482000D8018C910E948C0860E0F80180810E9480
:104830008C0884E00E94990D61E0D8018C910E945F
:104840008C08C8010E941B10C8010E945F1060E024
:10485000F80180810E948C0881E30E94990D80E01C
:104860000E94990D61E0D8018C910E948C0860E053
:10487000F80180810E948C0884E00E94990D61E01B
:10488000D8018C910E948C088091F804880F809345
:10489000140563E274E082E294E00E94DC06409139
:1048A000FB045091FC046091FD047091FE0482E2CF
:1048B00094E00E94441561E174E082E294E00E9479
:1048C000DC064091FF045091000560910105709154
:1048D000020582E294E00E9444158DEE94E09093EC
:1048E00004058093030584E08093EF041AE010939D
:1048F000F0048DEE94E00E94F81BE090ED04F0903F
:10490000EE048250819FE00CF11C112403EF14E0AF
:10491000F701EF5EF4407F01C701800F911F0E94F5
:104920000531D80152968C930F5F1F4FB4E00D3FB5
:104930001B0791F71092100510920F0581EA96E07F
:10494000909312058093110581E0809315050E94D4
:1049500093090E9493098FE295E00E947A1C80914E
:1049600043056BE574E0811102C060E774E082E208
:1049700094E00E94F01189E195E00E94571C80911B
:104980002D056BE574E0811102C060E774E082E2FE
:1049900094E00E94F01110925702109256028CE897
:1049A00096E09093450580934405E0918B02F09149
:1049B0008C0280E0309709F18F5F0280F381E02D57
:1049C000F9CF81E09BCD87E099CD82E097CD8B81B7
:1049D000823711F484E092CD88E090CD8B818237CC
:1049E00011F483E08BCD85E089CD89E087CD8AE025
:1049F00085CD8BE083CD8CE081CD8093480566E842
:104A000074E082E294E00E94DC066091480582E254
:104A100094E00E94DA1510914805812F90E0880FEC
:104A2000991F0E942233FC0190934705809346050D
:104A300090E0191721F0119211929F5FFACF81EB4C
:104A40009AE190937C0280937B028CEA9FE09093A2
:104A500071028093700281EF9DE090936F028093CA
:104A60006E0285E996E09093770280937602109229
:104A70006D0210927A021092790211E0109378027E
:104A800082E294E090936B0280936A0284E994E05E
:104A90000E94021210936D02ECE1F3E0F8A7EFA37D
:104AA0007F010EE310E0C8010E940531D7018D930C
:104AB0007D010F5F1F4F04341105A9F70E94F11506
:104AC00060E082E00E94BA080E946808892B09F021
:104AD00078C260ED77E080E090E00E941B090E94C0
:104AE0006808892B09F06DC26FE277E082E294E0FA
:104AF0000E94F01162E475E082E294E00E94F011FD
:104B00006FE075E082E294E00E94F0116CED74E0D9
:104B100082E294E00E94F01169EA74E082E294E09B
:104B20000E94F01169E975E082E294E00E94F011C0
:104B300064E875E082E294E00E94F01165E775E0B8
:104B400082E294E00E94F011772473940E94B414DE
:104B5000182F813009F088C168EF75E082E294E097
:104B60000E94F01167EE75E082E294E00E94F0117D
:104B70006DED75E082E294E00E94F01162ED75E067
:104B800082E294E00E94F0116EEB75E082E294E024
:104B90000E94F0116BEA75E082E294E00E94F0114D
:104BA0000E94B414833009F44AC180F4813009F4BE
:104BB000A1C060E976E0823079F3811152C16CE5E1
:104BC00076E082E294E00E94F011C0CF843009F4D4
:104BD0003FC1853091F76EE676E082E294E00E9474
:104BE000F0117AE9872E79E9972E79E1A72E7FE3F4
:104BF000B72EC12CD12CE0E8EE2EEFE3FE2E00E024
:104C000010E42CE935E440E050E06AE774E48EE219
:104C100095E00E94F61C212C312CFAE74F2EF4E48B
:104C20005F2E209237053092380540923905509218
:104C30003A056DEC7CEC8CE890E460933F05709352
:104C400040058093410590934205AB01BC018EE283
:104C500095E00E94F21960933B0570933C058093A8
:104C60003D0590933E05709243058FE295E00E94CA
:104C7000C71B812C912CA8ECAA2EA2E4BA2EC12C21
:104C8000D12CB0E2EB2EB1E4FB2E00E010E020E8E6
:104C90003FE34AE959E969E270E488E195E00E945E
:104CA000F61C209221053092220540922305509255
:104CB00024058DEC9CECACE6B0E480932905909340
:104CC0002A05A0932B05B0932C05AC01BD0188E10A
:104CD00095E00E94F2196093250570932605809354
:104CE00027059093280570922D0589E195E00E9493
:104CF000961B56CF6BEA76E082E294E00E94F011B8
:104D00006BE376E082E294E00E94F011C090FB0435
:104D1000D090FC04E090FD04F090FE048CE0F6944A
:104D2000E794D794C7948A95D1F716018091FF0430
:104D300090910005A0910105B09102052CE0B69577
:104D4000A795979587952A95D1F72C018601102F65
:104D500000271295107F42145304C8F066E276E0F3
:104D600082E294E00E94DC06B10182E294E00E94BB
:104D70005F14A80170E060E08091F3049091F40466
:104D80000E947510BFEF2B1A3B0A105FE4CFB701EA
:104D9000A60114E0440F551F661F771F1A95D1F71F
:104DA000407F6F7077278091F3049091F4040E9404
:104DB00099198091FB049091FC04A091FD04B0919D
:104DC000FE048093050590930605A0930705B09314
:104DD00008058093090590930A05A0930B05B093ED
:104DE0000C058091FF0490910005A0910105B09100
:104DF00002050CE0B695A795979587950A95D1F78A
:104E000090930E0580930D056BE076E082E294E0CE
:104E10000E94DC0660910D0570910E0582E294E01F
:104E20000E945F1480910305909104050E94C711B0
:104E300080910305909104050E94161CB1CE69E88B
:104E400076E082E294E00E94F01110921D03A8CE59
:104E500061E876E082E294E00E94F01170921D0316
:104E60009FCE60E576E098CE823009F085C06EED89
:104E700070E082E294E00E94F01169EC70E082E25E
:104E800094E00E94F01162EC70E082E294E00E94F3
:104E9000F01160E077E082E294E00E94DC0662E0DC
:104EA000C62ED12C6624639450EE852E53E9952EA0
:104EB00054E0A52EB12C82E294E00E949007892B49
:104EC00069F491E0891A9108A108B10839F061E00C
:104ED00070E080E090E00E941B09EDCF0E94220E5E
:104EE0008E010F5F1F4F780197FD06C0D8018D938B
:104EF0008D010E94220EF8CFF8011082C7010E9496
:104F00008617F2E0C7016F1619F10E94942F709373
:104F10001F0360931E036FED76E082E294E00E942F
:104F2000F01160911E0370911F0382E294E00E94D1
:104F30005F14CA94CD28E9F06BEE76E082E294E04B
:104F40000E94DC06CC24C394D12C42E0642EACCF6A
:104F50000E94762F90932103809320036EEC76E0DD
:104F600082E294E00E94F01160912003709121038D
:104F7000DCCF6BEB76E025CE6EE177E082E294E069
:104F80000E94F0111111E2CD6DE077E082E294E031
:104F90000E94F01188EC80931C030EE310E0AFA197
:104FA000B8A56D91B8A7AFA31A830983CE01019666
:104FB0000E947D1B0F5F1F4F0434110581F70E9473
:104FC000F11569E475E080918B0290918C020E944A
:104FD0009D1C90938C0280938B026DE377E082E2BC
:104FE00094E00E94DC0660E070E282E294E00E94BD
:104FF0005F149FB7F89414BE80916000886180931D
:10500000600081E2809360009FBF789410925B0201
:1050100010925A0268EE73E080E090E00E941B0953
:1050200084E591E00E9486171092960210929502F4
:105030008E010F5F1F4F22E0622E712C4424439497
:10504000512C80919502909196028130910509F43E
:10505000A0C008F497C08230910509F49DC0049760
:1050600009F49DC08091950290919602813091053E
:1050700009F4F4C008F496C08230910509F421C106
:10508000039709F024C7E091F504F091F6048081BC
:105090009181892B09F460C3E0911105F09112050B
:1050A000309709F009958091F3049091F40498A742
:1050B0008FA32090F9043090FA04E091F504F09168
:1050C000F604A081B181BEA7ADA7809005059090A0
:1050D0000605A0900705B0900805C4019927E0E0F7
:1050E000F1E0E81BF90BCF01D12CC12C21143104C4
:1050F00009F48BC271018215930508F47C018FA11C
:1051000098A50E941B108FA198A50E945F1060E0D7
:10511000AFA1B8A58C910E948C0882E00E94990DE5
:105120008A2D0E94990D892D0E94990D882D0E942B
:10513000990DEDA5FEA5EC0DFD1DFCA7EBA7FAA7AB
:10514000E9A7A9A5BAA58D91BAA7A9A70E94990D0B
:1051500089A59AA5EBA5FCA58E1B9F0B8E159F0517
:1051600080F361E0AFA1B8A58C910E948C088E0CF1
:105170009F1CA11CB11CCE0CDF1C2E183F0880E028
:1051800091E0B4CF6CE477E082E294E00E94F01109
:1051900069CF67E877E0F8CF62E777E0F5CF64E6BC
:1051A00077E0F2CF65E37BE082E294E00E94F011C9
:1051B00065ED77E082E294E00E94F01180E00E94C9
:1051C000F70EF82E6FEC77E082E294E00E94DC06A6
:1051D0002F2D30E03595279535952795237033276A
:1051E00081E090E0232B11F490E080E00E9498147D
:1051F00069EC77E082E294E00E94DC0681E090E0D6
:105200000E94981461EC77E082E294E00E94DC0650
:1052100081E090E00E94981463EB77E082E294E0F2
:105220000E94DC0681E090E00E9498146DE977E02E
:1052300082E294E00E94F011509296024092950210
:10524000A89520E030E0232B09F4FBCE0E949C07B8
:10525000882309F4F6CE0E940000F0CE62E083E0DD
:105260000E94BA08E7EAF6E1F0930801E09307012B
:1052700080916900837F886080936900E99A8091BA
:10528000600080648093600010927E0210927D0224
:105290008091200390912103B0E0A0E08093D90495
:1052A0009093DA04A093DB04B093DC046BEE77E018
:1052B00082E294E00E94F011709296026092950250
:1052C000BFCF0E94FD16609391027093920280936B
:1052D0009302909394028091910290919202A091F6
:1052E0009302B0919402892B8A2B8B2B09F4A8CFBF
:1052F0006EE678E082E294E00E94F0119E012F5F5A
:105300003F4F69017901BAE28B2E912C5901C401FA
:105310000E940531D7018D937D01BFEF8B1A9B0A47
:10532000E2E38E16910499F768E0C6010E94B81571
:105330008E81883C09F0AAC08F818C3C09F0A6C000
:1053400088E998E00E94021285E0F501ACE5B2E040
:1053500001900D928A95E1F78FEB98E00E9402127E
:1053600065E08CE592E00E94B81560919102709121
:1053700092028091930290919402611571058105CA
:10538000910509F4FCC060938502709386028093B6
:10539000870290938802E0916802F0916902309749
:1053A00009F00995109267021092660280918100BF
:1053B000887F809381008091810090916302892B86
:1053C00080938100E0906602F090670263E079E0EC
:1053D00082E294E00E94DC06F1E0EF16F10409F4A9
:1053E0000EC108F405C132E0E316F10409F40AC164
:1053F0006FED78E082E294E00E94F0114091850226
:10540000509186026091870270918802C5010E94C6
:10541000ED0C86E0F501ABECB4E001900D928A95BD
:10542000E1F78091CE048093800280937F020E94F6
:10543000281363E070E07093960260939502809168
:10544000850290918602A0918702B0918802809394
:10545000910290939202A0939302B0939402809150
:10546000910290919202A0919302B0919402809344
:105470008D0290938E02A0938F02B093900262E20D
:105480007BE082E294E00E94F011DACE83E898E0BB
:105490000E9402128AEC98E00E94021262E080E010
:1054A0000E94250F62E070E080E090E00E941B09FE
:1054B0000E94B10F48E0B6018CEC0E9409127C01F9
:1054C000892B09F457C086E698E00E94660C65E0D7
:1054D000C7010E94B8158EE598E00E94660CD701BE
:1054E00015968C910E94361684E598E00E94660C11
:1054F000F70186810E94361688E498E00E94660CC7
:10550000D70117968C910E943616F7019701295FF3
:105510003F4F90E080E04191840F911D2E173F078F
:10552000D1F7F7019781981322C087E398E00E9492
:1055300002126BEA78E082E294E00E94F011AAE2A3
:10554000EA2EF12CD6016D916D01FAA2E9A2CE01ED
:1055500081960E947D1BBFEFEB1AFB0AE2E3EE1679
:10556000F10481F768E0C5010E94B815EDCE82E232
:1055700098E0DDCF82E198E00E94660CDACFE091FE
:105580006402F0916502309731F10995611571055A
:105590008105910569F0609385027093860280937E
:1055A0008702909388025092670240926602FECE74
:1055B0001092850210928602109287021092880241
:1055C00070926702609266026BE179E082E294E099
:1055D0000E94F011EBCE109285021092860210927A
:1055E0008702109288027092670260926602DECE95
:1055F00068EF78E082E294E00E94DC06F9CE6DEE7E
:1056000078E0F8CF64EE78E0F5CFE0910F05F09107
:105610001005309709F00995809115058823C9F088
:1056200063E879E082E294E00E94DC06409105059F
:105630005091060560910705709108052AE082E205
:1056400094E00E9413146FE779E082E294E00E94F4
:10565000F0112091F9043091FA04809105059091A0
:105660000605A0910705B0910805820F931FA11DA3
:10567000B11D8093050590930605A0930705B0938F
:1056800008054091FF04509100056091010570915B
:10569000020584179507A607B70708F450C0809144
:1056A000FB049091FC04A091FD04B091FE04809352
:1056B000050590930605A0930705B09308056AE6D3
:1056C00079E082E294E00E94DC0640910505509169
:1056D00006056091070570910805ECE076956795E1
:1056E00057954795EA95D1F782E294E00E944415D8
:1056F00040910505509106056091070570910805D8
:105700008091F3049091F4040E9475108091050536
:1057100090910605A0910705B0910805FCE0B695AB
:10572000A79597958795FA95D1F790930E05809355
:105730000D0580910305909104050E94161C80912F
:1057400013059091F804890F80931305E091F504F7
:10575000F091F60411821082909113058091140546
:10576000981708F471C06DE479E082E294E00E9439
:10577000F0118091050590910605A0910705B09163
:1057800008053CE0B695A795979587953A95D1F78A
:1057900020910D0530910E052817390709F04CC0EE
:1057A0007C01EFEFEE1AFE0A8091FF049091000554
:1057B000A0910105B09102052CE0B695A7959795AB
:1057C00087952A95D1F78E159F05B0F163E379E0AF
:1057D00082E294E00E94DC06B70182E294E00E943B
:1057E0005F14A70170E060E0BCE0440F551F661F26
:1057F000771FBA95D1F78091F3049091F4040E9439
:105800007510F0920E05E0920D05809103059091C0
:1058100004050E94161C40910D0550910E0584E070
:10582000440F551F8A95E1F770E060E08091F30422
:105830009091F4040E9499198091030590910405B8
:105840000E94161C1092130580917D0290917E0299
:105850008130910509F453C070F0029709F462C0D9
:105860006FEF79E082E294E00E94F01110927E02E4
:1058700010927D02C5C08091850290918602A09110
:105880008702B09188028093910290939202A09334
:105890009302B09394028091910290919202A09110
:1058A0009302B091940240918D0250918E026091CA
:1058B0008F0270919002841B950BA60BB70B0F976C
:1058C000A105B10508F49CC08091910290919202CB
:1058D000A0919302B091940280938D0290938E02D6
:1058E000A0938F02B093900250927E0240927D026C
:1058F00061E57AE082E294E00E94F01181C0A3E0C9
:10590000FA2E0E94FD16672B682B692B09F0E4C262
:10591000FA94F110F6CF10927E0210927D026AE3A3
:105920007AE0E8CF68E27AE082E294E00E94F01147
:10593000F12CE12CDD24D394E0917B02F0917C02E8
:10594000099590937A0280937902892B09F445C0D6
:1059500080917802882369F0E0917602F0917702D5
:10596000099560937202709373028093740290930E
:105970007502E0917002F09171028091790290912C
:105980007A020995E0916E02F0916F0209952091DB
:105990007802883C910509F0A1C0D0926D02FFEF1A
:1059A000EF1AFF0A2223C9F0E0917602F091770204
:1059B000099580917202681B60936C028AEB99E0F2
:1059C0000E94660C40916C0250E070E060E08091B3
:1059D0006A0290916B020E94441580917902909125
:1059E0007A02892B09F483C080916D028111A4CFC2
:1059F000E114F10409F07EC050927E0240927D02D3
:105A000080917D0290917E028130910509F489C0D8
:105A1000029709F48DC08091890290918A028130A9
:105A2000910509F4B6C008F486C08230910509F4E6
:105A30002EC2039709F43CC2C0908B02D0908C0216
:105A4000E0904605F0904705E0914405F09145054A
:105A50000995D601ED91FC9186809780A084B18450
:105A60009B01AC01281939094A095B09828093809E
:105A7000A480B580281539054A055B0508F423C2C2
:105A80006683778380879187D701ED93FD937D01AE
:105A9000D6011296CD90DC90C114D104D1F6E091DC
:105AA0004605F091470580819181892B09F4C8CB87
:105AB0007F01D12C80914805D81608F0C1CBD701C1
:105AC000ED91FC91309721F00190F081E02D099546
:105AD000F701119211927F01D394ECCF222321F090
