:020000040000FA
:100000000C9446060C94011F0C94DA1E0C944720A5
:100010000C9447200C9447200C9478200C946E0686
:100020000C946E060C946E060C946E060C946E0680
:100030000C9451200C946E060C946E060C946E0673
:100040000C94901E0C946E060C945E1E0C94381E3C
:100050000C946E060C946E060C946E060C946E0650
:100060000C94281F0C946E0608000000BE922449D0
:10007000123EABAAAA2ABECDCCCC4C3E00000080DA
:10008000BEABAAAAAA3E00000000BF000000803F4D
:100090000000000000084178D3BB4387D1133D190D
:1000A0000E3CC3BD4282AD2B3E68EC8276BED98F3A
:1000B000E1A93E4C80EFFFBE01C4FF7F3F0000007E
:1000C000000007634236B79BD8A71A39685618AEA6
:1000D000BAAB558C1D3CB7CC5763BD6DEDFD753E7D
:1000E000F6177231BF000000803F332E2055524C6E
:1000F00000322E2053616D706C696E6720496E74FA
:10010000657276616C00312E2044657669636520E6
:1001100049440047657474696E67205254432074E3
:10012000696D65005570646174696E67205254434F
:100130002054696D65005254432074696D652069CF
:100140007320757064617465640052544320536574
:10015000633A20004E524620454550524F4D2053A1
:100160006176696E672E2E003C504F5745525F44B2
:100170004F574E3E003C5354414E444259313E008D
:100180003C54584D4F44453E003C5354414E44422C
:1001900059323E003C52584D4F44453E0043455F66
:1001A00050494E203A20003C6D61785F72745F695F
:1001B00072713E003C72785F6972713E003C7478E7
:1001C0005F6972713E004E5246205354415455535C
:1001D0003A000D0A0020200050696E6720466169D0
:1001E0006C656400436865636B73756D206D69733E
:1001F0006D61746368004D657468616E65203A20B6
:1002000000416D6D6F6E6961203A200048756D691F
:1002100064697479203A200054656D706572617468
:10022000757265203A20004944203A200054696DD7
:1002300065203A20003C2D2D2D2D2D2D2D2D2D53BB
:10024000656E736F7220446174612D2D2D2D2D2DDF
:100250002D2D2D2D2D2D2D2D2D2D2D3E0072616D31
:100260005120436F756E746572203A0043616C696A
:100270006220536176696E6720666F72206D7134FB
:100280000043616C696220526164696E6720666F29
:1002900072206D71340043616C696220536176692C
:1002A0006E6720666F72206D713133350043616C6B
:1002B000696220526164696E6720666F72206D7199
:1002C00031333500496E70757420436D64203A00F7
:1002D0004275666665723A20002D2D3E003C2D2D3C
:1002E000466C61736820526561643A002D2D2D2D96
:1002F0002D3E52656164204D656D203A204F6C643F
:100300000063203A20006D203A200043616C69624E
:10031000726174696E672E2E001F1C1F1E1F1E1F28
:100320001F1E1F1E00000000240027002A000000DE
:100330000000250028002B004E524620536574759E
:100340007020646F6E65005F4D696C6C6973206925
:1003500073206E756C6C2C206E6565642074696DFD
:10036000652066756E6374696F6E730052616469AF
:100370006F20736574757020646F6E65005254430E
:100380002041646A75737465640031343A33333ADA
:100390003130004D61722020312032303231002D59
:1003A0002D3E5254432069732052756E6E696E67FC
:1003B0000052544320466F756E6400525443204EE1
:1003C0006F7420466F756E6400207C2050726573D8
:1003D00063616C6572203A200054696D657241203A
:1003E000746F70203A00466C61736820456E64201B
:1003F00041646472203A2000466C61736820537433
:100400006172742041646472203A20004C617374FC
:1004100020416464723A20004C656674204279740D
:1004200065203A2000656E6420736563203A2000E1
:1004300053656E736F722069732043616C696272D9
:10044000617465640053656E736F72206E6F742003
:1004500043616C6962726174656400546F74616CAD
:10046000205461736B733A20006173796E63586630
:10047000657220736574757020646F6E65007C2DE5
:100480002D2D2D2D2D2D2D2D2D2D2D2D2D2D2D2D9C
:100490002D2D2D2D2D2D2D2D2D2D2D2D2D2D2D2D8C
:1004A0002D2D2D2D2D2D2D2D2D2D2D2D2D2D2D7C2D
:1004B000007C2020202020202020412050726F64CA
:1004C000756374206F662041646F7273686F20508B
:1004D00072616E697368656261202020202020208F
:1004E00020207C007C202020202020202020202074
:1004F00020202020202020204761732053656E7328
:100500006F7220202020202020202020202020204A
:1005100020202020207C007C2D2D2D2D2D2D2D2DDB
:100520002D2D2D2D2D2D2D2D2D2D2D2D2D2D2D2DFB
:100530002D2D2D2D2D2D2D2D2D2D2D2D2D2D2D2DEB
:100540002D2D2D2D2D2D2D2D7C00302E2045786923
:100550007420436F6E66696700322E2050617261AD
:100560006D657465722053657474696E6700312E11
:10057000204465766963652053657474696E67000D
:10058000302E2045786974205365747570204D6550
:100590006E7500352E2043616C696272617465204E
:1005A00053656E736F7200342E204C6F67204F6658
:1005B0006600332E204C6F67204F6E00322E20468F
:1005C0006163746F727920526573657400312E20F7
:1005D000526573657420466C617368204D656D00CB
:1005E00072696E674275666665722E6572617365C3
:1005F00064536563746F72203A20002D2D3E45725E
:100600006173696E6720536563746F72203A2000CE
:1006100045726173696E6720466C6173682042752C
:100620006666657200446F6E650045726173696E3F
:100630006720436869702E2E005265736574746973
:100640006E67205458204164647200466163746F81
:10065000727920526573657474696E67204465769B
:100660006963652E2E00556E6B6E6F776E20636D1D
:100670006400457869746564204465766963652023
:10068000436D640043616C6962726174696E6720D6
:1006900053656E736F722E2E004C6F67204F666627
:1006A000004C6F67204F6E0045726173696E672062
:1006B000466C6173682E2E00457869742050617213
:1006C000616D2053657474696E670053616D706C61
:1006D000696E6720496E74657276616C203A2000FD
:1006E000446576696365204964203A20002D2D2DEC
:1006F0002D3E4578697420436F6E66696700556EBC
:100700006B6E6F776E206D61696E20636D6400455E
:100710004E54455245442053455455500057445477
:100720002054696D65286D7329203A006D5F53541C
:100730004154453A20434845434B5F484152445752
:10074000415245006D5F53544154453A2053594E30
:10075000435F444556494345006D5F5354415445FA
:100760003A2053544152545F444556494345003C56
:100770002D2D2D2D2D2D2D2D2D2D2D2D2D2D2D2DA9
:100780002D2D2D3E004C6F67696320506F77657289
:100790003A2000466C617368203A005254433A2074
:1007A000004E5246203A003C2D2D4861726477611C
:1007B0007265205374617475732D2D3E002D2D2D9F
:1007C0002D2D2D2D2D2D2D2D2D2D2D3E53616D706B
:1007D0006C6520496E74657276616C207570646119
:1007E000746564002D2D2D3E00554E53594E4345E2
:1007F00044005254435F53594E434544004E5450B5
:100800005F53594E434544003C2D2D54696D65722C
:100810002073796E6320537461747573203A2000DD
:10082000556E73796E63656420616E642052544323
:10083000204661696C6564004E54502054696D65B2
:100840003A20004164647220526376204661696CEC
:10085000656400436865636B73756D206E6F74200B
:100860006D61746368656400436865636B73756D7F
:10087000206D61746368656400436865636B7375BC
:100880006D203A20006F70636F6465203A20007419
:10089000797065203A200041646472203A20004E4D
:1008A000524620454550524F4D2052656164696E55
:1008B000672E2E00446576696365206873206E6F2D
:1008C00020616464726573730044657669636520B2
:1008D00068617320616464726573730054582041C9
:1008E000646472203A200047657474696E67204121
:1008F0006464722066726F6D204253003E3E3E413A
:1009000064762E2045726173696E67205365637447
:100910006F72203A20003C3D3D5570646174696EF1
:100920006720464C61736820506F696E7465723D34
:100930003D3E003E3E3E45726173696E67205365E1
:1009400063746F72203A20002D2D3E003C2D2D4601
:100950006C6173682057726974653A00545820526C
:100960006561647920666F72205472616E736D697F
:1009700074002D2D2D2D2D3E546F74616C20586602
:100980006572205061636B6574203A20005866657B
:10099000723A4661696C656400586665723A5375CF
:1009A00063636573737C54696D653A0072756E5349
:1009B00074617465203A2052554E5F54585F584612
:1009C00045520072756E5374617465203A20525519
:1009D0004E5F43484B5F42535F434F4E4E002D2DB9
:1009E0003E4163636964656E74616C204465666151
:1009F000756C74206D6F646500476F696E67207455
:100A00006F20576169740072756E203A2052554EFE
:100A10005F54585F58464552003C3D3D4253204E7E
:100A20006F7420436F6E6E65637465643D3D3E0078
:100A300054696D6520746F20646174612073656E04
:100A400064004A616E4665624D61724170724D612B
:100A5000794A756E4A756C4175675365704F63745A
:100A60004E6F764465630053756E4D6F6E547565B9
:100A7000576564546875467269536174002020207C
:100A800020202020207C0D0A7C2D2D2D2D2D2D2D7C
:100A90002D2D2D2D2D2D2D2D2D2D2D2D2D2D2D2D86
:100AA0002D2D2D2D2D2D2D2D2D2D2D2D2D7C007C05
:100AB0002D2D2D2D2D2D2D2D2D2D2D2D2D2D2D2D66
:100AC0002D2D2D2D2D2D2D2D2D2D2D2D2D2D2D2D56
:100AD0002D2D2D2D7C0D0A7C202020202020202053
:100AE00020004461696C79205363686564756C65A6
:100AF00000486F75726C79205363686564756C6526
:100B000000446576696365206973206E6F742063A5
:100B10006F6E6669677572656400646F6E65203A12
:100B2000200061697252735230203A200052302006
:100B30003A2000524C203A20006D203A20006320D9
:100B40003A20003C2D2D4D512043616C6962726149
:100B500074696F6E2D2D2D2D3E004E52462051751D
:100B6000657279204163636570746564004E524616
:100B700020517565727920526563656976656400F8
:100B80005175657279205375636365737366756C0F
:100B900021000000000023002600290004040404B2
:100BA0000404040402020202020203030303030317
:100BB00001020408102040800102040810200102F4
:100BC00004081020000000080002010000030407D0
:100BD00000000000000000002D2D2D2D2D2D2D2DAD
:100BE0002D2D2D2D2D2D2D2D2D2D2D2D2D2D00523D
:100BF0006567697374726174696F6E3A2000446549
:100C0000627567204F66663A200053616D70204917
:100C10006E74657276616C3A20004465766963652E
:100C20002049643A20007C2044657669636520434E
:100C30006F6E66696720506172616D207C0D0A2DB0
:100C40002D2D2D2D2D2D2D2D2D2D2D2D2D2D2D2DD4
:100C50002D2D2D2D2D002D2D2D2D2D2D2D2D2D2DF1
:100C60002D2D2D2D2D2D2D2D2D2D2D2D0052656150
:100C7000642050616765203A200044756D70696E8C
:100C8000672050616765203A2000AA2011241FBE0A
:100C9000CFEFD8E0DEBFCDBF25E0AAE7B1E001C0CD
:100CA0001D92A835B207E1F711E0A0E0B1E0EEEA4D
:100CB000FCE602C005900D92AA37B107D9F716E0FD
:100CC000C6E4D6E004C02197FE010E941035C53469
:100CD000D107C9F70E947A210C9455360C94000074
:100CE0000895089590911B0380911A032FEF3FEF11
:100CF000981748F4E92FF0E0EA55FD4F208130E0E5
:100D00009F5F90931B03C901089590911B038091ED
:100D10001A032FEF3FEF981748F4E92FF0E0EA5558
:100D2000FD4F208130E09F5F90931B03C901089520
:100D300080911A0390911B03891B990B0895609170
:100D400085027091860280918702909188020895B1
:100D50002FB7F8946091FB017091FC018091FD0127
:100D60009091FE012FBF08953091A502E091A3025A
:100D7000F091A402208181E090E002C0880F991FC9
:100D80003A95E2F78095909582238083089580912B
:100D9000850290918602A0918702B0918802019607
:100DA000A11DB11D8093850290938602A0938702B6
:100DB000B09388028091090290910A02A0910B02DF
:100DC000B0910C020196A11DB11D80930902909370
:100DD0000A02A0930B02B0930C0208950895EF92BB
:100DE000FF920F931F93CF93DF938C017B01D0E091
:100DF000C0E0F701EC0FFD1F6491662361F0D8019C
:100E0000ED91FC910190F081E02DC8010995892BAD
:100E100011F02196EECFCE01DF91CF911F910F916E
:100E2000FF90EF900895AF92BF92CF92DF92EF9232
:100E3000FF920F931F93CF93DF936C017B018B0184
:100E4000040F151FEB015E01AE18BF08C017D107D4
:100E500059F06991D601ED91FC910190F081E02D5E
:100E6000C6010995892B79F7C501DF91CF911F91B3
:100E70000F91FF90EF90DF90CF90BF90AF900895CB
:100E8000FC01538D448D252F30E0842F90E0821B90
:100E9000930B541710F0CF96089501970895FC0115
:100EA000918D828D981761F0A28DAE0FBF2FB11D6D
:100EB0005D968C91928D9F5F9F73928F90E00895C5
:100EC0008FEF9FEF0895FC01918D828D981731F07F
:100ED000828DE80FF11D858D90E008958FEF9FEFD3
:100EE00008950F931F930E94A80660932A0470939D
:100EF0002B0480932C0490932D0482E294E00E94B2
:100F0000630797FF1DC00E94A80600912A04109154
:100F10002B0420912C0430912D04601B710B820B4B
:100F2000930B0091260410912704209128043091FE
:100F300029046017710782079307F8F28FEF9FEF7C
:100F40001F910F910895FC01918D228D892F90E0C2
:100F5000805C9F4F821B91098F739927089582E2CD
:100F600094E00E94A30721E0892B09F420E0822F5E
:100F7000089580E090E0892B29F00E94AF0781114D
:100F80000C9400000895FC01A48DA80FB92FB11D89
:100F9000A35ABF4F2C91848D90E001968F739927AF
:100FA000848FA689B7892C93A089B1898C9183708D
:100FB00080648C93938D848D981306C00288F38986
:100FC000E02D80818F7D80830895EF92FF920F93B3
:100FD0001F93CF93DF93EC0181E0888F9B8D8C8DE5
:100FE00098131AC0E889F989808185FF15C09FB7D9
:100FF000F894EE89FF896083E889F989808183709C
:10100000806480839FBF81E090E0DF91CF911F914A
:101010000F91FF90EF900895F62E0B8D10E00F5F6B
:101020001F4F0F731127E02E8C8D8E110CC00FB641
:1010300007FCFACFE889F989808185FFF5CFCE01D9
:101040000E94C307F1CFEB8DEC0FFD2FF11DE35A8A
:10105000FF4FF0829FB7F8940B8FEA89FB8980815C
:101060008062CFCFCF93DF93EC01888D8823B9F0D6
:10107000AA89BB89E889F9898C9185FD03C08081A3
:1010800086FD0DC00FB607FCF7CF8C9185FFF2CF20
:10109000808185FFEDCFCE010E94C307E9CFDF91AC
:1010A000CF910895833081F028F4813099F0823017
:1010B000A9F008958730A9F08830C9F08430B1F4E0
:1010C000809180008F7D03C0809180008F77809316
:1010D0008000089584B58F7784BD089584B58F7D91
:1010E000FBCF8091B0008F778093B00008958091FE
:1010F000B0008F7DF9CFCF93DF93E6ECFBE08491D6
:10110000E2EBFBE0D491EEE9FBE0C491CC23A1F04B
:1011100081110E945208EC2FF0E0EE0FFF1FEE56F7
:10112000F44FA591B491EC91ED2381E090E009F4A6
:1011300080E0DF91CF91089580E090E0FACF1F9397
:10114000CF93DF93282F30E0F901EC53F44F8491D3
:10115000F901E055F44FD491F901E456F44FC491EC
:10116000CC23A9F0162F81110E945208EC2FF0E039
:10117000EE0FFF1FE25DFC4FA591B4918FB7F8947D
:10118000EC91111108C0D095DE23DC938FBFDF9165
:10119000CF911F910895DE2BF8CFCF93DF9390E08E
:1011A000FC01E055F44F24918456944FFC01849146
:1011B0008823C9F090E0880F991FFC01EC5DFC4F7B
:1011C000A591B491FC01E25DFC4FC591D4916111F0
:1011D0000DC09FB7F8948C91209582238C938881C1
:1011E000282328839FBFDF91CF910895623051F467
:1011F0009FB7F8943C91822F809583238C93E8814C
:101200002E2BEFCF8FB7F894EC912E2B2C938FBF12
:10121000EACF3FB7F8948091FF0190910002A0912E
:101220000102B091020226B5A89B05C02F3F19F01C
:101230000196A11DB11D3FBFBA2FA92F982F882756
:10124000BC01CD01620F711D811D911D42E0660F31
:10125000771F881F991F4A95D1F708958F929F9203
:10126000AF92BF92CF92DF92EF92FF924B015C015F
:101270000E9409096B017C010E9409096C197D0912
:101280008E099F09683E734081059105A8F321E00E
:10129000821A9108A108B10888EEC80E83E0D81E12
:1012A000E11CF11C81149104A104B10429F7FF9001
:1012B000EF90DF90CF90BF90AF909F908F90089568
:1012C00008952091D701260F3327331F213231058E
:1012D000ECF42091EC02FC0190E080E0243069F015
:1012E00082E00895A091D7012191AC0149545E4F4D
:1012F000A40FB52FB11D2C930196861798F38091FA
:10130000D701680F6093D70180E0089581E00895C8
:101310001092EC0281E08093EB021092C60261E031
:1013200082E10E949F0861E083E10E949F08E9EB4F
:10133000F0E080818E7F808380818D7F808388E450
:101340008093B80085E48093BC00089510921B033D
:1013500010921A0310921903109218030E94880920
:1013600080E796E0909317038093160381E796E059
:1013700090931503809314030895CF93DF9391E026
:101380009093B6018823B9F0C091B800D091BA000B
:101390008091BC008A7B8093BC0060E082E10E9467
:1013A0009F0860E083E10E949F080E948809D09313
:1013B000BA00C093B800DF91CF910895CF92DF9229
:1013C000EF92FF920F931F93CF93DF93D091180367
:1013D00081E0D13208F09CC0C09113030E9409093A
:1013E0006B017C018091EC0281116CC082E08093E2
:1013F000EC0281E08093EB028FEF8093EA0210927F
:10140000E902D093E802A3EFB2E0E8ECF2E080E07A
:10141000D8138DC01092C7028091C702CC0FC82B81
:10142000C093C7028091C602813009F084C0109237
:10143000C6020E9409096B017C018091C70280935A
:10144000BB008091EE029091EF02A091F002B0916A
:10145000F102892B8A2B8B2BA1F00E9409090091A4
:10146000EE021091EF022091F0023091F1026C191E
:101470007D098E099F09061717072807390708F401
:1014800042C08091BC0083FDD8CF85EC8093BC0026
:101490000E9409096B017C018091EC02823009F401
:1014A0004CC08091EA028F3F09F469C08091EA0242
:1014B000803209F466C08091EA02803309F463C087
:1014C00084E026C08091EE029091EF02A091F0029C
:1014D000B091F102892B8A2B8B2B09F483CF0E94C8
:1014E00009090091EE021091EF022091F002309173
:1014F000F1026C197D098E099F0906171707280745
:10150000390708F06FCF8091ED020E94BD0985E098
:1015100010921903109218031092F202DF91CF91EA
:101520001F910F91FF90EF90DF90CF9008959D91C4
:1015300091938F5F6DCF85EEA9CF8091EE02909150
:10154000EF02A091F002B091F102892B8A2B8B2B34
:1015500009F4A2CF0E9409090091EE021091EF0256
:101560002091F0023091F1026C197D098E099F09DA
:10157000061717072807390708F08ECFC4CF80E079
:10158000C7CF82E0C5CF83E0C3CF0895E0911B03AE
:1015900080911A03E81730F4F0E0EA55FD4F80819E
:1015A00090E008958FEF9FEF0895CF92DF92EF9232
:1015B000FF920F931F93CF93DF937C01CB018A019E
:1015C0002091F202222389F0EB016B01C40ED51E9B
:1015D000CC15DD0569F06991D701ED91FC91019081
:1015E000F081E02DC7010995F3CF642F0E946109B6
:1015F000C801DF91CF911F910F91FF90EF90DF9085
:10160000CF900895CF93DF931F92CDB7DEB7698354
:101610002091F2022223F9F020911803203258F091
:1016200021E030E0FC013383228390E080E00F90E2
:10163000DF91CF91089580911903E82FF0E0ED50EC
:10164000FD4F998190838F5F8093190380931803D6
:1016500081E090E0ECCF61E0CE0101960E9461094B
:10166000F7CFCF93CFB7F8948091B501811127C000
:10167000E6EAFBE08491EAEBFBE09491E82FF0E0EE
:10168000EE0FFF1FEC5DFC4FA591B491EC91E923A7
:1016900021F461E08AE00E949F0861E08AE00E94F4
:1016A000CD088CB580618CBD8CB580648CBD61E04B
:1016B0008DE00E94CD0861E08BE00E94CD08809112
:1016C000B5018F5F8093B501CFBFCF91089590E0B2
:1016D00080E008950CB405FC0DC09EBD00000DB463
:1016E00007FEFDCF9EB58EBD00000DB407FEFDCFF9
:1016F0008EB508958EBD00000DB407FEFDCF8EB5EA
:101700009EBD00000DB407FEFDCF9EB50895BC013F
:1017100080916A0290916B020C94EF061F93CF9315
:10172000DF93EC0181E08093F20288E6809313035B
:10173000109219031092180360E08FEB94E00E945E
:10174000020B2D811AE0822F612F0E94CE34682F68
:10175000660F680F660F620F8FEB94E00E94020B1A
:101760002C81822F612F0E94CE34682F660F680F64
:10177000660F620F8FEB94E00E94020B2B81822F89
:10178000612F0E94CE34682F660F680F660F620FBC
:101790008FEB94E00E94020B60E08FEB94E00E94DC
:1017A000020B2A81822F612F0E94CE34682F660F90
:1017B000680F660F620F8FEB94E00E94020B298185
:1017C000822F612F0E94CE34682F660F680F660F3C
:1017D000620F8FEB94E00E94020B2881822F612F11
:1017E0000E94CE34682F660F680F660F620F8FEB72
:1017F00094E00E94020BDF91CF911F910C94DE09BF
:10180000FC01908190539A3008F090E081818053E0
:101810002AE0929F800D112408958F929F92AF929B
:10182000BF92CF92DF92EF92FF92CF93DF93EC01C2
:101830006A017B0180E8C81A83E4D80A8DE6E80AC9
:1018400088E3F80A8CE3882E912CA12CB12CC701D7
:10185000B601A50194010E94EE346D83CA01B9015D
:10186000A50194010E94EE346C83C701B60120E10A
:101870003EE040E050E00E94EE34CA01B90128E1A8
:1018800030E040E050E00E94EE346B83C701B601C7
:1018900020E831E541E050E00E94EE34188263E92F
:1018A0007EEF8881982F937041E050E011F050E076
:1018B00040E0FA01E359FE4F2E173F0740F0FB01CD
:1018C000E41BF50B2E0F3F1F8F5F8883EACF81E06B
:1018D000898389818C30A0F4482F4150550BFA013F
:1018E000E75EFC4FE491911103C0823009F4EF5F91
:1018F000F0E02E173F0720F02E1B3F0B8F5FE8CF45
:101900002F5F2A83DF91CF91FF90EF90DF90CF90F0
:10191000BF90AF909F908F900895DC0150E0E9E177
:10192000F3E081E0861730F49491490F511D8F5FE9
:101930003196F8CF633038F0CD0183709927892B29
:1019400011F44F5F5F4F9D012D5F3F4F36952795F7
:10195000369527956DE671E0A69FC001A79F900D73
:10196000B69F900D11240197820F931F840F951F2E
:1019700008958F929F92AF92BF92CF92DF92EF9293
:10198000FF92CF93DF93EC0122E340E050E0BA01F5
:1019900088818E3008F08E508770806480937C0040
:1019A00080917A00806480937A0080917A0086FD2D
:1019B000FCCF90917800809179008927982789271A
:1019C000092E000CAA0BBB0B480F591F6A1F7B1F67
:1019D0002150F1F6CB01BA0122E330E040E050E0C3
:1019E0000E94EE3469017A016FEF73E080E090E0CD
:1019F0006C197D098E099F090E94DA3029853A8584
:101A00004B855C850E943B314B015C01C701B601EF
:101A10000E94DA309B01AC01C501B4010E949632EC
:101A2000DF91CF91FF90EF90DF90CF90BF90AF907C
:101A30009F908F9008958EBD00000DB407FEFDCFDE
:101A40008EB50895EF92FF920F931F93CF93DF937C
:101A50007B014091A502E091A302F091A402908144
:101A600021E030E0B90102C0660F771F4A95E2F726
:101A7000AB0140955095942390834091A202009130
:101A8000A0021091A102F801908102C0220F331F21
:101A90004A95E2F7209530952923208380620E94A1
:101AA0001B0D80939F02E701F5E0EF0EF11C899179
:101AB0000E941B0DCE15DF05D1F79091A202F8010F
:101AC000808121E030E001C0220F9A95EAF7822B55
:101AD0008083DF91CF911F910F91FF90EF90089538
:101AE000CF93DF93EC0160E088810E949F0884E03F
:101AF0000E941B0D61E08881DF91CF910C949F08BB
:101B00008CBD9DBD0895CF92DF92EF92FF92E09140
:101B10009B02F0919C0209956B017C0180919802D7
:101B200090919902883C9105C1F08439914071F0FF
:101B3000E0919B02F0919C0209956C197D098E0938
:101B40009F09603271058105910540F38FEF9FEF8A
:101B5000FF90EF90DF90CF9008951092570210926F
:101B6000560288EC90E0F4CFCF92DF92EF92FF9292
:101B70000E94A8066B017C0182E294E00E944F075C
:101B8000181619066CF00E94A8066C197D098E09BA
:101B90009F09683E73408105910570F38FEF9FEFB9
:101BA000FF90EF90DF90CF9008950F931F93CF9306
:101BB000DF939091A202C091A002D091A1028881EE
:101BC00001E010E0980102C0220F331F9A95E2F75E
:101BD000209530958223888382EE0E941B0D80938E
:101BE0009F029091A202888101C0000F9A95EAF7A6
:101BF000082B0883DF91CF911F910F9108950F93C8
:101C00001F93CF93DF939091A202C091A002D09135
:101C1000A102888101E010E0980102C0220F331F69
:101C20009A95E2F7209530958223888381EE0E9471
:101C30001B0D80939F029091A202888101C0000F2A
:101C40009A95EAF7082B0883DF91CF911F910F91A6
:101C500008950E94D50D0C94FF0D0F931F93CF9301
:101C6000DF932091A202C091A002D091A10298819D
:101C700001E010E0A80102C0440F551F2A95E2F7C9
:101C80009A012095309592239883982F862F906201
:101C90000E946A0B2091A202888101C0000F2A9540
:101CA000EAF7082B088390939F02DF91CF911F9151
:101CB0000F9108950F931F93CF93DF932091A2026A
:101CC000C091A002D091A102988101E010E0A8018A
:101CD00002C0440F551F2A95E2F79A0120953095CE
:101CE0009223988390E0982F88278F6F0E946A0B29
:101CF0003091A202288101C0000F3A95EAF7022B29
:101D0000088390939F02DF91CF911F910F910895C7
:101D1000CF93DF93D82FC62F0E945A0E682F6C2BBB
:101D20008D2FDF91CF910C942D0ECF92DF92EF92F9
:101D3000FF920F931F93CF93DF93F82ED92EE62EA9
:101D40009091A502E091A302F091A4028081C1E0EC
:101D5000D0E09E0102C0220F331F9A95E2F7209532
:101D60003095822380830E94FF0D9091A202009102
:101D7000A0021091A102F801808102C0CC0FDD1FEA
:101D80009A95E2F7C095D095C823C08380EA0E9457
:101D90001B0DCF2CCF2DDD2D89910E941B0D8C2F7B
:101DA0008C198E15C8F39091A202F801808121E070
:101DB00030E001C0220F9A95EAF7822B80838DEAEA
:101DC00091E09093990280939802DF91CF911F91B7
:101DD0000F91FF90EF90DF90CF9008953091A50282
:101DE000E091A302F091A402208181E090E0AC0197
:101DF00001C0440F3A95EAF7242B2083A7E3B0E013
:101E00001197F1F73091A502208102C0880F991F28
:101E10003A95E2F78095909582238083089560E259
:101E20000E94950E0C94EE0E0F931F93CF93DF93A9
:101E30009091A5020091A3021091A402F801808163
:101E4000C1E0D0E09E0102C0220F331F9A95E2F755
:101E5000209530958223808360E787E00E942D0ED5
:101E60000E94FF0D80E00E945A0E682F6E7F80E076
:101E70000E942D0E9091A502F801808102C0CC0F26
:101E8000DD1F9A95E2F7C095D095C823C083DF91F6
:101E9000CF911F910F9108951F93CF93DF93182F28
:101EA00064E08DE10E942D0EC1E0D0E001C0CC0FB6
:101EB0001A95EAF76C2F8CE10E94880E6C2F81E056
:101EC000DF91CF911F910C94880E08951F93CF93AB
:101ED000DF93EC0160E088810E949F0885E00E940A
:101EE0001B0D80E00E941B0D182F61E088810E946D
:101EF0009F08812FDF91CF911F910895CF93DF939A
:101F0000EC01CE010E94660F80FDFBCFDF91CF91E7
:101F10000895BF92CF92DF92EF92FF920F931F939B
:101F2000CF93DF937C01EA01B62E69010E947E0FF8
:101F300060E0F70180810E949F0883E00E941B0DF2
:101F40008B2D0E941B0D8D2F0E941B0D8C2F0E942C
:101F50001B0DE6010C0D1D1DC017D10729F080E0F7
:101F60000E941B0D8993F8CF61E0F7018081DF911A
:101F7000CF911F910F91FF90EF90DF90CF90BF9086
:101F80000C949F08CF93DF93EC0160E088810E945E
:101F90009F0886E00E941B0D61E088810E949F08D7
:101FA000CE010E94660F86958170DF91CF910895D2
:101FB000FF920F931F93CF93DF93EC01142F052F04
:101FC000F62E0E947E0FCE010E94C20F8823C9F018
:101FD00060E088810E949F0880E20E941B0D8F2D87
:101FE0000E941B0D802F0E941B0D812F0E941B0D34
:101FF00061E088810E949F08CE010E94660F81FDEA
:10200000FBCFDF91CF911F910F91FF900895CF9259
:10201000DF92EF92FF920F931F93CF93DF93C1ED67
:10202000D4E08EECC82E84E0D82E0D81F090D1043F
:10203000E090D20418E0602F661F6627661F8E2D81
:102040000E949F08000F61E08F2D0E949F0860E0B2
:102050008F2D0E949F08115071F72197CC16DD0635
:1020600021F761E08091D3040E949F0860E0809195
:10207000D304DF91CF911F910F91FF90EF90DF90EC
:10208000CF900C949F08E82FE695E695E695F0E052
:10209000EF52FB4F2381382F377081E090E0A0E0B2
:1020A000B0E004C0880F991FAA1FBB1F3A95D2F752
:1020B000662321F0822B83830C9407108095822362
:1020C000FACF8F929F92AF92BF92CF92DF92EF9210
:1020D000FF920F931F93CF93DF937C01D62F0E9423
:1020E00009094B015C018091EC02811167C0CD2F81
:1020F00081E08093EC028093EB029FEF9093EA02E1
:102100001092E9029D0F9093E8028093C70280919C
:10211000C702EE0CFF1C8E298093C7028091C60275
:10212000813009F083C01092C6020E9409096B0138
:102130007C018091C7028093BB008091EE02909158
:10214000EF02A091F002B091F102892B8A2B8B2B28
:10215000A1F00E9409098090EE029090EF02A090F9
:10216000F002B090F1026C197D098E099F09861664
:102170009706A806B90608F442C08091BC0083FD0A
:10218000D8CF85EC8093BC000E9409096B017C01CB
:102190008091EC02813009F44BC08091E9028D17E7
:1021A00010F4C091E902E8ECF2E0A6EAB2E080E0C7
:1021B0008C1751F191919D938F5FFACF8091EE0230
:1021C0009091EF02A091F002B091F102892B8A2B3D
:1021D0008B2B09F488CF0E9409090091EE0210911F
:1021E000EF022091F0023091F102681979098A0911
:1021F0009B09061717072807390708F074CF809145
:10220000ED020E94BD09C0E010921B03C0931A03A7
:102210008C2FDF91CF911F910F91FF90EF90DF9066
:10222000CF90BF90AF909F908F90089585EEAACFEA
:102230008091EE029091EF02A091F002B091F10234
:10224000892B8A2B8B2B09F4A3CF0E94090980903C
:10225000EE029090EF02A090F002B090F1026C19A3
:102260007D098E099F0986169706A806B90608F00B
:102270008FCFC5CF81E08093F20288E6809313036D
:10228000109219031092180360E08FEB94E00E9403
:10229000020B0E94DE0961E070E088E690E00E9497
:1022A00061100E948506805887FB882780F9089571
:1022B0001F93CF93DF93CEE1833F09F4C5E591E00F
:1022C0009093F20290E490931303109219031092EA
:1022D0001803682F8FEB94E00E94020B0E94DE0926
:1022E0006C2F70E090E080E00E942E0963E070E0C7
:1022F00080E490E00E946110CBE080911A039091FD
:102300001B03891B990B03975CF46AE070E080E083
:1023100090E00E942E09C15081F790E080E020C03B
:102320000E948506182FC82F0E948506D82F0E946C
:10233000850698E021E33C2FCC0F37FD15C0915066
:10234000D1F7CD2798E021E33C2FCC0F37FD0EC00D
:102350009150D1F78C130CC080E0912F8D0F911DFF
:10236000DF91CF911F910895C227E9CFC227F0CF07
:1023700081E08093F20210921903109218036EEF1D
:102380008FEB94E00E94020B0E94DE096FE070E088
:1023900080E090E00E942E0981E090E0E1CFCF93B1
:1023A000DF93EC013091A502E091A302F091A40229
:1023B000208181E090E002C0880F991F3A95E2F7F2
:1023C0008095909582238083BE0180E10E94220D3A
:1023D000BE018AE00E94220D61E082E00E94880E28
:1023E00080E0DF91CF910C944C0F0F931F93CF930C
:1023F0008C01C0E0F8018281C81748F48081918186
:1024000060E08C0F911D0E940132CF5FF3CFCF911E
:102410001F910F910895FB0101900020E9F731977A
:10242000AF01461B570BDC01ED91FC910280F3815B
:10243000E02D099463E371E00C940B120F931F934A
:10244000CF93DF93EC010E94EF068C01CE010E9436
:102450001A12800F911FDF91CF911F910F91089554
:10246000BC0180916A0290916B020C941E122F9213
:102470003F924F925F926F927F928F929F92AF9214
:10248000BF92CF92DF92EF92FF920F931F93CF9361
:10249000DF9300D01F92CDB7DEB7E62E272E4B83F9
:1024A00098EC99838A8380919D0290919E020E946C
:1024B000CF110E94140F62E0CE0101960E94950E8A
:1024C0000E94EE0EE0919B02F0919C0209952B0177
:1024D0003C01CC24C394D12C93E5A92E92E0B92ED3
:1024E0002DEA822E992493948091980290919902DA
:1024F000883C9105A9F08A3C910509F47DC0E091E2
:102500009B02F0919C020995641975098609970947
:10251000683E73408105910538F3E12C212CAEC053
:1025200060919D0270919E02F09097029091A50299
:102530000091A3021091A402F8018081960102C0CB
:10254000220F331F9A95E2F72095309582238083DE
:10255000F5E0FF1508F449C021E03F2C2F1508F0E5
:1025600046C0FB0160818AE08F0D0E942D0EB601EE
:1025700001C0660F3A94EAF782E00E94880E8F2D20
:102580000E944C0F9091A502F8018081960102C033
:10259000220F331F9A95E2F720953095822380838E
:1025A00060E787E00E942D0E0E94D50D61E080E07B
:1025B0000E94880E9091A502F8018081960101C0C9
:1025C000220F9A95EAF7822B8083C5010197F1F7D4
:1025D00080919A02882321F08AE59BE00E943012C4
:1025E00090929902809298028ACF332433948AE0A1
:1025F000830D0E94220DBBCF80919A02882321F087
:102600008DE69BE00E9430123091A202C090A002A1
:10261000D090A102F601208181E090E002C0880FF5
:10262000991F3A95E2F7809590958223808381E601
:102630000E941B0DFE2C0E2D122D8FEF0E941B0DE4
:10264000F80181938F018E2F8F19FB818F17A8F3CB
:102650009091A202F601808121E030E001C0220FBA
:102660009A95EAF7822B80830E94D50D80919A0279
:10267000882321F080E89BE00E9430128E2D922D5D
:102680000F900F900F90DF91CF911F910F91FF90BE
:10269000EF90DF90CF90BF90AF909F908F907F9002
:1026A0006F905F904F903F902F9008950F931F93DE
:1026B000CF93DF93CDB7DEB72C970FB6F894DEBF7C
:1026C0000FBECDBF62E080E00E94880E62E070E045
:1026D00080E090E00E942E090E94140F4CE0BE01A1
:1026E0006F5F7F4F89EC0E9437128C01892B49F173
:1026F000FE0131969E01245F3F4F90E080E04191C2
:10270000840F911D2E173F07D1F7F8019385981775
:1027100041F080919A02882321F084EE91E00E949A
:102720003012F80160817181828193812C960FB6FD
:10273000F894DEBF0FBECDBFDF91CF911F910F91F7
:10274000089580919A02882321F088ED91E00E94FB
:10275000870B60E070E0CB01E9CFFF920F931F93EE
:10276000CF93DF930E943A11882309F4B8C063E144
:1027700071E082E294E00E941E1281E08093F202F6
:1027800088E680931303109219031092180360E0F7
:102790008FEB94E00E94020B0E94DE0967E070E07C
:1027A00088E690E00E9461100E9485068F77282FAE
:1027B00030E094E0359527959A95E1F7922F990F9F
:1027C000990FC22FC91BCC0FC80F0E9485069C0110
:1027D00044E0359527954A95E1F72F703327922FDE
:1027E000990F990FD22FD91BDD0FD80F0E948506A4
:1027F0009C0154E0359527955A95E1F72F703327C2
:10280000922F990F990F122F191B110F180F0E9459
:1028100085060E9485069C0164E0359527956A959A
:10282000E1F72F703327922F990F990FF22EF91A93
:10283000FF0CF80E0E9485069C0174E035952795E3
:102840007A95E1F72F703327922F990F990F022F66
:10285000091B000F080F0E9485069C01E4E03595D6
:102860002795EA95E1F72F703327922F990F990F4B
:10287000291B220F820F4F2D602F90E00E948D0C9C
:102880009C01A8E1B0E00E941A329B01AC01210F2B
:10289000311D411D511DACE3B0E00E940F329B0180
:1028A000AC012D0F311D411D511D0E940F32AB0196
:1028B000BC018C2F90E0B0E0A0E080589C4BA24976
:1028C000B74C8A019B01080F191F2A1F3B1FC90122
:1028D000B801DF91CF911F910F91FF90089560E0B3
:1028E00070E0CB01F6CF8F929F92AF92BF92EF92A2
:1028F000FF920F931F93CF93DF93CDB7DEB7A197CE
:102900000FB6F894DEBF0FBECDBF7C01FA01CB013C
:1029100019A2223008F42AE08E010F5D1F4F822E8B
:10292000912CB12CA12CBF01A50194010E94EE3481
:10293000F901CA016A300CF5605DD8016E938D0112
:10294000232B242B252B79F790E080E0109721F0A2
:10295000BD01C7010E940B12A1960FB6F894DEBF0D
:102960000FBECDBFDF91CF911F910F91FF90EF90E0
:10297000BF90AF909F908F900895695CDECF0F93CA
:102980001F93CF93DF93EC01AB0170E060E02AE08E
:102990000E9473148C01CE010E941A12800F911FA5
:1029A000DF91CF911F910F910895CF92DF92EF9217
:1029B000FF92CF93DF936C01990FEE08FF08F7FEAB
:1029C00021C06DE282E294E00E94E507EC01442719
:1029D0005527BA014C195D096E097F092AE082E288
:1029E00094E00E947314C80FD91F82E294E00E9401
:1029F0001A128C0F9D1FDF91CF91FF90EF90DF9007
:102A0000CF9008952AE0B701A60182E294E00E94E7
:102A10007314EC01EACFCF92DF92EF92FF92CF9343
:102A200080EEC82E83E9D82E84E0E82EF12C82E2D5
:102A300094E00E94A307892B89F481E0C81AD10889
:102A4000E108F10859F061E070E080E090E00E9458
:102A50002E09EDCF82E294E00E944F070E94710799
:102A6000FC0197FD50C08D32910519F0C0970A976F
:102A700088F7C12CD12C7601C0E0E130F105D1F00E
:102A8000ED32F105F1F1CF01C0970A9798F4AAE071
:102A9000B0E0A70196010E940F326F01FF0FEE0810
:102AA000FF08C60ED71EE81EF91E80E3C81AD1081B
:102AB000E108F10882E294E00E944F070E9471074A
:102AC000FC01C0970A97C8F2E130F105B1F2CC23BE
:102AD00041F0F094E094D094C094C11CD11CE11C4E
:102AE000F11C64EC72E082E294E00E94EF06C60101
:102AF0000E94D5148C2DCF91FF90EF90DF90CF9056
:102B00000895C1E0D7CFC12CD12C7601EACF0F9325
:102B10001F93CF93DF93EC012AE00E9473148C0182
:102B2000CE010E941A12800F911FDF91CF911F9149
:102B30000F9108958F929F92AF92BF92CF92DF92A2
:102B4000EF92FF92CF93DF9300D000D000D0CDB7AB
:102B5000DEB76B017C010E943A118823D9F10E94F3
:102B6000AD134B015C016AE471E082E294E00E94E3
:102B7000EF06B501A40182E294E00E948715D70117
:102B8000C60188199909AA09BB09181619061A0657
:102B90001B065CF40297A105B10564F466E371E0DD
:102BA00082E294E00E941E1215C08F3F9F4FAF4FEC
:102BB000BF4FA4F764E271E082E294E00E941E122B
:102BC000B701A601CE0101960E940D0CCE0101961F
:102BD0000E948E0B26960FB6F894DEBF0FBECDBFB7
:102BE000DF91CF91FF90EF90DF90CF90BF90AF90AB
:102BF0009F908F9008950F931F93CF93DF93162F7D
:102C0000082FEC01499150E070E060E02AE08091EB
:102C10006A0290916B020E94731485ED91E00E940C
:102C2000870B8C2F801B811768F382ED91E0DF9179
:102C3000CF911F910F910C94870B0F931F93CF93FC
:102C4000DF93EC01462F50E070E060E02AE00E9444
:102C500073148C01CE010E941A12800F911FDF9114
:102C6000CF911F910F910895CF93DF9366E57CE09C
:102C700082E294E00E941E1266E27CE082E294E02E
:102C80000E941E126AE17CE082E294E00E94EF065C
:102C9000CCE1D3E06A817B8182E294E00E94BF14A0
:102CA0006AE07CE082E294E00E94EF066C817D8124
:102CB00082E294E00E94BF146EEF7BE082E294E037
:102CC0000E94EF06898190E00E94D5146FEE7BE0B0
:102CD00082E294E00E94EF06688182E294E00E9422
:102CE0001D1668ED7BE082E294E0DF91CF910C94B9
:102CF0001E12682F80916A0290916B020C941D162F
:102D0000CF93DF9380E00E945A0ED82F81FF54C0EA
:102D1000E091A302F091A4023297C0812091A50214
:102D200081E090E001C0880F2A95EAF7C8238091DE
:102D30009A02882351F08DE991E00E94870B81E08F
:102D4000C11101C080E00E947916D0FF0DC0CC23D4
:102D5000F1F180919A02882321F084E991E00E94A8
:102D6000301283E090E033C0CC23D9F087E10E9499
:102D70005A0E84FF0BC080919A02882321F089E8C3
:102D800091E00E94301282E090E021C080919A028E
:102D9000882321F080E891E00E94301284E090E0E6
:102DA00016C080919A02882321F085E791E00E9465
:102DB000301281E090E00BC080919A02882321F0CC
:102DC00088E691E00E94301290E080E000C0DF9140
:102DD000CF91089560E787E00E942D0E80919A02BE
:102DE000882341F086EC91E00E94870B80919F023E
:102DF0000E94791680919F0285FF15C088EC90E0B3
:102E00009093990280939802E0910702F091080252
:102E1000309709F0099580919A02882381F18DEB12
:102E200091E00C94301280919F0286FF14C08AECCE
:102E300090E09093990280939802E0910502F091BE
:102E40000602309709F0099580919A028823B9F01B
:102E500084EB91E0E6CF84E991E09093990280932E
:102E60009802E0910302F0910402309709F009956D
:102E700080919A02882319F087EA91E0D2CF0895D1
:102E8000CF93DF93BC0182E294E00E940B12EC012D
:102E900082E294E00E941A128C0F9D1FDF91CF9165
:102EA00008954F925F926F927F928F929F92AF920E
:102EB000BF92CF92DF92EF92FF920F931F93CF9327
:102EC0006B017C01742EAC019B010E94E43366E32C
:102ED00071E0811126C046015701E894B7F82FEF41
:102EE0003FEF4FE75FE7C501B4010E94E433811172
:102EF0000CC02FEF3FEF4FE75FE7C501B4010E9421
:102F0000D5306AE371E0181664F02FEF3FEF4FE71A
:102F10005FE4C701B6010E9437331816ACF46EE3C4
:102F200071E082E294E0CF911F910F91FF90EF90BA
:102F3000DF90CF90BF90AF909F908F907F906F90D9
:102F40005F904F900C940B122FEF3FEF4FE75FEC29
:102F5000C701B6010E94D53087FDE1CF20E030E007
:102F6000A901C701B6010E94D53010E000E087FF3B
:102F70000AC06DE282E294E00E94E5078C01F7FA54
:102F8000F094F7F8F094C0E060E070E080E09FE338
:102F90007C1641F020E030E040E251E40E9496329D
:102FA000CF5FF6CFA70196010E942A322B013C0188
:102FB0000E9408334B015C012AE0BC01A40182E2BB
:102FC00094E00E9473147C01E00EF11ECC23D1F139
:102FD000C501B4010E94DA309B01AC01C301B2010A
:102FE0000E9429324B015C016EE282E294E00E9471
:102FF000E507E80EF91EC15028F120E030E040E27C
:1030000051E4C501B4010E943B312B013C010E94F7
:1030100008334B01B12CA12C2AE0B501A40182E2B6
:1030200094E00E947314E80EF91EC501B4010E94D9
:10303000DA309B01AC01C301B2010E9429324B017D
:103040005C01D9CFC701CF911F910F91FF90EF90F5
:10305000DF90CF90BF90AF909F908F907F906F90B8
:103060005F904F900895CF93DF930E945117EC012A
:1030700082E294E00E941A128C0F9D1FDF91CF9183
:103080000895CF93DF93EC0163E47BE082E294E068
:103090000E941E126EE37BE082E294E00E94EF0643
:1030A000688179818A819B8142E050E00E943318D7
:1030B00069E37BE082E294E00E94EF066C817D810F
:1030C0008E819F8142E050E00E94331863E37BE0F1
:1030D00082E294E00E94EF06688579858A859B8567
:1030E00042E050E00E9433186DE27BE082E294E01F
:1030F0000E94EF066C857D858E859F8542E050E0BD
:103100000E94331862E27BE082E294E00E94EF06C4
:10311000688979898A899B8942E050E00E94331846
:103120006AE17BE082E294E00E94EF068C8990E005
:10313000DF91CF910C94D514CF92DF92EF92FF9252
:103140000F931F93CF93DF93EC016A017B016AE732
:103150007CE082E294E00E94EF06B701A60182E2E1
:1031600094E00E9487156DE67CE082E294E00E9484
:10317000EF06B701A60182E294E00E9487157E2D3A
:103180006D2D5C2D442700E011E022E233E0CE01FA
:103190000E94890F02E213E0C0E17801D0E0F7015C
:1031A00041917F0150E070E060E02AE082E294E02B
:1031B0000E94731465E471E082E294E00E940B12B5
:1031C000DF5FD03161F782E294E00E941A12C150B1
:1031D000005F1F4FC111E1CFDF91CF911F910F9180
:1031E000FF90EF90DF90CF9008954F925F926F9293
:1031F0007F928F929F92AF92BF92CF92DF92EF9287
:10320000FF920F931F93CF938C012A013B016BE038
:1032100073E082E294E00E941E12C4E1C8010E94A1
:10322000B90C4B015C0164E670E080E090E00E9424
:103230002E09A5019401C701B6010E942A326B0133
:103240007C01C15059F720E030E040EA51E40E948F
:103250009632A30192010E9496326B017C0162E4D6
:1032600071E082E294E00E940B1242E050E0C7015C
:10327000B6010E94331820E030E0A901C701B60171
:103280000E94D53087FF03C0C12CD12C7601C70125
:10329000B601CF911F910F91FF90EF90DF90CF90EB
:1032A000BF90AF909F908F907F906F905F904F9066
:1032B00008950F931F93CF93DF93809156029091BF
:1032C0005702892B09F0BAC04091090550910A05AF
:1032D00060910B0570910C05809105059091060594
:1032E000A0910705B0910805481759076A077B07A1
:1032F00009F49BC0809115058823C9F06DED72E03B
:1033000082E294E00E94EF064091090550910A057F
:1033100060910B0570910C052AE082E294E00E9416
:10332000731469ED72E082E294E00E941E12C09173
:10333000F7040C2F10E0E0911105F0911205309781
:1033400009F009954091090550910A0560910B0516
:1033500070910C052BE731E08091F3049091F40417
:103360000E94890FE0910F05F0911005309709F048
:1033700009958091090590910A05A0910B05B091DE
:103380000C058C0F911DA11DB11D80930905909313
:103390000A05A0930B05B0930C054091FF045091D2
:1033A0000005609101057091020584179507A60735
:1033B000B70780F08091FB049091FC04A091FD047C
:1033C000B091FE048093090590930A05A0930B0524
:1033D000B0930C05809113058F5F809313058BE7E5
:1033E00091E0909357028093560260ED72E082E282
:1033F00094E00E94EF06CBE7D1E00BE911E04991A0
:1034000050E070E060E02AE082E294E00E947314F1
:1034100065E471E082E294E00E940B120C171D0734
:1034200071F782E294E00E941A1280915602909104
:103430005702DF91CF911F910F9108956CEE72E0CA
:1034400082E294E00E941E12F0CFFF920F931F932E
:10345000CF93DF93EC01F62E08811981C8010E94F9
:10346000F931F81621F06F2DC8010E940132CE010A
:10347000DF91CF911F910F91FF900895CF92DF922E
:10348000EF92FF920F931F93CF93DF9300D0CDB7AE
:10349000DEB76C0164E571E082E294E00E941E12E6
:1034A00076010AE210E0F70161917F011A83098336
:1034B000CE0101960E94251A0F5F1F4F023311059E
:1034C00091F768E0C6010E94FB150F900F90DF9105
:1034D000CF911F910F91FF90EF90DF90CF900895C3
:1034E000CF92DF92EF92FF920F931F93CF93DF93D0
:1034F00000D0CDB7DEB76C0166E972E082E294E0FD
:103500000E941E12760105E110E0F70161917F0132
:103510001A830983CE0101960E94251A0F5F1F4F5F
:103520000A32110591F7C6010E9441180F900F90C1
:10353000DF91CF911F910F91FF90EF90DF90CF908F
:103540000895CF92DF92EF92FF920F931F93CF9344
:10355000DF9300D0CDB7DEB76C016CE672E082E29B
:1035600094E00E941E12760110E000E0F7016191E4
:103570007F011A830983CE0101960E94251A0F5FED
:103580001F4F0531110591F7C6010E9441180F9098
:103590000F90DF91CF911F910F91FF90EF90DF90EF
:1035A000CF9008950F931F93CF938C01C0E0F80143
:1035B000808191818C0F911D0E94F931982F81E0BB
:1035C0008C0FCF3F59F0992329F0C82FF801928131
:1035D000981768F7CF911F910F91089580E0FACF67
:1035E000EF92FF920F931F93CF93DF93EC010E9412
:1035F000D21A182F8A81811720F4CE010E94F5116A
:1036000011E02FEF210FE22EF12C8A8148815981A0
:10361000840F952F911D3B81239F800D911D1124B7
:103620009D838C8300E08B81081770F4802F90E0DD
:10363000FC01EB5FFA4F2C813D816081820F931F6B
:103640000E9401320F5FEFCF88819981612F8E0D2B
:103650009F1DDF91CF911F910F91FF90EF900C94E0
:103660000132EF92FF920F931F93CF93DF937C0170
:103670006DEA72E082E294E00E941E128701C5E1C9
:10368000D0E0CE010E94F931F80181938F0121969B
:10369000CA32D105B1F7C701DF91CF911F910F91C8
:1036A000FF90EF900C944118EF92FF920F931F93AD
:1036B000CF93DF937C0161E872E082E294E00E94A4
:1036C0001E128701D0E0C0E0CE010E94F931F8015E
:1036D00081938F012196C531D105B1F7C701DF91E3
:1036E000CF911F910F91FF90EF900C9441180F9381
:1036F0001F93CF93DF93EC018B0184E090E00E9455
:103700001635FC011382128211830083FE0120977B
:1037100031F4DF91CF911F910F910895F90122812A
:10372000338121153105D1F793838283CE01F1CF07
:1037300085ED8093BC008091EE029091EF02A09104
:10374000F002B091F1020796A11DB11D23E0B695DC
:10375000A795979587952A95D1F72091BC0024FDD0
:1037600003C01092EC0208954091EE025091EF02D6
:103770006091F0027091F102452B462B472B69F3C3
:103780000097A105B10541F025E32A95F1F7000066
:103790000197A109B109E1CF8091ED020C94BD0917
:1037A000CF93DF93EC010E94B90C2D853E854F85A8
:1037B00058890E9496320E943C3329813A814B817C
:1037C0005C810E9429322D813E814F8158850E9463
:1037D00096329B01AC0160E070E080E291E4DF9101
:1037E000CF910C949433CF93DF93EC0182E08883E4
:1037F00080911E0390911F039B838A838091850291
:1038000090918602A0918702B09188028C839D835B
:10381000AE83BF8383EF0E9458118C7FBC0190E080
:1038200080E00E94DA3022E538EB4FE25BE30E9451
:103830003B3126E636E64BE352E40E942932282F3C
:10384000220F292F221F2F3F19F460E070E0CB01D7
:103850006C8B7D8B8E8B9F8B85EF0E9458118C7F9C
:10386000BC0190E080E00E94DA3020E030E04AEFD6
:103870005AE30E943B3120E030E040EC50E40E94EB
:103880002932282F220F292F221F2F3F19F460E001
:1038900070E0CB01688B798B8A8B9B8B8EE295E0F5
:1038A0000E94D01B282F220F292F221F2F3F19F4EF
:1038B00060E070E0CB01688779878A879B8788E121
:1038C00095E00E94D01B282F220F292F221F2F3F67
:1038D00019F460E070E0CB016C877D878E879F874D
:1038E000CE01DF91CF910895EF92FF920F931F9336
:1038F000CF93DF938BE991E00E94F31B8C01FC01D5
:1039000060897189828993890E940833862F64E1D6
:103910000E94CE34C5E0D0E07E01E81AF10861E0F3
:10392000EC16FD060CF060E08C2F0E9443102197EE
:10393000B1F7F80164897589868997890E940833EF
:10394000862F6AE00E94CE34CAE0D0E07E01E81AF9
:10395000F10861E0EC16FD060CF060E08C2F0E948F
:1039600043102197C530D105A1F7F801648575850D
:10397000868597850E940833862F65E00E94CE34A5
:10398000CFE0D0E07E01E81AF10861E0EC16FD0618
:103990000CF060E08C2F0E9443102197CA30D105B3
:1039A000A1F7F80160857185828593850E940833AF
:1039B000862F6AE00E94CE34C4E1D0E08E01081B5D
:1039C000110961E00C171D070CF060E08C2F0E94BC
:1039D00043102197CF30D105A1F7DF91CF911F91EF
:1039E0000F91FF90EF900895CF93DF93C091100255
:1039F000D0911102CE010E94F31B65E372E082E2D6
:103A000094E00E941E126DE272E082E294E00E9455
:103A1000EF064C815D816E817F8182E294E00E949D
:103A2000871567E272E082E294E00E94EF066A8105
:103A30007B8182E294E00E94BF1468E172E082E23E
:103A400094E00E94EF066C897D898E899F8942E00F
:103A50000E94511787E491E00E9440176CE072E0E9
:103A600082E294E00E94EF06688979898A899B89BD
:103A700042E00E9451178AE491E00E94401761E001
:103A800072E082E294E00E94EF06688579858A857B
:103A90009B8542E00E9451178FE491E00E944017FD
:103AA00066EF71E082E294E00E94EF066C857D850E
:103AB0008E859F8542E00E9451178FE491E00E941D
:103AC00040176DE572E082E294E00E94EF0680917B
:103AD0007A01082E000C990B0E94D51480917A016E
:103AE0008F5F80937A0180910F02209110023091B4
:103AF0001102820F932F911D909311028093100257
:103B000020910D0230910E028217930758F0821710
:103B1000930759F4809114029091150290935902E1
:103B200080935802DF91CF910895409112025091F5
:103B3000130284179507B1F710927A01809114024D
:103B400090911502909311028093100230935902C4
:103B500020935802E7CF2F923F924F925F926F923D
:103B60007F928F929F92AF92BF92CF92DF92EF920D
:103B7000FF920F931F93CF93DF9300D000D0CDB768
:103B8000DEB71C012A013B0109831A832B833C8386
:103B9000A7019601C501B4010E9496320E943C33F0
:103BA0004B015C01A301920169817A818B819C8127
:103BB0000E9496320E943C339B01AC01C501B401C6
:103BC0000E9496324B015C01F10185829682A782A8
:103BD000B086C701B6010E943C336B017C01C30172
:103BE000B2010E943C339B01AC01C501B4010E94AB
:103BF0003B319B01AC01C701B6010E942932F101A2
:103C0000618372838383948366E073E082E294E04D
:103C10000E94EF06F101658176818781908546E0FB
:103C200050E00E94331861E073E082E294E00E9469
:103C3000EF06F101618172818381948142E050E05D
:103C40000F900F900F900F90DF91CF911F910F91D8
:103C5000FF90EF90DF90CF90BF90AF909F908F90AC
:103C60007F906F905F904F903F902F900C943318FF
:103C70001F920F920FB60F9211242F933F934F93E1
:103C80005F936F937F938F939F93AF93BF93EF93C4
:103C9000FF9382E294E00E94C307FF91EF91BF91EE
:103CA000AF919F918F917F916F915F914F913F91D4
:103CB0002F910F900FBE0F901F9018951F920F928B
:103CC0000FB60F9211242F938F939F93EF93FF932F
:103CD000E0913204F09133048081E0913804F09156
:103CE000390482FD1BC0908180913B048F5F8F73EC
:103CF00020913C04821741F0E0913B04F0E0EE5D3E
:103D0000FB4F958F80933B04FF91EF919F918F9193
:103D10002F910F900FBE0F901F9018958081F4CFB8
:103D20001F920F920FB60F9211242F933F938F93F0
:103D30009F93AF93BF938091FB019091FC01A09161
:103D4000FD01B091FE013091FA0123E0230F2D37E0
:103D500058F50196A11DB11D2093FA018093FB0136
:103D60009093FC01A093FD01B093FE018091FF01AF
:103D700090910002A0910102B09102020196A11D52
:103D8000B11D8093FF0190930002A0930102B093B4
:103D90000202BF91AF919F918F913F912F910F9010
:103DA0000FBE0F901F90189526E8230F0296A11DB5
:103DB000B11DD2CF1F920F920FB60F9211242F93E5
:103DC0003F934F935F936F937F938F939F93AF93A3
:103DD000BF93EF93FF93E0910701F09108010995DC
:103DE000FF91EF91BF91AF919F918F917F916F91D3
:103DF0005F914F913F912F910F900FBE0F901F90A9
:103E000018951F920F920FB60F9211242F933F9384
:103E10004F935F936F937F938F939F93AF93BF93D2
:103E2000EF93FF93E0910501F09106010995FF9151
:103E3000EF91BF91AF919F918F917F916F915F9122
:103E40004F913F912F910F900FBE0F901F9018959B
:103E50001F920F920FB60F9211242F933F934F93FF
:103E60005F936F937F938F939F93AF93BF93EF93E2
:103E7000FF938091B900887F803609F44AC0F0F53D
:103E8000883209F4A7C018F5803109F49BC0B8F452
:103E9000882309F4F9C0883009F494C0FF91EF91A8
:103EA000BF91AF919F918F917F916F915F914F9152
:103EB0003F912F910F900FBE0F901F901895883152
:103EC00009F488C0803251F78093EA0214C080342C
:103ED00009F49DC040F48033B9F38833F9F6809338
:103EE000EA0285ECB0C0803509F485C0883509F454
:103EF00096C0883499F60E94981BD0CF883909F46F
:103F00008CC038F5883729F050F4883611F08037A6
:103F100029F683E08093EC021092F90157C08838AB
:103F200009F47BC0803919F0803809F0B7CF80914F
:103F3000F901803208F071C0E091F90181E08E0F43
:103F40008093F9018091BB00F0E0E752FE4F80833F
:103F50003DC0803B39F0E0F4803A09F479C0883AFA
:103F600009F09CCF84E08093EC021092D80110926B
:103F7000D701E0911603F091170309958091D701BD
:103F800081110FC081E08093D7011092B70109C061
:103F9000803C09F4A6CF883C09F4A3CF883B09F004
:103FA0007DCFE091D80181E08E0F8093D801F0E0C1
:103FB000E954FE4F80818093BB009091D80180919D
:103FC000D70129C08091C7028093BB0085EC809304
:103FD000BC0064CF9091E9028091E802981758F5EF
:103FE000E091E90281E08E0F8093E902F0E0E8536E
:103FF000FD4F8081E9CFE091E90281E08E0F80934F
:10400000E9028091BB00F0E0E853FD4F808390917E
:10401000E9028091E8029817C8F285E8D8CFE091CC
:10402000E90281E08E0F8093E9028091BB00F0E00D
:10403000E853FD4F80838091EB0281115CCF81E0DA
:104040008093C60284EA8093BC001092EC0226CFD3
:1040500085EC8093BC001092EC028091F9018032D3
:1040600030F4E091F901F0E0E752FE4F10826091E8
:10407000F90170E0E0911403F091150389ED91E0EE
:1040800009951092F9010ACF1092EA0234CF1F92DB
:104090000F920FB60F9211240F900FBE0F901F902A
:1040A00018951F920F920FB60F9211242F933F93E2
:1040B0004F935F936F937F938F939F93AF93BF9330
:1040C000EF93FF93E0915C02F0915D020995FF91FF
:1040D000EF91BF91AF919F918F917F916F915F9180
:1040E0004F913F912F910F900FBE0F901F901895F9
:1040F0001F920F920FB60F9211242F933F934F935D
:104100005F936F937F938F939F93AF93BF93EF933F
:10411000FF93E0915A02F0915B02309709F0099504
:1041200014BE8091600088618093600088E0809375
:104130006000FF91EF91BF91AF919F918F917F911F
:104140006F915F914F913F912F910F900FBE0F9004
:104150001F901895E2E2F4E01382128288EE93E059
:10416000A0E0B0E084839583A683B78323E131E0A8
:104170003183208325EC30E03587248724EC30E040
:104180003787268720EC30E0318B208B21EC30E024
:10419000338B228B22EC30E0358B248B26EC30E005
:1041A000378B268B118E128E138E148EEFEBF4E06C
:1041B0001382128284839583A683B78385E291E07C
:1041C0009183808340E853E46DE678E38BEC94E0E0
:1041D0000E940D0CE1EDF4E086E0808387E08183AE
:1041E00085E0828361E086E00E94CD0861E087E09F
:1041F0000E94CD0861E085E00E94CD0860E086E085
:104200000E949F0860E087E00E949F0860E085E0D0
:104210000E949F08E4EDF4E083E0DF011D928A959F
:10422000E9F70E940710E6E1F5E08FEF818388E06F
:104230008083E3EFF4E0158E148E178E168E10A295
:1042400011A212A280E090E1A0E0B0E08087918707
:10425000A287B3878FEF9FE4A6E0B0E084879587BD
:10426000A687B787EDEEF4E088E490E09183808341
:1042700084E0828382E08383E2EEF4E084E79CE1E1
:10428000918380838AE090E0A0E0B0E08283938312
:10429000A483B58312861682178210861186E7EDF5
:1042A000F4E084EF9CE19183808385E090E0A0E0DE
:1042B000B0E082839383A483B5831286168217822B
:1042C000108611862EE020932E052FE020931805EE
:1042D00010924805E9E4F5E020E836E131832083D7
:1042E00082839383A483B5831286168217821086F5
:1042F00011860895CF93DF93CDB7DEB7AC970FB695
:10430000F894DEBF0FBECDBF789484B5826084BDC3
:1043100084B5816084BD85B5826085BD85B58160C9
:1043200085BD80916E00816080936E001092810047
:104330008091810082608093810080918100816002
:1043400080938100809180008160809380008091C3
:10435000B10084608093B1008091B000816080934F
:10436000B00080917A00846080937A0080917A0016
:10437000826080937A0080917A00816080937A00D5
:1043800080917A00806880937A001092C100E09159
:104390003204F091330422E02083E0912E04F09166
:1043A0002F041082E0913004F091310487E0808383
:1043B00010923A04E0913604F091370486E080834D
:1043C000E0913404F0913504808180618083E09134
:1043D0003404F0913504808188608083E091340456
:1043E000F0913504808180688083E0913404F091FD
:1043F000350480818F7D808388EA96E090939C02CB
:1044000080939B0285E290E09093A4028093A302A4
:104410002093A5029093A1028093A00231E03093F3
:10442000A20284B1866084B94091A502E091A30202
:10443000F091A402208181E090E0BC0102C0660FEF
:10444000771F4A95E2F7AB014095509524232083CE
:104450004091A2020091A0021091A102D8012C91DA
:1044600001C0880F4A95EAF7822B8C938DEA91E080
:10447000909399028093980210920802109207027A
:10448000109206021092050210920402109203028A
:1044900030939A020E94310B83E590E00E94800DD8
:1044A00080919A02882331F082E294E090936B022B
:1044B00080936A0264E670E080E090E00E942E093A
:1044C0009091A202F8018081EE24E394F12C9701EF
:1044D00002C0220F331F9A95E2F720953095822370
:1044E00080838FEF0E941B0D9091A202D8018C91C6
:1044F00001C0EE0C9A95EAF7E82AEC926CE780E0AE
:104500000E942D0E60E787E00E942D0E60E082E0A1
:104510000E942D0E60E081E00E942D0E60E08CE193
:104520000E942D0E68E785E00E942D0E63E083E077
:104530000E942D0E6FE784E00E942D0E6EE086E053
:104540000E942D0E0E94FF0D0E94D50D6CE080E0B0
:104550000E942D0E80919B0290919C02892B21F448
:1045600087E493E00E94870B88E393E00E94301277
:104570008EEE96E0909308028093070285E69FE016
:10458000909306028093050289E29EE090930402D4
:104590008093030280E091E090939E0280939D02BD
:1045A0001092970280E00E945A0E682F6D7F80E083
:1045B0000E942D0E6CE673E082E294E00E941E12CF
:1045C0000E94A60981E08093F20288E6809313039B
:1045D00010921903109218030E94DE0961EB73E038
:1045E000882311F06BEB73E082E294E00E941E12CC
:1045F0000E943A116FE973E0811157C04BE050E01F
:1046000063E973E0CE0101960E94AF30CE010A96B5
:104610000E94000C89A3E981E154E33120F50E2EBC
:10462000000CFF0BEA5EFC4D0C9410358A253323F9
:1046300033239E2533238825332333233323292310
:104640003323332391259C259A2533233323332386
:1046500098258A81813609F457C28B818E3609F0FC
:1046600055C286E08AA3CE0105960E94000C8BA35A
:1046700048E050E06AE873E0CE0101960E94AF3056
:10468000CE0101960E94000C8CA3CE0104960E94DC
:10469000000C8DA3CE0107960E94000C8EA3CE01C4
:1046A00081960E948E0B6DE773E082E294E00E9497
:1046B0001E128DEA93E19093600280935F028AE973
:1046C00095E19093640280936302109285021092A8
:1046D0008602109287021092880210928102109234
:1046E00082021092830210928402109209021092A8
:1046F0000A0210920B0210920C0210928A0210927F
:10470000890282E090E090936202809361021092AD
:10471000800210927F02109280001092810080919E
:104720008100886180938100809180008260809305
:10473000800084E080935E0269ED73E082E294E0A1
:104740000E94EF062AE044E254EF60E070E082E26B
:1047500094E00E94731469EC73E082E294E00E949A
:10476000EF0660915E0282E294E00E941D168FB710
:10477000F89423E234EF30938700209386008FBFB4
:1047800087EC96E090935D0280935C027894809130
:104790006F00846080936F0086E192E09093150231
:1047A0008093140226E532E0309313022093120224
:1047B000909311028093100210E210930F02109256
:1047C00059021092580286E392E090930E02809371
:1047D0000D0282E294E090936B0280936A0261E0A2
:1047E00084E00E94CD0860E084E00E949F0810925F
:1047F000D4041092D5041092D6040E94071061E0F0
:1048000080E00E94431067ED74E080918B029091EC
:104810008C020E94771B62EE74E00E94771B9093DB
:104820008C0280938B0286E195E09093F404809350
:10483000F30488E592E09093F6048093F5041093D6
:10484000F70481E08093F80480E290E09093FA040A
:104850008093F90465E274E082E294E00E94EF063E
:104860004091FF045091000560910105709102058F
:1048700082E294E00E9487156091FF047091000528
:1048800080910105909102050091FB041091FC04B8
:104890002091FD043091FE04601B710B820B930B81
:1048A0002091F9043091FA0450E040E00E94EE3487
:1048B0006B017C0168E174E082E294E00E94EF0603
:1048C000B60182E294E00E94BF148091FF049091AF
:1048D0000005A0910105B09102058C199D09AE0952
:1048E000BF098093FF0490930005A0930105B09346
:1048F00002056CE074E082E294E00E94EF064091D1
:10490000FF0450910005609101057091020582E25B
:1049100094E00E9487150091F3041091F40461E083
:10492000F80180810E94CD0861E0D8018C910E943D
:104930009F08F80181818F3F49F061E00E94CD0816
:1049400061E0D80111968C910E949F0881E590E06A
:104950000E94800D0E94310B61E070E080E090E0E9
:104960000E942E09C8010E947E0FC8010E94C20F3A
:1049700060E0F80180810E949F0881E00E941B0D89
:1049800080E00E941B0D61E0D8018C910E949F087D
:10499000C8010E94700DC8010E947E0FC8010E94CC
:1049A000C20F60E0F80180810E949F0881E30E94AD
:1049B0001B0D80E00E941B0D61E0D8018C910E94CC
:1049C0009F08C8010E94700D8091F804880F8093A1
:1049D000140568EF73E082E294E00E94EF064091D4
:1049E000FB045091FC046091FD047091FE0482E28E
:1049F00094E00E94871566EE73E082E294E00E94E4
:104A0000EF064091FF0450910005609101057091FF
:104A1000020582E294E00E9487158DEE94E0909367
:104A200004058093030584E08093EF041AE010935B
:104A3000F0048DEE94E00E94D21AE090ED04F09024
:104A4000EE048250819FE00CF11C11246DEFC62E04
:104A500064E0D62E03EF14E0F701EF5EF4407F012F
:104A6000C701800F911F0E94F931D80152968C9393
:104A70000F5F1F4FC016D10699F7109210051092C4
:104A80000F0584EB96E0909312058093110581E069
:104A9000809315050E94A6090E94A6098FE295E061
:104AA0000E94541B8091430560E374E0811102C0B1
:104AB00065E474E082E294E00E941E1289E195E0D0
:104AC0000E94311B80912D0560E374E0811102C0CA
:104AD00065E474E082E294E00E941E121092570294
:104AE000109256028FE996E0909345058093440515
:104AF000E0918B02F0918C0280E0309709F18F5F9A
:104B00000280F381E02DF9CF81E0ACCD87E0AACD22
:104B100082E0A8CD8B81823711F484E0A3CD88E0B8
:104B2000A1CD8B81823711F483E09CCD85E09ACDB5
:104B300089E098CD8AE096CD8BE094CD8CE092CD43
:104B4000809348056BE574E082E294E00E94EF06F2
:104B50006091480582E294E00E941D16109148057C
:104B6000812F90E0880F991F0E941635FC019093C9
:104B700047058093460590E0191721F01192119294
:104B80009F5FFACF89E599E190937C0280937B0245
:104B90008FE09FE0909371028093700283E89DE024
:104BA00090936F0280936E0288EA96E0909377026A
:104BB0008093760210926D0210927A02109279021E
:104BC00011E01093780282E294E090936B0280935C
:104BD0006A0289E694E00E94301210936D02ECE1C3
:104BE000F3E0F8A7EFA37F010EE310E0C8010E94F5
:104BF000F931D7018D937D010F5F1F4F04341105EB
:104C0000A9F70E94341660E082E00E94CD080E945D
:104C10007B08892B09F0C7C260ED77E080E090E067
:104C20000E942E090E947B08892B09F0BCC26FE00C
:104C300077E082E294E00E941E1267E175E082E272
:104C400094E00E941E1264EE74E082E294E00E94FE
:104C50001E1261EB74E082E294E00E941E126EE785
:104C600074E082E294E00E941E1248EC642E6EE62C
:104C700075E082E294E00E941E1269E575E082E22E
:104C800094E00E941E126AE475E082E294E00E94C1
:104C90001E120E940B15182F813009F0E8C17724ED
:104CA00073946DEC75E082E294E00E941E126CEB4E
:104CB00075E082E294E00E941E1262EB75E082E2EF
:104CC00094E00E941E1267EA75E082E294E00E947E
:104CD0001E1263E975E082E294E00E941E1260E811
:104CE00075E082E294E00E941E120E940B15833050
:104CF00009F4A4C178F4813009F4A0C0823009F429
:104D000042C18111ADC162E776E082E294E00E9487
:104D10001E12ADCF843009F49AC1853091F764E852
:104D200076E082E294E00E941E125AE9852E59E94B
:104D3000952E59E1A52E5FE3B52EC12CD12C60E84C
:104D4000E62E6FE3F62E00E010E42CE935E440E0B7
:104D500050E06AE774E48EE295E00E94AB1D212CDE
:104D6000312C7AE7472E74E4572E20923705309283
:104D700038054092390550923A056DEC7CEC8CE890
:104D800090E460933F0570934005809341059093B4
:104D90004205AB01BC018EE295E00E94F5186093DC
:104DA0003B0570933C0580933D0590933E057092C2
:104DB00043058FE295E00E94A11A812C912CE8EC2A
:104DC000AE2EE2E4BE2EC12CD12CF0E2EF2EF1E4A7
:104DD000FF2E00E010E020E83FE34AE959E969E2EC
:104DE00070E488E195E00E94AB1D2092210530928D
:104DF000220540922305509224058DEC9CECACE6F4
:104E0000B0E48093290590932A05A0932B05B093D5
:104E10002C05AC01BD0188E195E00E94F518609376
:104E20002505709326058093270590932805709299
:104E30002D0589E195E00E94701A33CF68EA76E08B
:104E400082E294E00E941E1260E176E082E294E049
:104E50000E941E12C090FB04D090FC04E090FD0460
:104E6000F090FE040CE0F694E794D794C7940A956A
:104E7000D1F716018091FF0490910005A0910105E2
:104E8000B09102052CE0B695A795979587952A9540
:104E9000D1F72C018601102F00271295107F4214A4
:104EA0005304C8F06BEF75E082E294E00E94EF06D5
:104EB000B10182E294E00E94BF14A80170E060E0BA
:104EC0008091F3049091F4040E94D80FBFEF2B1A45
:104ED0003B0A105FE4CFB701A601A4E0440F551FC1
:104EE000661F771FAA95D1F7407F6F707727809153
:104EF000F3049091F4040E949C188091FB0490911B
:104F0000FC04A091FD04B091FE04809305059093EC
:104F10000605A0930705B0930805809309059093B3
:104F20000A05A0930B05B0930C058091FF049091A6
:104F30000005A0910105B09102051CE0B695A7956A
:104F4000979587951A95D1F790930E0580930D0547
:104F500060EE75E082E294E00E94EF0660910D053C
:104F600070910E0582E294E00E94BF1480910305C7
:104F7000909104050E94F51180910305909104051C
:104F80000E94F01A8ECE6BE476E082E294E00E94FA
:104F90001E128091FB049091FC04A091FD04B0913D
:104FA000FE048093050590930605A0930705B09332
:104FB00008058093090590930A05A0930B05B0930B
:104FC0000C0580910305909104050E94F5118091D4
:104FD0000305909104050E94F01A0091F3041091CA
:104FE000F4046AE276E082E294E00E941E12C801B4
:104FF0000E94C20F60E0F80180810E949F0880E655
:105000000E941B0D61E0D8018C910E949F08C8018D
:105010000E94700DC8010E947E0F65E276E082E278
:1050200094E00E941E1289E396E00E943012CE01A5
:1050300001960E943E1A10921C0333CE61EA76E07C
:1050400082E294E00E941E1210921D032ACE69E9AA
:1050500076E082E294E00E941E1270921D0321CE3F
:1050600066E676E082E294E00E941E121ACE82305A
:1050700009F077C066E071E082E294E00E941E12BF
:1050800061EF70E082E294E00E941E126AEE70E02E
:1050900082E294E00E941E1260EE76E082E294E0EA
:1050A0000E94EF0642E0E42EF12CDD24D39430EE92
:1050B000832E33E9932E34E0A32EB12C82E294E0C8
:1050C0000E94A307892B69F491E0891A9108A1082D
:1050D000B10839F061E070E080E090E00E942E09B4
:1050E000EDCF0E94B40D8E010F5F1F4FB02EC12E69
:1050F00097FD06C0D8018D938D010E94B40DF8CFA5
:10510000F8011082F2E08B2D9C2DDF16C9F00E9471
:10511000883070931F0360931E0382E294E00E9424
:10512000BF14EA94EF28D1F06BEC76E082E294E0D1
:105130000E94EF06EE24E394F12C22E0D22EB7CFAA
:105140000E946A309093210380932003BC0182E285
:1051500094E00E94BF1460921C03E3CF68EB76E0FA
:10516000D4CD6EEF76E082E294E00E941E1211111F
:105170007ECD6DEE76E082E294E00E941E120EE398
:1051800010E0AFA1B8A56D91B8A7AFA31A830983AA
:10519000CE0101960E94251A0F5F1F4F043411059E
:1051A00081F70E94341669E475E080918B0290913A
:1051B0008C020E94771B90938C0280938B026DE18E
:1051C00077E082E294E00E94EF0660E070E282E223
:1051D00094E00E94BF149FB7F89414BE80916000C1
:1051E00088618093600081E2809360009FBF789423
:1051F00010925B0210925A0268EE73E080E090E039
:105200000E942E0984E591E00E94401710929602B8
:10521000109295028E010F5F1F4F22242394312C90
:1052200080919502909196028130910501F1C0F034
:10523000029701F1E0909502F0909602B2E0EB1631
:10524000F10409F4BFC0C8F4E114F10461F1EA9477
:10525000EF2809F482C0109296021092950216C0AF
:105260006CE277E082E294E00E941E12E3CF69E5EF
:1052700077E0F8CF64E477E0F5CF23E0E216F104BD
:1052800009F42EC234E0E316F10429F7A89580E072
:1052900090E0892B29F20E94AF07882309F4C0CF40
:1052A0000E940000BDCF67EA77E082E294E00E94AE
:1052B0001E1280E00E945A0EF82E61EA77E082E228
:1052C00094E00E94EF062F2D30E035952795359517
:1052D00027952370332781E090E0232B11F490E091
:1052E00080E00E94D5146BE977E082E294E00E94AE
:1052F000EF0681E090E00E94D51463E977E082E256
:1053000094E00E94EF0681E090E00E94D51465E8E9
:1053100077E082E294E00E94EF0681E090E00E9454
:10532000D5146FE677E082E294E00E941E1280912D
:105330001C03883C29F43092960220929502A6CF55
:1053400061E07BE082E294E00E941E1264E070E083
:10535000709396026093950299CF62E083E00E9479
:10536000CD088AEE96E19093080180930701809121
:105370006900837F886080936900E99A809160006A
:1053800080648093600010927E0210927D02809172
:10539000200390912103B0E0A0E08093D904909382
:1053A000DA04A093DB04B093DC046DEB77E082E2D7
:1053B00094E00E941E1282E090E090939602809307
:1053C000950264CF0E9456136093910270939202EB
:1053D000809393029093940268E378E082E294E0F1
:1053E0000E94EF06409191025091920260919302C7
:1053F0007091940282E294E00E948715609191027C
:1054000070919202809193029091940261157105BE
:105410008105910509F462C060938502709386024C
:105420008093870290938802E0916302F091640276
:10543000309709F0099510926202109261028091F2
:105440008100887F809381008091810090915E022D
:10545000892B80938100E0906102F090620268E005
:1054600078E082E294E00E94EF0691E0E916F10410
:1054700009F474C008F46BC0B2E0EB16F10409F44F
:1054800070C064EE77E082E294E00E941E124091C8
:105490008502509186026091870270918802C8014E
:1054A0000E940D0C86E0F801ABECB4E001900D9287
:1054B0008A95E1F78091CE048093800280937F02E9
:1054C0008091610290916202029709F04DC068E8F4
:1054D00073E180E090E00E942E09D8CEE0915F0257
:1054E000F0916002309731F10995611571058105E0
:1054F000910569F06093850270938602809387021C
:1055000090938802309262022092610298CF1092AA
:105510008502109286021092870210928802F09201
:105520006202E092610260E278E082E294E00E942E
:105530001E1285CF10928502109286021092870269
:1055400010928802F0926202E092610278CF6DEFD1
:1055500077E082E294E00E94EF0693CF62EF77E07B
:10556000F8CF69EE77E0F5CF6FE978E082E294E07A
:105570000E941E126801AAE2EA2EF12CC7010E94C5
:10558000F931F60181936F01FFEFEF1AFF0A22E371
:10559000E216F10499F768E0C8010E94FB158E81BC
:1055A000883C09F03FC08F818C3CE1F589EC98E0A4
:1055B0000E94301285E0F801A5E6B2E001900D925C
:1055C0008A95E1F78CED98E00E94301265E085E65F
:1055D00092E00E94FB1523E030E030939602209386
:1055E00095028091850290918602A0918702B091E8
:1055F00088028093910290939202A0939302B093B9
:1056000094028091910290919202A0919302B091A4
:10561000940280938D0290938E02A0938F02B09398
:10562000900234CE84EB98E00E94301287EE98E02E
:105630000E94301262E080E00E94880E62E070E01A
:1056400080E090E00E942E090E94140F48E0B8010B
:105650008CEC0E9437127C01892BE9F187E998E0F4
:105660000E94870B65E0C7010E94FB158FE898E058
:105670000E94870BD70115968C910E94791685E8B8
:1056800098E00E94870BF70186810E94791689E7CE
:1056900098E00E94870BD70117968C910E9479168B
:1056A000F7019701295F3F4F90E080E04191840F1F
:1056B000911D2E173F07D1F7F7019781981308C066
:1056C00088E698E00E943012C8010E943E1A72CF0C
:1056D00083E598E0F7CF83E498E00E94870BF4CF4E
:1056E000E091F504F091F60480819181892B09F411
:1056F00017C1E0911105F0911205309709F0099555
:105700006090F3047090F4044090F9045090FA040F
:10571000E091F504F091F604608171817CA76BA79C
:105720008090050590900605A0900705B0900805AB
:10573000C4019927A0E0B1E0A81BB90BCD01D12C81
:10574000C12C4114510409F444C07201841595051B
:1057500008F47C01C3010E947E0FC3010E94C20FA6
:1057600060E0F30180810E949F0882E00E941B0D8F
:105770008A2D0E941B0D892D0E941B0D882D0E94D1
:105780001B0D2BA53CA52C0D3D1D3AA729A738A71D
:105790002FA3AFA1B8A58D91B8A7AFA30E941B0DF1
:1057A0008FA198A5E9A5FAA58E1B9F0B8E159F05C5
:1057B00080F361E0D3018C910E949F088E0C9F1CA6
:1057C000A11CB11CCE0CDF1C4E185F0880E091E0DC
:1057D000B8CFE0910F05F0911005309709F00995C9
:1057E000809115058823C9F06CE479E082E294E0A9
:1057F0000E94EF064091050550910605609107054E
:10580000709108052AE082E294E00E94731468E433
:1058100079E082E294E00E941E122091F904309116
:10582000FA048091050590910605A0910705B091B5
:105830000805820F931FA11DB11D8093050590934C
:105840000605A0930705B09308054091FF04509109
:105850000005609101057091020584179507A60760
:10586000B70708F450C08091FB049091FC04A0910C
:10587000FD04B091FE048093050590930605A09366
:105880000705B093080563E379E082E294E00E94A3
:10589000EF0640910505509106056091070570914E
:1058A0000805ECE07695679557954795EA95D1F709
:1058B00082E294E00E94871540910505509106050B
:1058C00060910705709108058091F3049091F404AC
:1058D0000E94D80F8091050590910605A0910705BB
:1058E000B0910805FCE0B695A79597958795FA9530
:1058F000D1F790930E0580930D058091030590914B
:1059000004050E94F01A809113059091F804890F04
:1059100080931305E091F504F091F6041182108252
:105920009091130580911405981708F471C066E1F1
:1059300079E082E294E00E941E1280910505909128
:105940000605A0910705B09108053CE0B695A7951E
:10595000979587953A95D1F720910D0530910E05D1
:105960002817390709F04CC07C01EFEFEE1AFE0A48
:105970008091FF0490910005A0910105B09102056E
:105980002CE0B695A795979587952A95D1F78E1512
:105990009F05B0F16CEF78E082E294E00E94EF06A0
:1059A000B70182E294E00E94BF14A70170E060E0BA
:1059B000FCE0440F551F661F771FFA95D1F78091C1
:1059C000F3049091F4040E94D80FF0920E05E09237
:1059D0000D0580910305909104050E94F01A4091F5
:1059E0000D0550910E05A4E0440F551FAA95E1F74F
:1059F00070E060E08091F3049091F4040E949C18A0
:105A000080910305909104050E94F01A10921305ED
:105A100080917D0290917E028130910509F453C0FE
:105A200070F0029709F47AC06EED79E082E294E0BA
:105A30000E941E1210927E0210927D02DDC08091A3
:105A4000850290918602A0918702B091880280938E
:105A5000910290939202A0939302B093940280914A
:105A6000910290919202A0919302B0919402409180
:105A70008D0250918E0260918F0270919002841B72
:105A8000950BA60BB70B0F97A105B10508F4B4C091
:105A90008091910290919202A0919302B091940210
:105AA00080938D0290938E02A0938F02B093900208
:105AB00030927E0220927D0260E37AE082E294E0FE
:105AC0000E941E1299C00E945613672B682B692BE7
:105AD00039F40E945613672B682B692B09F4F3C223
