:100000000C94FE050C94C91D0C94A21D0C94681F41
:100010000C94681F0C94681F0C94361F0C942606D1
:100020000C9426060C9426060C9426060C942606A0
:100030000C940F1F0C9426060C9426060C9426068E
:100040000C94581D0C9426060C94261D0C94001D2F
:100050000C9426060C9426060C9426060C94260670
:100060000C94F01D0C94260608000000BE92244952
:10007000123EABAAAA2ABECDCCCC4C3E00000080DA
:10008000BEABAAAAAA3E00000000BF000000803F4D
:100090000000000000084178D3BB4387D1133D190D
:1000A0000E3CC3BD4282AD2B3E68EC8276BED98F3A
:1000B000E1A93E4C80EFFFBE01C4FF7F3F0000007E
:1000C0000000332E2055524C00322E2053616D70AB
:1000D0006C696E6720496E74657276616C00312EB2
:1000E00020446576696365204944004765747469F6
:1000F0006E67205254432074696D650055706461C9
:1001000074696E67205254432054696D65005254DF
:10011000432074696D65206973207570646174652E
:100120006400525443205365633A200052582049DA
:100130005251004E524620454550524F4D2053617A
:1001400076696E672E2E004D657468616E65203A83
:100150002000416D6D6F6E6961203A200048756D19
:100160006964697479203A200054656D7065726124
:1001700074757265203A20004944203A2000546981
:100180006D65203A20003C2D2D2D2D2D2D2D2D2D52
:1001900053656E736F7220446174612D2D2D2D2D6A
:1001A0002D2D2D2D2D2D2D2D2D2D2D2D3E00726122
:1001B0006D5120436F756E746572203A0043616C17
:1001C000696220536176696E6720666F72206D7177
:1001D000340043616C696220526164696E67206615
:1001E0006F72206D71340043616C696220536176D7
:1001F000696E6720666F72206D713133350043611F
:100200006C696220526164696E6720666F72206D4E
:100210007131333500496E70757420436D64203A36
:10022000004275666665723A20002D2D3E003C2D19
:100230002D466C61736820526561643A002D2D2D46
:100240002D2D3E52656164204D656D203A204F6C26
:1002500064003C504F5745525F444F574E3E003C60
:100260005354414E444259313E003C54584D4F4442
:10027000453E003C5354414E444259323E003C52AC
:10028000584D4F44453E0043455F50494E203A206B
:10029000003C72785F6972713E003C6D61785F72FC
:1002A000745F6972713E003C74785F6972713E00E0
:1002B0000D0A0020200050696E67204661696C6558
:1002C0006400436865636B73756D206D69736D6160
:1002D0007463680063203A20006D203A2000436177
:1002E0006C6962726174696E672E2E001F1C1F1E7E
:1002F0001F1E1F1F1E1F1E00000000240027002AB3
:100300000000000000250028002B004E524620531C
:100310006574757020646F6E65005F4D696C6C6903
:1003200073206973206E756C6C2C206E656564207B
:1003300074696D652066756E6374696F6E730052C3
:100340006164696F20736574757020646F6E6500F9
:100350005254432041646A75737465640031363ABF
:1003600034383A3438004D61722020322032303235
:1003700031002D2D3E5254432069732052756E6E0C
:10038000696E670052544320466F756E6400525484
:1003900043204E6F7420466F756E6400207C2050A1
:1003A00072657363616C6572203A200054696D65F3
:1003B000724120746F70203A00466C61736820456A
:1003C0006E642041646472203A2000466C61736858
:1003D0002053746172742041646472203A20004C8E
:1003E00061737420416464723A20004C6566742025
:1003F00042797465203A2000656E6420736563203D
:100400003A200053656E736F722069732043616CEC
:10041000696272617465640053656E736F72206EF9
:100420006F742043616C6962726174656400546F1B
:1004300074616C205461736B733A20006173796E40
:10044000635866657220736574757020646F6E659D
:10045000007C2D2D2D2D2D2D2D2D2D2D2D2D2D2DAA
:100460002D2D2D2D2D2D2D2D2D2D2D2D2D2D2D2DBC
:100470002D2D2D2D2D2D2D2D2D2D2D2D2D2D2D2DAC
:100480002D2D7C007C202020202020202041205069
:10049000726F64756374206F662041646F72736855
:1004A0006F205072616E6973686562612020202040
:1004B00020202020207C007C2020202020202020A4
:1004C000202020202020202020202047617320533E
:1004D000656E736F72202020202020202020202095
:1004E00020202020202020207C007C2D2D2D2D2D33
:1004F0002D2D2D2D2D2D2D2D2D2D2D2D2D2D2D2D2C
:100500002D2D2D2D2D2D2D2D2D2D2D2D2D2D2D2D1B
:100510002D2D2D2D2D2D2D2D2D2D2D7C00302E20F2
:100520004578697420436F6E66696700322E2050EB
:100530006172616D657465722053657474696E676C
:1005400000312E20446576696365205365747469B3
:100550006E6700302E20457869742053657475707D
:10056000204D656E7500352E2043616C69627261A5
:1005700074652053656E736F7200342E204C6F6764
:10058000204F666600332E204C6F67204F6E00327E
:100590002E20466163746F72792052657365740012
:1005A000312E20526573657420466C617368204D4E
:1005B000656D0072696E674275666665722E65725A
:1005C00061736564536563746F72203A20002D2D4A
:1005D0003E45726173696E6720536563746F722064
:1005E0003A200045726173696E6720466C617368DA
:1005F0002042756666657200446F6E6500457261E3
:1006000073696E6720436869702E2E0052657365AA
:100610007474696E672054582041646472004661A6
:1006200063746F727920526573657474696E6720A4
:100630004465766963652E2E00556E6B6E6F776E1E
:1006400020636D640045786974656420446576694B
:10065000636520436D640043616C69627261746913
:100660006E672053656E736F722E2E004C6F67207D
:100670004F6666004C6F67204F6E0045726173696C
:100680006E6720466C6173682E2E00457869742071
:10069000506172616D2053657474696E67005361B7
:1006A0006D706C696E6720496E74657276616C203E
:1006B0003A2000446576696365204964203A200049
:1006C0002D2D2D2D3E4578697420436F6E66696728
:1006D00000556E6B6E6F776E206D61696E20636D75
:1006E0006400454E544552454420534554555000EE
:1006F0005744542054696D65286D7329203A006D64
:100700005F53544154453A20434845434B5F484169
:10071000524457415245006D5F53544154453A206D
:1007200053594E435F444556494345006D5F53540A
:100730004154453A2053544152545F44455649432D
:1007400045003C2D2D2D2D2D2D2D2D2D2D2D2D2DDF
:100750002D2D2D2D2D2D3E004C6F67696320506F80
:100760007765723A2000466C617368203A005254F3
:10077000433A20004E5246203A003C2D2D486172EB
:100780006477617265205374617475732D2D3E001A
:100790002D2D2D2D2D2D2D2D2D2D2D2D2D2D3E5352
:1007A000616D706C6520496E74657276616C207540
:1007B000706461746564002D2D2D3E00554E5359B3
:1007C0004E434544005254435F53594E4345440001
:1007D0004E54505F53594E434544003C2D2D5469AF
:1007E0006D65722073796E63205374617475732024
:1007F0003A2000556E73796E63656420616E6420E3
:10080000525443204661696C6564004E5450205434
:10081000696D653A200054582041646472203A2082
:10082000004164647220517279204661696C65648C
:1008300000416464722051727920636865636B7350
:10084000756D206D69736D61746368004E5246204A
:10085000454550524F4D2052656164696E672E2E9A
:100860000047657474696E67204E65772041646443
:1008700072003E3E3E4164762E2045726173696E81
:100880006720536563746F72203A20003C3D3D55EC
:1008900070646174696E6720464C61736820506FA4
:1008A000696E7465723D3D3E003E3E3E4572617329
:1008B000696E6720536563746F72203A20002D2D96
:1008C0003E003C2D2D466C6173682057726974653B
:1008D0003A00545820526561647920666F72205442
:1008E00072616E736D6974002D2D2D2D2D3E546F28
:1008F00074616C2058666572205061636B6574206A
:100900003A2000586665723A4661696C6564005821
:100910006665723A537563636573737C54696D657C
:100920003A0072756E5374617465203A2052554EC8
:100930005F54585F584645520072756E5374617427
:1009400065203A2052554E5F43484B5F42535F4308
:100950004F4E4E002D2D3E4163636964656E746198
:100960006C2044656661756C74206D6F646500462B
:1009700061696C656420616E64207761697400440C
:100980006F6E6520616E6420776169740072756EA8
:10099000203A2052554E5F54585F58464552003C0D
:1009A0003D3D4253204E6F7420436F6E6E656374FD
:1009B00065643D3D3E0054696D6520746F2064613F
:1009C00074612073656E64004A616E4665624D61B4
:1009D000724170724D61794A756E4A756C417567E6
:1009E0005365704F63744E6F764465630053756E44
:1009F0004D6F6E54756557656454687546726953DA
:100A000061740020202020202020207C0D0A7C2DD5
:100A10002D2D2D2D2D2D2D2D2D2D2D2D2D2D2D2D06
:100A20002D2D2D2D2D2D2D2D2D2D2D2D2D2D2D2DF6
:100A30002D2D2D7C007C2D2D2D2D2D2D2D2D2D2D75
:100A40002D2D2D2D2D2D2D2D2D2D2D2D2D2D2D2DD6
:100A50002D2D2D2D2D2D2D2D2D2D7C0D0A7C202085
:100A600020202020202020004461696C79205363DD
:100A7000686564756C6500486F75726C79205363A6
:100A8000686564756C6500446576696365206973A3
:100A9000206E6F7420636F6E66696775726564009F
:100AA000646F6E65203A2000616972527352302083
:100AB0003A20005230203A2000524C203A20006D5B
:100AC000203A200063203A20003C2D2D4D51204338
:100AD000616C6962726174696F6E2D2D2D2D3E00FF
:100AE0003C517279204661696C65643E003C5172EC
:100AF00079204F6B3E005175657279696E672E2EB5
:100B0000000000000023002600290004040404045F
:100B100004040402020202020203030303030301AA
:100B20000204081020408001020408102001020481
:100B30000810200000000800020100000304070064
:100B4000000000000000002D2D2D2D2D2D2D2D2D10
:100B50002D2D2D2D2D2D2D2D2D2D2D2D2D00526595
:100B600067697374726174696F6E3A2000446562DC
:100B70007567204F66663A200053616D7020496E9C
:100B800074657276616C3A2000446576696365200D
:100B900049643A20007C2044657669636520436F90
:100BA0006E66696720506172616D207C0D0A2D2D83
:100BB0002D2D2D2D2D2D2D2D2D2D2D2D2D2D2D2D65
:100BC0002D2D2D2D002D2D2D2D2D2D2D2D2D2D2D82
:100BD0002D2D2D2D2D2D2D2D2D2D2D0052656164AA
:100BE0002050616765203A200044756D70696E671A
:100BF0002050616765203A200000721F11241FBE3B
:100C0000CFEFD8E0DEBFCDBF25E0AAE7B1E001C05D
:100C10001D92A835B207E1F711E0A0E0B1E0E6EEE1
:100C2000F7E602C005900D92AA37B107D9F715E093
:100C3000CEEFD5E004C02197FE010E94AC32CD3F3B
:100C4000D107C9F70E9442200C94F1330C940000A4
:100C500008950895609185027091860280918702BF
:100C60009091880208952FB7F8946091FB017091DC
:100C7000FC018091FD019091FE012FBF08953091FC
:100C8000A302E091A102F091A202208181E090E014
:100C900002C0880F991F3A95E2F7809590958223BC
:100CA000808308958091850290918602A0918702A9
:100CB000B09188020196A11DB11D80938502909389
:100CC0008602A0938702B0938802809109029091D6
:100CD0000A02A0910B02B0910C020196A11DB11D58
:100CE0008093090290930A02A0930B02B0930C0226
:100CF00008950895EF92FF920F931F93CF93DF9380
:100D00008C017B01D0E0C0E0F701EC0FFD1F649186
:100D1000662361F0D801ED91FC910190F081E02D06
:100D2000C8010995892B11F02196EECFCE01DF91F4
:100D3000CF911F910F91FF90EF900895AF92BF92C6
:100D4000CF92DF92EF92FF920F931F93CF93DF9397
:100D50006C017B018B01040F151FEB015E01AE18C6
:100D6000BF08C017D10759F06991D601ED91FC91E8
:100D70000190F081E02DC6010995892B79F7C50115
:100D8000DF91CF911F910F91FF90EF90DF90CF9067
:100D9000BF90AF900895FC01538D448D252F30E016
:100DA000842F90E0821B930B541710F0CF96089578
:100DB00001970895FC01918D828D981761F0A28DA5
:100DC000AE0FBF2FB11D5D968C91928D9F5F9F736B
:100DD000928F90E008958FEF9FEF0895FC01918D21
:100DE000828D981731F0828DE80FF11D858D90E08E
:100DF00008958FEF9FEF08950F931F930E9433067E
:100E000060932A0470932B0480932C0490932D04F8
:100E100082E294E00E94EE0697FF1DC00E94330616
:100E200000912A0410912B0420912C0430912D0460
:100E3000601B710B820B930B009126041091270409
:100E400020912804309129046017710782079307C5
:100E5000F8F28FEF9FEF1F910F910895FC01918D94
:100E6000228D892F90E0805C9F4F821B91098F73A8
:100E70009927089582E294E00E942E0721E0892BB1
:100E800009F420E0822F089580E090E0892B29F07A
:100E90000E943A0781110C9400000895FC01A48D72
:100EA000A80FB92FB11DA35ABF4F2C91848D90E08C
:100EB00001968F739927848FA689B7892C93A0896F
:100EC000B1898C91837080648C93938D848D9813F9
:100ED00006C00288F389E02D80818F7D808308958C
:100EE000EF92FF920F931F93CF93DF93EC0181E07A
:100EF000888F9B8D8C8D98131AC0E889F989808121
:100F000085FF15C09FB7F894EE89FF896083E88953
:100F1000F98980818370806480839FBF81E090E045
:100F2000DF91CF911F910F91FF90EF900895F62ED2
:100F30000B8D10E00F5F1F4F0F731127E02E8C8D6C
:100F40008E110CC00FB607FCFACFE889F9898081B1
:100F500085FFF5CFCE010E944E07F1CFEB8DEC0F50
:100F6000FD2FF11DE35AFF4FF0829FB7F8940B8FCE
:100F7000EA89FB8980818062CFCFCF93DF93EC0138
:100F8000888D8823B9F0AA89BB89E889F9898C9171
:100F900085FD03C0808186FD0DC00FB607FCF7CF2D
:100FA0008C9185FFF2CF808185FFEDCFCE010E942D
:100FB0004E07E9CFDF91CF910895833081F028F477
:100FC000813099F08230A9F008958730A9F08830F7
:100FD000C9F08430B1F4809180008F7D03C080918E
:100FE00080008F7780938000089584B58F7784BDCB
:100FF000089584B58F7DFBCF8091B0008F7780936B
:10100000B00008958091B0008F7DF9CFCF93DF932A
:10101000E3E4FBE08491EFE2FBE0D491EBE1FBE061
:10102000C491CC23A1F081110E94DD07EC2FF0E0E8
:10103000EE0FFF1FEF5FF44FA591B491EC91ED23FC
:1010400081E090E009F480E0DF91CF91089580E0A5
:1010500090E0FACF1F93CF93DF93282F30E0F90170
:10106000ED5CF44F8491F901E15EF44FD491F90104
:10107000E55FF44FC491CC23A9F0162F81110E9493
:10108000DD07EC2FF0E0EE0FFF1FEF5FFC4FA591A7
:10109000B4918FB7F894EC91111108C0D095DE236C
:1010A000DC938FBFDF91CF911F910895DE2BF8CF96
:1010B000CF93DF9390E0FC01E15EF44F2491855FD4
:1010C000944FFC0184918823C9F090E0880F991F08
:1010D000FC01E950FD4FA591B491FC01EF5FFC4F7D
:1010E000C591D49161110DC09FB7F8948C91209552
:1010F00082238C938881282328839FBFDF91CF91FF
:101100000895623051F49FB7F8943C91822F8095F6
:1011100083238C93E8812E2BEFCF8FB7F894EC913B
:101120002E2B2C938FBFEACF3FB7F8948091FF010D
:1011300090910002A0910102B091020226B5A89BF5
:1011400005C02F3F19F00196A11DB11D3FBFBA2F59
:10115000A92F982F8827BC01CD01620F711D811D19
:10116000911D42E0660F771F881F991F4A95D1F79E
:1011700008958F929F92AF92BF92CF92DF92EF929B
:10118000FF924B015C010E9494086B017C010E945C
:1011900094086C197D098E099F09683E734081058A
:1011A0009105A8F321E0821A9108A108B10888EE00
:1011B000C80E83E0D81EE11CF11C81149104A10427
:1011C000B10429F7FF90EF90DF90CF90BF90AF90E0
:1011D0009F908F90089508952091D701260F33276F
:1011E000331F21323105ECF42091EA02FC0190E03A
:1011F00080E0243069F082E00895A091D701219128
:10120000AC0149545E4FA40FB52FB11D2C9301962C
:10121000861798F38091D701680F6093D70180E01B
:10122000089581E008951092EA0281E08093E90236
:101230001092C40261E082E10E942A0861E083E129
:101240000E942A08E9EBF0E080818E7F8083808114
:101250008D7F808388E48093B80085E48093BC0010
:101260000895109219031092180310921703109208
:1012700016030E94130988E296E090931503809369
:10128000140389E296E09093130380931203089568
:10129000CF93DF9391E09093B6018823B9F0C0918A
:1012A000B800D091BA008091BC008A7B8093BC00CA
:1012B00060E082E10E942A0860E083E10E942A083F
:1012C0000E941309D093BA00C093B800DF91CF9168
:1012D00008958F929F92AF92BF92CF92DF92EF923A
:1012E000FF920F931F93CF93DF93D0911603D132C8
:1012F00008F0D7C0182FC09111030E9494086B0109
:101300007C018091EA0281116BC082E08093EA0245
:101310001093E9028FEF8093E8021092E702D093D6
:10132000E602A1EFB2E0E6ECF2E080E0D81391C073
:101330001092C5028091C502CC0FC82BC093C50284
:101340008091C402813009F088C01092C4020E94CA
:1013500094086B017C018091C5028093BB00809151
:10136000EC029091ED02A091EE02B091EF02892B78
:101370008A2B8B2BA1F00E9494080091EC02109113
:10138000ED022091EE023091EF026C197D098E0979
:101390009F09061717072807390708F442C08091EC
:1013A000BC0083FDD8CF85EC8093BC000E949408DC
:1013B0006B017C018091EA02823009F450C0809177
:1013C000E8028F3F09F46FC08091E802803209F48F
:1013D0006CC08091E802803309F469C084E026C0C3
:1013E0008091EC029091ED02A091EE02B091EF029B
:1013F000892B8A2B8B2B09F484CF0E949408809030
:10140000EC029090ED02A090EE02B090EF026C1909
:101410007D098E099F0986169706A806B90608F069
:1014200070CF8091EB020E94480985E0109217036B
:10143000109216031092F002DF91CF911F910F913D
:10144000FF90EF90DF90CF90BF90AF909F908F90E4
:1014500008959D9191938F5F69CF85EEA5CF80917F
:10146000EC029091ED02A091EE02B091EF02892B77
:101470008A2B8B2B09F49ECF0E9494080091EC02DA
:101480001091ED022091EE023091EF026C197D096E
:101490008E099F09061717072807390708F08ACF12
:1014A000C0CF81E0C3CF80E0C1CF82E0BFCF83E077
:1014B000BDCFCF92DF92EF92FF920F931F93CF9306
:1014C000DF93D82FC62F613208F098C00E9494088D
:1014D0006B017C018091EA0281116BC081E08093F5
:1014E000EA028093E9029FEF9093E8021092E702EC
:1014F0009C0F9093E6028093C5028091C502DD0F98
:10150000D82BD093C5028091C402813009F078C0F5
:101510001092C4020E9494086B017C018091C50264
:101520008093BB008091EC029091ED02A091EE02BD
:10153000B091EF02892B8A2B8B2BA1F00E9494088B
:101540000091EC021091ED022091EE023091EF0239
:101550006C197D098E099F09061717072807390797
:1015600008F448C08091BC0083FDD8CF85EC8093FF
:10157000BC000E9494086B017C018091EA028130DA
:1015800009F440C08091E7028C1710F4C091E70283
:10159000E6ECF2E0A4EAB2E080E08C1355C08C2FB8
:1015A000DF91CF911F910F91FF90EF90DF90CF903F
:1015B00008958091EC029091ED02A091EE02B0911D
:1015C000EF02892B8A2B8B2B09F484CF0E9494087D
:1015D0000091EC021091ED022091EE023091EF02A9
:1015E0006C197D098E099F09061717072807390707
:1015F00008F070CF8091EB020E944809C0E0CFCF85
:1016000085EEB5CF8091EC029091ED02A091EE02B3
:10161000B091EF02892B8A2B8B2B09F4AECF0E945D
:1016200094080091EC021091ED022091EE023091AD
:10163000EF026C197D098E099F0906171707280705
:10164000390708F09ACFD6CF91919D938F5FA5CFA0
:101650000895E091190380911803E81730F4F0E041
:10166000EC55FD4F808190E008958FEF9FEF089536
:1016700090911903809118032FEF3FEF981748F4CA
:10168000E92FF0E0EC55FD4F208130E09F5F909313
:101690001903C90108958091180390911903891BBA
:1016A000990B0895CF92DF92EF92FF920F931F93C1
:1016B000CF93DF937C01CB018A012091F00222239A
:1016C00089F0EB016B01C40ED51ECC15DD0569F068
:1016D0006991D701ED91FC910190F081E02DC70156
:1016E0000995F3CF642F0E94EC08C801DF91CF91D8
:1016F0001F910F91FF90EF90DF90CF900895CF93BF
:10170000DF931F92CDB7DEB769832091F0022223C9
:10171000F9F020911603203258F021E030E0FC016E
:101720003383228390E080E00F90DF91CF91089582
:1017300080911703E82FF0E0EF50FD4F99819083DF
:101740008F5F809317038093160381E090E0ECCFC6
:1017500061E0CE0101960E94EC08F7CF1F93CF9372
:10176000DF93EC0181E08093F00288E6809311031F
:10177000109217031092160360E08FEB94E00E9422
:101780007F0B2D811AE0822F612F0E946A32682F11
:10179000660F680F660F620F8FEB94E00E947F0B5D
:1017A0002C81822F612F0E946A32682F660F680F8A
:1017B000660F620F8FEB94E00E947F0B2B81822FCC
:1017C000612F0E946A32682F660F680F660F620FE2
:1017D0008FEB94E00E947F0B60E08FEB94E00E941F
:1017E0007F0B2A81822F612F0E946A32682F660F39
:1017F000680F660F620F8FEB94E00E947F0B2981C8
:10180000822F612F0E946A32682F660F680F660F61
:10181000620F8FEB94E00E947F0B2881822F612F53
:101820000E946A32682F660F680F660F620F8FEB97
:1018300094E00E947F0B81E0DF91CF911F910C9487
:101840006909FC01908190539A3008F090E0818101
:1018500080532AE0929F800D112408958F929F92C9
:10186000AF92BF92CF92DF92EF92FF92CF93DF932E
:10187000EC016A017B0180E8C81A83E4D80A8DE68E
:10188000E80A88E3F80A8CE3882E912CA12CB12C6D
:10189000C701B601A50194010E948A326D83CA0175
:1018A000B901A50194010E948A326C83C701B60177
:1018B00020E13EE040E050E00E948A32CA01B901D6
:1018C00028E130E040E050E00E948A326B83C7019B
:1018D000B60120E831E541E050E00E948A321882EA
:1018E00063E97EEF8881982F937041E050E011F01A
:1018F00050E040E0FA01E359FE4F2E173F0740F059
:10190000FB01E41BF50B2E0F3F1F8F5F8883EACF8F
:1019100081E0898389818C30A0F4482F4150550B98
:10192000FA01E451FD4FE491911103C0823009F4B2
:10193000EF5FF0E02E173F0720F02E1B3F0B8F5F6D
:10194000E8CF2F5F2A83DF91CF91FF90EF90DF9058
:10195000CF90BF90AF909F908F900895DC0150E0A2
:10196000ECEEF2E081E0861730F49491490F511DBE
:101970008F5F3196F8CF633038F0CD0183709927AF
:10198000892B11F44F5F5F4F9D012D5F3F4F3695BF
:101990002795369527956DE671E0A69FC001A79F14
:1019A000900DB69F900D11240197820F931F840F05
:1019B000951F08950CB405FC0DC09EBD00000DB42C
:1019C00007FEFDCF9EB58EBD00000DB407FEFDCF16
:1019D0008EB508958EBD00000DB407FEFDCF8EB507
:1019E0009EBD00000DB407FEFDCF9EB50895BC015D
:1019F00080916A0290916B020C947A060F931F9368
:101A0000CF93DF932091A002C0919E02D0919F02BC
:101A1000988101E010E0A80102C0440F551F2A95EB
:101A2000E2F79A012095309592239883982F862F7C
:101A300090620E94DA0C2091A002888101C0000F00
:101A40002A95EAF7082B088390939D02DF91CF91A6
:101A50001F910F9108950F931F93CF93DF932091C0
:101A6000A002C0919E02D0919F02988101E010E0F7
:101A7000A80102C0440F551F2A95E2F79A0120954C
:101A800030959223988390E0982F88278F6F0E943B
:101A9000DA0C3091A002288101C0000F3A95EAF7D4
:101AA000022B088390939D02DF91CF911F910F919C
:101AB0000895CF93DF93D82FC62F0E942B0D682F48
:101AC0006C2B8D2FDF91CF910C94FE0C3091A302E3
:101AD000E091A102F091A202208181E090E0AC01AE
:101AE00001C0440F3A95EAF7242B2083A7E3B0E026
:101AF0001197F1F73091A302208102C0880F991F3E
:101B00003A95E2F7809590958223808308951F93FC
:101B1000CF93DF93182F64E08DE10E94FE0CC1E0AB
:101B2000D0E001C0CC0F1A95EAF76C2F8CE10E942F
:101B3000590D6C2F81E0DF91CF911F910C94590DBD
:101B4000CF93CFB7F8948091B501811127C0E5E11B
:101B5000FBE08491E9E2FBE09491E82FF0E0EE0FE6
:101B6000FF1FE950FD4FA591B491EC91E92321F4B9
:101B700061E08AE00E942A0861E08AE00E94580839
:101B80008CB580618CBD8CB580648CBD61E08DE0CE
:101B90000E94580861E08BE00E9458088091B501CE
:101BA0008F5F8093B501CFBFCF9108958EBD0000A8
:101BB0000DB407FEFDCF8EB50895EF92FF920F93FF
:101BC0001F93CF93DF937B014091A302E091A10289
:101BD000F091A202908121E030E0B90102C0660FCD
:101BE000771F4A95E2F7AB01409550959423908377
:101BF0004091A00200919E0210919F02F8019081F5
:101C000002C0220F331F4A95E2F720953095292311
:101C1000208380620E94D60D80939D02E701F5E04B
:101C2000EF0EF11C89910E94D60DCE15DF05D1F77C
:101C30009091A002F801808121E030E001C0220FE4
:101C40009A95EAF7822B8083DF91CF911F910F91B4
:101C5000FF90EF9008950F931F93CF93DF93909190
:101C6000A002C0919E02D0919F02888101E010E005
:101C7000980102C0220F331F9A95E2F72095309504
:101C80008223888382EE0E94D60D80939D029091DC
:101C9000A002888101C0000F9A95EAF7082B0883FB
:101CA000DF91CF911F910F9108950F931F93CF93C1
:101CB000DF939091A002C0919E02D0919F028881F3
:101CC00001E010E0980102C0220F331F9A95E2F75D
:101CD000209530958223888381EE0E94D60D8093D3
:101CE0009D029091A002888101C0000F9A95EAF7A9
:101CF000082B0883DF91CF911F910F9108950E94C7
:101D00002B0E0C94550E0F931F93CF93DF9390914E
:101D1000A3020091A1021091A202F8018081C1E00A
:101D2000D0E09E0102C0220F331F9A95E2F7209562
:101D300030958223808360E787E00E94FE0C0E943A
:101D4000550E80E00E942B0D682F6E7F80E00E9470
:101D5000FE0C9091A302F801808102C0CC0FDD1F20
:101D60009A95E2F7C095D095C823C083DF91CF91B3
:101D70001F910F910895CF92DF92EF92FF920F93F0
:101D80001F93CF93DF93F82ED92EE62E9091A302C6
:101D9000E091A102F091A2028081C1E0D0E09E0119
:101DA00002C0220F331F9A95E2F7209530958223C7
:101DB00080830E94550E9091A00200919E02109186
:101DC0009F02F801808102C0CC0FDD1F9A95E2F7D7
:101DD000C095D095C823C08380EA0E94D60DCF2C31
:101DE000CF2DDD2D89910E94D60D8C2F8C198E154B
:101DF000C8F39091A002F801808121E030E001C099
:101E0000220F9A95EAF7822B80838DEA91E09093D6
:101E1000970280939602DF91CF911F910F91FF90CF
:101E2000EF90DF90CF900895439A60E20E94BB0E3E
:101E30000E94660D43980895CF93DF93EC0160E014
:101E400088810E942A0884E00E94D60D61E0888182
:101E5000DF91CF910C942A088CBD9DBD089590E030
:101E600080E00895CF92DF92EF92FF92E091980286
:101E7000F091990209956B017C01809196029091F5
:101E80009702883C9105C1F08439914071F0E0914E
:101E90009802F091990209956C197D098E099F09A4
:101EA000603271058105910540F38FEF9FEFFF9040
:101EB000EF90DF90CF900895109257021092560243
:101EC00088EC90E0F4CFCF92DF92EF92FF920E94E5
:101ED00033066B017C0182E294E00E94DA06181658
:101EE00019066CF00E9433066C197D098E099F0952
:101EF000683E73408105910570F38FEF9FEFFF906F
:101F0000EF90DF90CF900895CF93DF93EC0182E0C4
:101F1000888360911C0370911D037B836A83809189
:101F2000850290918602A0918702B09188028C83ED
:101F30009D83AE83BF8390E080E00E94762F6C8B00
:101F40007D8B8E8B9F8B688B798B8A8B9B8B688725
:101F500079878A879B876C877D878E879F87CE014D
:101F6000DF91CF9108951F93CF93DF93EC0160E051
:101F700088810E942A0885E00E94D60D80E00E9498
:101F8000D60D182F61E088810E942A08812FDF91E9
:101F9000CF911F910895CF93DF93EC01CE010E9462
:101FA000B30F80FDFBCFDF91CF910895BF92CF9209
:101FB000DF92EF92FF920F931F93CF93DF937C01F9
:101FC000EA01B62E69010E94CB0F60E0F701808123
:101FD0000E942A0883E00E94D60D8B2D0E94D60D08
:101FE0008D2F0E94D60D8C2F0E94D60DE6010C0D70
:101FF0001D1DC017D10729F080E00E94D60D8993DE
:10200000F8CF61E0F7018081DF91CF911F910F91AF
:10201000FF90EF90DF90CF90BF900C942A08CF9361
:10202000DF93EC0160E088810E942A0886E00E942C
:10203000D60D61E088810E942A08CE010E94B30F6C
:1020400086958170DF91CF910895FF920F931F9332
:10205000CF93DF93EC01142F052FF62E0E94CB0FA8
:10206000CE010E940F108823C9F060E088810E9491
:102070002A0880E20E94D60D8F2D0E94D60D802F57
:102080000E94D60D812F0E94D60D61E088810E94AA
:102090002A08CE010E94B30F81FDFBCFDF91CF91C3
:1020A0001F910F91FF900895CF92DF92EF92FF92D0
:1020B0000F931F93CF93DF93C1EDD4E08EECC82E26
:1020C00084E0D82E0D81F090D104E090D20418E085
:1020D000602F661F6627661F8E2D0E942A08000F3C
:1020E00061E08F2D0E942A0860E08F2D0E942A084F
:1020F000115071F72197CC16DD0621F761E0809130
:10210000D3040E942A0860E08091D304DF91CF912C
:102110001F910F91FF90EF90DF90CF900C942A08C1
:10212000E82FE695E695E695F0E0EF52FB4F238128
:10213000382F377081E090E0A0E0B0E004C0880F55
:10214000991FAA1FBB1F3A95D2F7662321F0822B55
:1021500083830C94541080958223FACFEF92FF92E0
:102160000F931F93CF93DF938BE991E00E94840F2D
:102170008C01FC0160897189828993890E94A43154
:10218000862F64E10E946A32C5E0D0E07E01E81A41
:10219000F10861E0EC16FD060CF060E08C2F0E9467
:1021A00090102197B1F7F80164897589868997891C
:1021B0000E94A431862F6AE00E946A32CAE0D0E011
:1021C0007E01E81AF10861E0EC16FD060CF060E013
:1021D0008C2F0E9490102197C530D105A1F7F801EE
:1021E00064857585868597850E94A431862F65E074
:1021F0000E946A32CFE0D0E07E01E81AF10861E087
:10220000EC16FD060CF060E08C2F0E9490102197D8
:10221000CA30D105A1F7F801608571858285938563
:102220000E94A431862F6AE00E946A32C4E1D0E0A5
:102230008E01081B110961E00C171D070CF060E00E
:102240008C2F0E9490102197CF30D105A1F7DF91FC
:10225000CF911F910F91FF90EF90089581E08093AF
:10226000F00288E680931103109217031092160370
:1022700060E08FEB94E00E947F0B81E00E9469098F
:1022800061E088E60E94590A1092190380931803AE
:102290008FEB94E00E94380B805887FB882780F9E9
:1022A0000895CF93DF93EC013091A302E091A10256
:1022B000F091A202208181E090E002C0880F991F76
:1022C0003A95E2F78095909582238083BE0180E164
:1022D0000E94DD0DBE018AE00E94DD0D61E082E01A
:1022E0000E94590D80E0DF91CF910C94870D0F93E0
:1022F0001F93CF93DF938C01C0912004D0912104D0
:1023000084E090E00E94B232FC01138212821183B9
:102310000083FE01209751F49093210480932004C0
:10232000DF91CF911F910F910895F901228133819F
:1023300021153105D1F793838283CE01EDCF0F9321
:102340001F93CF938C01C0E0F8018281C81748F435
:102350008081918160E08C0F911D0E949D30CF5F44
:10236000F3CFCF911F910F910895FB0101900020B1
:10237000E9F73197AF01461B570BDC01ED91FC915A
:102380000280F381E02D09948F929F92AF92BF92C9
:10239000EF92FF920F931F93CF93DF93CDB7DEB7EA
:1023A000A1970FB6F894DEBF0FBECDBF7C01FA0136
:1023B000CB0119A2223008F42AE08E010F5D1F4FD5
:1023C000822E912CB12CA12CBF01A50194010E9459
:1023D0008A32F901CA016A300CF5605DD8016E934A
:1023E0008D01232B242B252B79F790E080E010978B
:1023F00021F0BD01C7010E94B511A1960FB6F89456
:10240000DEBF0FBECDBFDF91CF911F910F91FF9027
:10241000EF90BF90AF909F908F900895695CDECF52
:102420000F931F93CF93DF93162F082FEC01499141
:1024300050E070E060E02AE080916A0290916B02C7
:102440000E94C41183EB92E00E94F70C8C2F801B3A
:10245000811768F380EB92E0DF91CF911F910F918C
:102460000C94F70C4F925F926F927F928F929F9293
:10247000AF92BF92CF92DF92EF92FF920F931F9392
:10248000CF936B017C01742EAC019B010E94303212
:1024900063E371E0811126C046015701E894B7F863
:1024A0002FEF3FEF4FE75FE7C501B4010E943032E5
:1024B00081110CC02FEF3FEF4FE75FE7C501B4017B
:1024C0000E94712F67E371E0181664F02FEF3FEF61
:1024D0004FE75FE4C701B6010E94D3311816ACF490
:1024E0006BE371E082E294E0CF911F910F91FF9036
:1024F000EF90DF90CF90BF90AF909F908F907F90A4
:102500006F905F904F900C94B5112FEF3FEF4FE716
:102510005FECC701B6010E94712F87FDE1CF20E07B
:1025200030E0A901C701B6010E94712F10E000E060
:1025300087FF0AC06DE282E294E00E9470078C017E
:10254000F7FAF094F7F8F094C0E060E070E080E013
:102550009FE37C1641F020E030E040E251E40E942D
:102560003231CF5FF6CFA70196010E94C6302B0112
:102570003C010E94A4314B015C012AE0BC01A40192
:1025800082E294E00E94C4117C01E00EF11ECC2393
:10259000D1F1C501B4010E94762F9B01AC01C301AA
:1025A000B2010E94C5304B015C016EE282E294E010
:1025B0000E947007E80EF91EC15028F120E030E0BB
:1025C00040E251E4C501B4010E94D72F2B013C0128
:1025D0000E94A4314B01B12CA12C2AE0B501A40129
:1025E00082E294E00E94C411E80EF91EC501B40114
:1025F0000E94762F9B01AC01C301B2010E94C5303D
:102600004B015C01D9CFC701CF911F910F91FF9072
:10261000EF90DF90CF90BF90AF909F908F907F9082
:102620006F905F904F9008956FE371E00C94B51137
:10263000CF93DF93BC0182E294E00E94B511EC01DC
:1026400082E294E00E9414138C0F9D1FDF91CF91C2
:1026500008950F931F93CF93DF93EC01AB0170E0CC
:1026600060E02AE00E94C4118C01CE010E94141384
:10267000800F911FDF91CF911F910F910895CF92FD
:10268000DF92EF92FF92CF93DF936C01990FEE08E8
:10269000FF08F7FE21C06DE282E294E00E9470071D
:1026A000EC0144275527BA014C195D096E097F09D1
:1026B0002AE082E294E00E94C411C80FD91F82E28E
:1026C00094E00E9414138C0F9D1FDF91CF91FF9017
:1026D000EF90DF90CF9008952AE0B701A60182E243
:1026E00094E00E94C411EC01EACFCF92DF92EF9206
:1026F000FF92CF9380EEC82E83E9D82E84E0E82E97
:10270000F12C82E294E00E942E07892B89F481E06B
:10271000C81AD108E108F10859F061E070E080E0E2
:1027200090E00E94B908EDCF82E294E00E94DA06C0
:102730000E94FC06FC0197FD50C08D32910519F0F6
:10274000C0970A9788F7C12CD12C7601C0E0E13000
:10275000F105D1F0ED32F105F1F1CF01C0970A9703
:1027600098F4AAE0B0E0A70196010E94AB306F0197
:10277000FF0FEE08FF08C60ED71EE81EF91E80E305
:10278000C81AD108E108F10882E294E00E94DA0652
:102790000E94FC06FC01C0970A97C8F2E130F105DF
:1027A000B1F2CC2341F0F094E094D094C094C11CD9
:1027B000D11CE11CF11C65E172E082E294E00E9410
:1027C0007A06C6010E943F138C2DCF91FF90EF90A7
:1027D000DF90CF900895C1E0D7CFC12CD12C7601E6
:1027E000EACFCF93DF930E943212EC0182E294E0B1
:1027F0000E9414138C0F9D1FDF91CF9108950F93AA
:102800001F93CF93DF93EC012AE00E94C4118C0147
:10281000CE010E941413800F911FDF91CF911F9161
:102820000F910895CF92DF92EF92FF920F931F9333
:10283000CF93DF93EC016A017B0169EE7BE082E2DA
:1028400094E00E947A06B701A60182E294E00E9419
:10285000FF136CED7BE082E294E00E947A06B70100
:10286000A60182E294E00E94FF137E2D6D2D5C2D67
:10287000442700E011E020E233E0CE010E94D60FB1
:1028800000E213E0C0E17801D0E0F70141917F015F
:1028900050E070E060E02AE082E294E00E94C4111F
:1028A00062E571E082E294E00E94B511DF5FD03111
:1028B00061F782E294E00E941413C150005F1F4F41
:1028C000C111E1CFDF91CF911F910F91FF90EF9058
:1028D000DF90CF9008950F931F93CF93DF93EC0178
:1028E000462F50E070E060E02AE00E94C4118C01A5
:1028F000CE010E941413800F911FDF91CF911F9181
:102900000F9108950F931F93CF93DF93EC010E94D3
:102910007A068C01CE010E941413800F911FDF9163
:10292000CF911F910F910895CF93DF9365EC7BE0DA
:1029300082E294E00E94821465E97BE082E294E006
:102940000E94821469E87BE082E294E00E947A06A9
:10295000CAE1D3E06A817B8182E294E00E9429137C
:1029600069E77BE082E294E00E947A066C817D81D7
:1029700082E294E00E9429136DE67BE082E294E01B
:102980000E947A06898190E00E943F136EE57BE009
:1029900082E294E00E947A06688182E294E00E94DA
:1029A0006B1467E47BE082E294E0DF91CF910C94BA
:1029B0008214CF93DF93EC0169EC7AE082E294E039
:1029C0000E94821464EC7AE082E294E00E947A062B
:1029D000688179818A819B8142E050E00E94F113F5
:1029E0006FEB7AE082E294E00E947A066C817D814E
:1029F0008E819F8142E050E00E94F11369EB7AE002
:102A000082E294E00E947A06688579858A859B85B2
:102A100042E050E00E94F11363EB7AE082E294E03E
:102A20000E947A066C857D858E859F8542E050E008
:102A30000E94F11368EA7AE082E294E00E947A064A
:102A4000688979898A899B8942E050E00E94F11364
:102A500060EA7AE082E294E00E947A068C8990E053
:102A6000DF91CF910C943F136CE271E082E294E02D
:102A70000C948214BC0180916A0290916B020C94B8
:102A80008214CF93DF9380E00E942B0DD82F81FF1B
:102A900058C0E091A102F091A2023297C08120912A
:102AA000A30281E090E001C0880F2A95EAF7C823CD
:102AB00080919C02882371F087E892E00E94F70CD5
:102AC00061E0C11101C060E080916A0290916B02E7
:102AD0000E946B14D0FF0DC0CC23F1F180919C02B9
:102AE000882321F08EE792E00E943A1583E090E07F
:102AF00033C0CC23D9F087E10E942B0D84FF0BC09B
:102B000080919C02882321F083E792E00E943A158D
:102B100082E090E021C080919C02882321F08AE627
:102B200092E00E943A1584E090E016C080919C02E9
:102B3000882321F08FE592E00E943A1581E090E031
:102B40000BC080919C02882321F082E592E00E94D4
:102B50003A1590E080E000C0DF91CF9108952F9268
:102B60003F924F925F926F927F928F929F92AF921D
:102B7000BF92CF92DF92EF92FF920F931F93CF936A
:102B8000DF9300D01F92CDB7DEB7E62E372E4B83F2
:102B900098EC99838A8380919C02882321F086EFA8
:102BA0009AE00E943A1580919A0290919B020E94AD
:102BB00051110E94830E62E0CE0101960E94BB0E6D
:102BC0000E94660DE0919802F091990209952B01FF
:102BD0003C01CC24C394D12C93E5A92E92E0B92ECC
:102BE0002DEA822E992493948091960290919702D7
:102BF000883C9105E9F08A3C910509F47DC0E0919B
:102C00009802F09199020995641975098609970946
:102C1000683E73408105910538F380919C028823BA
:102C200021F080EE9AE00E943A15E12C312C9EC0F2
:102C300060919A0270919B02F09095029091A3028C
:102C40000091A1021091A202F8018081960102C0B8
:102C5000220F331F9A95E2F72095309582238083C7
:102C6000F5E0FF1508F441C021E02F2C2F1508F0E6
:102C70003EC0FB0160818AE08F0D0E94FE0CB60110
:102C800001C0660F2A94EAF782E00E94590D8F2D49
:102C90000E94870D9091A302F8018081960102C0E5
:102CA000220F331F9A95E2F7209530958223808377
:102CB00060E787E00E94FE0C0E942B0E61E080E03E
:102CC0000E94590D9091A302F8018081960101C0E4
:102CD000220F9A95EAF7822B8083C5010197F1F7BD
:102CE00090929702809296028ACF222423948AE0BF
:102CF000820D0E94DD0DC3CF3091A002C0909E02D4
:102D0000D0909F02F601208181E090E002C0880F00
:102D1000991F3A95E2F7809590958223808381E60A
:102D20000E94D60DFE2C0E2D132D8FEF0E94D60D76
:102D3000F80181938F018E2F8F19FB818F17A8F3D4
:102D40009091A002F601808121E030E001C0220FC5
:102D50009A95EAF7822B80830E942B0E80919C0229
:102D6000882321F08DEE9AE00E943A158E2D932D46
:102D70000F900F900F90DF91CF911F910F91FF90C7
:102D8000EF90DF90CF90BF90AF909F908F907F900B
:102D90006F905F904F903F902F9008950F931F93E7
:102DA000CF93DF93CDB7DEB72C970FB6F894DEBF85
:102DB0000FBECDBF62E080E00E94590D62E070E07E
:102DC00080E090E00E94B9080E94830E4CE0BE01B2
:102DD0006F5F7F4F89EC0E94AF158C01892B49F101
:102DE000FE0131969E01245F3F4F90E080E04191CB
:102DF000840F911D2E173F07D1F7F801938598177F
:102E000041F080919C02882321F082EC92E00E94A4
:102E10003A15F80160817181828193812C960FB6F9
:102E2000F894DEBF0FBECDBFDF91CF911F910F9100
:102E3000089580919C02882321F086EB92E00E9405
:102E40003A1560E070E0CB01E9CF60E787E00E94CF
:102E5000FE0C80919D0285FF15C088EC90E0909358
:102E6000970280939602E0910702F0910802309752
:102E700009F0099580919C02882381F187EA92E00C
:102E80000C943A1580919D0286FF14C08AEC90E064
:102E90009093970280939602E0910502F0910602CA
:102EA000309709F0099580919C028823B9F081E957
:102EB00092E0E6CF84E991E09093970280939602A6
:102EC000E0910302F0910402309709F00995809196
:102ED0009C02882319F08AE992E0D2CF0895CF931B
:102EE000DF93C0911002D0911102CE010E94840F95
:102EF00066E871E082E294E00E9482146EE771E07D
:102F000082E294E00E947A064C815D816E817F812D
:102F100082E294E00E94FF1368E771E082E294E0AD
:102F20000E947A066A817B8182E294E00E942913E2
:102F300069E671E082E294E00E947A066C897D89FC
:102F40008E899F8942E00E94321282E491E00E94C1
:102F500018136DE571E082E294E00E947A066889B8
:102F600079898A899B8942E00E94321285E491E046
:102F70000E94181362E571E082E294E00E947A06F2
:102F8000688579858A859B8542E00E9432128AE4B1
:102F900091E00E94181367E471E082E294E00E94DD
:102FA0007A066C857D858E859F8542E00E9432126F
:102FB0008AE491E00E9418136EEA71E082E294E0E4
:102FC0000E947A0680917A01082E000C990B0E94CB
:102FD0003F1380917A018F5F80937A0180910F0275
:102FE0002091100230911102820F932F911D909326
:102FF00011028093100220910D0230910E0282176F
:10300000930758F08217930759F480911402909116
:1030100015029093590280935802DF91CF91089541
:10302000409112025091130284179507B1F7109244
:103030007A0180911402909115029093110280936D
:1030400010023093590220935802E7CFFF920F935A
:103050001F93CF93DF930E942E11882309F4C9C0D8
:103060006BEE70E082E294E00E94821481E0809333
:10307000F00288E680931103109217031092160352
:1030800060E08FEB94E00E947F0B81E00E94690971
:1030900067E088E60E94590A10921903809318038A
:1030A0008FEB94E00E94380B8F77282F30E094E06C
:1030B000359527959A95E1F7922F990F990FC22F81
:1030C000C91BCC0FC80F8FEB94E00E94380B9C01FA
:1030D00044E0359527954A95E1F72F703327922FD5
:1030E000990F990FD22FD91BDD0FD80F8FEB94E0DA
:1030F0000E94380B9C0154E0359527955A95E1F7CD
:103100002F703327922F990F990F122F191B110F20
:10311000180F8FEB94E00E94380B8FEB94E00E9425
:10312000380B9C0164E0359527956A95E1F72F707F
:103130003327922F990F990FF22EF91AFF0CF80EE0
:103140008FEB94E00E94380B9C0174E03595279535
:103150007A95E1F72F703327922F990F990F022F4D
:10316000091B000F080F8FEB94E00E94380B9C01A5
:10317000E4E035952795EA95E1F72F703327922FF4
:10318000990F990F291B220F820F4F2D602F90E06E
:103190000E94AE0C9C01A8E1B0E00E94B6309B01F9
:1031A000AC01210F311D411D511DACE3B0E00E9467
:1031B000AB309B01AC012D0F311D411D511D0E94F3
:1031C000AB30AB01BC018C2F90E0B0E0A0E08058A8
:1031D0009C4BA249B74C8A019B01080F191F2A1F5B
:1031E0003B1FC901B801DF91CF911F910F91FF9053
:1031F000089560E070E0CB01F6CF8F929F92AF927E
:10320000BF92CF92DF92EF92FF92CF93DF9300D0E5
:1032100000D000D0CDB7DEB76B017C010E942E112B
:103220008823D9F10E9426184B015C0162E271E00B
:1032300082E294E00E947A06B501A40182E294E061
:103240000E94FF13D701C60188199909AA09BB0971
:10325000181619061A061B065CF40297A105B1059B
:1032600064F46EE071E082E294E00E94821415C082
:103270008F3F9F4FAF4FBF4FA4F76CEF70E082E2DC
:1032800094E00E948214B701A601CE0101960E942B
:103290002E0CCE0101960E94AE0B26960FB6F89426
:1032A000DEBF0FBECDBFDF91CF91FF90EF90DF90DB
:1032B000CF90BF90AF909F908F9008954F925F9264
:1032C0006F927F928F929F92AF92BF92CF92DF9236
:1032D000EF92FF921F93CF93DF9300D000D000D0E6
:1032E000CDB7DEB79E838D8349835A836B837C83FE
:1032F0006EED72E082E294E00E94821414E122E317
:1033000040E050E0BA01ED81FE8180818E3008F00E
:103310008E508770806480937C0080917A008064F6
:1033200080937A0080917A0086FDFCCF80917800AE
:1033300090917900092E000CAA0BBB0B480F591F66
:103340006A1F7B1F2150F9F6CB01BA0122E330E05E
:1033500040E050E00E948A3249015A016FEF73E069
:1033600080E090E0681979098A099B090E94762F0C
:10337000ED81FE8121853285438554850E94D72FBA
:103380002B013C01C501B4010E94762F9B01AC01C9
:10339000C301B2010E9432314B015C0164E670E06E
:1033A00080E090E00E94B908A5019401C701B60130
:1033B0000E94C6306B017C01115009F0A0CF20E0C3
:1033C00030E040EA51E40E94323129813A814B8158
:1033D0005C810E9432316B017C016FE471E082E21A
:1033E00094E00E94B51142E050E0C701B6010E948E
:1033F000F11320E030E0A901C701B6010E94712F4E
:1034000087FF03C0C12CD12C7601C701B6012696D7
:103410000FB6F894DEBF0FBECDBFDF91CF911F91E5
:10342000FF90EF90DF90CF90BF90AF909F908F90E4
:103430007F906F905F904F9008950F931F93CF935D
:10344000DF938091560290915702892B09F0BAC000
:103450004091090550910A0560910B0570910C058A
:103460008091050590910605A0910705B09108058A
:10347000481759076A077B0709F49BC08091150517
:103480008823C9F06EE272E082E294E00E947A063C
:103490004091090550910A0560910B0570910C054A
:1034A0002AE082E294E00E94C4116AE272E082E2C1
:1034B00094E00E948214C091F7040C2F10E0E09178
:1034C0001105F0911205309709F009954091090511
:1034D00050910A0560910B0570910C052BE731E0C6
:1034E0008091F3049091F4040E94D60FE0910F05AF
:1034F000F0911005309709F0099580910905909198
:103500000A05A0910B05B0910C058C0F911DA11D12
:10351000B11D8093090590930A05A0930B05B09304
:103520000C054091FF0450910005609101057091D8
:10353000020584179507A607B70780F08091FB0462
:103540009091FC04A091FD04B091FE0480930905C4
:1035500090930A05A0930B05B0930C058091130579
:103560008F5F809313058BE791E0909357028093D0
:10357000560261E272E082E294E00E947A06CBE7B2
:10358000D1E00BE911E0499150E070E060E02AE001
:1035900082E294E00E94C41162E571E082E294E06C
:1035A0000E94B5110C171D0771F782E294E00E948A
:1035B00014138091560290915702DF91CF911F9181
:1035C0000F9108956DE372E082E294E00E9482140C
:1035D000F0CFFF920F931F93CF93DF93EC01F62E62
:1035E00008811981C8010E949530F81621F06F2DCD
:1035F000C8010E949D30CE01DF91CF911F910F91A4
:10360000FF900895CF92DF92EF92FF920F931F9356
:10361000CF93DF9300D0CDB7DEB76C0163E371E0E9
:1036200082E294E00E94821476010AE210E0F7013F
:1036300061917F011A830983CE0101960E94E91AE4
:103640000F5F1F4F0233110591F768E0C6010E941A
:1036500010120F900F90DF91CF911F910F91FF905B
:10366000EF90DF90CF900895CF92DF92EF92FF928C
:103670000F931F93CF93DF9300D0CDB7DEB76C01CC
:1036800067EE71E082E294E00E948214760105E127
:1036900010E0F70161917F011A830983CE01019641
:1036A0000E94E91A0F5F1F4F0A32110591F7C601F8
:1036B0000E94D9140F900F90DF91CF911F910F911D
:1036C000FF90EF90DF90CF900895CF92DF92EF922E
:1036D000FF920F931F93CF93DF9300D0CDB7DEB748
:1036E0006C016DEB71E082E294E00E94821476013D
:1036F00010E000E0F70161917F011A830983CE0198
:1037000001960E94E91A0F5F1F4F0531110591F7CD
:10371000C6010E94D9140F900F90DF91CF911F9195
:103720000F91FF90EF90DF90CF9008950F931F932C
:10373000CF938C01C0E0F801808191818C0F911DA5
:103740000E949530982F81E08C0FCF3F59F099233C
:1037500029F0C82FF8019281981768F7CF911F912F
:103760000F91089580E0FACFEF92FF920F931F938D
:10377000CF93DF93EC010E94961B182F8A8181174B
:1037800020F4CE010E949F1111E02FEF210FE22EB5
:10379000F12C8A8148815981840F952F911D3B819D
:1037A000239F800D911D11249D838C8300E08B81CC
:1037B000081770F4802F90E0FC01EB5FFA4F2C812A
:1037C0003D816081820F931F0E949D300F5FEFCF7C
:1037D00088819981612F8E0D9F1DDF91CF911F915F
:1037E0000F91FF90EF900C949D30EF92FF920F930A
:1037F0001F93CF93DF937C016EEF71E082E294E040
:103800000E9482148701C5E1D0E0CE010E9495306C
:10381000F80181938F012196CA32D105B1F7C70112
:10382000DF91CF911F910F91FF90EF900C94D914DD
:10383000EF92FF920F931F93CF93DF937C0162ED82
:1038400071E082E294E00E9482148701D0E0C0E03F
:10385000CE010E949530F80181938F012196C531E8
:10386000D105B1F7C701DF91CF911F910F91FF9063
:10387000EF900C94D91485ED8093BC008091EC02FC
:103880009091ED02A091EE02B091EF020796A11D7A
:10389000B11D23E0B695A795979587952A95D1F701
:1038A0002091BC0024FD03C01092EA0208954091CB
:1038B000EC025091ED026091EE027091EF02452B07
:1038C000462B472B69F30097A105B10541F025E38D
:1038D0002A95F1F700000197A109B109E1CF809184
:1038E000EB020C9448092F923F924F925F926F9295
:1038F0007F928F929F92AF92BF92CF92DF92EF9280
:10390000FF920F931F93CF93DF9300D000D0CDB7DA
:10391000DEB71C012A013B0109831A832B833C83F8
:10392000A7019601C501B4010E9432310E94D8312D
:103930004B015C01A301920169817A818B819C8199
:103940000E9432310E94D8319B01AC01C501B40103
:103950000E9432314B015C01F10185829682A7827F
:10396000B086C701B6010E94D8316B017C01C3014A
:10397000B2010E94D8319B01AC01C501B4010E9483
:10398000D72F9B01AC01C701B6010E94C530F101E0
:10399000618372838383948369ED72E082E294E0B1
:1039A0000E947A06F101658176818781908546E0E3
:1039B00050E00E94F11364ED72E082E294E00E9414
:1039C0007A06F101618172818381948142E050E045
:1039D0000F900F900F900F90DF91CF911F910F914B
:1039E000FF90EF90DF90CF90BF90AF909F908F901F
:1039F0007F906F905F904F903F902F900C94F113B9
:103A00001F920F920FB60F9211242F933F934F9353
:103A10005F936F937F938F939F93AF93BF93EF9336
:103A2000FF9382E294E00E944E07FF91EF91BF91D5
:103A3000AF919F918F917F916F915F914F913F9146
:103A40002F910F900FBE0F901F9018951F920F92FD
:103A50000FB60F9211242F938F939F93EF93FF93A1
:103A6000E0913204F09133048081E0913804F091C8
:103A7000390482FD1BC0908180913B048F5F8F735E
:103A800020913C04821741F0E0913B04F0E0EE5DB0
:103A9000FB4F958F80933B04FF91EF919F918F9106
:103AA0002F910F900FBE0F901F9018958081F4CF2B
:103AB0001F920F920FB60F9211242F933F938F9363
:103AC0009F93AF93BF938091FB019091FC01A091D4
:103AD000FD01B091FE013091FA0123E0230F2D3753
:103AE00058F50196A11DB11D2093FA018093FB01A9
:103AF0009093FC01A093FD01B093FE018091FF0122
:103B000090910002A0910102B09102020196A11DC4
:103B1000B11D8093FF0190930002A0930102B09326
:103B20000202BF91AF919F918F913F912F910F9082
:103B30000FBE0F901F90189526E8230F0296A11D27
:103B4000B11DD2CF1F920F920FB60F9211242F9357
:103B50003F934F935F936F937F938F939F93AF9315
:103B6000BF93EF93FF93E0910701F091080109954E
:103B7000FF91EF91BF91AF919F918F917F916F9145
:103B80005F914F913F912F910F900FBE0F901F901B
:103B900018951F920F920FB60F9211242F933F93F7
:103BA0004F935F936F937F938F939F93AF93BF9345
:103BB000EF93FF93E0910501F09106010995FF91C4
:103BC000EF91BF91AF919F918F917F916F915F9195
:103BD0004F913F912F910F900FBE0F901F9018950E
:103BE0001F920F920FB60F9211242F933F934F9372
:103BF0005F936F937F938F939F93AF93BF93EF9355
:103C0000FF938091B900887F803609F44AC0F0F5AF
:103C1000883209F4A7C018F5803109F49BC0B8F4C4
:103C2000882309F4F9C0883009F494C0FF91EF911A
:103C3000BF91AF919F918F917F916F915F914F91C4
:103C40003F912F910F900FBE0F901F9018958831C4
:103C500009F488C0803251F78093E80214C08034A0
:103C600009F49DC040F48033B9F38833F9F68093AA
:103C7000E80285ECB0C0803509F485C0883509F4C8
:103C800096C0883499F60E943B1CD0CF883909F43D
:103C90008CC038F5883729F050F4883611F0803719
:103CA00029F683E08093EA021092F90157C0883820
:103CB00009F47BC0803919F0803809F0B7CF8091C2
:103CC000F901803208F071C0E091F90181E08E0FB6
:103CD0008093F9018091BB00F0E0E752FE4F8083B2
:103CE0003DC0803B39F0E0F4803A09F479C0883A6D
:103CF00009F09CCF84E08093EA021092D8011092E0
:103D0000D701E0911403F091150309958091D70133
:103D100081110FC081E08093D7011092B70109C0D3
:103D2000803C09F4A6CF883C09F4A3CF883B09F076
:103D30007DCFE091D80181E08E0F8093D801F0E033
:103D4000E954FE4F80818093BB009091D80180910F
:103D5000D70129C08091C5028093BB0085EC809378
:103D6000BC0064CF9091E7028091E602981758F565
:103D7000E091E70281E08E0F8093E702F0E0EA53E2
:103D8000FD4F8081E9CFE091E70281E08E0F8093C3
:103D9000E7028091BB00F0E0EA53FD4F80839091F1
:103DA000E7028091E6029817C8F285E8D8CFE09143
:103DB000E70281E08E0F8093E7028091BB00F0E084
:103DC000EA53FD4F80838091E90281115CCF81E04D
:103DD0008093C40284EA8093BC001092EA0226CF4A
:103DE00085EC8093BC001092EA028091F901803248
:103DF00030F4E091F901F0E0E752FE4F108260915B
:103E0000F90170E0E0911203F091130389ED91E064
:103E100009951092F9010ACF1092E80234CF1F924F
:103E20000F920FB60F9211242F933F934F935F93EE
:103E30006F937F938F939F93AF93BF93EF93FF9372
:103E4000E0915C02F0915D020995FF91EF91BF91C5
:103E5000AF919F918F917F916F915F914F913F9122
:103E60002F910F900FBE0F901F9018951F920F92D9
:103E70000FB60F9211242F933F934F935F936F933D
:103E80007F938F939F93AF93BF93EF93FF93E091B3
:103E90005A02F0915B02309709F0099514BE8091A7
:103EA000600088618093600088E080936000FF91EB
:103EB000EF91BF91AF919F918F917F916F915F91A2
:103EC0004F913F912F910F900FBE0F901F9018951B
:103ED0001F920F920FB60F9211240F900FBE0F90EA
:103EE0001F901895E2E2F4E01382128288EE93E0CC
:103EF000A0E0B0E084839583A683B78323E131E01B
:103F00003183208325EC30E03587248724EC30E0B2
:103F10003787268720EC30E0318B208B21EC30E096
:103F2000338B228B22EC30E0358B248B26EC30E077
:103F3000378B268B118E128E138E148EEFEBF4E0DE
:103F40001382128284839583A683B78385E291E0EE
:103F50009183808340E853E46DE678E38BEC94E052
:103F60000E942E0CE1EDF4E084E1808385E0818302
:103F700085E1828361E084E10E94580861E085E088
:103F80000E94580861E085E10E94580860E084E1E1
:103F90000E942A0860E085E00E942A0860E085E12E
:103FA0000E942A08E4EDF4E083E0DF011D928A9587
:103FB000E9F70E945410E6E1F5E086E0808387E0AF
:103FC0008183E3EFF4E0158E148E178E168E10A207
:103FD00011A212A280E090E1A0E0B0E0808791877A
:103FE000A287B3878FEF9FE4A6E0B0E08487958730
:103FF000A687B787EDEEF4E088E490E091838083B4
:1040000084E0828382E08383E2EEF4E08EEA90E152
:10401000918380838AE090E0A0E0B0E08283938384
:10402000A483B58312861682178210861186E7ED67
:10403000F4E08FE697E19183808385E090E0A0E053
:10404000B0E082839383A483B5831286168217829D
:10405000108611862EE020932E052FE02093180560
:1040600010924805E9E4F5E021E435E1318320834D
:1040700082839383A483B583128616821782108667
:1040800011860895CF93DF93CDB7DEB7AC970FB607
:10409000F894DEBF0FBECDBF789484B5826084BD36
:1040A00084B5816084BD85B5826085BD85B581603C
:1040B00085BD80916E00816080936E0010928100BA
:1040C0008091810082608093810080918100816075
:1040D0008093810080918000816080938000809136
:1040E000B10084608093B1008091B00081608093C2
:1040F000B00080917A00846080937A0080917A0089
:10410000826080937A0080917A00816080937A0047
:1041100080917A00806880937A001092C100E091CB
:104120003204F091330482E08083E0912E04F09118
:104130002F041082E0913004F091310487E08083F5
:1041400010923A04E0913604F091370486E08083BF
:10415000E0913404F0913504808180618083E091A6
:104160003404F0913504808188608083E0913404C8
:10417000F0913504808180688083E0913404F0916F
:10418000350480818F7D808383E396E0909399024C
:104190008093980285E290E09093A2028093A1021E
:1041A00031E03093A30290939F0280939E0210927D
:1041B000A00284B1836084B94091A302E091A1027E
:1041C000F091A202208181E090E0BC0102C0660F64
:1041D000771F4A95E2F7AB01409550952423208341
:1041E0004091A00200919E0210919F02D8012C9153
:1041F00001C0880F4A95EAF7822B8C938DEA91E0F3
:1042000090939702809396021092080210920702F0
:1042100010920602109205021092040210920302FC
:1042200030939C020E94A00D83E590E00E942C0F29
:1042300080919C02882331F082E294E090936B029B
:1042400080936A0264E670E080E090E00E94B90822
:104250009091A002F8018081EE24E394F12C970163
:1042600002C0220F331F9A95E2F7209530958223E2
:1042700080838FEF0E94D60D9091A002D8018C917F
:1042800001C0EE0C9A95EAF7E82AEC926CE780E020
:104290000E94FE0C60E787E00E94FE0C60E082E076
:1042A0000E94FE0C60E081E00E94FE0C60E08CE168
:1042B0000E94FE0C68E785E00E94FE0C63E083E04C
:1042C0000E94FE0C6FE784E00E94FE0C6EE086E028
:1042D0000E94FE0C0E94550E0E942B0E6CE080E0A6
:1042E0000E94FE0C8091980290919902892B21F4F2
:1042F0008AE193E00E94F70C8BE093E00E943A156C
:1043000089E796E0909308028093070284E395E1A1
:1043100090930602809305028FE79EE0909304023B
:104320008093030280E091E090939B0280939A0235
:104330001092950280E00E942B0D682F6D7F80E027
:104340000E94FE0C6FE373E082E294E00E9482140C
:104350000E94310981E08093F00288E68093110386
:10436000109217031092160381E00E94690964E815
:1043700073E0882311F06EE873E082E294E00E941B
:1043800082140E942E1162E773E0811157C04BE046
:1043900050E066E673E0CE0101960E944B2FCE01FD
:1043A0000A960E94210C89A3E981E154E33120F5AA
:1043B0000E2E000CFF0BE152FE4D0C94AC324A2441
:1043C000FC21FC215E24FC214824FC21FC21FC2151
:1043D000F221FC21FC2151245C245A24FC21FC21E3
:1043E000FC2158248A81813609F44EC28B818E3695
:1043F00009F04CC286E08AA3CE0105960E94210CEA
:104400008BA348E050E06DE573E0CE0101960E9479
:104410004B2FCE0101960E94210C8CA3CE01049655
:104420000E94210C8DA3CE0107960E94210C8EA321
:10443000CE0181960E94AE0B60E573E082E294E0CB
:104440000E94821486E298E19093600280935F025A
:104450008DEF98E19093640280936302109285023D
:1044600010928602109287021092880210928102A6
:10447000109282021092830210928402109209021A
:1044800010920A0210920B0210920C0210928A02F1
:104490001092890282E090E0909362028093610220
:1044A0001092800210927F02109280001092810080
:1044B000809181008861809381008091800082607A
:1044C0008093800084E080935E026CEA73E082E275
:1044D00094E00E947A062AE044E254EF60E070E043
:1044E00082E294E00E94C4116CE973E082E294E0FD
:1044F0000E947A0660915E0282E294E00E946B1450
:104500008FB7F89423E234EF30938700209386002E
:104510008FBF82E596E090935D0280935C02789471
:1045200080916F00846080936F0086E192E09093A9
:1045300015028093140226E532E030931302209393
:104540001202909311028093100210E210930F0256
:10455000109259021092580286E392E090930E0254
:1045600080930D0282E294E090936B0280936A0242
:1045700061E08AE00E94580860E08AE00E942A0810
:104580001092D4041092D5041092D6040E945410B4
:1045900061E080E00E94901087ED94E00E94771126
:1045A00082EE94E00E9477113B9A439886E195E071
:1045B0009093F4048093F30488E592E09093F604DA
:1045C0008093F5041093F70481E08093F80480E26F
:1045D00090E09093FA048093F90468EF73E082E22C
:1045E00094E00E947A064091FF045091000560918A
:1045F00001057091020582E294E00E94FF13609130
:10460000FF047091000580910105909102050091D1
:10461000FB041091FC042091FD043091FE04601B0A
:10462000710B820B930B2091F9043091FA0450E046
:1046300040E00E948A326B017C016BEE73E082E203
:1046400094E00E947A06B60182E294E00E94291367
:104650008091FF0490910005A0910105B0910205A1
:104660008C199D09AE09BF098093FF049093000542
:10467000A0930105B09302056FED73E082E294E030
:104680000E947A064091FF04509100056091010557
:104690007091020582E294E00E94FF130091F304FE
:1046A0001091F40461E0F80180810E94580861E0F3
:1046B000D8018C910E942A08F80181818F3F49F02E
:1046C00061E00E94580861E0D80111968C910E9427
:1046D0002A0883E590E00E942C0F0E94A00D61E063
:1046E00070E080E090E00E94B908C8010E94CB0F02
:1046F000C8010E940F1060E0F80180810E942A0822
:1047000081E00E94D60D80E00E94D60D61E0D801C4
:104710008C910E942A08C8010E941C0FC8010E94A7
:10472000CB0FC8010E940F1060E0F80180810E9449
:104730002A0881E30E94D60D80E00E94D60D61E038
:10474000D8018C910E942A08C8010E941C0F8091F8
:10475000F804880F809314056BEC73E082E294E018
:104760000E947A064091FB045091FC046091FD0484
:104770007091FE0482E294E00E94FF1369EB73E003
:1047800082E294E00E947A064091FF045091000575
:10479000609101057091020582E294E00E94FF138E
:1047A0008DEE94E0909304058093030584E080935C
:1047B000EF041AE01093F0048DEE94E00E94961B33
:1047C000E090ED04F090EE048250819FE00CF11C2B
:1047D000112403EF14E0F701EF5EF4407F01C701FD
:1047E000800F911F0E949530D80152968C930F5FD5
:1047F0001F4FB4E00D3F1B0791F710921005109268
:104800000F058FE396E0909312058093110581E0E8
:10481000809315050E9431090E9431098FE295E0CD
:104820000E94181C8091430563E074E0811102C06E
:1048300068E174E082E294E00E94821489E195E0EC
:104840000E94F51B80912D0563E074E0811102C088
:1048500068E174E082E294E00E94821410925702B0
:10486000109256028AE296E09093450580934405A3
:10487000E0912004F091210480E0309709F18F5FEE
:104880000280F381E02DF9CF81E0B5CD87E0B3CD93
:1048900082E0B1CD8B81823711F484E0ACCD88E029
:1048A000AACD8B81823711F483E0A5CD85E0A3CD1D
:1048B00089E0A1CD8AE09FCD8BE09DCD8CE09BCDA2
:1048C000809348056EE274E082E294E00E947A06EA
:1048D0006091480582E294E00E946B1410914805B3
:1048E000812F90E0880F991F0E94B232FC019093B3
:1048F00047058093460590E0191721F01192119217
:104900009F5FFACF8DE19AE190937C0280937B02C6
:1049100084E19FE0909371028093700282E39FE0B4
:1049200090936F0280936E0283E396E090937702F8
:104930008093760210926D0210927A0210927902A0
:1049400011E01093780282E294E090936B028093DE
:104950006A028CE394E00E943A1510936D02EAE13A
:10496000F3E0F8A7EFA37F010EE310E0C8010E9477
:104970009530D7018D937D010F5F1F4F04341105D2
:10498000A9F70E94941460E080E10E9458080E94F8
:104990000608892B09F4CBC260ED77E080E090E057
:1049A0000E94B9080E940608019709F0C0C262EE91
:1049B00076E082E294E00E9482146AEE74E082E281
:1049C00094E00E94821467EB74E082E294E00E941B
:1049D000821464E874E082E294E00E94821461E54B
:1049E00074E082E294E00E94821448EC642E61E458
:1049F00075E082E294E00E9482146CE275E082E24B
:104A000094E00E9482146DE175E082E294E00E94DD
:104A100082140E947513182F813009F0ECC177249D
:104A2000739460EA75E082E294E00E9482146FE879
:104A300075E082E294E00E94821465E875E082E20B
:104A400094E00E9482146AE775E082E294E00E949A
:104A5000821466E675E082E294E00E94821463E5C7
:104A600075E082E294E00E9482140E947513833004
:104A700009F4A8C178F4813009F4A0C0823009F4A7
:104A800042C18111B1C165E476E082E294E00E9406
:104A90008214ADCF843009F49EC1853091F767E56B
:104AA00076E082E294E00E9482145AE9852E59E968
:104AB000952E59E1A52E5FE3B52EC12CD12C60E8CF
:104AC000E62E6FE3F62E00E010E42CE935E440E03A
:104AD00050E06AE774E48EE295E00E94731C212C9A
:104AE000312C7AE7472E74E4572E20923705309206
:104AF00038054092390550923A056DEC7CEC8CE813
:104B000090E460933F057093400580934105909336
:104B10004205AB01BC018EE295E00E945E196093F4
:104B20003B0570933C0580933D0590933E05709244
:104B300043058FE295E00E94651B812C912CE8ECE7
:104B4000AE2EE2E4BE2EC12CD12CF0E2EF2EF1E429
:104B5000FF2E00E010E020E83FE34AE959E969E26E
:104B600070E488E195E00E94731C20922105309248
:104B7000220540922305509224058DEC9CECACE676
:104B8000B0E48093290590932A05A0932B05B09358
:104B90002C05AC01BD0188E195E00E945E1960938F
:104BA000250570932605809327059093280570921C
:104BB0002D0589E195E00E94341B33CF6BE776E049
:104BC00082E294E00E94821463EE75E082E294E057
:104BD0000E948214C090FB04D090FC04E090FD047D
:104BE000F090FE040CE0F694E794D794C7940A95ED
:104BF000D1F716018091FF0490910005A091010565
:104C0000B09102052CE0B695A795979587952A95C2
:104C1000D1F72C018601102F00271295107F421426
:104C20005304C8F06EEC75E082E294E00E947A06CC
:104C3000B10182E294E00E942913A80170E060E0D3
:104C40008091F3049091F4040E942510BFEF2B1A79
:104C50003B0A105FE4CFB701A601A4E0440F551F43
:104C6000661F771FAA95D1F7407F6F7077278091D5
:104C7000F3049091F4040E9412148091FB0490912B
:104C8000FC04A091FD04B091FE048093050590936F
:104C90000605A0930705B093080580930905909336
:104CA0000A05A0930B05B0930C058091FF04909129
:104CB0000005A0910105B09102051CE0B695A795ED
:104CC000979587951A95D1F790930E0580930D05CA
:104CD00063EB75E082E294E00E947A0660910D0534
:104CE00070910E0582E294E00E94291380910305E1
:104CF000909104050E949F118091030590910405F5
:104D00000E94B41B8ECE6EE176E082E294E00E94B7
:104D100082148091FB049091FC04A091FD04B09159
:104D2000FE048093050590930605A0930705B093B4
:104D300008058093090590930A05A0930B05B0938D
:104D40000C0580910305909104050E949F118091AC
:104D50000305909104050E94B41B0091F304109187
:104D6000F4046DEF75E082E294E00E948214C801C1
:104D70000E940F1060E0F80180810E942A0880E6FE
:104D80000E94D60D61E0D8018C910E942A08C801CA
:104D90000E941C0FC8010E94CB0F68EF75E082E2F1
:104DA00094E00E94821480919C02882321F08CE080
:104DB00096E00E943A15CE0101960E94021B1092C5
:104DC0001A032FCE64E776E082E294E00E94821418
:104DD00010921B0326CE6CE676E082E294E00E94FD
:104DE000821470921B031DCE69E376E082E294E0A8
:104DF0000E94821416CE823009F077C06EED70E00A
:104E000082E294E00E94821469EC70E082E294E015
:104E10000E94821462EC70E082E294E00E948214AC
:104E200063EB76E082E294E00E947A0642E0E42EB0
:104E3000F12CDD24D39430EE832E33E9932E34E02D
:104E4000A32EB12C82E294E00E942E07892B69F4F4
:104E500091E0891A9108A108B10839F061E070E089
:104E600080E090E00E94B908EDCF0E94630F8E01B0
:104E70000F5F1F4FB02EC12E97FD06C0D8018D9336
:104E80008D010E94630FF8CFF8011082F2E08B2DA4
:104E90009C2DDF16C9F00E94242F70931D03609390
:104EA0001C0382E294E00E942913EA94EF28D1F0D7
:104EB0006EE976E082E294E00E947A06EE24E394C2
:104EC000F12C22E0D22EB7CF0E94062F90931F0321
:104ED00080931E03BC0182E294E00E942913609239
:104EE0001A03E3CF6BE876E0D0CD61ED76E082E2A5
:104EF00094E00E94821411117ACD60EC76E082E297
:104F000094E00E9482140EE310E0AFA1B8A56D9169
:104F1000B8A7AFA31A830983CE0101960E94E91AAC
:104F20000F5F1F4F0434110581F70E94941489E428
:104F300095E00E94771160EF76E082E294E00E94B3
:104F40007A0660E070E282E294E00E9429139FB743
:104F5000F89414BE8091600088618093600081E2C3
:104F6000809360009FBF789410925B0210925A0267
:104F7000439A68EE73E080E090E00E94B90843989D
:104F800084E591E00E94181310929402109293020B
:104F90008E010F5F1F4F22242394312C80919302A6
:104FA000909194028130910501F1C0F0029701F1D6
:104FB000E0909302F0909402B2E0EB16F10409F451
:104FC000BFC0C8F4E114F10461F1EA94EF2809F4D8
:104FD00082C0109294021092930216C06FEF76E096
:104FE00082E294E00E948214E3CF6CE277E0F8CF93
:104FF00067E177E0F5CF23E0E216F10409F411C28E
:1050000034E0E316F10429F7A89580E090E0892BBD
:1050100029F20E943A07882309F4C0CF0E940000B9
:10502000BDCF6AE777E082E294E00E94821480E0DC
:105030000E942B0DF82E64E777E082E294E00E9454
:105040007A062F2D30E035952795359527952370D5
:10505000332781E090E0232B11F490E080E00E9460
:105060003F136EE677E082E294E00E947A0681E0E8
:1050700090E00E943F1366E677E082E294E00E94AF
:105080007A0681E090E00E943F1368E577E082E2D3
:1050900094E00E947A0681E090E00E943F1362E46F
:1050A00077E082E294E00E94821480911A03883CA7
:1050B00029F43092940220929302A6CF67E87AE016
:1050C00082E294E00E94821464E070E070939402A3
:1050D0006093930299CF62E082E00E94580885E2D3
:1050E00097E19093060180930501809169008C7F80
:1050F000826080936900E89A809160008064809368
:10510000600010927E0210927D0280911E039091A9
:105110001F03B0E0A0E08093D9049093DA04A09339
:10512000DB04B093DC0460E977E082E294E00E9463
:10513000821482E090E0909394028093930264CF73
:105140000E94CE1660938F0270939002809391021A
:10515000909392026BE078E082E294E00E947A06FB
:1051600040918F0250919002609191027091920251
:1051700082E294E00E94FF1360918F02709190028E
:1051800080919102909192026115710581059105BE
:1051900009F462C06093850270938602809387024F
:1051A00090938802E0916302F0916402309709F0D5
:1051B0000995109262021092610280918100887FAD
:1051C000809381008091810090915E02892B809371
:1051D0008100E0906102F09062026BED77E082E284
:1051E00094E00E947A0691E0E916F10409F474C093
:1051F00008F46BC0B2E0EB16F10409F470C067EB81
:1052000077E082E294E00E948214409185025091FE
:1052100086026091870270918802C8010E942E0C5C
:1052200086E0F801ABECB4E001900D928A95E1F7CD
:105230008091CE048093800280937F0280916102EE
:1052400090916202029709F04DC068E873E180E036
:1052500090E00E94B908D8CEE0915F02F091600220
:10526000309731F10995611571058105910569F056
:1052700060938502709386028093870290938802E0
:10528000309262022092610298CF109285021092B1
:1052900086021092870210928802F0926202E092D7
:1052A000610263EF77E082E294E00E94821485CF8E
:1052B0001092850210928602109287021092880244
:1052C000F0926202E092610278CF60ED77E082E2D4
:1052D00094E00E947A0693CF65EC77E0F8CF6CEB10
:1052E00077E0F5CF6CE478E082E294E00E948214EB
:1052F0006801AAE2EA2EF12CC7010E949530F6015E
:1053000081936F01FFEFEF1AFF0A22E3E216F10427
:1053100099F768E0C8010E9410128E81883C19F448
:105320008F818C3CC1F180919C02882321F081E621
:1053300098E00E943A1562E080E00E94590D62E018
:1053400070E080E090E00E94B9080E94830E48E07F
:10535000B8018CEC0E94AF15009709F458C0FC010D
:10536000AC01495F5F4F30E020E06191260F311DB5
:105370004E175F07D1F7DC0117968C91821741F029
:1053800080919C02882321F081E398E00E943A15E5
:10539000C8010E94021B85E0F801A5E6B2E0019079
:1053A0000D928A95E1F780919C02882349F086E16D
:1053B00098E00E94F70C65E085E692E00E941012EA
:1053C000E3E0F0E0F0939402E09393028091850291
:1053D00090918602A0918702B091880280938F02FB
:1053E00090939002A0939102B093920280918F02C9
:1053F00090919002A0919102B091920280938B02C1
:1054000090938C02A0938D02B0938E02FDCD80917B
:105410009C02882309F4BCCF81E298E00E94F70C3B
:10542000B7CFE091F504F091F60480819181892B4A
:1054300009F417C1E0911105F0911205309709F0B8
:1054400009956090F3047090F4044090F904509032
:10545000FA04E091F504F091F604208131813CA733
:105460002BA78090050590900605A0900705B090A9
:105470000805C401992760E071E0681B790BCB0136
:10548000D12CC12C4114510409F444C0720184157B
:10549000950508F47C01C3010E94CB0FC3010E9453
:1054A0000F1060E0D3018C910E942A0882E00E94D4
:1054B000D60D8A2D0E94D60D892D0E94D60D882DDD
:1054C0000E94D60DEBA5FCA5EC0DFD1DFAA7E9A7E2
:1054D000F8A7EFA3AFA1B8A58D91B8A7AFA30E947D
:1054E000D60D8FA198A5E9A5FAA58E1B9F0B8E1549
:1054F0009F0580F361E0D3018C910E942A088E0CF5
:105500009F1CA11CB11CCE0CDF1C4E185F0880E054
:1055100091E0B8CFE0910F05F0911005309709F0B8
:105520000995809115058823C9F062EC78E082E244
:1055300094E00E947A06409105055091060560911D
:105540000705709108052AE082E294E00E94C411E8
:105550006EEB78E082E294E00E9482142091F904DC
:105560003091FA048091050590910605A0910705F8
:10557000B0910805820F931FA11DB11D80930505F1
:1055800090930605A0930705B09308054091FF048A
:1055900050910005609101057091020584179507EF
:1055A000A607B70708F450C08091FB049091FC0453
:1055B000A091FD04B091FE0480930505909306052B
:1055C000A0930705B093080569EA78E082E294E0C9
:1055D0000E947A06409105055091060560910705E5
:1055E00070910805ECE07695679557954795EA9593
:1055F000D1F782E294E00E94FF134091050550919B
:10560000060560910705709108058091F30490915B
:10561000F4040E9425108091050590910605A09143
:105620000705B0910805FCE0B695A7959795879575
:10563000FA95D1F790930E0580930D05809103059F
:10564000909104050E94B41B809113059091F80479
:10565000890F80931305E091F504F091F60411820F
:1056600010829091130580911405981708F471C069
:105670006CE878E082E294E00E9482148091050553
:1056800090910605A0910705B09108053CE0B695FC
:10569000A795979587953A95D1F720910D0530916B
:1056A0000E052817390709F04CC07C01EFEFEE1A00
:1056B000FE0A8091FF0490910005A0910105B09130
:1056C00002052CE0B695A795979587952A95D1F771
:1056D0008E159F05B0F162E778E082E294E00E94C7
:1056E0007A06B70182E294E00E942913A70170E0D4
:1056F00060E0FCE0440F551F661F771FFA95D1F755
:105700008091F3049091F4040E942510F0920E050C
:10571000E0920D0580910305909104050E94B41B51
:1057200040910D0550910E05A4E0440F551FAA9518
:10573000E1F770E060E08091F3049091F4040E943E
:10574000121480910305909104050E94B41B1092DD
:10575000130580917D0290917E028130910509F4BC
:1057600053C070F0029709F4EBC064E579E082E27F
:1057700094E00E94821410927E0210927D0272C008
:105780008091850290918602A0918702B091880253
:1057900080938F0290939002A0939102B093920213
:1057A00080918F0290919002A0919102B09192020B
:1057B00040918B0250918C0260918D0270918E020B
:1057C000841B950BA60BB70B0A97A105B10508F42E
:1057D00049C080918F0290919002A0919102B09166
:1057E000920280938B0290938C02A0938D02B093CF
:1057F0008E0230927E0220927D0266EB79E082E298
:1058000094E00E9482142EC00E94CE16672B682B53
:10581000692B39F410927E0210927D026FE979E0D3
:10582000EECF85E692E00E94511162E080E00E9496
:10583000590D62E070E080E090E00E94B9080E949B
:10584000830E80919C02882321F082ED98E00E94D3
:105850003A1581E080936D0222E030E030937E02C1
:1058600020937D0280917D0290917E02813091058E
:1058700009F4F6C0029709F4FAC080918902909168
:105880008A028130910509F423C108F4F3C0823003
:10589000910509F49BC2039709F4A9C2E090200482
:1058A000F0902104C0904605D0904705E091440552
:1058B000F09145050995D701ED91FC91868097807F
:1058C000A084B1842B013C01481859086A087B0860
:1058D00082809380A480B580481459046A047B04B4
:1058E00008F490C26683778380879187D601ED9311
:1058F000FD936D01D7011296ED90FC90E114F10437
:10590000D1F6E0914605F091470580819181892B80
:1059100009F47ACB7F01D12C80914805D81608F084
:1059200073CBD701ED91FC91309721F00190F0817C
:10593000E02D0995F701119211927F01D394ECCFDC
:105940006DE879E082E294E00E948214F12CE12C6F
:10595000DD24D394E0917B02F0917C020995909331
:105960007A0280937902892B09F444C080917802ED
:10597000882369F0E0917602F091770209956093AF
:105980007202709373028093740290937502E09197
:105990007002F09171028091790290917A020995DA
:1059A000E0916E02F0916F02099520917802883C97
:1059B0009105A1F5D0926D023FEFE31AF30A22237D
:1059C000C9F0E0917602F091770209958091720218
:1059D000681B60936C028FE099E00E94F70C409185
:1059E0006C0250E070E060E080916A0290916B027E
:1059F0000E94FF138091790290917A02892BB9F06D
:105A000080916D028111A6CFE114F10499F41092F6
:105A10007E0210927D026FE679E0F1CE222321F022
:105A200083E099E00E94F70C10926D02E3CFE1143D
:105A3000F10459F088EE98E00E94F70CB7018091CC
:105A40006A0290916B020E94291380916D02882353
:105A5000F1F210927E0210927D026FE779E0CFCED4
:105A600069E379E082E294E00E94821406CF62E268
:105A700079E0F8CF8091850290918602A09187020B
:105A8000B09188024091810250918202609183021C
:105A900070918402841B950BA60BB70B4E97A10542
:105AA000B10508F4FBCE8091850290918602A09109
:105AB0008702B09188028093810290938202A09322
:105AC0008302B093840230928A0220928902E6CE49
:105AD0004091850250918602609187027091880200
