:020000040000FA
:100000000C94C1050C9414200C94ED1F0C94B32196
:100010000C94B3210C94B3210C9481210C94E90528
:100020000C94E9050C94E9050C94E9050C94E90598
:100030000C945A210C94E9050C94E9050C94E905FB
:100040000C94A31F0C94E9050C94711F0C944B1F86
:100050000C94E9050C94E9050C94E9050C94E90568
:100060000C943B200C94E90508000000BE92244942
:10007000123EABAAAA2ABECDCCCC4C3E00000080DA
:10008000BEABAAAAAA3E00000000BF000000803F4D
:100090000000000000084178D3BB4387D1133D190D
:1000A0000E3CC3BD4282AD2B3E68EC8276BED98F3A
:1000B000E1A93E4C80EFFFBE01C4FF7F3F0000007E
:1000C0000000332E2055524C00322E2053616D70AB
:1000D0006C696E6720496E74657276616C00312EB2
:1000E00020446576696365204944004765747469F6
:1000F0006E67205254432074696D650055706461C9
:1001000074696E67205254432054696D65005254DF
:10011000432074696D65206973207570646174652E
:100120006400525443205365633A200052582049DA
:100130005251004E524620454550524F4D2053617A
:1001400076696E672E2E004D657468616E65203A83
:100150002000416D6D6F6E6961203A200048756D19
:100160006964697479203A200054656D7065726124
:1001700074757265203A20004944203A2000546981
:100180006D65203A20003C2D2D2D2D2D2D2D2D2D52
:1001900053656E736F7220446174612D2D2D2D2D6A
:1001A0002D2D2D2D2D2D2D2D2D2D2D2D3E00726122
:1001B0006D5120436F756E746572203A0043616C17
:1001C000696220536176696E6720666F72206D7177
:1001D000340043616C696220526164696E67206615
:1001E0006F72206D71340043616C696220536176D7
:1001F000696E6720666F72206D713133350043611F
:100200006C696220526164696E6720666F72206D4E
:100210007131333500496E70757420436D64203A36
:10022000004275666665723A20002D2D2D2D2D3EFB
:1002300052656164204D656D203A204F6C64003D2D
:100240003D3D3D3E003C3D3D3D3D5461696C203AA5
:10025000003D3D3D3D3E003C3D3D3D3D48656164CA
:10026000203A00526561642050616765203A2000A1
:1002700044756D70696E672050616765203A200093
:1002800045726173696E672041646472203A200090
:100290006D656D7150747220526561646572206382
:1002A000616C6C6564006D656D715074722057727D
:1002B000697465722063616C6C656400457261737A
:1002C000696E6720426C6F62203A20003C6D656D5C
:1002D00071206C6F636B65643E003C504F57455214
:1002E0005F444F574E3E003C5354414E44425931B7
:1002F0003E003C54584D4F44453E003C5354414E03
:10030000444259323E003C52584D4F44453E004312
:10031000455F50494E203A20003C72785F69727107
:100320003E003C6D61785F72745F6972713E003CA3
:1003300074785F6972713E000D0A002020005069D8
:100340006E67204661696C656400436865636B7322
:10035000756D206D69736D617463680050696E67B7
:1003600020536563203A200063203A20006D203A34
:10037000200043616C6962726174696E672E2E00A1
:100380001F1C1F1E1F1E1F1F1E1F1E0000000024FB
:100390000027002A0000000000250028002B004E46
:1003A000524620536574757020646F6E65005F4D12
:1003B000696C6C6973206973206E756C6C2C206E8F
:1003C0006565642074696D652066756E6374696F18
:1003D0006E7300526164696F207365747570206478
:1003E0006F6E65005254432041646A75737465648E
:1003F0000031353A32303A3534004D6172203135B2
:100400002032303231002D2D3E525443206973206A
:1004100052756E6E696E670052544320466F756E5A
:100420006400525443204E6F7420466F756E640012
:10043000207C205072657363616C6572203A2000E5
:1004400054696D65724120746F70203A0053656E77
:10045000736F722069732043616C696272617465A5
:10046000640053656E736F72206E6F742043616C0D
:1004700069627261746564006D656D712063726597
:10048000617465206661696C656400546F74616CA9
:10049000205461736B733A20006173796E63586600
:1004A000657220736574757020646F6E65007C2DB5
:1004B0002D2D2D2D2D2D2D2D2D2D2D2D2D2D2D2D6C
:1004C0002D2D2D2D2D2D2D2D2D2D2D2D2D2D2D2D5C
:1004D0002D2D2D2D2D2D2D2D2D2D2D2D2D2D2D7CFD
:1004E000007C2020202020202020412050726F649A
:1004F000756374206F662041646F7273686F20505B
:1005000072616E697368656261202020202020205E
:1005100020207C007C202020202020202020202043
:1005200020202020202020204761732053656E73F7
:100530006F7220202020202020202020202020201A
:1005400020202020207C007C2D2D2D2D2D2D2D2DAB
:100550002D2D2D2D2D2D2D2D2D2D2D2D2D2D2D2DCB
:100560002D2D2D2D2D2D2D2D2D2D2D2D2D2D2D2DBB
:100570002D2D2D2D2D2D2D2D7C00302E20457869F3
:100580007420436F6E66696700322E20506172617D
:100590006D657465722053657474696E6700312EE1
:1005A000204465766963652053657474696E6700DD
:1005B000302E2045786974205365747570204D6520
:1005C0006E7500352E2043616C696272617465201E
:1005D00053656E736F7200342E204C6F67204F6628
:1005E0006600332E204C6F67204F6E00322E20465F
:1005F0006163746F727920526573657400312E20C7
:10060000526573657420466C617368204D656D009A
:10061000526573657474696E672054582041646430
:100620007200466163746F727920526573657474E9
:10063000696E67204465766963652E2E00556E6B82
:100640006E6F776E20636D64004578697465642011
:1006500044657669636520436D640043616C69623B
:10066000726174696E672053656E736F722E2E000F
:100670004C6F67204F6666004C6F67204F6E0045D9
:10068000726173696E6720466C6173682E2E004537
:1006900078697420506172616D2053657474696E5D
:1006A000670053616D706C696E6720496E74657286
:1006B00076616C203A200044657669636520496460
:1006C000203A20002D2D2D2D3E4578697420436F52
:1006D0006E66696700556E6B6E6F776E206D61692F
:1006E0006E20636D6400454E544552454420534589
:1006F000545550005744542054696D65286D732932
:10070000203A006D5F53544154453A2043484543D5
:100710004B5F4841524457415245006D5F5354412D
:1007200054453A2053594E435F444556494345008A
:100730006D5F53544154453A2053544152545F44E1
:100740004556494345003C2D2D2D2D2D2D2D2D2D6C
:100750002D2D2D2D2D2D2D2D2D2D3E004C6F67690E
:100760006320506F7765723A2000466C6173682091
:100770003A005254433A20004E5246203A003C2D53
:100780002D4861726477617265205374617475736A
:100790002D2D3E002D2D2D2D2D2D2D2D2D2D2D2DA5
:1007A0002D2D3E53616D706C6520496E74657276B7
:1007B000616C2075706461746564002D2D2D3E00A0
:1007C000554E53594E434544005254435F53594E7E
:1007D000434544004E54505F53594E434544003CFA
:1007E0002D2D54696D65722073796E632053746189
:1007F000747573203A2000556E73796E63656420BA
:10080000616E6420525443204661696C6564004EF9
:1008100054502054696D653A200054582041646456
:1008200072203A200041646472205172792046613E
:10083000696C656400416464722051727920636858
:1008400065636B73756D206D69736D6174636800AA
:100850004E524620454550524F4D205265616469C5
:100860006E672E2E0047657474696E67204E65773B
:100870002041646472005458205265616479206696
:100880006F72205472616E736D6974002D2D2D2D61
:100890002D3E546F74616C20586665722050616300
:1008A0006B6574203A2000586665723A4661696C3F
:1008B000656400586665723A537563636573737C4B
:1008C00054696D653A0072756E5374617465203AAF
:1008D0002052554E5F54585F584645520072756E0F
:1008E0005374617465203A2052554E5F43484B5F04
:1008F00042535F434F4E4E002D2D3E41636369646A
:10090000656E74616C2044656661756C74206D6FF2
:100910006465004661696C656420616E642077617E
:10092000697400446F6E6520616E6420776169743C
:100930000072756E203A2052554E5F54585F5846EB
:100940004552003C3D3D4253204E6F7420436F6E34
:100950006E65637465643D3D3E0054696D65207449
:100960006F20646174612073656E64004A616E4635
:1009700065624D61724170724D61794A756E4A755A
:100980006C4175675365704F63744E6F7644656351
:100990000053756E4D6F6E54756557656454687578
:1009A0004672695361740020202020202020207C82
:1009B0000D0A7C2D2D2D2D2D2D2D2D2D2D2D2D2D5B
:1009C0002D2D2D2D2D2D2D2D2D2D2D2D2D2D2D2D57
:1009D0002D2D2D2D2D2D2D7C007C2D2D2D2D2D2DD6
:1009E0002D2D2D2D2D2D2D2D2D2D2D2D2D2D2D2D37
:1009F0002D2D2D2D2D2D2D2D2D2D2D2D2D2D7C0DF8
:100A00000A7C202020202020202020004461696CC6
:100A100079205363686564756C6500486F75726C06
:100A200079205363686564756C6500446576696315
:100A300065206973206E6F7420636F6E66696775D9
:100A400072656400646F6E65203A200061697252BD
:100A5000735230203A20005230203A2000524C206D
:100A60003A20006D203A200063203A20003C2D2DD2
:100A70004D512043616C6962726174696F6E2D2DF6
:100A80002D2D3E003C517279204661696C65643EB3
:100A9000003C517279204F6B3E0051756572796947
:100AA0006E672E2E0000000000230026002900049F
:100AB0000404040404040402020202020203030305
:100AC00003030301020408102040800102040810FF
:100AD00020010204081020000000080002010000AC
:100AE00003040700000000000000002D2D2D2D2D17
:100AF0002D2D2D2D2D2D2D2D2D2D2D2D2D2D2D2D26
:100B00002D00526567697374726174696F6E3A2063
:100B1000004465627567204F66663A200053616D38
:100B20007020496E74657276616C3A200044657677
:100B30006963652049643A20007C204465766963D6
:100B40006520436F6E66696720506172616D207C1D
:100B50000D0A2D2D2D2D2D2D2D2D2D2D2D2D2D2D08
:100B60002D2D2D2D2D2D2D2D002D2D2D2D2D2D2DE2
:100B70002D2D2D2D2D2D2D2D2D2D2D2D2D2D2D00D2
:100B8000BD2111241FBECFEFD8E0DEBFCDBF25E0D1
:100B9000AAE7B1E001C01D92A733B207E1F711E067
:100BA000A0E0B1E0EAE2F7E602C005900D92AA37B4
:100BB000B107D9F715E0C1ECD5E004C02197FE01DB
:100BC0000E944E32C03CD107C9F70E9474220C9497
:100BD00093330C94000008950895609187037091F9
:100BE00088038091890390918A0308952FB7F89420
:100BF0006091FB027091FC028091FD029091FE02D7
:100C00002FBF08950F931F93FC01718B608B538B43
:100C1000428B358B248B15AF04AF1F910F91089534
:100C20000F931F93CF93DF93EC0189017B8F6A8F22
:100C30005D8F4C8F8A96FB01099519A308A3DF915C
:100C4000CF911F910F9108958F929F92AF92BF9273
:100C5000CF92DF92EF92FF920F931F93CF93DF9388
:100C6000EC018B018EA99FA9009709F496C0039708
:100C700009F493C0EE89FF89309721F088AD811186
:100C800001C009952AAD3BAD6EA57FA588A999A99C
:100C9000E889F989A8010995E88DF98D309721F047
:100CA00088AD811101C009952AAD3BADCEA4DFA46A
:100CB000E8A8F9A8C20ED31EE11CF11CCEA6DFA63F
:100CC000E8AAF9AA2E8D3F8D2F5F3F4F3F8F2E8FC1
:100CD0006AA97BA98CA99DA94CAD5DAD8EA09FA0F2
:100CE000A8A4B9A4C814D904EA04FB04B9F5CAA09D
:100CF000DBA0ECA0FDA0CEA6DFA6E8AAF9AAEC89AD
:100D0000FD8909958AA19BA1ACA1BDA18AAB9BAB32
:100D1000ACABBDABEC8DFD8DCE018A9609954EA591
:100D20005FA568A979A98AA59BA5ACA5BDA548170B
:100D300059076A077B0721F483E090E09FAB8EABF5
:100D4000C801DF91CF911F910F91FF90EF90DF903D
:100D5000CF90BF90AF909F908F9008954B015C0112
:100D6000840E951EA11CB11CC814D904EA04FB040E
:100D7000B0F2EC89FD89099518AEE88DF98D3097B0
:100D800009F009952CAD3DAD8AA99BA9ACA9BDA9D7
:100D9000820F931FA11DB11DB9CF10E000E0D0CF8D
:100DA000CF93DF93EC012E8D3F8D88A199A1281759
:100DB000390738F0EC8DFD8DCE018A9609951F8E8E
:100DC0001E8EDF91CF910895FC01718F608F578B3C
:100DD000468B0895FC0180AD089580918703909122
:100DE0008803A0918903B0918A030196A11DB11DCA
:100DF0008093870390938803A0938903B0938A0319
:100E00008091090390910A03A0910B03B0910C0308
:100E10000196A11DB11D8093090390930A03A0932D
:100E20000B03B0930C0308950895EF92FF920F9374
:100E30001F93CF93DF938C017B01D0E0C0E0F701DB
:100E4000EC0FFD1F6491662361F0D801ED91FC91D8
:100E50000190F081E02DC8010995892B11F02196B0
:100E6000EECFCE01DF91CF911F910F91FF90EF90C8
:100E70000895AF92BF92CF92DF92EF92FF920F93BD
:100E80001F93CF93DF936C017B018B01040F151F20
:100E9000EB015E01AE18BF08C017D10759F0699188
:100EA000D601ED91FC910190F081E02DC6010995EC
:100EB000892B79F7C501DF91CF911F910F91FF9099
:100EC000EF90DF90CF90BF90AF900895FC01538DCD
:100ED000448D252F30E0842F90E0821B930B541714
:100EE00010F0CF96089501970895FC01918D828DA1
:100EF000981761F0A28DAE0FBF2FB11D5D968C913A
:100F0000928D9F5F9F73928F90E008958FEF9FEF78
:100F10000895FC01918D828D981731F0828DE80F34
:100F2000F11D858D90E008958FEF9FEF08950F9349
:100F30001F930E94F60560932C0470932D048093F8
:100F40002E0490932F0484E294E00E94890797FF77
:100F50001DC00E94F60500912C0410912D042091D3
:100F60002E0430912F04601B710B820B930B0091A8
:100F700028041091290420912A0430912B04601731
:100F8000710782079307F8F28FEF9FEF1F910F9180
:100F90000895FC01918D228D892F90E0805C9F4FF8
:100FA000821B91098F739927089584E294E00E942F
:100FB000C90721E0892B09F420E0822F089580E001
:100FC00090E0892B29F00E94D50781110C94000034
:100FD0000895FC01A48DA80FB92FB11DA35ABF4FCE
:100FE0002C91848D90E001968F739927848FA68928
:100FF000B7892C93A089B1898C91837080648C937C
:10100000938D848D981306C00288F389E02D80812A
:101010008F7D80830895EF92FF920F931F93CF935C
:10102000DF93EC0181E0888F9B8D8C8D98131AC023
:10103000E889F989808185FF15C09FB7F894EE890A
:10104000FF896083E889F989808183708064808367
:101050009FBF81E090E0DF91CF911F910F91FF90B2
:10106000EF900895F62E0B8D10E00F5F1F4F0F735A
:101070001127E02E8C8D8E110CC00FB607FCFACF15
:10108000E889F989808185FFF5CFCE010E94E907C3
:10109000F1CFEB8DEC0FFD2FF11DE35AFF4FF082E6
:1010A0009FB7F8940B8FEA89FB8980818062CFCF4C
:1010B000CF93DF93EC01888D8823B9F0AA89BB898F
:1010C000E889F9898C9185FD03C0808186FD0DC07A
:1010D0000FB607FCF7CF8C9185FFF2CF808185FF9B
:1010E000EDCFCE010E94E907E9CFDF91CF910895BE
:1010F000833081F028F4813099F08230A9F008958E
:101100008730A9F08830C9F08430B1F48091800034
:101110008F7D03C0809180008F7780938000089539
:1011200084B58F7784BD089584B58F7DFBCF809182
:10113000B0008F778093B00008958091B0008F7DCC
:10114000F9CFCF93DF93E9EDFAE08491E5ECFAE093
:10115000D491E1EBFAE0C491CC23A1F081110E947B
:101160007808EC2FF0E0EE0FFF1FEB55F54FA5913F
:10117000B491EC91ED2381E090E009F480E0DF91FF
:10118000CF91089580E090E0FACF1F93CF93DF9343
:10119000282F30E0F901E952F54F8491F901ED5320
:1011A000F54FD491F901E155F54FC491CC23A9F045
:1011B000162F81110E947808EC2FF0E0EE0FFF1F30
:1011C000EB56FC4FA591B4918FB7F894EC911111A7
:1011D00008C0D095DE23DC938FBFDF91CF911F91A4
:1011E0000895DE2BF8CFCF93DF9390E0FC01ED5311
:1011F000F54F24918155954FFC0184918823C9F0C6
:1012000090E0880F991FFC01E557FC4FA591B49120
:10121000FC01EB56FC4FC591D49161110DC09FB7F5
:10122000F8948C91209582238C938881282328839D
:101230009FBFDF91CF910895623051F49FB7F8942A
:101240003C91822F809583238C93E8812E2BEFCFC6
:101250008FB7F894EC912E2B2C938FBFEACF3FB72A
:10126000F8948091FF0290910003A0910103B09146
:10127000020326B5A89B05C02F3F19F00196A11DBA
:10128000B11D3FBFBA2FA92F982F8827BC01CD01D0
:10129000620F711D811D911D42E0660F771F881F2F
:1012A000991F4A95D1F708958F929F92AF92BF925E
:1012B000CF92DF92EF92FF924B015C010E942F09C7
:1012C0006B017C010E942F096C197D098E099F0911
:1012D000683E734081059105A8F321E0821A9108C8
:1012E000A108B10888EEC80E83E0D81EE11CF11CED
:1012F00081149104A104B10429F7FF90EF90DF90CD
:10130000CF90BF90AF909F908F90089508952091B7
:10131000D702260F3327331F21323105ECF42091F9
:10132000EC03FC0190E080E0243069F082E0089555
:10133000A091D7022191AC0149545D4FA40FB52F64
:10134000B11D2C930196861798F38091D702680FF0
:101350006093D70280E0089581E008951092EC0335
:1013600081E08093EB031092C60361E082E10E946A
:10137000C50861E083E10E94C508E9EBF0E08081E7
:101380008E7F808380818D7F808388E48093B80006
:1013900085E48093BC00089510921B0410921A04F7
:1013A00010921904109218040E94AE098BEE95E079
:1013B00090931704809316048CEE95E09093150497
:1013C000809314040895CF93DF9391E09093B60235
:1013D0008823B9F0C091B800D091BA008091BC00C8
:1013E0008A7B8093BC0060E082E10E94C50860E0D7
:1013F00083E10E94C5080E94AE09D093BA00C09351
:10140000B800DF91CF9108958F929F92AF92BF92D3
:10141000CF92DF92EF92FF920F931F93CF93DF93C0
:10142000D0911804D13208F0D7C0182FC0911304FE
:101430000E942F096B017C018091EC0381116BC02C
:1014400082E08093EC031093EB038FEF8093EA0329
:101450001092E903D093E803A3EFB3E0E8ECF3E0E4
:1014600080E0D81391C01092C7038091C703CC0FBE
:10147000C82BC093C7038091C603813009F088C090
:101480001092C6030E942F096B017C018091C70353
:101490008093BB008091EE039091EF03A091F00345
:1014A000B091F103892B8A2B8B2BA1F00E942F097D
:1014B0000091EE031091EF032091F0033091F103BE
:1014C0006C197D098E099F09061717072807390728
:1014D00008F442C08091BC0083FDD8CF85EC809396
:1014E000BC000E942F096B017C018091EC038230CB
:1014F00009F450C08091EA038F3F09F46FC08091D6
:10150000EA03803209F46CC08091EA03803309F465
:1015100069C084E026C08091EE039091EF03A09112
:10152000F003B091F103892B8A2B8B2B09F484CF24
:101530000E942F098090EE039090EF03A090F0039B
:10154000B090F1036C197D098E099F0986169706E4
:10155000A806B90608F070CF8091ED030E94E30958
:1015600085E010921904109218041092F203DF9192
:10157000CF911F910F91FF90EF90DF90CF90BF9090
:10158000AF909F908F9008959D9191938F5F69CFB9
:1015900085EEA5CF8091EE039091EF03A091F0032B
:1015A000B091F103892B8A2B8B2B09F49ECF0E94DB
:1015B0002F090091EE031091EF032091F003309179
:1015C000F1036C197D098E099F0906171707280773
:1015D000390708F08ACFC0CF81E0C3CF80E0C1CF08
:1015E00082E0BFCF83E0BDCFCF92DF92EF92FF9238
:1015F0000F931F93CF93DF93D82FC62F613208F03C
:1016000098C00E942F096B017C018091EC0381112D
:101610006BC081E08093EC038093EB039FEF90938A
:10162000EA031092E9039C0F9093E8038093C703A9
:101630008091C703DD0FD82BD093C7038091C603D9
:10164000813009F078C01092C6030E942F096B0107
:101650007C018091C7038093BB008091EE03909141
:10166000EF03A091F003B091F103892B8A2B8B2B10
:10167000A1F00E942F090091EE031091EF03209139
:10168000F0033091F1036C197D098E099F0906174B
:1016900017072807390708F448C08091BC0083FD6C
:1016A000D8CF85EC8093BC000E942F096B017C0190
:1016B0008091EC03813009F440C08091E9038C17DC
:1016C00010F4C091E903E8ECF3E0A6EAB3E080E0AF
:1016D0008C1355C08C2FDF91CF911F910F91FF90EC
:1016E000EF90DF90CF9008958091EE039091EF03FB
:1016F000A091F003B091F103892B8A2B8B2B09F475
:1017000084CF0E942F090091EE031091EF032091E6
:10171000F0033091F1036C197D098E099F090617BA
:1017200017072807390708F070CF8091ED030E9452
:10173000E309C0E0CFCF85EEB5CF8091EE03909165
:10174000EF03A091F003B091F103892B8A2B8B2B2F
:1017500009F4AECF0E942F090091EE031091EF0320
:101760002091F0033091F1036C197D098E099F09D6
:10177000061717072807390708F09ACFD6CF919197
:101780009D938F5FA5CF0895E0911B0480911A046B
:10179000E81730F4F0E0EA55FC4F808190E00895BE
:1017A0008FEF9FEF089590911B0480911A042FEF03
:1017B0003FEF981748F4E92FF0E0EA55FC4F2081FD
:1017C00030E09F5F90931B04C901089580911A0433
:1017D00090911B04891B990B0895CF92DF92EF9291
:1017E000FF920F931F93CF93DF937C01CB018A016C
:1017F0002091F203222389F0EB016B01C40ED51E68
:10180000CC15DD0569F06991D701ED91FC9101904E
:10181000F081E02DC7010995F3CF642F0E9487095D
:10182000C801DF91CF911F910F91FF90EF90DF9052
:10183000CF900895CF93DF931F92CDB7DEB7698322
:101840002091F2032223F9F020911804203258F05D
:1018500021E030E0FC013383228390E080E00F90B0
:10186000DF91CF91089580911904E82FF0E0ED50B9
:10187000FC4F998190838F5F8093190480931804A3
:1018800081E090E0ECCF61E0CE0101960E948709F3
:10189000F7CF1F93CF93DF93EC0181E08093F203A6
:1018A00088E680931304109219041092180460E0E3
:1018B00081EC94E00E941A0C2D811AE0822F612F96
:1018C0000E940C32682F660F680F660F620F81EC62
:1018D00094E00E941A0C2C81822F612F0E940C32FE
:1018E000682F660F680F660F620F81EC94E00E940C
:1018F0001A0C2B81822F612F0E940C32682F660FE9
:10190000680F660F620F81EC94E00E941A0C60E091
:1019100081EC94E00E941A0C2A81822F612F0E9490
:101920000C32682F660F680F660F620F81EC94E02F
:101930000E941A0C2981822F612F0E940C32682F7D
:10194000660F680F660F620F81EC94E00E941A0C1C
:101950002881822F612F0E940C32682F660F680F3A
:10196000660F620F81EC94E00E941A0C81E0DF9117
:10197000CF911F910C94040AFC01908190539A30EE
:1019800008F090E0818180532AE0929F800D11241D
:1019900008958F929F92AF92BF92CF92DF92EF9273
:1019A000FF92CF93DF93EC016A017B0180E8C81AB4
:1019B00083E4D80A8DE6E80A88E3F80A8CE3882EE7
:1019C000912CA12CB12CC701B601A50194010E9454
:1019D0002C326D83CA01B901A50194010E942C32F9
:1019E0006C83C701B60120E13EE040E050E00E9478
:1019F0002C32CA01B90128E130E040E050E00E94F9
:101A00002C326B83C701B60120E831E541E050E09C
:101A10000E942C32188263E97EEF8881982F9370A0
:101A200041E050E011F050E040E0FA01E359FE4F90
:101A30002E173F0740F0FB01E41BF50B2E0F3F1F55
:101A40008F5F8883EACF81E0898389818C30A0F41D
:101A5000482F4150550BFA01E058FC4FE491911189
:101A600003C0823009F4EF5FF0E02E173F0720F04B
:101A70002E1B3F0B8F5FE8CF2F5F2A83DF91CF9123
:101A8000FF90EF90DF90CF90BF90AF909F908F909E
:101A90000895DC0150E0E0E8F3E081E0861730F4DF
:101AA0009491490F511D8F5F3196F8CF633038F014
:101AB000CD0183709927892B11F44F5F5F4F9D01F2
:101AC0002D5F3F4F36952795369527956DE671E04A
:101AD000A69FC001A79F900DB69F900D112401975E
:101AE000820F931F840F951F0895CF93CFB7F8945B
:101AF0008091B502811127C0E9EBFAE08491EDEC09
:101B0000FAE09491E82FF0E0EE0FFF1FE557FC4F4D
:101B1000A591B491EC91E92321F461E08AE00E945F
:101B2000C50861E08AE00E94F3088CB580618CBD35
:101B30008CB580648CBD61E08DE00E94F30861E0AB
:101B40008BE00E94F3088091B5028F5F8093B5020D
:101B5000CFBFCF9108950CB405FC0DC09EBD000011
:101B60000DB407FEFDCF9EB58EBD00000DB407FE7F
:101B7000FDCF8EB508958EBD00000DB407FEFDCFDC
:101B80008EB59EBD00000DB407FEFDCF9EB5089535
:101B90008EBD00000DB407FEFDCF8EB50895EF9207
:101BA000FF920F931F93CF93DF937B014091A50387
:101BB000E091A303F091A403908121E030E0B9010A
:101BC00002C0660F771F4A95E2F7AB01409550952A
:101BD000942390834091A2030091A0031091A1034C
:101BE000F801908102C0220F331F4A95E2F7209539
:101BF00030952923208380620E94C80D80939F0323
:101C0000E701F5E0EF0EF11C89910E94C80DCE1599
:101C1000DF05D1F79091A203F801808121E030E047
:101C200001C0220F9A95EAF7822B8083DF91CF9132
:101C30001F910F91FF90EF9008958CBD9DBD089569
:101C4000BC0180916A0390916B030C9415070F936C
:101C50001F93CF93DF939091A203C091A003D091E3
:101C6000A103888101E010E0980102C0220F331F18
:101C70009A95E2F7209530958223888382EE0E9420
:101C8000C80D80939F039091A203888101C0000F2B
:101C90009A95EAF7082B0883DF91CF911F910F9156
:101CA00008950F931F93CF93DF939091A203C09158
:101CB000A003D091A103888101E010E0980102C047
:101CC000220F331F9A95E2F720953095822388835F
:101CD00081EE0E94C80D80939F039091A20388819A
:101CE00001C0000F9A95EAF7082B0883DF91CF9186
:101CF0001F910F9108950E94270E0C94510E0F937F
:101D00001F93CF93DF932091A203C091A003D091A2
:101D1000A103988101E010E0A80102C0440F551F03
:101D20002A95E2F79A012095309592239883982F6F
:101D3000862F90620E94AB0D2091A203888101C082
:101D4000000F2A95EAF7082B088390939F03DF91F1
:101D5000CF911F910F9108950F931F93CF93DF930E
:101D60002091A203C091A003D091A103988101E02A
:101D700010E0A80102C0440F551F2A95E2F79A010E
:101D8000209530959223988390E0982F88278F6F25
:101D90000E94AB0D3091A203288101C0000F3A953B
:101DA000EAF7022B088390939F03DF91CF911F9155
:101DB0000F910895CF93DF93D82FC62F0E94AC0EBA
:101DC000682F6C2B8D2FDF91CF910C947F0ECF92CB
:101DD000DF92EF92FF920F931F93CF93DF93F82E32
:101DE000D92EE62E9091A503E091A303F091A403D0
:101DF0008081C1E0D0E09E0102C0220F331F9A957E
:101E0000E2F720953095822380830E94510E9091B5
:101E1000A2030091A0031091A103F801808102C0E8
:101E2000CC0FDD1F9A95E2F7C095D095C823C083EB
:101E300080EA0E94C80DCF2CCF2DDD2D89910E9404
:101E4000C80D8C2F8C198E15C8F39091A203F80140
:101E5000808121E030E001C0220F9A95EAF7822BC1
:101E600080838DEA91E09093990380939803DF91AA
:101E7000CF911F910F91FF90EF90DF90CF90089539
:101E80003091A503E091A303F091A403208181E0A8
:101E900090E0AC0101C0440F3A95EAF7242B20836F
:101EA000A7E3B0E01197F1F73091A503208102C0BC
:101EB000880F991F3A95E2F7809590958223808349
:101EC0000895CF93DF93EC0161E070E080E090E053
:101ED0000E94540960E2CE010E94E70E0E94400F6A
:101EE00061E070E080E090E0DF91CF910C945409C4
:101EF0000F931F93CF93DF939091A5030091A303BA
:101F00001091A403F8018081C1E0D0E09E0102C0DD
:101F1000220F331F9A95E2F7209530958223808314
:101F200060E787E00E947F0E0E94510E80E00E94D1
:101F3000AC0E682F6E7F80E00E947F0E9091A5030B
:101F4000F801808102C0CC0FDD1F9A95E2F7C095A1
:101F5000D095C823C083DF91CF911F910F91089531
:101F60001F93CF93DF93182F64E08DE10E947F0EC3
:101F7000C1E0D0E001C0CC0F1A95EAF76C2F8CE1DC
:101F80000E94DA0E6C2F81E0DF91CF911F910C94AB
:101F9000DA0E90E080E00895CF92DF92EF92FF9208
:101FA000E0919A03F0919B0309956B017C0180916C
:101FB000980390919903883C9105C1F08439914030
:101FC00071F0E0919A03F0919B0309956C197D09DA
:101FD0008E099F09603271058105910540F38FEFED
:101FE0009FEFFF90EF90DF90CF90089510925903EC
:101FF0001092580388EC90E0F4CFCF92DF92EF92EA
:10200000FF920E94F6056B017C0184E294E00E943D
:102010007507181619066CF00E94F6056C197D09F3
:102020008E099F09683E73408105910570F38FEF1B
:102030009FEFFF90EF90DF90CF900895CF93DF93C5
:10204000EC0182E0888360911E0470911F047B8301
:102050006A838091870390918803A0918903B0914E
:102060008A038C839D83AE83BF8390E080E00E94CF
:10207000182F6C8B7D8B8E8B9F8B688B798B8A8BCB
:102080009B8B688779878A879B876C877D878E87FC
:102090009F87CE01DF91CF9108951F93CF93DF9358
:1020A000C5EFD4E060E088810E94C50885E00E9409
:1020B000C80D80E00E94C80D182F61E088810E9441
:1020C000C508812FDF91CF911F9108950E944D1077
:1020D00080FDFCCF0895DF92EF92FF920F931F9344
:1020E000CF93DF93EB01D82E7A0189010E9466100D
:1020F00060E08091F5040E94C50883E00E94C80D4D
:102100008D2D0E94C80D8D2F0E94C80D8C2F0E940E
:10211000C80DE7010E0D1F1D80E00E94C80D8993B8
:10212000C017D107C9F761E08091F504DF91CF9125
:102130001F910F91FF90EF90DF900C94C508CF9303
:10214000DF93C5EFD4E060E088810E94C50886E097
:102150000E94C80D61E088810E94C5080E944D1050
:1021600086958170DF91CF910895CF92DF92EF92A3
:10217000FF920F931F93CF93DF93C3EDD4E080EDD5
:10218000C82E84E0D82E0D81F090D304E090D404C2
:1021900018E0602F661F6627661F8E2D0E94C508F7
:1021A000000F61E08F2D0E94C50860E08F2D0E9416
:1021B000C508115071F72197CC16DD0621F761E0B3
:1021C0008091D5040E94C50860E08091D504DF911C
:1021D000CF911F910F91FF90EF90DF90CF900C94D3
:1021E000C508E82FE695E695E695F0E0ED52FB4F41
:1021F0002381382F377081E090E0A0E0B0E004C088
:10220000880F991FAA1FBB1F3A95D2F7662321F0AA
:10221000822B83830C94B51080958223FACFEF92A2
:10222000FF920F931F93CF93DF938BE992E00E946D
:102230001E108C01FC0160897189828993890E943A
:102240004631862F64E10E940C32C5E0D0E07E0169
:10225000E81AF10861E0EC16FD060CF060E08C2F46
:102260000E94F1102197B1F7F80164897589868978
:1022700097890E944631862F6AE00E940C32CAE09C
:10228000D0E07E01E81AF10861E0EC16FD060CF0E2
:1022900060E08C2F0E94F1102197C530D105A1F785
:1022A000F80164857585868597850E944631862F5D
:1022B00065E00E940C32CFE0D0E07E01E81AF10820
:1022C00061E0EC16FD060CF060E08C2F0E94F1102E
:1022D0002197CA30D105A1F7F80160857185828503
:1022E00093850E944631862F6AE00E940C32C4E139
:1022F000D0E08E01081B110961E00C171D070CF0DE
:1023000060E08C2F0E94F1102197CF30D105A1F70A
:10231000DF91CF911F910F91FF90EF90089581E091
:102320008093F20388E680931304109219041092AC
:10233000180460E081EC94E00E941A0C81E00E9495
:10234000040A61E088E60E94F40A10921B0480935C
:102350001A0481EC94E00E94D30B805887FB8827F5
:1023600080F90895CF93DF93EC013091A503E091BC
:10237000A303F091A403208181E090E002C0880FC4
:10238000991F3A95E2F78095909582238083BE014C
:1023900080E10E94CF0DBE018AE00E94CF0D61E076
:1023A00082E00E94DA0E80E0DF91CF910C94B00FB2
:1023B0000F931F93CF93DF938C01C0912204D09190
:1023C000230484E090E00E945432FC0113821282C4
:1023D00011830083FE01209751F49093230480938E
:1023E0002204DF91CF911F910F910895F90122816D
:1023F000338121153105D1F793838283CE01EDCF4F
:10240000CF93C0E08091EF049091F0048C0F911D68
:102410000E943730982F81E08C0FCF3F49F09923ED
:1024200029F0C82F9091F104981760F7CF91089583
:1024300080E0FCCFFB0101900020E9F73197AF016C
:10244000461B570BDC01ED91FC910280F381E02DDE
:1024500009948F929F92AF92BF92EF92FF920F9347
:102460001F93CF93DF93CDB7DEB7A1970FB6F89444
:10247000DEBF0FBECDBF7C01FA01CB0119A2223015
:1024800008F42AE08E010F5D1F4F822E912CB12C93
:10249000A12CBF01A50194010E942C32F901CA01AF
:1024A0006A300CF5605DD8016E938D01232B242BCF
:1024B000252B79F790E080E0109721F0BD01C7014E
:1024C0000E941A12A1960FB6F894DEBF0FBECDBFC0
:1024D000DF91CF911F910F91FF90EF90BF90AF9040
:1024E0009F908F900895695CDECF0F931F93CF93D9
:1024F000DF93162F082FEC01499150E070E060E067
:102500002AE080916A0390916B030E9429128BE369
:1025100093E00E94200E8C2F801B811768F388E3C4
:1025200093E0DF91CF911F910F910C94200E4F9269
:102530005F926F927F928F929F92AF92BF92CF9253
:10254000DF92EF92FF920F931F93CF936B017C0169
:10255000742EAC019B010E94D23163E371E08111C2
:1025600026C046015701E894B7F82FEF3FEF4FE739
:102570005FE7C501B4010E94D23181110CC02FEF79
:102580003FEF4FE75FE7C501B4010E94132F67E3F8
:1025900071E0181664F02FEF3FEF4FE75FE4C701DB
:1025A000B6010E9475311816ACF46BE371E084E259
:1025B00094E0CF911F910F91FF90EF90DF90CF901B
:1025C000BF90AF909F908F907F906F905F904F9053
:1025D0000C941A122FEF3FEF4FE75FECC701B601E3
:1025E0000E94132F87FDE1CF20E030E0A901C70151
:1025F000B6010E94132F10E000E087FF0AC06DE2D1
:1026000084E294E00E940B088C01F7FAF094F7F84A
:10261000F094C0E060E070E080E09FE37C1641F061
:1026200020E030E040E251E40E94D430CF5FF6CFAA
:10263000A70196010E9468302B013C010E9446319F
:102640004B015C012AE0BC01A40184E294E00E94F9
:1026500029127C01E00EF11ECC23D1F1C501B40199
:102660000E94182F9B01AC01C301B2010E94673088
:102670004B015C016EE284E294E00E940B08E80EDC
:10268000F91EC15028F120E030E040E251E4C501DC
:10269000B4010E94792F2B013C010E9446314B016D
:1026A000B12CA12C2AE0B501A40184E294E00E949F
:1026B0002912E80EF91EC501B4010E94182F9B01D2
:1026C000AC01C301B2010E9467304B015C01D9CF5C
:1026D000C701CF911F910F91FF90EF90DF90CF90A6
:1026E000BF90AF909F908F907F906F905F904F9032
:1026F00008956FE371E00C941A12CF93DF93BC013D
:1027000084E294E00E941A12EC0184E294E00E94B8
:1027100079138C0F9D1FDF91CF9108950F931F9315
:10272000CF93DF93EC01AB0170E060E02AE00E9400
:1027300029128C01CE010E947913800F911FDF9125
:10274000CF911F910F910895CF92DF92EF92FF9258
:10275000CF93DF936C01990FEE08FF08F7FE21C0BD
:102760006DE284E294E00E940B08EC0144275527B7
:10277000BA014C195D096E097F092AE084E294E0F0
:102780000E942912C80FD91F84E294E00E94791395
:102790008C0F9D1FDF91CF91FF90EF90DF90CF9036
:1027A00008952AE0B701A60184E294E00E9429126C
:1027B000EC01EACFCF92DF92EF92FF92CF9380EEBF
:1027C000C82E83E9D82E84E0E82EF12C84E294E030
:1027D0000E94C907892B89F481E0C81AD108E10851
:1027E000F10859F061E070E080E090E00E94540947
:1027F000EDCF84E294E00E9475070E949707FC01E8
:1028000097FD50C08D32910519F0C0970A9788F74F
:10281000C12CD12C7601C0E0E130F105D1F0ED32D0
:10282000F105F1F1CF01C0970A9798F4AAE0B0E062
:10283000A70196010E944D306F01FF0FEE08FF08BF
:10284000C60ED71EE81EF91E80E3C81AD108E1089B
:10285000F10884E294E00E9475070E949707FC014A
:10286000C0970A97C8F2E130F105B1F2CC2341F0EC
:10287000F094E094D094C094C11CD11CE11CF11CD4
:1028800065E172E084E294E00E941507C6010E94AF
:10289000A4138C2DCF91FF90EF90DF90CF900895EF
:1028A000C1E0D7CFC12CD12C7601EACFCF93DF93F3
:1028B0000E949712EC0184E294E00E9479138C0F3D
:1028C0009D1FDF91CF9108950F931F93CF93DF93B7
:1028D000EC01462F50E070E060E02AE00E942912EF
:1028E0008C01CE010E947913800F911FDF91CF914F
:1028F0001F910F9108950F931F93CF93DF93EC01D6
:102900002AE00E9429128C01CE010E947913800FC7
:10291000911FDF91CF911F910F9108950F931F93F6
:10292000CF93DF93EC010E9415078C01CE010E942A
:102930007913800F911FDF91CF911F910F9108950F
:10294000CF93DF9369E67BE084E294E00E948E14EB
:1029500069E37BE084E294E00E948E146DE27BE008
:1029600084E294E00E941507CCE1D4E06A817B8187
:1029700084E294E00E948E136DE17BE084E294E0B7
:102980000E9415076C817D8184E294E00E948E1381
:1029900061E17BE084E294E00E941507898190E088
:1029A0000E94A41362E07BE084E294E00E94150799
:1029B000688184E294E00E9464146BEE7AE084E221
:1029C00094E0DF91CF910C948E14CF93DF93EC01C0
:1029D0006DE67AE084E294E00E948E1468E67AE084
:1029E00084E294E00E941507688179818A819B8145
:1029F00042E050E00E94561463E67AE084E294E0FC
:102A00000E9415076C817D818E819F8142E050E09C
:102A10000E9456146DE57AE084E294E00E94150766
:102A2000688579858A859B8542E050E00E9456142E
:102A300067E57AE084E294E00E9415076C857D8565
:102A40008E859F8542E050E00E9456146CE47AE047
:102A500084E294E00E941507688979898A899B89B4
:102A600042E050E00E94561464E47AE084E294E08C
:102A70000E9415078C8990E0DF91CF910C94A413EC
:102A8000CF92DF92EF92FF92CF93DF936B017C01A5
:102A9000EA0165E472E084E294E00E9415072AE00E
:102AA000B701A60184E294E00E9429126FE372E06C
:102AB00084E294E00E948E1420E230E0AE01C7016F
:102AC000B601DF91CF91FF90EF90DF90CF900C9403
:102AD0006B104F925F926F927F928F929F92AF9204
:102AE000BF92CF92DF92EF92FF920F931F93CF93FB
:102AF000DF932B013C014A0167E572E084E294E038
:102B00000E9415072AE0B301A20184E294E00E942A
:102B1000291261E572E084E294E00E948E14920131
:102B2000332780E091E0821B930BF12CE12CC0E273
:102B3000D0E08E018C179D0708F48C010E9466106E
:102B40000E949F1060E08091F5040E94C50882E019
:102B50000E94C80D862D0E94C80D852D0E94C80DAB
:102B6000842D0E94C80D5401AE0CBF1C6501F601F6
:102B700081916F010E94C80DC6018A199B098017B7
:102B80009107A8F361E08091F5040E94C508400E0A
:102B9000511E611C711CE00EF11EC01BD10B80E0A8
:102BA00091E039F6DF91CF911F910F91FF90EF9057
:102BB000DF90CF90BF90AF909F908F907F906F905D
:102BC0005F904F900895CF92DF92EF92FF921F9304
:102BD000CF93DF937C0160E972E084E294E00E948D
:102BE0008E140E940012C091F1042091EF043091E4
:102BF000F004C20FD32FD11D82509091F204899F0F
:102C0000C00DD11D112410E08091F204181768F452
:102C1000812F90E06701C80ED91E8C0F9D1F0E9466
:102C20003730F60180831F5FEFCFDF91CF911F9187
:102C3000FF90EF90DF90CF900895EF92FF920F9367
:102C40001F93CF93DF937C0162ED71E084E294E007
:102C50000E948E148701D0E0C0E0CE010E94373080
:102C6000F80181938F012196C531D105B1F7C701D4
:102C7000DF91CF911F910F91FF90EF900C94E5148D
:102C8000EF92FF920F931F93CF93DF937C016EEF30
:102C900071E084E294E00E948E148701C5E1D0E0E7
:102CA000CE010E943730F80181938F012196CA32FC
:102CB000D105B1F7C701DF91CF911F910F91FF901F
:102CC000EF900C94E5146CE271E084E294E00C94D3
:102CD0008E14BC0180916A0390916B030C948E1446
:102CE000CF93DF9380E00E94AC0ED82F81FF58C0B5
:102CF000E091A303F091A4033297C0812091A50332
:102D000081E090E001C0880F2A95EAF7C8238091FE
:102D10009E03882371F08FE093E00E94200E61E013
:102D2000C11101C060E080916A0390916B030E9421
:102D30006414D0FF0DC0CC23F1F180919E03882351
:102D400021F086E093E00E94691683E090E033C0B2
:102D5000CC23D9F087E10E94AC0E84FF0BC0809198
:102D60009E03882321F08BEF92E00E94691682E097
:102D700090E021C080919E03882321F082EF92E0B1
:102D80000E94691684E090E016C080919E0388231B
:102D900021F087EE92E00E94691681E090E00BC07E
:102DA00080919E03882321F08AED92E00E946916AB
:102DB00090E080E000C0DF91CF9108952F923F9284
:102DC0004F925F926F927F928F929F92AF92BF923B
:102DD000CF92DF92EF92FF920F931F93CF93DF93E7
:102DE00000D01F92CDB7DEB7E62E372E4B8398EC7E
:102DF00099838A8380919E03882321F08AE99AE04F
:102E00000E94691680919C0390919D030E94B211CB
:102E10000E94780F62E0CE0101960E94E70E0E94A8
:102E2000400FE0919A03F0919B0309952B013C011F
:102E3000CC24C394D12C93E5A92E92E0B92E2DEA8F
:102E4000822E992493948091980390919903883CC1
:102E50009105E9F08A3C910509F47DC0E0919A035F
:102E6000F0919B0309956419750986099709683ED5
:102E700073408105910538F380919E03882321F0EA
:102E800084E89AE00E946916E12C312C9EC0609182
:102E90009C0370919D03F09097039091A50300917E
:102EA000A3031091A403F8018081960102C0220FB0
:102EB000331F9A95E2F72095309582238083F5E0C1
:102EC000FF1508F441C021E02F2C2F1508F03EC05B
:102ED000FB0160818AE08F0D0E947F0EB60101C068
:102EE000660F2A94EAF782E00E94DA0E8F2D0E9484
:102EF000B00F9091A503F8018081960102C0220FC6
:102F0000331F9A95E2F7209530958223808360E7FE
:102F100087E00E947F0E0E94270E61E080E00E9401
:102F2000DA0E9091A503F8018081960101C0220F6D
:102F30009A95EAF7822B8083C5010197F1F7909269
:102F40009903809298038ACF222423948AE0820DE9
:102F50000E94CF0DC3CF3091A203C090A003D090A8
:102F6000A103F601208181E090E002C0880F991F43
:102F70003A95E2F7809590958223808381E60E94BE
:102F8000C80DFE2C0E2D132D8FEF0E94C80DF801D9
:102F900081938F018E2F8F19FB818F17A8F390914A
:102FA000A203F601808121E030E001C0220F9A9552
:102FB000EAF7822B80830E94270E80919E0388234C
:102FC00021F081E99AE00E9469168E2D932D0F90D1
:102FD0000F900F90DF91CF911F910F91FF90EF9085
:102FE000DF90CF90BF90AF909F908F907F906F9029
:102FF0005F904F903F902F9008950F931F93CF9322
:10300000DF93FC0120AD21115DC08B01EC0106882E
:10301000F789E02D309709F009952AAD3BAD6AA5F7
:103020007BA58CA59DA5EA89FB89A8010995E88D5A
:10303000F98D309709F009952AAD3BAD8AA59BA57E
:10304000ACA5BDA5820F931FA11DB11D8AA79BA78B
:10305000ACA7BDA721E030E03FAB2EAB2E8D3F8D5E
:103060002F5F3F4F3F8F2E8F4EA15FA168A579A59F
:1030700084179507A607B70741F48AA19BA1ACA1C5
:10308000BDA18AA79BA7ACA7BDA74AA55BA56CA5B8
:103090007DA58AA99BA9ACA9BDA9481759076A07AC
:1030A0007B07C1F481E088AFEC8DFD8DCE018A965F
:1030B0000995EE89FF89309769F0DF91CF911F91D3
:1030C0000F9109948CEC92E0DF91CF911F910F91B9
:1030D0000C946916DF91CF911F910F9108950F9372
:1030E0001F93CF93DF93CDB7DEB72C970FB6F8942D
:1030F000DEBF0FBECDBF62E080E00E94DA0E62E06C
:1031000070E080E090E00E9454090E94780F4CE04B
:10311000BE016F5F7F4F89EC0E94DE168C01892B08
:10312000C1F18CE593E00E94200EF80140815181AD
:103130006281738180916A0390916B030E947B147A
:10314000FE0131969E01245F3F4F90E080E0419167
:10315000840F911D2E173F07D1F7F801938598171B
:1031600041F080919E03882321F08AE493E00E943D
:103170006916F80160817181828193812C960FB666
:10318000F894DEBF0FBECDBFDF91CF911F910F919D
:10319000089580919E03882321F08EE393E00E949E
:1031A000691660E070E0CB01E9CF60E787E00E943C
:1031B0007F0E80919F0385FF15C088EC90E090936F
:1031C000990380939803E0910703F09108033097E7
:1031D00009F0099580919E03882381F18FE293E0A5
:1031E0000C94691680919F0386FF14C08AEC90E0CE
:1031F0009093990380939803E0910503F09106035F
:10320000309709F0099580919E038823B9F089E1F0
:1032100093E0E6CF84E991E090939903809398033B
:10322000E0910303F0910403309709F00995809130
:103230009E03882319F082E293E0D2CF0895CF93C2
:10324000DF93C0911203D0911303CE010E941E1090
:1032500066E871E084E294E00E948E146EE771E00B
:1032600084E294E00E9415074C815D816E817F812C
:1032700084E294E00E947B1468E771E084E294E0C9
:103280000E9415076A817B8184E294E00E948E137C
:1032900069E671E084E294E00E9415076C897D89FB
:1032A0008E899F8942E00E94971282E491E00E94F9
:1032B0007D136DE571E084E294E00E941507688952
:1032C00079898A899B8942E00E94971285E491E07E
:1032D0000E947D1362E571E084E294E00E9415078C
:1032E000688579858A859B8542E00E9497128AE4E9
:1032F00091E00E947D1367E471E084E294E00E9413
:1033000015076C857D858E859F8542E00E9497120A
:103310008AE491E00E947D136EEA71E084E294E019
:103320000E94150780917A01082E000C990B0E94CB
:10333000A41380917A018F5F80937A0180911103A9
:103340002091120330911303820F932F911D9093BC
:1033500013038093120320910D0330910E0328175D
:103360003907A8F4209114033091150382179307AD
:1033700071F410927A018091160390911703909343
:103380001303809312039093100380930F03C09153
:103390000F03D09110032097D1F080917F0390917B
:1033A0008003DC011296ED91FC91BE01099580919C
:1033B0007F0390918003BE01605E7F4FDC01129617
:1033C000ED91FC9109951092100310920F03DF917B
:1033D000CF910895FF920F931F93CF93DF930E9495
:1033E0008F11882309F4C9C06BEE70E084E294E089
:1033F0000E948E1481E08093F20388E68093130488
:10340000109219041092180460E081EC94E00E947C
:103410001A0C81E00E94040A67E088E60E94F40A20
:1034200010921B0480931A0481EC94E00E94D30B49
:103430008F77282F30E094E0359527959A95E1F71E
:10344000922F990F990FC22FC91BCC0FC80F81EC77
:1034500094E00E94D30B9C0144E0359527954A9552
:10346000E1F72F703327922F990F990FD22FD91B85
:10347000DD0FD80F81EC94E00E94D30B9C0154E047
:10348000359527955A95E1F72F703327922F990F8D
:10349000990F122F191B110F180F81EC94E00E9445
:1034A000D30B81EC94E00E94D30B9C0164E0359532
:1034B00027956A95E1F72F703327922F990F990F6F
:1034C000F22EF91AFF0CF80E81EC94E00E94D30B57
:1034D0009C0174E0359527957A95E1F72F70332795
:1034E000922F990F990F022F091B000F080F81ECE3
:1034F00094E00E94D30B9C01E4E035952795EA9572
:10350000E1F72F703327922F990F990F291B220F64
:10351000820F4F2D602F90E00E94490D9C01A8E181
:10352000B0E00E9458309B01AC01210F311D411DBC
:10353000511DACE3B0E00E944D309B01AC012D0F5A
:10354000311D411D511D0E944D30AB01BC018C2F1E
:1035500090E0B0E0A0E080589C4BA249B74C8A01B3
:103560009B01080F191F2A1F3B1FC901B801DF91DA
:10357000CF911F910F91FF90089560E070E0CB0113
:10358000F6CF8F929F92AF92BF92CF92DF92EF923F
:10359000FF92CF93DF9300D000D000D0CDB7DEB73D
:1035A0006B017C010E948F118823D9F10E94EA19D6
:1035B0004B015C0162E271E084E294E00E94150735
:1035C000B501A40184E294E00E947B14D701C601F6
:1035D00088199909AA09BB09181619061A061B06A3
:1035E0005CF40297A105B10564F46EE071E084E239
:1035F00094E00E948E1415C08F3F9F4FAF4FBF4F76
:10360000A4F76CEF70E084E294E00E948E14B7019E
:10361000A601CE0101960E94C90CCE0101960E941E
:10362000490C26960FB6F894DEBF0FBECDBFDF91D2
:10363000CF91FF90EF90DF90CF90BF90AF909F9091
:103640008F9008954F925F926F927F928F929F9288
:10365000AF92BF92CF92DF92EF92FF921F93CF93E0
:10366000DF9300D000D000D0CDB7DEB79E838D832E
:1036700049835A836B837C8362E773E084E294E03E
:103680000E948E1414E122E340E050E0BA01ED8183
:10369000FE8180818E3008F08E5087708064809328
:1036A0007C0080917A00806480937A0080917A0017
:1036B00086FDFCCF8091780090917900092E000C56
:1036C000AA0BBB0B480F591F6A1F7B1F2150F9F62D
:1036D000CB01BA0122E330E040E050E00E942C32FE
:1036E00049015A016FEF73E080E090E068197909B1
:1036F0008A099B090E94182FED81FE812185328560
:10370000438554850E94792F2B013C01C501B401EA
:103710000E94182F9B01AC01C301B2010E94D4305A
:103720004B015C0164E670E080E090E00E94540987
:10373000A5019401C701B6010E9468306B017C01AC
:10374000115009F0A0CF20E030E040EA51E40E949F
:10375000D43029813A814B815C810E94D4306B0145
:103760007C016FE471E084E294E00E941A1242E06E
:1037700050E0C701B6010E94561420E030E0A901D4
:10378000C701B6010E94132F87FF03C0C12CD12CA3
:103790007601C701B60126960FB6F894DEBF0FBEBC
:1037A000CDBFDF91CF911F91FF90EF90DF90CF9031
:1037B000BF90AF909F908F907F906F905F904F9051
:1037C00008958F929F92AF92BF92CF92DF92EF9225
:1037D000FF920F931F93CF93DF936B017C0160E8FF
:1037E00072E084E294E00E941507B701A60184E22A
:1037F00094E00E947B140E9466100E949F10882310
:10380000D1F060E08091F5040E94C50880E20E943A
:10381000C80D8E2D0E94C80D8D2D0E94C80D8C2DB7
:103820000E94C80D61E08091F5040E94C5080E94C5
:103830004D1081FDFCCF8D2C9E2CAF2CBB2460E75E
:1038400072E084E294E00E941507B501A40184E2CD
:1038500094E00E947B1463E672E084E294E00E94AC
:103860001507B501A40184E294E00E947B14C7010E
:10387000B601662720E031E04BE951E00E946B1071
:103880000BE911E0C0E17801D0E0F70141917F013F
:1038900050E070E060E02AE084E294E00E942912A7
:1038A00062E571E084E294E00E941A12DF5FD03199
:1038B00061F784E294E00E947913C150005F1F4FCA
:1038C000C111E1CFDF91CF911F910F91FF90EF9048
:1038D000DF90CF90BF90AF909F908F9008950F93FF
:1038E0001F93CF93DF938091580390915903892BB5
:1038F000C9F580917F0390918003DC01ED91FC91EB
:103900006BE771E00995EC0190935903809358039C
:10391000892BF9F061E272E084E294E00E941507DD
:103920008E01005E1F4F499150E070E060E02AE098
:1039300084E294E00E94291262E571E084E294E05E
:103940000E941A12C017D10771F784E294E00E9416
:1039500079138091580390915903DF91CF911F9172
:103960000F9108956AE272E084E294E00E948E145E
:10397000F0CF4F925F926F927F928F929F92AF9211
:10398000BF92CF92DF92EF92FF92CF93DF9300D05E
:1039900000D000D0CDB7DEB79E838D83DC01DC96EE
:1039A0006D917C9190E080E00E94182F0E948A31F6
:1039B00028E132E741E35FE30E94D4300E944631C0
:1039C000ED81FE81C2A0D3A0E4A0F5A0062E04C024
:1039D000F694E794D794C7940A94D2F786A197A156
:1039E000A0A5B1A50197A109B1099C01AD01062EC1
:1039F00004C056954795379527950A94D2F72983A1
:103A00003A834B835C83412C512C32014394062E24
:103A100004C0440C551C661C771C0A94D2F746015E
:103A2000570104C0880C991CAA1CBB1C6A95D2F7CC
:103A300029813A814B815C812C153D054E055F053E
:103A4000B0F5ED81FE8182A193A1A4A1B5A182A7C9
:103A500093A7A4A7B5A786A797A7A0ABB1AB82AB46
:103A600093ABA4ABB5AB17AA16AA10AE11AEDF018B
:103A7000048CF58DE02DCD018A960995ED81FE81AE
:103A8000178E168E26960FB6F894DEBF0FBECDBFEA
:103A9000DF91CF91FF90EF90DF90CF90BF90AF90EC
:103AA0009F908F907F906F905F904F9008958CEBD8
:103AB00092E00E94200EB701A60180916A039091C6
:103AC0006B030E947B14AD81BE81DC964D915C91AD
:103AD000DD975496ED91FC91C501B4010995BFEFB6
:103AE000CB1ADB0AEB0AFB0A840C951CA61CB71C3C
:103AF0009FCF85ED8093BC008091EE039091EF0302
:103B0000A091F003B091F1030796A11DB11D23E030
:103B1000B695A795979587952A95D1F72091BC00E2
:103B200024FD03C01092EC0308954091EE035091E0
:103B3000EF036091F0037091F103452B462B472B67
:103B400069F30097A105B10541F025E32A95F1F746
:103B500000000197A109B109E1CF8091ED030C9418
:103B6000E3092F923F924F925F926F927F928F92D2
:103B70009F92AF92BF92CF92DF92EF92FF920F93FC
:103B80001F93CF93DF9300D000D0CDB7DEB71C01D9
:103B90002A013B0109831A832B833C83A7019601E9
:103BA000C501B4010E94D4300E947A314B015C01FE
:103BB000A301920169817A818B819C810E94D4301A
:103BC0000E947A319B01AC01C501B4010E94D4303E
:103BD0004B015C01F10185829682A782B086C70104
:103BE000B6010E947A316B017C01C301B2010E94CF
:103BF0007A319B01AC01C501B4010E94792F9B0170
:103C0000AC01C701B6010E946730F1016183728384
:103C1000838394836DE673E084E294E00E94150749
:103C2000F101658176818781908546E050E00E94B0
:103C3000561468E673E084E294E00E941507F101EF
:103C4000618172818381948142E050E00F900F90F6
:103C50000F900F90DF91CF911F910F91FF90EF90F8
:103C6000DF90CF90BF90AF909F908F907F906F909C
:103C70005F904F903F902F900C945614EF92FF92CC
:103C80000F931F93CF93DF937C0166EA72E084E287
:103C900094E00E948E140E940012C82F8091F104BB
:103CA0008C1788F4C0E08091EF049091F00420918B
:103CB000F104C21738F460E08C0F911D0E943F3070
:103CC000CF5FF1CFC1E02FEF2C0F022F10E08091DA
:103CD000F1044091EF045091F004840F952F911D51
:103CE0003091F204239F800D911D11249093F404D0
:103CF0008093F304D0E08091F204D81780F48D2FE4
:103D000090E0F701E80FF91F2091F3043091F404DB
:103D10006081820F931F0E943F30DF5FECCF809164
:103D2000EF049091F0046C2F800F911FDF91CF91E1
:103D30001F910F91FF90EF900C943F30FF920F93E3
:103D40001F93CF93DF93EC01F62E08811981C801F0
:103D50000E943730F81621F06F2DC8010E943F30C5
:103D6000CE01DF91CF911F910F91FF900895CF92D7
:103D7000DF92EF92FF920F931F93CF93DF9300D0C8
:103D8000CDB7DEB76C0163E371E084E294E00E949A
:103D90008E1476010AE210E0F70161917F011A8327
:103DA0000983CE0101960E949E1E0F5F1F4F0233B2
:103DB000110591F768E0C6010E9475120F900F90EF
:103DC000DF91CF911F910F91FF90EF90DF90CF90F7
:103DD0000895CF92DF92EF92FF920F931F93CF93AC
:103DE000DF9300D0CDB7DEB76C0167EE71E084E2FF
:103DF00094E00E948E14760105E110E0F7016191D4
:103E00007F011A830983CE0101960E949E1E0F5FD7
:103E10001F4F0A32110591F7C6010E94E5140F9059
:103E20000F90DF91CF911F910F91FF90EF90DF9056
:103E3000CF900895CF92DF92EF92FF920F931F934E
:103E4000CF93DF9300D0CDB7DEB76C016DEB71E09F
:103E500084E294E00E948E14760110E000E0F70105
:103E600061917F011A830983CE0101960E949E1EF3
:103E70000F5F1F4F0531110591F7C6010E94E51430
:103E80000F900F90DF91CF911F910F91FF90EF90C6
:103E9000DF90CF9008951F920F920FB60F921124CA
:103EA0002F933F934F935F936F937F938F939F9342
:103EB000AF93BF93EF93FF9384E294E00E94E907EE
:103EC000FF91EF91BF91AF919F918F917F916F91F2
:103ED0005F914F913F912F910F900FBE0F901F90C8
:103EE00018951F920F920FB60F9211242F938F9354
:103EF0009F93EF93FF93E0913404F0913504808118
:103F0000E0913A04F0913B0482FD1BC090818091C6
:103F10003D048F5F8F7320913E04821741F0E09142
:103F20003D04F0E0EC5DFB4F958F80933D04FF91E5
:103F3000EF919F918F912F910F900FBE0F901F9037
:103F400018958081F4CF1F920F920FB60F92112413
:103F50002F933F938F939F93AF93BF938091FB02D7
:103F60009091FC02A091FD02B091FE023091FA0204
:103F700023E0230F2D3758F50196A11DB11D209385
:103F8000FA028093FB029093FC02A093FD02B0938F
:103F9000FE028091FF0290910003A0910103B09175
:103FA00002030196A11DB11D8093FF0290930003AF
:103FB000A0930103B0930203BF91AF919F918F91A2
:103FC0003F912F910F900FBE0F901F90189526E8EC
:103FD000230F0296A11DB11DD2CF1F920F920FB6D3
:103FE0000F9211242F933F934F935F936F937F937F
:103FF0008F939F93AF93BF93EF93FF93E09107014C
:10400000F09108010995FF91EF91BF91AF919F91B8
:104010008F917F916F915F914F913F912F910F9071
:104020000FBE0F901F9018951F920F920FB60F9210
:1040300011242F933F934F935F936F937F938F93AD
:104040009F93AF93BF93EF93FF93E0910501F0919E
:1040500006010995FF91EF91BF91AF919F918F91CB
:104060007F916F915F914F913F912F910F900FBE74
:104070000F901F9018951F920F920FB60F92112458
:104080002F933F934F935F936F937F938F939F9360
:10409000AF93BF93EF93FF938091B900887F8036F1
:1040A00009F44AC0F0F5883209F4A7C018F5803148
:1040B00009F49BC0B8F4882309F4F9C0883009F4E6
:1040C00094C0FF91EF91BF91AF919F918F917F919C
:1040D0006F915F914F913F912F910F900FBE0F9075
:1040E0001F901895883109F488C0803251F7809369
:1040F000EA0314C0803409F49DC040F48033B9F35E
:104100008833F9F68093EA0385ECB0C0803509F472
:1041100085C0883509F496C0883499F60E94791DC7
:10412000D0CF883909F48CC038F5883729F050F49D
:10413000883611F0803729F683E08093EC031092E3
:10414000F90257C0883809F47BC0803919F08038EB
:1041500009F0B7CF8091F902803208F071C0E09188
:10416000F90281E08E0F8093F9028091BB00F0E0AC
:10417000E752FD4F80833DC0803B39F0E0F4803A48
:1041800009F479C0883A09F09CCF84E08093EC036D
:104190001092D8021092D702E0911604F091170401
:1041A00009958091D70281110FC081E08093D702D9
:1041B0001092B70209C0803C09F4A6CF883C09F4EC
:1041C000A3CF883B09F07DCFE091D80281E08E0F2C
:1041D0008093D802F0E0E954FD4F80818093BB00CA
:1041E0009091D8028091D70229C08091C703809313
:1041F000BB0085EC8093BC0064CF9091E903809173
:10420000E803981758F5E091E90381E08E0F809359
:10421000E903F0E0E853FC4F8081E9CFE091E90346
:1042200081E08E0F8093E9038091BB00F0E0E853BA
:10423000FC4F80839091E9038091E8039817C8F2BE
:1042400085E8D8CFE091E90381E08E0F8093E90300
:104250008091BB00F0E0E853FC4F80838091EB033A
:1042600081115CCF81E08093C60384EA8093BC0017
:104270001092EC0326CF85EC8093BC001092EC03E7
:104280008091F902803230F4E091F902F0E0E752D7
:10429000FD4F10826091F90270E0E0911404F091FA
:1042A000150489ED92E009951092F9020ACF109257
:1042B000EA0334CF1F920F920FB60F9211242F935F
:1042C0003F934F935F936F937F938F939F93AF939E
:1042D000BF93EF93FF93E0915C03F0915D03099529
:1042E000FF91EF91BF91AF919F918F917F916F91CE
:1042F0005F914F913F912F910F900FBE0F901F90A4
:1043000018951F920F920FB60F9211242F933F937F
:104310004F935F936F937F938F939F93AF93BF93CD
:10432000EF93FF93E0915A03F0915B03309709F00C
:10433000099514BE8091600088618093600088E0D8
:1043400080936000FF91EF91BF91AF919F918F910A
:104350007F916F915F914F913F912F910F900FBE81
:104360000F901F9018951F920F920FB60F92112465
:104370000F900FBE0F901F901895E4E2F4E01382A7
:10438000128288EE93E0A0E0B0E084839583A68358
:10439000B78323E131E03183208325EC30E035879A
:1043A000248724EC30E03787268720EC30E0318BFF
:1043B000208B21EC30E0338B228B22EC30E0358BEC
:1043C000248B26EC30E0378B268B118E128E138EC9
:1043D000148EE1ECF4E01382128284839583A68329
:1043E000B78385E291E09183808340E853E46DE6F2
:1043F00078E38DEC94E00E94C90CE3EDF4E086E0F4
:10440000808387E0818385E0828361E086E00E948B
:10441000F30861E087E00E94F30861E085E00E9414
:10442000F30860E086E00E94C50860E087E00E9433
:10443000C50860E085E00E94C508E6EDF4E083E091
:10444000DF011D928A95E9F70E94B510E5EFF4E0CF
:104450008FEF818388E08083EFEEF4E088E490E0E2
:104460009183808384E0828382E08383E4EEF4E0BE
:104470008FE091E1918380838AE090E0A0E0B0E05A
:1044800082839383A483B583128616821782108653
:104490001186E9EDF4E08FE199E19183808385E075
:1044A00090E0A0E0B0E082839383A483B58312867A
:1044B00016821782108611862EE020930D052FE0BC
:1044C0002093F70410922705E8E2F5E020E736E1B3
:1044D0003183208382839383A483B58312861682DB
:1044E0001782108611860895CF93DF93CDB7DEB77C
:1044F000A8970FB6F894DEBF0FBECDBF789484B5F1
:10450000826084BD84B5816084BD85B5826085BDCF
:1045100085B5816085BD80916E00816080936E005D
:10452000109281008091810082608093810080914F
:104530008100816080938100809180008160809300
:1045400080008091B10084608093B1008091B000C0
:1045500081608093B00080917A00846080937A00BB
:1045600080917A00826080937A0080917A008160E5
:1045700080937A0080917A00806880937A0010920C
:10458000C100E0913404F091350422E02083E091F1
:104590003004F09131041082E0913204F091330440
:1045A00087E0808310923C04E0913804F091390454
:1045B00086E08083E0913604F09137048081806149
:1045C0008083E0913604F091370480818860808395
:1045D000E0913604F0913704808180688083E09117
:1045E0003604F091370480818F7D808386EF95E0DB
:1045F00090939B0380939A0385E290E09093A403A9
:104600008093A3032093A5039093A1038093A00319
:1046100031E03093A20384B1866084B94091A50350
:10462000E091A303F091A403208181E090E0BC011C
:1046300002C0660F771F4A95E2F7AB01409550958F
:10464000242320834091A2030091A0031091A10391
:10465000D8012C9101C0880F4A95EAF7822B8C93E0
:104660008DEA91E090939903809398031092080348
:104670001092070310920603109205031092040390
:104680001092030330939E030E94750D81E590E024
:104690000E941D0E80919E03882331F084E294E0F5
:1046A00090936B0380936A0364E670E080E090E08F
:1046B0000E9454099091A203F8018081EE24E394B2
:1046C000F12C970102C0220F331F9A95E2F7209533
:1046D0003095822380838FEF0E94C80D9091A203B2
:1046E000D8018C9101C0EE0C9A95EAF7E82AEC9279
:1046F0006CE780E00E947F0E60E787E00E947F0EFB
:1047000060E082E00E947F0E60E081E00E947F0E08
:1047100060E08CE10E947F0E68E785E00E947F0EDA
:1047200063E083E00E947F0E6FE784E00E947F0ECB
:104730006EE086E00E947F0E0E94510E0E94270EBE
:104740006CE080E00E947F0E80919A0390919B0321
:10475000892B21F48EEA93E00E94200E8FE993E0EA
:104760000E94691684E197E0909308038093070301
:1047700083E696E190930603809305038BE79EE022
:10478000909304038093030380E091E090939D0352
:1047900080939C031092970380E00E94AC0E682FD8
:1047A0006D7F80E00E947F0E63ED73E084E294E011
:1047B0000E948E140E94CC0981E08093F20388E667
:1047C00080931304109219041092180481E00E943F
:1047D000040A68E174E0882311F062E274E084E284
:1047E00094E00E948E140E948F1166E074E08111A3
:1047F00057C04BE050E06AEF73E0CE0101960E9493
:10480000ED2ECE010A960E94BC0C89A3E981E154E9
:10481000E33120F50E2E000CFF0BEF5EFB4D0C94E8
:104820004E32EE252E242E2402262E24EC252E2474
:104830002E242E2424242E242E24F5250026FE2585
:104840002E242E242E24FC258A81813609F4C0C111
:104850008B818E3609F0BEC186E08AA3CE01059613
:104860000E94BC0C8BA348E050E061EF73E0CE01E6
:1048700001960E94ED2ECE0101960E94BC0C8CA3E5
:10488000CE0104960E94BC0C8DA3CE0107960E9417
:10489000BC0C8EA3CE0181960E94490C64EE73E09D
:1048A00084E294E00E948E148AEE99E19093600372
:1048B00080935F0381EC9AE1909364038093630398
:1048C00010928703109288031092890310928A0332
:1048D0001092830310928403109285031092860332
:1048E0001092090310920A0310920B0310920C030A
:1048F00010928C0310928B0382E090E090936203FD
:1049000080936103109282031092810310928000C1
:104910001092810080918100886180938100809154
:10492000800082608093800084E080935E0360E476
:1049300074E084E294E00E9415072AE044E254EF18
:1049400060E070E084E294E00E94291260E374E089
:1049500084E294E00E94150760915E0384E294E093
:104960000E9464148FB7F89423E234EF30938700E9
:10497000209386008FBF8DEE96E090935D03809329
:104980005C03789480916F00846080936F0088E16D
:1049900093E0909317038093160328E533E0309358
:1049A000150320931403909313038093120380E262
:1049B000809311031092100310920F0388E393E089
:1049C00090930E0380930D0384E294E090936B0325
:1049D00080936A0361E084E00E94F30860E084E071
:1049E0000E94C5081092D6041092D7041092D804E1
:1049F0000E94B51061E080E00E94F11089ED94E022
:104A00000E94D81184EE94E00E94D81161E070E019
:104A100080E090E00E94540961E070E080E090E066
:104A20000E94540961E08091F5040E94F30861E05E
:104A30008091F5040E94C5088091F6048F3F41F0F3
:104A400061E00E94F30861E08091F6040E94C508CD
:104A500081E590E00E941D0E0E94750D61E070E0FE
:104A600080E090E00E9454090E9466100E949F100E
:104A700060E08091F5040E94C50881E00E94C80DA5
:104A800080E00E94C80D61E08091F5040E94C50895
:104A900060E08091F5040E94C50884E00E94C80D82
:104AA00061E08091F5040E94C5080E9466100E9492
:104AB0009F1060E08091F5040E94C50881E30E9488
:104AC000C80D80E00E94C80D61E08091F5040E944D
:104AD000C50860E08091F5040E94C50884E00E944A
:104AE000C80D61E08091F5040E94C50884E08093C0
:104AF000F10480E18093F2048EE390E00E9454324E
:104B0000DC01892B09F451C092961D921D921D92D1
:104B10001C92959740E050E260E070E096964D93CD
:104B20005D936D937C93999782E096E017969C93A2
:104B30008E93169780E196E019969C938E93189722
:104B400084E296E011969C938E938DEF97E11396F5
:104B50009C938E93129789EB9CE115969C938E9370
:104B6000149780ED96E01B969C938E931A9784EE93
:104B700096E01D969C938E931C978AEE96E01F9666
:104B80009C938E931E9780E290E0DB969C938E938D
:104B9000DA975F961C921E925E9757961C921E9211
:104BA000569759961C921E925897B0938003A093E3
:104BB0007F03109749F568E774E084E294E00E946F
:104BC0008E1468EE73E080E090E00E945409F3CF09
:104BD00081E043CE87E041CE82E03FCE8B818237B9
:104BE00011F484E03ACE88E038CE8B81823711F41C
:104BF00083E033CE85E031CE89E02FCE8AE02DCE22
:104C00008BE02BCE8CE029CE1696ED91FC91179778
:104C100000E010E121EE3BE149E655E160E475E199
:104C2000CD01099580917F0390918003DC01189656
:104C3000ED91FC912AE030E04EE35EE163EE75E138
:104C400009950E94CC090E94CC098EE095E00E9453
:104C50001D16809122056DE474E0811102C062E6A8
:104C600074E084E294E00E948E1488EF94E00E9445
:104C7000401680910C056DE474E0811102C062E67B
:104C800074E084E294E00E948E1410925903109212
:104C900058038DEE95E09093240580932305E091D1
:104CA0002204F091230480E0309729F08F5F028086
:104CB000F381E02DF9CF809327056BE874E084E25F
:104CC00094E00E9415076091270584E294E00E9419
:104CD000641410912705812F90E0880F991F0E947E
:104CE0005432FC01909326058093250590E0191716
:104CF00021F0119211929F5FFACF8FE69CE1909381
:104D00007C0380937B0381E69FE090937103809303
:104D100070038CEC9FE090936F0380936E0386EF9B
:104D200095E0909377038093760310926D03109231
:104D30007A031092790311E01093780384E294E0EF
:104D400090936B0380936A0389E994E00E9469164B
:104D500010936D03ECE1F4E0F8A7EFA37F010EE3FD
:104D600010E0C8010E943730D7018D937D010F5F9D
:104D70001F4F04341105A9F70E94A01460E082E0DF
:104D80000E94F3080E94A108892B09F0F5C160ED8B
:104D900077E080E090E00E9454090E94A108892BEE
:104DA00009F0EAC166EE76E084E294E00E948E1497
:104DB00067E475E084E294E00E948E1464E175E09B
:104DC00084E294E00E948E1461EE74E084E294E048
:104DD0000E948E146EEA74E084E294E00E948E14C5
:104DE000B8EC6B2E6EE975E084E294E00E948E14BC
:104DF00069E875E084E294E00E948E146AE775E049
:104E000084E294E00E948E140E94DA13182F8130FD
:104E100009F016C1772473946DEF75E084E294E095
:104E20000E948E146CEE75E084E294E00E948E1471
:104E300062EE75E084E294E00E948E1467ED75E006
:104E400084E294E00E948E1463EC75E084E294E0C6
:104E50000E948E1460EB75E084E294E00E948E1450
:104E60000E94DA13833009F4D2C078F4813009F457
:104E7000A0C0823009F4ADC08111DBC069E476E0E6
:104E800084E294E00E948E14ADCF843009F4C8C04F
:104E9000853091F76BE576E084E294E00E948E1411
:104EA0006AE9862E69E9962E69E1A62E6FE3B62E91
:104EB000C12CD12C70E8E72E7FE3F72E00E010E440
:104EC0002CE935E440E050E06AE774E48DE095E0D9
:104ED0000E94B11D212C312CEAE74E2EE4E45E2E17
:104EE0002092160530921705409218055092190528
:104EF0006DEC7CEC8CE890E460931E0570931F05CC
:104F00008093200590932105AB01BC018DE095E0D5
:104F10000E94221B60931A0570931B0580931C0549
:104F200090931D05709222058EE095E00E941A1F55
:104F3000812C912CF8ECAF2EF2E4BF2EC12CD12C99
:104F4000A0E2EA2EA1E4FA2E00E010E020E83FE320
:104F50004AE959E969E270E487EF94E00E94B11DE3
:104F600020920005309201054092020550920305FF
:104F70008DEC9CECACE6B0E48093080590930905B9
:104F8000A0930A05B0930B05AC01BD0187EF94E037
:104F90000E94221B6093040570930505809306050B
:104FA0009093070570920C0588EF94E00E94E91E2B
:104FB00033CF6FE776E084E294E00E948E14809114
:104FC0007F0390918003DC011496ED91FC9109958B
:104FD00023CF62E276E084E294E00E948E14809116
:104FE0007F0390918003DC011496ED91FC9109956B
:104FF00080919E03882321F080E196E00E9469164B
:10500000CE0101960E94B71E10921C0405CF68E7DE
:1050100076E084E294E00E948E1410921D04FCCE8F
:1050200060E776E084E294E00E948E1470921D04A2
:10503000F3CE6DE376E084E294E00E948E14ECCE31
:10504000823009F077C06EED70E084E294E00E9457
:105050008E1469EC70E084E294E00E948E1462EC9D
:1050600070E084E294E00E948E1467EB76E084E2C4
:1050700094E00E94150752E0E52EF12CDD24D39434
:1050800040EE842E43E9942E44E0A42EB12C84E219
:1050900094E00E94C907892B69F491E0891A91086C
:1050A000A108B10839F061E070E080E090E00E9472
:1050B0005409EDCF0E94FD0F8E010F5F1F4FB02EE0
:1050C000C12E97FD06C0D8018D938D010E94FD0F62
:1050D000F8CFF8011082F2E08B2D9C2DDF16C9F07D
:1050E0000E94C62E70931F0460931E0484E294E015
:1050F0000E948E13EA94EF28D1F062EA76E084E20F
:1051000094E00E941507EE24E394F12C32E0D32EB4
:10511000B7CF0E94A82E9093210480932004BC0155
:1051200084E294E00E948E1360921C04E3CF6FE847
:1051300076E0A6CE65ED76E084E294E00E948E14DF
:10514000111150CE64EC76E084E294E00E948E145B
:105150000EE310E0AFA1B8A56D91B8A7AFA31A8375
:105160000983CE0101960E949E1E0F5F1F4F0434DB
:10517000110581F70E94A01488E295E00E94D811E1
:1051800064EF76E084E294E00E94150760E070E24C
:1051900084E294E00E948E139FB7F89414BE80912D
:1051A000600088618093600081E2809360009FBF0F
:1051B000789410925B0310925A0361E070E080E0F3
:1051C00090E00E94540968EE73E080E090E00E9455
:1051D000540961E070E080E090E00E94540984E5A9
:1051E00091E00E947D1310929603109295038E0118
:1051F0000F5F1F4F44244394512CAAE07A2EBDE642
:105200006B2E8DE4D82E809195039091960381307A
:10521000910501F1C0F0029701F1E0909503F09043
:105220009603B2E0EB16F10409F4BDC0C8F4E11432
:10523000F10461F1EA94EF2809F482C01092960318
:105240001092950316C063E077E084E294E00E9438
:105250008E14E3CF60E377E0F8CF6BE177E0F5CF32
:1052600023E0E216F10409F40FC234E0E316F1047E
:1052700029F7A89580E090E0892B29F20E94D507B4
:10528000882309F4BACF0E940000B7CF6EE777E019
:1052900084E294E00E948E1480E00E94AC0EF82E0E
:1052A00068E777E084E294E00E9415072F2D30E054
:1052B00035952795359527952370332781E090E024
:1052C000232B11F490E080E00E94A41362E777E0C2
:1052D00084E294E00E94150781E090E00E94A4130C
:1052E0006AE677E084E294E00E94150781E090E0AE
:1052F0000E94A4136CE577E084E294E00E94150715
:1053000081E090E00E94A41366E477E084E294E0F8
:105310000E948E1480911C04883C29F450929603BC
:1053200040929503A6CF6BE27AE084E294E00E947B
:105330008E1464E070E0709396036093950399CFA8
:1053400062E083E00E94F30885ED98E19093080104
:105350008093070180916900837F88608093690052
:10536000E99A8091600080648093600010927E03CF
:1053700010927D0381E090E0A0E0B0E08093DB0438
:105380009093DC04A093DD04B093DE0464E977E03D
:1053900084E294E00E948E14A2E0B0E0B093960301
:1053A000A093950366CF0E946F186093910370934A
:1053B000920380939303909394036FE078E084E2E8
:1053C00094E00E94150740919103509192036091DF
:1053D00093037091940384E294E00E947B146091A3
:1053E00091037091920380919303909194036115BE
:1053F00071058105910509F462C06093870370937C
:1054000088038093890390938A03E0916303F0916A
:105410006403309709F009951092620310926103BA
:1054200080918100887F809381008091810090919C
:105430005E03892B80938100E0906103F09062030A
:105440006FED77E084E294E00E941507B1E0EB167F
:10545000F10409F474C008F46BC0F2E0EF16F10433
:1054600009F470C06BEB77E084E294E00E948E1444
:1054700040918703509188036091890370918A035A
:10548000C8010E94C90C86E0F801ADECB4E00190BF
:105490000D928A95E1F78091D004809382038093E6
:1054A00081038091610390916203029709F04DC0DE
:1054B00068E873E180E090E00E945409DACEE09160
:1054C0005F03F0916003309731F109956115710523
:1054D0008105910569F06093870370938803809339
:1054E000890390938A03509262034092610398CF9C
:1054F00010928703109288031092890310928A03F6
:10550000F0926203E092610367EF77E084E294E057
:105510000E948E1485CF10928703109288031092F8
:10552000890310928A03F0926203E092610378CFBC
:1055300064ED77E084E294E00E94150793CF69EC74
:1055400077E0F8CF60EC77E0F5CF60E578E084E2D3
:1055500094E00E948E147801EAE22E2E312CC101D3
:105560000E943730D7018D937D01BFEF2B1A3B0A84
:10557000E2E32E16310499F768E0C8010E94751223
:105580008E81883C19F48F818C3CC1F180919E03FF
:10559000882321F085E698E00E94691662E080E0A9
:1055A0000E94DA0E62E070E080E090E00E94540910
:1055B0000E94780F48E0B8018CEC0E94DE1600973C
:1055C00009F458C0FC01AC01495F5F4F30E020E0B6
:1055D0006191260F311D4E175F07D1F7DC01179639
:1055E0008C91821741F080919E03882321F085E3FE
:1055F00098E00E946916C8010E94B71E85E0F80174
:10560000A5E6B3E001900D928A95E1F780919E03A3
:10561000882349F08AE198E00E94200E65E085E643
:1056200093E00E947512E3E0F0E0F0939603E093BC
:1056300095038091870390918803A0918903B0918D
:105640008A038093910390939203A0939303B09362
:1056500094038091910390919203A0919303B09150
:10566000940380938D0390938E03A0938F03B09344
:105670009003FFCD80919E03882309F4BCCF85E27F
:1056800098E00E94200EB7CF80917F039091800315
:10569000DC011A96ED91FC91099580917D03909122
:1056A0007E038130910509F453C070F0029709F42C
:1056B000EBC068EF78E084E294E00E948E141092D0
:1056C0007E0310927D0372C08091870390918803BE
:1056D000A0918903B0918A038093910390939203E0
:1056E000A0939303B09394038091910390919203BC
:1056F000A0919303B091940340918D0350918E0338
:1057000060918F0370919003841B950BA60BB70BD0
:105710000697A105B10508F449C0809191039091C5
:105720009203A0919303B091940380938D0390937F
:105730008E03A0938F03B093900350927E03409208
:105740007D036AE579E084E294E00E948E142EC025
:105750000E946F18672B682B692B39F410927E0317
:1057600010927D0363E479E0EECF85E693E00E943A
:10577000B21162E080E00E94DA0E62E070E080E048
:1057800090E00E9454090E94780F80919E03882324
:1057900021F086E798E00E94691681E080936D030E
:1057A000E2E0F0E0F0937E03E0937D0380917D03DF
:1057B00090917E038130910509F4F6C0029709F4B7
:1057C000FAC080918B0390918C038130910509F48C
:1057D00023C108F4F3C08230910509F499C20397FC
:1057E00009F4A7C22090220430902304E0902505FC
:1057F000F0902605E0912305F09124050995D1014B
:10580000ED91FC9186809780A084B1849B01AC01CE
:10581000281939094A095B0982809380A480B580E0
:10582000281539054A055B0508F48EC2668377831F
:1058300080879187D701ED93FD937D01D101129669
:105840002D903C9021143104D1F6E0912505F09182
:10585000260580819181892B09F40BCD7F01C12C14
:1058600080912705C81608F004CDD701ED91FC9171
:10587000309721F00190F081E02D0995F701119208
:1058800011927F01C394ECCF61E379E084E294E06C
:105890000E948E14F12CE12CCC24C394E0917B0364
:1058A000F0917C03099590937A0380937903892B77
:1058B00009F444C080917803882369F0E09176036D
:1058C000F09177030995609372037093730380934B
:1058D000740390937503E0917003F09171038091CC
:1058E000790390917A030995E0916E03F0916F032B
:1058F000099520917803883C9105A1F5C0926D032C
:10590000FFEFEF1AFF0A2223C9F0E0917603F0912E
:105910007703099580917203681B60936C0383EB96
:1059200098E00E94200E40916C0350E070E060E02F
:1059300080916A0390916B030E947B14809179039C
:1059400090917A03892BB9F080916D038111A6CFD4
:10595000E114F10499F410927E0310927D0363E147
:1059600079E0F1CE222321F087EA98E00E94200E10
:1059700010926D03E3CFE114F10459F08CE898E044
:105980000E94200EB70180916A0390916B030E94E0
:105990008E1380916D038823F1F210927E03109292
:1059A0007D0363E279E0CFCE6DED78E084E294E0B0
:1059B0000E948E1406CF66EC78E0F8CF80918703C2
:1059C00090918803A0918903B0918A034091830349
:1059D000509184036091850370918603841B950B1D
:1059E000A60BB70B4E97A105B10508F4FBCE80912D
:1059F000870390918803A0918903B0918A038093D3
:105A0000830390938403A0938503B09386035092FD
:105A10008C0340928B03E6CE40918703509188031C
:105A20006091890370918A03C8010E94C90C86E0C5
:105A3000F801ADECB4E001900D928A95E1F784E1B4
:105A4000E6E6F1E0D80101900D928A95E1F769ED63
:105A500079E084E294E00E94150760E671E0C801F5
:105A60000E947933892B39F463E671E0C8010E9402
:105A70007933892B91F08091D004882309F4F2C006
:105A80008C3031F022242394312C8C3048F08C500F
:105A9000222423943324339403C0212C312C80E01E
:105AA000672D0E940C3240E3C42EC80E50E3B52E81
:105AB000B90E780162E3A62E70E3972ED8010D90FF
:105AC0000020E9F7CD01801B910B02979701201B65
:105AD000310B2817390708F0FFC0F701808188369D
