:100000000C94F2050C94AE1D0C94871D0C944D1F9E
:100010000C944D1F0C944D1F0C941B1F0C941A062E
:100020000C941A060C941A060C941A060C941A06D0
:100030000C94F41E0C941A060C941A060C941A06CE
:100040000C943D1D0C941A060C940B1D0C94E51C8D
:100050000C941A060C941A060C941A060C941A06A0
:100060000C94D51D0C941A0608000000BE92244979
:10007000123EABAAAA2ABECDCCCC4C3E00000080DA
:10008000BEABAAAAAA3E00000000BF000000803F4D
:100090000000000000084178D3BB4387D1133D190D
:1000A0000E3CC3BD4282AD2B3E68EC8276BED98F3A
:1000B000E1A93E4C80EFFFBE01C4FF7F3F0000007E
:1000C0000000332E2055524C00322E2053616D70AB
:1000D0006C696E6720496E74657276616C00312EB2
:1000E00020446576696365204944004765747469F6
:1000F0006E67205254432074696D650055706461C9
:1001000074696E67205254432054696D65005254DF
:10011000432074696D65206973207570646174652E
:100120006400525443205365633A20004E524620E7
:10013000454550524F4D20536176696E672E2E0013
:100140004D657468616E65203A2000416D6D6F6E7B
:100150006961203A200048756D6964697479203AB4
:10016000200054656D7065726174757265203A2067
:10017000004944203A200054696D65203A20003C33
:100180002D2D2D2D2D2D2D2D2D53656E736F722040
:10019000446174612D2D2D2D2D2D2D2D2D2D2D2DC9
:1001A0002D2D2D2D2D3E0072616D5120436F756EEA
:1001B000746572203A0043616C696220536176690C
:1001C0006E6720666F72206D71340043616C6962E6
:1001D00020526164696E6720666F72206D71340011
:1001E00043616C696220536176696E6720666F7245
:1001F000206D713133350043616C69622052616456
:10020000696E6720666F72206D7131333500496EFB
:1002100070757420436D64203A004275666665729D
:100220003A20002D2D3E003C2D2D466C6173682038
:10023000526561643A002D2D2D2D2D3E526561646D
:10024000204D656D203A204F6C64003C504F57455F
:10025000525F444F574E3E003C5354414E44425926
:10026000313E003C54584D4F44453E003C535441B0
:100270004E444259323E003C52584D4F44453E0098
:1002800043455F50494E203A20003C72785F6972C6
:10029000713E003C6D61785F72745F6972713E00FF
:1002A0003C74785F6972713E000D0A002020005096
:1002B000696E67204661696C656400436865636BBD
:1002C00073756D206D69736D617463680063203AA6
:1002D00020006D203A200043616C6962726174698C
:1002E0006E672E2E001F1C1F1E1F1E1F1F1E1F1E8F
:1002F00000000000240027002A0000000000250064
:1003000028002B004E524620536574757020646F90
:100310006E65005F4D696C6C6973206973206E7542
:100320006C6C2C206E6565642074696D6520667543
:100330006E6374696F6E7300526164696F207365D8
:1003400074757020646F6E65005254432041646A76
:1003500075737465640031343A33393A3532004D7F
:1003600061722020322032303231002D2D3E525425
:10037000432069732052756E6E696E670052544354
:1003800020466F756E6400525443204E6F742046B1
:100390006F756E6400207C205072657363616C65BC
:1003A00072203A200054696D65724120746F70208C
:1003B0003A00466C61736820456E64204164647243
:1003C000203A2000466C6173682053746172742077
:1003D00041646472203A20004C617374204164646B
:1003E000723A20004C6566742042797465203A2088
:1003F00000656E6420736563203A200053656E7358
:100400006F722069732043616C6962726174656404
:100410000053656E736F72206E6F742043616C6958
:1004200062726174656400546F74616C205461730E
:100430006B733A20006173796E635866657220733E
:100440006574757020646F6E65007C2D2D2D2D2DCB
:100450002D2D2D2D2D2D2D2D2D2D2D2D2D2D2D2DCC
:100460002D2D2D2D2D2D2D2D2D2D2D2D2D2D2D2DBC
:100470002D2D2D2D2D2D2D2D2D2D2D7C007C202055
:10048000202020202020412050726F64756374204A
:100490006F662041646F7273686F205072616E697D
:1004A00073686562612020202020202020207C00AD
:1004B0007C202020202020202020202020202020E0
:1004C000202020204761732053656E736F722020B7
:1004D000202020202020202020202020202020201C
:1004E000207C007C2D2D2D2D2D2D2D2D2D2D2D2DD8
:1004F0002D2D2D2D2D2D2D2D2D2D2D2D2D2D2D2D2C
:100500002D2D2D2D2D2D2D2D2D2D2D2D2D2D2D2D1B
:100510002D2D2D2D7C00302E204578697420436FC1
:100520006E66696700322E20506172616D65746578
:10053000722053657474696E6700312E20446576AD
:100540006963652053657474696E6700302E2045B9
:10055000786974205365747570204D656E7500352B
:100560002E2043616C6962726174652053656E73FD
:100570006F7200342E204C6F67204F666600332E5A
:10058000204C6F67204F6E00322E20466163746FDF
:10059000727920526573657400312E20526573653F
:1005A0007420466C617368204D656D0072696E67DA
:1005B0004275666665722E65726173656453656324
:1005C000746F72203A20002D2D3E45726173696E62
:1005D0006720536563746F72203A2000457261731F
:1005E000696E6720466C6173682042756666657245
:1005F00000446F6E650045726173696E67204368E1
:1006000069702E2E00526573657474696E6720548C
:1006100058204164647200466163746F727920529D
:100620006573657474696E67204465766963652EC9
:100630002E00556E6B6E6F776E20636D640045788B
:10064000697465642044657669636520436D640060
:1006500043616C6962726174696E672053656E7381
:100660006F722E2E004C6F67204F6666004C6F67CE
:10067000204F6E0045726173696E6720466C61732E
:10068000682E2E004578697420506172616D205388
:10069000657474696E670053616D706C696E672074
:1006A000496E74657276616C203A20004465766903
:1006B0006365204964203A20002D2D2D2D3E45787C
:1006C000697420436F6E66696700556E6B6E6F7755
:1006D0006E206D61696E20636D6400454E54455215
:1006E0004544205345545550005744542054696D97
:1006F00065286D7329203A006D5F53544154453A83
:1007000020434845434B5F484152445741524500BE
:100710006D5F53544154453A2053594E435F44450D
:1007200056494345006D5F53544154453A20535454
:100730004152545F444556494345003C2D2D2D2DD3
:100740002D2D2D2D2D2D2D2D2D2D2D2D2D2D2D3EC8
:10075000004C6F67696320506F7765723A200046DE
:100760006C617368203A005254433A20004E52465E
:10077000203A003C2D2D48617264776172652053E8
:1007800074617475732D2D3E002D2D2D2D2D2D2D65
:100790002D2D2D2D2D2D2D3E53616D706C65204915
:1007A0006E74657276616C20757064617465640046
:1007B0002D2D2D3E00554E53594E43454400525465
:1007C000435F53594E434544004E54505F53594E76
:1007D000434544003C2D2D54696D65722073796E3C
:1007E0006320537461747573203A2000556E7379D9
:1007F0006E63656420616E642052544320466169D3
:100800006C6564004E54502054696D653A20005464
:10081000582041646472203A20004164647220517F
:100820007279204661696C6564004164647220518C
:10083000727920636865636B73756D206D69736D84
:1008400061746368004E524620454550524F4D201A
:1008500052656164696E672E2E0047657474696E17
:1008600067204E65772041646472003E3E3E4164DD
:10087000762E2045726173696E6720536563746FCD
:1008800072203A20003C3D3D5570646174696E678A
:1008900020464C61736820506F696E7465723D3DEF
:1008A0003E003E3E3E45726173696E67205365634C
:1008B000746F72203A20002D2D3E003C2D2D466C89
:1008C0006173682057726974653A00545820526504
:1008D00061647920666F72205472616E736D697401
:1008E000002D2D2D2D2D3E546F74616C20586665A2
:1008F00072205061636B6574203A200058666572FF
:100900003A4661696C656400586665723A5375636E
:10091000636573737C54696D653A0072756E5374C8
:10092000617465203A2052554E5F54585F584645D1
:10093000520072756E5374617465203A2052554EA0
:100940005F43484B5F42535F434F4E4E002D2D3E59
:100950004163636964656E74616C204465666175AA
:100960006C74206D6F646500476F696E6720746FEB
:1009700020576169740072756E203A2052554E5F9F
:1009800054585F58464552003C3D3D4253204E6FFF
:100990007420436F6E6E65637465643D3D3E005424
:1009A000696D6520746F20646174612073656E6485
:1009B000004A616E4665624D61724170724D6179A7
:1009C0004A756E4A756C4175675365704F63744E16
:1009D0006F764465630053756E4D6F6E5475655741
:1009E0006564546875467269536174002020202044
:1009F000202020207C0D0A7C2D2D2D2D2D2D2D2D00
:100A00002D2D2D2D2D2D2D2D2D2D2D2D2D2D2D2D16
:100A10002D2D2D2D2D2D2D2D2D2D2D2D7C007C2D95
:100A20002D2D2D2D2D2D2D2D2D2D2D2D2D2D2D2DF6
:100A30002D2D2D2D2D2D2D2D2D2D2D2D2D2D2D2DE6
:100A40002D2D2D7C0D0A7C202020202020202020F0
:100A5000004461696C79205363686564756C650056
:100A6000486F75726C79205363686564756C6500B6
:100A7000446576696365206973206E6F7420636FC7
:100A80006E6669677572656400646F6E65203A20F2
:100A90000061697252735230203A20005230203A7D
:100AA0002000524C203A20006D203A200063203A6A
:100AB00020003C2D2D4D512043616C6962726174A0
:100AC000696F6E2D2D2D2D3E003C517279204661AF
:100AD000696C65643E003C517279204F6B3E005159
:100AE00075657279696E672E2E0000000000230084
:100AF000260029000404040404040404020202027F
:100B000002020303030303030102040810204080D0
:100B1000010204081020010204081020000000084F
:100B200000020100000304070000000000000000B4
:100B30002D2D2D2D2D2D2D2D2D2D2D2D2D2D2D2DE5
:100B40002D2D2D2D2D2D00526567697374726174E2
:100B5000696F6E3A20004465627567204F66663A99
:100B6000200053616D7020496E74657276616C3A35
:100B700020004465766963652049643A20007C2042
:100B800044657669636520436F6E666967205061CE
:100B900072616D207C0D0A2D2D2D2D2D2D2D2D2DCD
:100BA0002D2D2D2D2D2D2D2D2D2D2D2D2D002D2DA2
:100BB0002D2D2D2D2D2D2D2D2D2D2D2D2D2D2D2D65
:100BC0002D2D2D2D00526561642050616765203AFE
:100BD000200044756D70696E672050616765203A2A
:100BE0002000571F11241FBECFEFD8E0DEBFCDBFBE
:100BF00025E0AAE7B1E001C01D92A835B207E1F7F0
:100C000011E0A0E0B1E0E8EDF7E602C005900D923A
:100C1000AA37B107D9F715E0C2EFD5E004C0219794
:100C2000FE010E94A532C13FD107C9F70E942720CB
:100C30000C94EA330C9400000895089560918502A5
:100C400070918602809187029091880208952FB753
:100C5000F8946091FB017091FC018091FD019091ED
:100C6000FE012FBF08953091A502E091A302F091FB
:100C7000A402208181E090E002C0880F991F3A957C
:100C8000E2F7809590958223808308958091850274
:100C900090918602A0918702B09188020196A11DD1
:100CA000B11D8093850290938602A0938702B09332
:100CB00088028091090290910A02A0910B02B091E2
:100CC0000C020196A11DB11D8093090290930A02A6
:100CD000A0930B02B0930C0208950895EF92FF9237
:100CE0000F931F93CF93DF938C017B01D0E0C0E083
:100CF000F701EC0FFD1F6491662361F0D801ED91BF
:100D0000FC910190F081E02DC8010995892B11F02B
:100D10002196EECFCE01DF91CF911F910F91FF90E1
:100D2000EF900895AF92BF92CF92DF92EF92FF9231
:100D30000F931F93CF93DF936C017B018B01040F03
:100D4000151FEB015E01AE18BF08C017D10759F09F
:100D50006991D601ED91FC910190F081E02DC601E1
:100D60000995892B79F7C501DF91CF911F910F91DB
:100D7000FF90EF90DF90CF90BF90AF900895FC016F
:100D8000538D448D252F30E0842F90E0821B930BF0
:100D9000541710F0CF96089501970895FC01918D96
:100DA000828D981761F0A28DAE0FBF2FB11D5D9699
:100DB0008C91928D9F5F9F73928F90E008958FEF3B
:100DC0009FEF0895FC01918D828D981731F0828DEF
:100DD000E80FF11D858D90E008958FEF9FEF089546
:100DE0000F931F930E94270660932A0470932B048D
:100DF00080932C0490932D0482E294E00E94E206FA
:100E000097FF1DC00E94270600912A0410912B0411
:100E100020912C0430912D04601B710B820B930BDD
:100E20000091260410912704209128043091290470
:100E30006017710782079307F8F28FEF9FEF1F91FA
:100E40000F910895FC01918D228D892F90E0805C97
:100E50009F4F821B91098F739927089582E294E036
:100E60000E94220721E0892B09F420E0822F0895B7
:100E700080E090E0892B29F00E942E0781110C94CC
:100E800000000895FC01A48DA80FB92FB11DA35A2D
:100E9000BF4F2C91848D90E001968F739927848F9A
:100EA000A689B7892C93A089B1898C9183708064BD
:100EB0008C93938D848D981306C00288F389E02D5E
:100EC00080818F7D80830895EF92FF920F931F930F
:100ED000CF93DF93EC0181E0888F9B8D8C8D9813ED
:100EE0001AC0E889F989808185FF15C09FB7F894F9
:100EF000EE89FF896083E889F98980818370806445
:100F000080839FBF81E090E0DF91CF911F910F918F
:100F1000FF90EF900895F62E0B8D10E00F5F1F4F9E
:100F20000F731127E02E8C8D8E110CC00FB607FCAD
:100F3000FACFE889F989808185FFF5CFCE010E943B
:100F40004207F1CFEB8DEC0FFD2FF11DE35AFF4F60
:100F5000F0829FB7F8940B8FEA89FB8980818062C9
:100F6000CFCFCF93DF93EC01888D8823B9F0AA8986
:100F7000BB89E889F9898C9185FD03C0808186FD54
:100F80000DC00FB607FCF7CF8C9185FFF2CF8081A3
:100F900085FFEDCFCE010E944207E9CFDF91CF91CF
:100FA0000895833081F028F4813099F08230A9F0DF
:100FB00008958730A9F08830C9F08430B1F4809169
:100FC00080008F7D03C0809180008F7780938000A8
:100FD000089584B58F7784BD089584B58F7DFBCF48
:100FE0008091B0008F778093B00008958091B00019
:100FF0008F7DF9CFCF93DF93ECE2FBE08491E8E1C2
:10100000FBE0D491E4E0FBE0C491CC23A1F081119A
:101010000E94D107EC2FF0E0EE0FFF1FE651F54FD5
:10102000A591B491EC91ED2381E090E009F480E08A
:10103000DF91CF91089580E090E0FACF1F93CF9396
:10104000DF93282F30E0F901E45EF44F8491F90139
:10105000E85FF44FD491F901EC50F54FC491CC23E3
:10106000A9F0162F81110E94D107EC2FF0E0EE0FAE
:10107000FF1FE650FD4FA591B4918FB7F894EC9106
:10108000111108C0D095DE23DC938FBFDF91CF9183
:101090001F910895DE2BF8CFCF93DF9390E0FC01F2
:1010A000E85FF44F24918C50954FFC018491882384
:1010B000C9F090E0880F991FFC01E051FD4FA59108
:1010C000B491FC01E650FD4FC591D49161110DC062
:1010D0009FB7F8948C91209582238C938881282344
:1010E00028839FBFDF91CF910895623051F49FB75D
:1010F000F8943C91822F809583238C93E8812E2B4A
:10110000EFCF8FB7F894EC912E2B2C938FBFEACFB3
:101110003FB7F8948091FF0190910002A0910102E5
:10112000B091020226B5A89B05C02F3F19F0019689
:10113000A11DB11D3FBFBA2FA92F982F8827BC0131
:10114000CD01620F711D811D911D42E0660F771F59
:10115000881F991F4A95D1F708958F929F92AF9259
:10116000BF92CF92DF92EF92FF924B015C010E94FF
:1011700088086B017C010E9488086C197D098E0922
:101180009F09683E734081059105A8F321E0821A0A
:101190009108A108B10888EEC80E83E0D81EE11CB2
:1011A000F11C81149104A104B10429F7FF90EF9080
:1011B000DF90CF90BF90AF909F908F90089508954B
:1011C0002091D701260F3327331F21323105ECF44C
:1011D0002091EC02FC0190E080E0243069F082E094
:1011E0000895A091D7012191AC0149545E4FA40FFD
:1011F000B52FB11D2C930196861798F38091D701D6
:10120000680F6093D70180E0089581E008951092FF
:10121000EC0281E08093EB021092C60261E082E171
:101220000E941E0861E083E10E941E08E9EBF0E0E5
:1012300080818E7F808380818D7F808388E480930E
:10124000B80085E48093BC00089510921B031092AF
:101250001A0310921903109218030E9407098CE1D7
:1012600096E090931703809316038DE196E0909398
:101270001503809314030895CF93DF9391E0909327
:10128000B6018823B9F0C091B800D091BA0080911E
:10129000BC008A7B8093BC0060E082E10E941E0853
:1012A00060E083E10E941E080E940709D093BA0003
:1012B000C093B800DF91CF9108958F929F92AF9223
:1012C000BF92CF92DF92EF92FF920F931F93CF9333
:1012D000DF93D0911803D13208F0D7C0182FC091F6
:1012E00013030E9488086B017C018091EC0281113C
:1012F0006BC082E08093EC021093EB028FEF80933F
:10130000EA021092E902D093E802A3EFB2E0E8EC1F
:10131000F2E080E0D81391C01092C7028091C7021A
:10132000CC0FC82BC093C7028091C602813009F050
:1013300088C01092C6020E9488086B017C018091CF
:10134000C7028093BB008091EE029091EF02A091C2
:10135000F002B091F102892B8A2B8B2BA1F00E9415
:1013600088080091EE021091EF022091F002309176
:10137000F1026C197D098E099F09061717072807C6
:10138000390708F442C08091BC0083FDD8CF85ECBA
:101390008093BC000E9488086B017C018091EC0264
:1013A000823009F450C08091EA028F3F09F46FC087
:1013B0008091EA02803209F46CC08091EA028033A5
:1013C00009F469C084E026C08091EE029091EF029A
:1013D000A091F002B091F102892B8A2B8B2B09F49A
:1013E00084CF0E9488088090EE029090EF02A09037
:1013F000F002B090F1026C197D098E099F098616E2
:101400009706A806B90608F070CF8091ED020E94F9
:101410003C0985E010921903109218031092F20211
:10142000DF91CF911F910F91FF90EF90DF90CF90C0
:10143000BF90AF909F908F9008959D9191938F5FF3
:1014400069CF85EEA5CF8091EE029091EF02A09139
:10145000F002B091F102892B8A2B8B2B09F49ECFDD
:101460000E9488080091EE021091EF022091F00294
:101470003091F1026C197D098E099F090617170733
:101480002807390708F08ACFC0CF81E0C3CF80E0BA
:10149000C1CF82E0BFCF83E0BDCFCF92DF92EF928A
:1014A000FF920F931F93CF93DF93D82FC62F6132F4
:1014B00008F098C00E9488086B017C018091EC02C2
:1014C00081116BC081E08093EC028093EB029FEF6F
:1014D0009093EA021092E9029C0F9093E8028093A5
:1014E000C7028091C702DD0FD82BD093C70280912D
:1014F000C602813009F078C01092C6020E948808A6
:101500006B017C018091C7028093BB008091EE0249
:101510009091EF02A091F002B091F102892B8A2BF9
:101520008B2BA1F00E9488080091EE021091EF022F
:101530002091F0023091F1026C197D098E099F090A
:10154000061717072807390708F448C08091BC0020
:1015500083FDD8CF85EC8093BC000E9488086B0186
:101560007C018091EC02813009F440C08091E90255
:101570008C1710F4C091E902E8ECF2E0A6EAB2E0C0
:1015800080E08C1355C08C2FDF91CF911F910F916C
:10159000FF90EF90DF90CF9008958091EE029091B0
:1015A000EF02A091F002B091F102892B8A2B8B2BD4
:1015B00009F484CF0E9488080091EE021091EF0296
:1015C0002091F0023091F1026C197D098E099F097A
:1015D000061717072807390708F070CF8091ED022A
:1015E0000E943C09C0E0CFCF85EEB5CF8091EE02DE
:1015F0009091EF02A091F002B091F102892B8A2B19
:101600008B2B09F4AECF0E9488080091EE02109156
:10161000EF022091F0023091F1026C197D098E09E0
:101620009F09061717072807390708F09ACFD6CF62
:1016300091919D938F5FA5CF0895E0911B038091B9
:101640001A03E81730F4F0E0EA55FD4F808190E08E
:1016500008958FEF9FEF089590911B0380911A03D7
:101660002FEF3FEF981748F4E92FF0E0EA55FD4FD0
:10167000208130E09F5F90931B03C9010895809102
:101680001A0390911B03891B990B0895CF92DF9247
:10169000EF92FF920F931F93CF93DF937C01CB01C7
:1016A0008A012091F202222389F0EB016B01C40E22
:1016B000D51ECC15DD0569F06991D701ED91FC913E
:1016C0000190F081E02DC7010995F3CF642F0E94AE
:1016D000E008C801DF91CF911F910F91FF90EF902B
:1016E000DF90CF900895CF93DF931F92CDB7DEB7F1
:1016F00069832091F2022223F9F02091180320320D
:1017000058F021E030E0FC013383228390E080E058
:101710000F90DF91CF91089580911903E82FF0E0A9
:10172000ED50FD4F998190838F5F809319038093D3
:10173000180381E090E0ECCF61E0CE0101960E94B9
:10174000E008F7CF1F93CF93DF93EC0181E0809304
:10175000F20288E680931303109219031092180383
:1017600060E08FEB94E00E94730B2D811AE0822FD2
:10177000612F0E946332682F660F680F660F620F39
:101780008FEB94E00E94730B2C81822F612F0E94BB
:101790006332682F660F680F660F620F8FEB94E05D
:1017A0000E94730B2B81822F612F0E946332682F5E
:1017B000660F680F660F620F8FEB94E00E94730B49
:1017C00060E08FEB94E00E94730B2A81822F612FDF
:1017D0000E946332682F660F680F660F620F8FEBEF
:1017E00094E00E94730B2981822F612F0E94633243
:1017F000682F660F680F660F620F8FEB94E00E94F0
:10180000730B2881822F612F0E946332682F660F2D
:10181000680F660F620F8FEB94E00E94730B81E0FC
:10182000DF91CF911F910C945D09FC019081905341
:101830009A3008F090E0818180532AE0929F800DD9
:10184000112408958F929F92AF92BF92CF92DF9210
:10185000EF92FF92CF93DF93EC016A017B0180E866
:10186000C81A83E4D80A8DE6E80A88E3F80A8CE30C
:10187000882E912CA12CB12CC701B601A501940191
:101880000E9483326D83CA01B901A50194010E94AF
:1018900083326C83C701B60120E13EE040E050E0B6
:1018A0000E948332CA01B90128E130E040E050E0F3
:1018B0000E9483326B83C701B60120E831E541E025
:1018C00050E00E948332188263E97EEF8881982F6E
:1018D000937041E050E011F050E040E0FA01E3592C
:1018E000FE4F2E173F0740F0FB01E41BF50B2E0FB8
:1018F0003F1F8F5F8883EACF81E0898389818C30A5
:10190000A0F4482F4150550BFA01EB51FD4FE491E3
:10191000911103C0823009F4EF5FF0E02E173F070A
:1019200020F02E1B3F0B8F5FE8CF2F5F2A83DF91C4
:10193000CF91FF90EF90DF90CF90BF90AF909F90AE
:101940008F900895DC0150E0E5EEF2E081E086172B
:1019500030F49491490F511D8F5F3196F8CF633069
:1019600038F0CD0183709927892B11F44F5F5F4FB9
:101970009D012D5F3F4F36952795369527956DE64E
:1019800071E0A69FC001A79F900DB69F900D1124F6
:101990000197820F931F840F951F08950CB405FCC7
:1019A0000DC09EBD00000DB407FEFDCF9EB58EBDDF
:1019B00000000DB407FEFDCF8EB508958EBD00006A
:1019C0000DB407FEFDCF8EB59EBD00000DB407FE21
:1019D000FDCF9EB50895BC0180916A0290916B0283
:1019E0000C946E060F931F93CF93DF932091A20266
:1019F000C091A002D091A102988101E010E0A8015D
:101A000002C0440F551F2A95E2F79A0120953095A0
:101A100092239883982F862F90620E94CE0C20915B
:101A2000A202888101C0000F2A95EAF7082B0883DB
:101A300090939F02DF91CF911F910F9108950F9383
:101A40001F93CF93DF932091A202C091A002D09167
:101A5000A102988101E010E0A80102C0440F551FC7
:101A60002A95E2F79A01209530959223988390E089
:101A7000982F88278F6F0E94CE0C3091A202288168
:101A800001C0000F3A95EAF7022B088390939F025A
:101A9000DF91CF911F910F910895CF93DF93D82FAE
:101AA000C62F0E941F0D682F6C2B8D2FDF91CF91B9
:101AB0000C94F20C3091A502E091A302F091A402E3
:101AC000208181E090E0AC0101C0440F3A95EAF733
:101AD000242B2083A7E3B0E01197F1F73091A50202
:101AE000208102C0880F991F3A95E2F78095909562
:101AF0008223808308951F93CF93DF93182F64E090
:101B00008DE10E94F20CC1E0D0E001C0CC0F1A952B
:101B1000EAF76C2F8CE10E944D0D6C2F81E0DF9174
:101B2000CF911F910C944D0DCF93CFB7F894809126
:101B3000B501811127C0EEEFFAE08491E2E1FBE00C
:101B40009491E82FF0E0EE0FFF1FE051FD4FA591BB
:101B5000B491EC91E92321F461E08AE00E941E082F
:101B600061E08AE00E944C088CB580618CBD8CB528
:101B700080648CBD61E08DE00E944C0861E08BE0E8
:101B80000E944C088091B5018F5F8093B501CFBF53
:101B9000CF9108958EBD00000DB407FEFDCF8EB528
:101BA0000895EF92FF920F931F93CF93DF937B01E2
:101BB0004091A502E091A302F091A402908121E05E
:101BC00030E0B90102C0660F771F4A95E2F7AB011A
:101BD00040955095942390834091A2020091A002D9
:101BE0001091A102F801908102C0220F331F4A9583
:101BF000E2F7209530952923208380620E94CA0D48
:101C000080939F02E701F5E0EF0EF11C89910E949D
:101C1000CA0DCE15DF05D1F79091A202F80180819F
:101C200021E030E001C0220F9A95EAF7822B8083F1
:101C3000DF91CF911F910F91FF90EF9008950F9337
:101C40001F93CF93DF939091A202C091A002D091F5
:101C5000A102888101E010E0980102C0220F331F29
:101C60009A95E2F7209530958223888382EE0E9430
:101C7000CA0D80939F029091A202888101C0000F3B
:101C80009A95EAF7082B0883DF91CF911F910F9166
:101C900008950F931F93CF93DF939091A202C09169
:101CA000A002D091A102888101E010E0980102C059
:101CB000220F331F9A95E2F720953095822388836F
:101CC00081EE0E94CA0D80939F029091A2028881AA
:101CD00001C0000F9A95EAF7082B0883DF91CF9196
:101CE0001F910F9108950E941F0E0C94490E0F939F
:101CF0001F93CF93DF939091A5020091A3021091BF
:101D0000A402F8018081C1E0D0E09E0102C0220F50
:101D1000331F9A95E2F7209530958223808360E700
:101D200087E00E94F20C0E94490E80E00E941F0D85
:101D3000682F6E7F80E00E94F20C9091A502F8015E
:101D4000808102C0CC0FDD1F9A95E2F7C095D09537
:101D5000C823C083DF91CF911F910F910895CF9237
:101D6000DF92EF92FF920F931F93CF93DF93F82EA2
:101D7000D92EE62E9091A502E091A302F091A40243
:101D80008081C1E0D0E09E0102C0220F331F9A95EE
:101D9000E2F720953095822380830E94490E90912E
:101DA000A2020091A0021091A102F801808102C05C
:101DB000CC0FDD1F9A95E2F7C095D095C823C0835C
:101DC00080EA0E94CA0DCF2CCF2DDD2D89910E9473
:101DD000CA0D8C2F8C198E15C8F39091A202F801B0
:101DE000808121E030E001C0220F9A95EAF7822B32
:101DF00080838DEA91E09093990280939802DF911D
:101E0000CF911F910F91FF90EF90DF90CF900895A9
:101E100060E20E94AF0E0C945A0DCF93DF93EC0159
:101E200060E088810E941E0884E00E94CA0D61E083
:101E30008881DF91CF910C941E088CBD9DBD0895C3
:101E400090E080E00895CF92DF92EF92FF92E091D0
:101E50009A02F0919B0209956B017C018091980296
:101E600090919902883C9105C1F08439914071F0BC
:101E7000E0919A02F0919B0209956C197D098E09F7
:101E80009F09603271058105910540F38FEF9FEF47
:101E9000FF90EF90DF90CF9008951092570210922C
:101EA000560288EC90E0F4CFCF92DF92EF92FF924F
:101EB0000E9427066B017C0182E294E00E94CE061C
:101EC000181619066CF00E9427066C197D098E09F8
:101ED0009F09683E73408105910570F38FEF9FEF76
:101EE000FF90EF90DF90CF900895CF93DF93EC01B8
:101EF00082E0888360911E0370911F037B836A8355
:101F00008091850290918602A0918702B09188020B
:101F10008C839D83AE83BF8390E080E00E946F2F0F
:101F20006C8B7D8B8E8B9F8B688B798B8A8B9B8B3D
:101F3000688779878A879B876C877D878E879F874D
:101F4000CE01DF91CF91089508951F93CF93DF9332
:101F5000EC0160E088810E941E0885E00E94CA0DA5
:101F600080E00E94CA0D182F61E088810E941E083F
:101F7000812FDF91CF911F910895CF93DF93EC01D3
:101F8000CE010E94A50F80FDFBCFDF91CF91089578
:101F9000BF92CF92DF92EF92FF920F931F93CF9356
:101FA000DF937C01EA01B62E69010E94BD0F60E05B
:101FB000F70180810E941E0883E00E94CA0D8B2DCC
:101FC0000E94CA0D8D2F0E94CA0D8C2F0E94CA0D2F
:101FD000E6010C0D1D1DC017D10729F080E00E94FD
:101FE000CA0D8993F8CF61E0F7018081DF91CF912D
:101FF0001F910F91FF90EF90DF90CF90BF900C94C6
:102000001E08CF93DF93EC0160E088810E941E08D8
:1020100086E00E94CA0D61E088810E941E08CE0100
:102020000E94A50F86958170DF91CF910895FF9250
:102030000F931F93CF93DF93EC01142F052FF62EF0
:102040000E94BD0FCE010E9401108823C9F060E0FC
:1020500088810E941E0880E20E94CA0D8F2D0E9476
:10206000CA0D802F0E94CA0D812F0E94CA0D61E007
:1020700088810E941E08CE010E94A50F81FDFBCF22
:10208000DF91CF911F910F91FF900895CF92DF9232
:10209000EF92FF920F931F93CF93DF93C1EDD4E0A4
:1020A0008EECC82E84E0D82E0D81F090D104E09003
:1020B000D20418E0602F661F6627661F8E2D0E94CF
:1020C0001E08000F61E08F2D0E941E0860E08F2D1A
:1020D0000E941E08115071F72197CC16DD0621F7DA
:1020E00061E08091D3040E941E0860E08091D304D7
:1020F000DF91CF911F910F91FF90EF90DF90CF90E4
:102100000C941E08E82FE695E695E695F0E0EF5270
:10211000FB4F2381382F377081E090E0A0E0B0E0E2
:1021200004C0880F991FAA1FBB1F3A95D2F76623D8
:1021300021F0822B83830C94461080958223FACF62
:10214000EF92FF920F931F93CF93DF938BE991E070
:102150000E94750F8C01FC016089718982899389C5
:102160000E949D31862F64E10E946332C5E0D0E079
:102170007E01E81AF10861E0EC16FD060CF060E063
:102180008C2F0E9482102197B1F7F801648975891C
:10219000868997890E949D31862F6AE00E9463326A
:1021A000CAE0D0E07E01E81AF10861E0EC16FD0615
:1021B0000CF060E08C2F0E9482102197C530D10571
:1021C000A1F7F80164857585868597850E949D3104
:1021D000862F65E00E946332CFE0D0E07E01E81AEE
:1021E000F10861E0EC16FD060CF060E08C2F0E9417
:1021F00082102197CA30D105A1F7F8016085718559
:10220000828593850E949D31862F6AE00E94633209
:10221000C4E1D0E08E01081B110961E00C171D0715
:102220000CF060E08C2F0E9482102197CF30D105F6
:10223000A1F7DF91CF911F910F91FF90EF9008953B
:1022400081E08093F20288E68093130310921903D1
:102250001092180360E08FEB94E00E94730B81E012
:102260000E945D0961E088E60E944D0A10921B03FE
:1022700080931A038FEB94E00E942C0B805887FB0D
:10228000882780F90895CF93DF93EC013091A50260
:10229000E091A302F091A402208181E090E002C0CD
:1022A000880F991F3A95E2F7809590958223808355
:1022B000BE0180E10E94D10DBE018AE00E94D10DD5
:1022C00061E082E00E944D0D80E0DF91CF910C949F
:1022D0007B0D0F931F93CF938C01C0E0F801828197
:1022E000C81748F48081918160E08C0F911D0E9495
:1022F0009630CF5FF3CFCF911F910F910895FB01DF
:1023000001900020E9F73197AF01461B570BDC0124
:10231000ED91FC910280F381E02D09948F929F92C0
:10232000AF92BF92EF92FF920F931F93CF93DF93E1
:10233000CDB7DEB7A1970FB6F894DEBF0FBECDBF05
:102340007C01FA01CB0119A2223008F42AE08E01A7
:102350000F5D1F4F822E912CB12CA12CBF01A50126
:1023600094010E948332F901CA016A300CF5605D64
:10237000D8016E938D01232B242B252B79F790E028
:1023800080E0109721F0BD01C7010E947F11A19646
:102390000FB6F894DEBF0FBECDBFDF91CF911F9176
:1023A0000F91FF90EF90BF90AF909F908F90089506
:1023B000695CDECF0F931F93CF93DF93162F082F07
:1023C000EC01499150E070E060E02AE080916A02FF
:1023D00090916B020E948E118CEA92E00E94EB0CAD
:1023E0008C2F801B811768F389EA92E0DF91CF91EF
:1023F0001F910F910C94EB0C4F925F926F927F9212
:102400008F929F92AF92BF92CF92DF92EF92FF9204
:102410000F931F93CF936B017C01742EAC019B0132
:102420000E94293263E371E0811126C04601570101
:10243000E894B7F82FEF3FEF4FE75FE7C501B4012E
:102440000E94293281110CC02FEF3FEF4FE75FE769
:10245000C501B4010E946A2F67E371E0181664F0A9
:102460002FEF3FEF4FE75FE4C701B6010E94CC3189
:102470001816ACF46BE371E082E294E0CF911F9107
:102480000F91FF90EF90DF90CF90BF90AF909F9013
:102490008F907F906F905F904F900C947F112FEFF3
:1024A0003FEF4FE75FECC701B6010E946A2F87FD3F
:1024B000E1CF20E030E0A901C701B6010E946A2FF8
:1024C00010E000E087FF0AC06DE282E294E00E9423
:1024D00064078C01F7FAF094F7F8F094C0E060E03C
:1024E00070E080E09FE37C1641F020E030E040E2C5
:1024F00051E40E942B31CF5FF6CFA70196010E94D5
:10250000BF302B013C010E949D314B015C012AE050
:10251000BC01A40182E294E00E948E117C01E00ED5
:10252000F11ECC23D1F1C501B4010E946F2F9B0194
:10253000AC01C301B2010E94BE304B015C016EE2EE
:1025400082E294E00E946407E80EF91EC15028F16F
:1025500020E030E040E251E4C501B4010E94D02FF8
:102560002B013C010E949D314B01B12CA12C2AE092
:10257000B501A40182E294E00E948E11E80EF91EDA
:10258000C501B4010E946F2F9B01AC01C301B201D0
:102590000E94BE304B015C01D9CFC701CF911F9182
:1025A0000F91FF90EF90DF90CF90BF90AF909F90F2
:1025B0008F907F906F905F904F9008956FE371E0E0
:1025C0000C947F11CF93DF93BC0182E294E00E94D0
:1025D0007F11EC0182E294E00E94DE128C0F9D1FBD
:1025E000DF91CF9108950F931F93CF93DF93EC0169
:1025F000AB0170E060E02AE00E948E118C01CE01F8
:102600000E94DE12800F911FDF91CF911F910F91D9
:102610000895CF92DF92EF92FF92CF93DF936C01F8
:10262000990FEE08FF08F7FE21C06DE282E294E008
:102630000E946407EC0144275527BA014C195D0933
:102640006E097F092AE082E294E00E948E11C80F91
:10265000D91F82E294E00E94DE128C0F9D1FDF9151
:10266000CF91FF90EF90DF90CF9008952AE0B701CF
:10267000A60182E294E00E948E11EC01EACFCF9293
:10268000DF92EF92FF92CF9380EEC82E83E9D82E8F
:1026900084E0E82EF12C82E294E00E942207892B4C
:1026A00089F481E0C81AD108E108F10859F061E025
:1026B00070E080E090E00E94AD08EDCF82E294E00F
:1026C0000E94CE060E94F006FC0197FD50C08D329C
:1026D000910519F0C0970A9788F7C12CD12C760183
:1026E000C0E0E130F105D1F0ED32F105F1F1CF01BB
:1026F000C0970A9798F4AAE0B0E0A70196010E945B
:10270000A4306F01FF0FEE08FF08C60ED71EE81EAB
:10271000F91E80E3C81AD108E108F10882E294E0CA
:102720000E94CE060E94F006FC01C0970A97C8F2EC
:10273000E130F105B1F2CC2341F0F094E094D09473
:10274000C094C11CD11CE11CF11C6EE072E082E25D
:1027500094E00E946E06C6010E9409138C2DCF9151
:10276000FF90EF90DF90CF900895C1E0D7CFC12CBC
:10277000D12C7601EACFCF93DF930E94FC11EC01BC
:1027800082E294E00E94DE128C0F9D1FDF91CF91B8
:1027900008950F931F93CF93DF93EC012AE00E94DB
:1027A0008E118C01CE010E94DE12800F911FDF91ED
:1027B000CF911F910F910895CF92DF92EF92FF92E8
:1027C0000F931F93CF93DF93EC016A017B0162EDBE
:1027D0007BE082E294E00E946E06B701A60182E2ED
:1027E00094E00E94C91365EC7BE082E294E00E94D1
:1027F0006E06B701A60182E294E00E94C9137E2D05
:102800006D2D5C2D442700E011E022E233E0CE0183
:102810000E94C80F02E213E0C0E17801D0E0F701A6
:1028200041917F0150E070E060E02AE082E294E0B4
:102830000E948E1162E571E082E294E00E947F11B5
:10284000DF5FD03161F782E294E00E94DE12C15076
:10285000005F1F4FC111E1CFDF91CF911F910F9109
:10286000FF90EF90DF90CF9008950F931F93CF9339
:10287000DF93EC01462F50E070E060E02AE00E9418
:102880008E118C01CE010E94DE12800F911FDF910C
:10289000CF911F910F9108950F931F93CF93DF93C3
:1028A000EC010E946E068C01CE010E94DE12800FA8
:1028B000911FDF91CF911F910F910895CF93DF93D7
:1028C0006EEA7BE082E294E00E944C146EE77BE0CB
:1028D00082E294E00E944C1462E77BE082E294E0A2
:1028E0000E946E06CCE1D3E06A817B8182E294E0B3
:1028F0000E94F31262E67BE082E294E00E946E06A0
:102900006C817D8182E294E00E94F31266E57BE0B7
:1029100082E294E00E946E06898190E00E94091391
:1029200067E47BE082E294E00E946E06688182E2C6
:1029300094E00E94351460E37BE082E294E0DF9152
:10294000CF910C944C14CF93DF93EC0162EB7AE0BF
:1029500082E294E00E944C146DEA7AE082E294E014
:102960000E946E06688179818A819B8142E050E0F5
:102970000E94BB1368EA7AE082E294E00E946E064D
:102980006C817D818E819F8142E050E00E94BB136B
:1029900062EA7AE082E294E00E946E0668857985B8
:1029A0008A859B8542E050E00E94BB136CE97AE087
:1029B00082E294E00E946E066C857D858E859F85FF
:1029C00042E050E00E94BB1361E97AE082E294E0C9
:1029D0000E946E06688979898A899B8942E050E065
:1029E0000E94BB1369E87AE082E294E00E946E06DE
:1029F0008C8990E0DF91CF910C940913BC018091F8
:102A00006A0290916B020C944C14CF93DF9380E098
:102A10000E941F0DD82F81FF58C0E091A302F091B2
:102A2000A4023297C0812091A50281E090E001C00C
:102A3000880F2A95EAF7C82380919E02882371F0B7
:102A400080E892E00E94EB0C61E0C11101C060E0FF
:102A500080916A0290916B020E943514D0FF0DC0E4
:102A6000CC23F1F180919E02882321F087E792E048
:102A70000E94FE1483E090E033C0CC23D9F087E1BC
:102A80000E941F0D84FF0BC080919E02882321F0BD
:102A90008CE692E00E94FE1482E090E021C08091DA
:102AA0009E02882321F083E692E00E94FE1484E0D7
:102AB00090E016C080919E02882321F088E592E084
:102AC0000E94FE1481E090E00BC080919E0288235A
:102AD00021F08BE492E00E94FE1490E080E000C0C0
:102AE000DF91CF9108952F923F924F925F926F9214
:102AF0007F928F929F92AF92BF92CF92DF92EF928E
:102B0000FF920F931F93CF93DF9300D01F92CDB707
:102B1000DEB7E62E372E4B8398EC99838A8380911B
:102B20009E02882321F08FED9AE00E94FE1480918E
:102B30009C0290919D020E9443110E94770E62E0D8
:102B4000CE0101960E94AF0E0E945A0DE0919A02AA
:102B5000F0919B0209952B013C01CC24C394D12C0C
:102B600093E5A92E92E0B92E2DEA822E9924939412
:102B70008091980290919902883C9105E9F08A3CF5
:102B8000910509F47DC0E0919A02F0919B020995AC
:102B90006419750986099709683E73408105910596
:102BA00038F380919E02882321F089EC9AE00E94FC
:102BB000FE14E12C312C9EC060919C0270919D020C
:102BC000F09097029091A5020091A3021091A402A7
:102BD000F8018081960102C0220F331F9A95E2F717
:102BE0002095309582238083F5E0FF1508F441C0DD
:102BF00021E02F2C2F1508F03EC0FB0160818AE0F8
:102C00008F0D0E94F20CB60101C0660F2A94EAF7FC
:102C100082E00E944D0D8F2D0E947B0D9091A502A8
:102C2000F8018081960102C0220F331F9A95E2F7C6
:102C3000209530958223808360E787E00E94F20C24
:102C40000E941F0E61E080E00E944D0D9091A50250
:102C5000F8018081960101C0220F9A95EAF7822B34
:102C60008083C5010197F1F79092990280929802B2
:102C70008ACF222423948AE0820D0E94D10DC3CFF3
:102C80003091A202C090A002D090A102F601208152
:102C900081E090E002C0880F991F3A95E2F7809595
:102CA00090958223808381E60E94CA0DFE2C0E2D12
:102CB000132D8FEF0E94CA0DF80181938F018E2F83
:102CC0008F19FB818F17A8F39091A202F6018081E2
:102CD00021E030E001C0220F9A95EAF7822B808331
:102CE0000E941F0E80919E02882321F086ED9AE0BB
:102CF0000E94FE148E2D932D0F900F900F90DF9158
:102D0000CF911F910F91FF90EF90DF90CF90BF90E8
:102D1000AF909F908F907F906F905F904F903F907B
:102D20002F9008950F931F93CF93DF93CDB7DEB706
:102D30002C970FB6F894DEBF0FBECDBF62E080E0E7
:102D40000E944D0D62E070E080E090E00E94AD08CE
:102D50000E94770E4CE0BE016F5F7F4F89EC0E94AE
:102D600073158C01892B49F1FE0131969E01245F78
:102D70003F4F90E080E04191840F911D2E173F0757
:102D8000D1F7F8019385981741F080919E0288232E
:102D900021F08BEB92E00E94FE14F80160817181BA
:102DA000828193812C960FB6F894DEBF0FBECDBF03
:102DB000DF91CF911F910F91089580919E028823FA
:102DC00021F08FEA92E00E94FE1460E070E0CB01F7
:102DD000E9CF60E787E00E94F20C80919F0285FFB7
:102DE00015C088EC90E09093990280939802E0914E
:102DF0000702F0910802309709F0099580919E0230
:102E0000882381F180EA92E00C94FE1480919F0265
:102E100086FF14C08AEC90E0909399028093980208
:102E2000E0910502F0910602309709F00995809132
:102E30009E028823B9F08AE892E0E6CF84E991E027
:102E40009093990280939802E0910302F09104021A
:102E5000309709F0099580919E02882319F083E943
:102E600092E0D2CF0895CF93DF93C0911002D0911A
:102E70001102CE010E94750F6FE771E082E294E0CB
:102E80000E944C1467E771E082E294E00E946E06B3
:102E90004C815D816E817F8182E294E00E94C91342
:102EA00061E771E082E294E00E946E066A817B81B4
:102EB00082E294E00E94F31262E671E082E294E022
:102EC0000E946E066C897D898E899F8942E00E94EE
:102ED000FC1182E491E00E94E21266E571E082E278
:102EE00094E00E946E06688979898A899B8942E00C
:102EF0000E94FC1185E491E00E94E2126BE471E013
:102F000082E294E00E946E06688579858A859B85B9
:102F100042E00E94FC118AE491E00E94E21260E427
:102F200071E082E294E00E946E066C857D858E855C
:102F30009F8542E00E94FC118AE491E00E94E21227
:102F400067EA71E082E294E00E946E0680917A0165
:102F5000082E000C990B0E94091380917A018F5F53
:102F600080937A0180910F0220911002309111021A
:102F7000820F932F911D9093110280931002209144
:102F80000D0230910E028217930758F082179307B3
:102F900059F48091140290911502909359028093F4
:102FA0005802DF91CF91089540911202509113027F
:102FB00084179507B1F710927A01809114029091CD
:102FC00015029093110280931002309359022093BE
:102FD0005802E7CFFF920F931F93CF93DF930E9486
:102FE0002011882309F4C9C06BEE70E082E294E0FE
:102FF0000E944C1481E08093F20288E680931303D0
:10300000109219031092180360E08FEB94E00E9475
:10301000730B81E00E945D0967E088E60E944D0A1B
:1030200010921B0380931A038FEB94E00E942C0BE9
:103030008F77282F30E094E0359527959A95E1F722
:10304000922F990F990FC22FC91BCC0FC80F8FEB6E
:1030500094E00E942C0B9C0144E0359527954A95FD
:10306000E1F72F703327922F990F990FD22FD91B89
:10307000DD0FD80F8FEB94E00E942C0B9C0154E0E5
:10308000359527955A95E1F72F703327922F990F91
:10309000990F122F191B110F180F8FEB94E00E943C
:1030A0002C0B8FEB94E00E942C0B9C0164E0359577
:1030B00027956A95E1F72F703327922F990F990F73
:1030C000F22EF91AFF0CF80E8FEB94E00E942C0BF5
:1030D0009C0174E0359527957A95E1F72F70332799
:1030E000922F990F990F022F091B000F080F8FEBDA
:1030F00094E00E942C0B9C01E4E035952795EA951D
:10310000E1F72F703327922F990F990F291B220F68
:10311000820F4F2D602F90E00E94A20C9C01A8E12D
:10312000B0E00E94AF309B01AC01210F311D411D69
:10313000511DACE3B0E00E94A4309B01AC012D0F07
:10314000311D411D511D0E94A430AB01BC018C2FCB
:1031500090E0B0E0A0E080589C4BA249B74C8A01B7
:103160009B01080F191F2A1F3B1FC901B801DF91DE
:10317000CF911F910F91FF90089560E070E0CB0117
:10318000F6CF8F929F92AF92BF92CF92DF92EF9243
:10319000FF92CF93DF9300D000D000D0CDB7DEB741
:1031A0006B017C010E9420118823D9F10E94EA174B
:1031B0004B015C0162E271E082E294E00E946E06E3
:1031C000B501A40182E294E00E94C913D701C601AF
:1031D00088199909AA09BB09181619061A061B06A7
:1031E0005CF40297A105B10564F46EE071E082E23F
:1031F00094E00E944C1415C08F3F9F4FAF4FBF4FBC
:10320000A4F76CEF70E082E294E00E944C14B701E6
:10321000A601CE0101960E94220CCE0101960E94C9
:10322000A20B26960FB6F894DEBF0FBECDBFDF917E
:10323000CF91FF90EF90DF90CF90BF90AF909F9095
:103240008F9008954F925F926F927F928F929F928C
:10325000AF92BF92CF92DF92EF92FF921F93CF93E4
:10326000DF9300D000D000D0CDB7DEB79E838D8332
:1032700049835A836B837C8367ED72E082E294E03A
:103280000E944C1414E122E340E050E0BA01ED81C9
:10329000FE8180818E3008F08E508770806480932C
:1032A0007C0080917A00806480937A0080917A001B
:1032B00086FDFCCF8091780090917900092E000C5A
:1032C000AA0BBB0B480F591F6A1F7B1F2150F9F631
:1032D000CB01BA0122E330E040E050E00E948332AB
:1032E00049015A016FEF73E080E090E068197909B5
:1032F0008A099B090E946F2FED81FE81218532850D
:10330000438554850E94D02F2B013C01C501B40197
:103310000E946F2F9B01AC01C301B2010E942B31AF
:103320004B015C0164E670E080E090E00E94AD0833
:10333000A5019401C701B6010E94BF306B017C0159
:10334000115009F0A0CF20E030E040EA51E40E94A3
:103350002B3129813A814B815C810E942B316B0199
:103360007C016FE471E082E294E00E947F1142E010
:1033700050E0C701B6010E94BB1320E030E0A90174
:10338000C701B6010E946A2F87FF03C0C12CD12C50
:103390007601C701B60126960FB6F894DEBF0FBEC0
:1033A000CDBFDF91CF911F91FF90EF90DF90CF9035
:1033B000BF90AF909F908F907F906F905F904F9055
:1033C00008950F931F93CF93DF93809156029091AE
:1033D0005702892B09F0BAC04091090550910A059E
:1033E00060910B0570910C05809105059091060583
:1033F000A0910705B0910805481759076A077B0790
:1034000009F49BC0809115058823C9F067E272E03A
:1034100082E294E00E946E064091090550910A05EF
:1034200060910B0570910C052AE082E294E00E9405
:103430008E1163E272E082E294E00E944C14C0912B
:10344000F7040C2F10E0E0911105F0911205309770
:1034500009F009954091090550910A0560910B0505
:1034600070910C052BE731E08091F3049091F40406
:103470000E94C80FE0910F05F0911005309709F0F8
:1034800009958091090590910A05A0910B05B091CD
:103490000C058C0F911DA11DB11D80930905909302
:1034A0000A05A0930B05B0930C054091FF045091C1
:1034B0000005609101057091020584179507A60724
:1034C000B70780F08091FB049091FC04A091FD046B
:1034D000B091FE048093090590930A05A0930B0513
:1034E000B0930C05809113058F5F809313058BE7D4
:1034F00091E090935702809356026AE172E082E273
:1035000094E00E946E06CBE7D1E00BE911E049910F
:1035100050E070E060E02AE082E294E00E948E11C8
:1035200062E571E082E294E00E947F110C171D07B2
:1035300071F782E294E00E94DE128091560290912F
:103540005702DF91CF911F910F91089566E372E0CA
:1035500082E294E00E944C14F0CFFF920F931F93ED
:10356000CF93DF93EC01F62E08811981C8010E94E8
:103570008E30F81621F06F2DC8010E949630CE01D2
:10358000DF91CF911F910F91FF900895CF92DF921D
:10359000EF92FF920F931F93CF93DF9300D0CDB79D
:1035A000DEB76C016CE271E082E294E00E944C14A0
:1035B00076010AE210E0F70161917F011A83098325
:1035C000CE0101960E94AD1A0F5F1F4F0233110505
:1035D00091F768E0C6010E94DA110F900F90DF9119
:1035E000CF911F910F91FF90EF90DF90CF900895B2
:1035F000CF92DF92EF92FF920F931F93CF93DF93BF
:1036000000D0CDB7DEB76C0160EE71E082E294E0ED
:103610000E944C14760105E110E0F70161917F01F1
:103620001A830983CE0101960E94AD1A0F5F1F4FC6
:103630000A32110591F7C6010E94A3140F900F9052
:10364000DF91CF911F910F91FF90EF90DF90CF907E
:103650000895CF92DF92EF92FF920F931F93CF9333
:10366000DF9300D0CDB7DEB76C0166EB71E082E28C
:1036700094E00E944C14760110E000E0F7016191A3
:103680007F011A830983CE0101960E94AD1A0F5F54
:103690001F4F0531110591F7C6010E94A3140F9029
:1036A0000F90DF91CF911F910F91FF90EF90DF90DE
:1036B000CF9008950F931F93CF938C01C0E0F80132
:1036C000808191818C0F911D0E948E30982F81E016
:1036D0008C0FCF3F59F0992329F0C82FF801928120
:1036E000981768F7CF911F910F91089580E0FACF56
:1036F000EF92FF920F931F93CF93DF93EC010E9401
:103700005A1B182F8A81811720F4CE010E9469115B
:1037100011E02FEF210FE22EF12C8A81488159818F
:10372000840F952F911D3B81239F800D911D1124A6
:103730009D838C8300E08B81081770F4802F90E0CC
:10374000FC01EB5FFA4F2C813D816081820F931F5A
:103750000E9496300F5FEFCF88819981612F8E0D87
:103760009F1DDF91CF911F910F91FF90EF900C94CF
:103770009630EF92FF920F931F93CF93DF937C01CC
:1037800067EF71E082E294E00E944C148701C5E18A
:10379000D0E0CE010E948E30F80181938F012196F6
:1037A000CA32D105B1F7C701DF91CF911F910F91B7
:1037B000FF90EF900C94A314EF92FF920F931F933E
:1037C000CF93DF937C016BEC71E082E294E00E9486
:1037D0004C148701D0E0C0E0CE010E948E30F80189
:1037E00081938F012196C531D105B1F7C701DF91D2
:1037F000CF911F910F91FF90EF900C94A3140F9312
:103800001F93CF93DF93EC018B0184E090E00E9443
:10381000AB32FC011382128211830083FE012097D8
:1038200031F4DF91CF911F910F910895F901228119
:10383000338121153105D1F793838283CE01F1CFF6
:1038400085ED8093BC008091EE029091EF02A091F3
:10385000F002B091F1020796A11DB11D23E0B695CB
:10386000A795979587952A95D1F72091BC0024FDBF
:1038700003C01092EC0208954091EE025091EF02C5
:103880006091F0027091F102452B462B472B69F3B2
:103890000097A105B10541F025E32A95F1F7000055
:1038A0000197A109B109E1CF8091ED020C943C0987
:1038B0002F923F924F925F926F927F928F929F9240
:1038C000AF92BF92CF92DF92EF92FF920F931F932E
:1038D000CF93DF9300D000D0CDB7DEB71C012A0113
:1038E0003B0109831A832B833C83A7019601C50101
:1038F000B4010E942B310E94D1314B015C01A30124
:10390000920169817A818B819C810E942B310E9476
:10391000D1319B01AC01C501B4010E942B314B0197
:103920005C01F10185829682A782B086C701B6014B
:103930000E94D1316B017C01C301B2010E94D131DF
:103940009B01AC01C501B4010E94D02F9B01AC01C9
:10395000C701B6010E94BE30F10161837283838387
:10396000948362ED72E082E294E00E946E06F101BF
:10397000658176818781908546E050E00E94BB1387
:103980006DEC72E082E294E00E946E06F1016181CA
:1039900072818381948142E050E00F900F900F90EC
:1039A0000F90DF91CF911F910F91FF90EF90DF90DB
:1039B000CF90BF90AF909F908F907F906F905F90CF
:1039C0004F903F902F900C94BB131F920F920FB605
:1039D0000F9211242F933F934F935F936F937F9395
:1039E0008F939F93AF93BF93EF93FF9382E294E003
:1039F0000E944207FF91EF91BF91AF919F918F91EC
:103A00007F916F915F914F913F912F910F900FBEDA
:103A10000F901F9018951F920F920FB60F921124BE
:103A20002F938F939F93EF93FF93E0913204F09144
:103A300033048081E0913804F091390482FD1BC089
:103A4000908180913B048F5F8F7320913C0482179B
:103A500041F0E0913B04F0E0EE5DFB4F958F8093E9
:103A60003B04FF91EF919F918F912F910F900FBE8B
:103A70000F901F9018958081F4CF1F920F920FB670
:103A80000F9211242F933F938F939F93AF93BF93E4
:103A90008091FB019091FC01A091FD01B091FE018C
:103AA0003091FA0123E0230F2D3758F50196A11D1F
:103AB000B11D2093FA018093FB019093FC01A09328
:103AC000FD01B093FE018091FF0190910002A09151
:103AD0000102B09102020196A11DB11D8093FF0168
:103AE00090930002A0930102B0930202BF91AF91A4
:103AF0009F918F913F912F910F900FBE0F901F902C
:103B0000189526E8230F0296A11DB11DD2CF1F9252
:103B10000F920FB60F9211242F933F934F935F9301
:103B20006F937F938F939F93AF93BF93EF93FF9385
:103B3000E0910701F09108010995FF91EF91BF9184
:103B4000AF919F918F917F916F915F914F913F9135
:103B50002F910F900FBE0F901F9018951F920F92EC
:103B60000FB60F9211242F933F934F935F936F9350
:103B70007F938F939F93AF93BF93EF93FF93E091C6
:103B80000501F09106010995FF91EF91BF91AF9169
:103B90009F918F917F916F915F914F913F912F9165
:103BA0000F900FBE0F901F9018951F920F920FB697
:103BB0000F9211242F933F934F935F936F937F93B3
:103BC0008F939F93AF93BF93EF93FF938091B9002F
:103BD000887F803609F44AC0F0F5883209F4A7C01E
:103BE00018F5803109F49BC0B8F4882309F4F9C0B2
:103BF000883009F494C0FF91EF91BF91AF919F91EC
:103C00008F917F916F915F914F913F912F910F9085
:103C10000FBE0F901F901895883109F488C080322C
:103C200051F78093EA0214C0803409F49DC040F437
:103C30008033B9F38833F9F68093EA0285ECB0C09B
:103C4000803509F485C0883509F496C0883499F622
:103C50000E94201CD0CF883909F48CC038F58837F1
:103C600029F050F4883611F0803729F683E08093EC
:103C7000EC021092F90157C0883809F47BC08039F2
:103C800019F0803809F0B7CF8091F901803208F03F
:103C900071C0E091F90181E08E0F8093F90180916C
:103CA000BB00F0E0E752FE4F80833DC0803B39F01F
:103CB000E0F4803A09F479C0883A09F09CCF84E0B6
:103CC0008093EC021092D8011092D701E091160374
:103CD000F091170309958091D70181110FC081E000
:103CE0008093D7011092B70109C0803C09F4A6CF98
:103CF000883C09F4A3CF883B09F07DCFE091D8013F
:103D000081E08E0F8093D801F0E0E954FE4F80816E
:103D10008093BB009091D8018091D70129C08091F8
:103D2000C7028093BB0085EC8093BC0064CF909168
:103D3000E9028091E802981758F5E091E90281E0E4
:103D40008E0F8093E902F0E0E853FD4F8081E9CFC8
:103D5000E091E90281E08E0F8093E9028091BB003F
:103D6000F0E0E853FD4F80839091E9028091E802F2
:103D70009817C8F285E8D8CFE091E90281E08E0F6C
:103D80008093E9028091BB00F0E0E853FD4F80830F
:103D90008091EB0281115CCF81E08093C60284EABE
:103DA0008093BC001092EC0226CF85EC8093BC007F
:103DB0001092EC028091F901803230F4E091F90127
:103DC000F0E0E752FE4F10826091F90170E0E0915F
:103DD0001403F091150389ED91E009951092F90112
:103DE0000ACF1092EA0234CF1F920F920FB60F92B1
:103DF00011242F933F934F935F936F937F938F93F0
:103E00009F93AF93BF93EF93FF93E0915C02F09188
:103E10005D020995FF91EF91BF91AF919F918F91B5
:103E20007F916F915F914F913F912F910F900FBEB6
:103E30000F901F9018951F920F920FB60F9211249A
:103E40002F933F934F935F936F937F938F939F93A2
:103E5000AF93BF93EF93FF93E0915A02F0915B020F
:103E6000309709F0099514BE8091600088618093B5
:103E7000600088E080936000FF91EF91BF91AF9167
:103E80009F918F917F916F915F914F913F912F9172
:103E90000F900FBE0F901F9018951F920F920FB6A4
:103EA0000F9211240F900FBE0F901F901895E2E211
:103EB000F4E01382128288EE93E0A0E0B0E0848305
:103EC0009583A683B78323E131E03183208325ECFA
:103ED00030E03587248724EC30E03787268720ECD4
:103EE00030E0318B208B21EC30E0338B228B22ECC5
:103EF00030E0358B248B26EC30E0378B268B118E0F
:103F0000128E138E148EEFEBF4E0138212828483F0
:103F10009583A683B78385E291E09183808340E80F
:103F200053E46DE678E38BEC94E00E94220CE1ED23
:103F3000F4E084E1808385E0818385E1828361E030
:103F400084E10E944C0861E085E00E944C0861E039
:103F500085E10E944C0860E084E10E941E0860E058
:103F600085E00E941E0860E085E10E941E08E4EDE5
:103F7000F4E083E0DF011D928A95E9F70E94461084
:103F8000E6E1F5E086E0808387E08183E3EFF4E01B
:103F9000158E148E178E168E10A211A212A280E01A
:103FA00090E1A0E0B0E080879187A287B3878FEF90
:103FB0009FE4A6E0B0E084879587A687B787EDEEFB
:103FC000F4E088E490E09183808384E0828382E05F
:103FD0008383E2EEF4E080EA90E1918380838AE0DB
:103FE00090E0A0E0B0E082839383A483B58312863F
:103FF0001682178210861186E7EDF4E083E397E1DD
:104000009183808385E090E0A0E0B0E08283938399
:10401000A483B583128616821782108611862EE03D
:1040200020932E052FE02093180510924805E9E40F
:10403000F5E025E035E13183208382839383A483F7
:10404000B583128616821782108611860895CF9343
:10405000DF93CDB7DEB7AC970FB6F894DEBF0FBED7
:10406000CDBF789484B5826084BD84B5816084BD01
:1040700085B5826085BD85B5816085BD80916E0006
:10408000816080936E001092810080918100826037
:104090008093810080918100816080938100809174
:1040A00080008160809380008091B1008460809363
:1040B000B1008091B00081608093B00080917A005F
:1040C000846080937A0080917A00826080937A0085
:1040D00080917A00816080937A0080917A00806874
:1040E00080937A001092C100E0913204F091330481
:1040F00082E08083E0912E04F0912F041082E09101
:104100003004F091310487E0808310923A04E0910A
:104110003604F091370486E08083E0913404F09116
:104120003504808180618083E0913404F09135040E
:10413000808188608083E0913404F091350480812F
:1041400080688083E0913404F091350480818F7D14
:10415000808387E296E090939B0280939A0285E2A7
:1041600090E09093A4028093A30231E03093A502E3
:104170009093A1028093A0021092A20284B1836066
:1041800084B94091A502E091A302F091A40220819C
:1041900081E090E0BC0102C0660F771F4A95E2F70C
:1041A000AB0140955095242320834091A2020091B9
:1041B000A0021091A102D8012C9101C0880F4A954C
:1041C000EAF7822B8C938DEA91E090939902809389
:1041D00098021092080210920702109206021092A2
:1041E0000502109204021092030230939E020E9474
:1041F000940D83E590E00E941D0F80919E0288231C
:1042000031F082E294E090936B0280936A0264E65C
:1042100070E080E090E00E94AD089091A202F80169
:104220008081EE24E394F12C970102C0220F331F0A
:104230009A95E2F720953095822380838FEF0E9434
:10424000CA0D9091A202D8018C9101C0EE0C9A95F2
:10425000EAF7E82AEC926CE780E00E94F20C60E753
:1042600087E00E94F20C60E082E00E94F20C60E0C5
:1042700081E00E94F20C60E08CE10E94F20C68E7A1
:1042800085E00E94F20C63E083E00E94F20C6FE78D
:1042900084E00E94F20C6EE086E00E94F20C0E9424
:1042A000490E0E941F0E6CE080E00E94F20C80918B
:1042B0009A0290919B02892B21F483E193E00E9462
:1042C000EB0C84E093E00E94FE148DE696E0909360
:1042D00008028093070284EA9FE09093060280938D
:1042E000050283E79EE0909304028093030280E03E
:1042F00091E090939D0280939C021092970280E03F
:104300000E941F0D682F6D7F80E00E94F20C68E311
:1043100073E082E294E00E944C140E94250981E03F
:104320008093F20288E6809313031092190310928F
:10433000180381E00E945D096DE773E0882311F0A6
:1043400067E873E082E294E00E944C140E9420111E
:104350006BE673E0811157C04BE050E06FE573E00E
:10436000CE0101960E94442FCE010A960E94150CA0
:1043700089A3E981E154E33120F50E2E000CFF0BF7
:10438000EC53FE4D0C94A5323824E121E1214C245C
:10439000E1213624E121E121E121D721E121E121BF
:1043A0003F244A244824E121E121E12146248A8155
:1043B000813609F457C28B818E3609F055C286E0EA
:1043C0008AA3CE0105960E94150C8BA348E050E00D
:1043D00066E573E0CE0101960E94442FCE0101965E
:1043E0000E94150C8CA3CE0104960E94150C8DA37F
:1043F000CE0107960E94150C8EA3CE0181960E94D5
:10440000A20B69E473E082E294E00E944C148AEE0D
:1044100097E19093600280935F0281EC98E1909322
:1044200064028093630210928502109286021092B9
:1044300087021092880210928102109282021092DA
:104440008302109284021092090210920A021092C2
:104450000B0210920C0210928A021092890282E0E2
:1044600090E0909362028093610210928002109219
:104470007F021092800010928100809181008861FB
:10448000809381008091800082608093800084E02E
:1044900080935E0265EA73E082E294E00E946E0619
:1044A0002AE044E254EF60E070E082E294E00E948F
:1044B0008E1165E973E082E294E00E946E066091DD
:1044C0005E0282E294E00E9435148FB7F89423E2F2
:1044D00034EF30938700209386008FBF86E496E008
:1044E00090935D0280935C02789480916F00846069
:1044F00080936F0086E192E09093150280931402FE
:1045000026E532E0309313022093120290931102B9
:104510008093100210E210930F0210925902109231
:10452000580286E392E090930E0280930D0282E29D
:1045300094E090936B0280936A0261E08AE00E94AB
:104540004C0860E08AE00E941E081092D404109289
:10455000D5041092D6040E94461061E080E00E94CB
:10456000821067ED74E080918B0290918C020E9422
:10457000FF1B62EE74E00E94FF1B90938C028093FD
:104580008B0286E195E09093F4048093F30488E530
:1045900092E09093F6048093F5041093F70481E081
:1045A0008093F80480E290E09093FA048093F904F9
:1045B00061EF73E082E294E00E946E064091FF0496
:1045C00050910005609101057091020582E294E02E
:1045D0000E94C9136091FF0470910005809101054C
:1045E000909102050091FB041091FC042091FD04C0
:1045F0003091FE04601B710B820B930B2091F90428
:104600003091FA0450E040E00E9483326B017C015B
:1046100064EE73E082E294E00E946E06B60182E2EC
:1046200094E00E94F3128091FF0490910005A09104
:104630000105B09102058C199D09AE09BF0980934F
:10464000FF0490930005A0930105B093020568ED67
:1046500073E082E294E00E946E064091FF04509164
:104660000005609101057091020582E294E00E94CC
:10467000C9130091F3041091F40461E0F801808102
:104680000E944C0861E0D8018C910E941E08F8013C
:1046900081818F3F49F061E00E944C0861E0D801C0
:1046A00011968C910E941E0881E590E00E941D0FDA
:1046B0000E94940D61E070E080E090E00E94AD08FF
:1046C000C8010E94BD0FC8010E94011060E0F801FE
:1046D00080810E941E0881E00E94CA0D80E00E9435
:1046E000CA0D61E0D8018C910E941E08C8010E9489
:1046F0000D0FC8010E94BD0FC8010E94011060E0AB
:10470000F80180810E941E0881E30E94CA0D80E0AA
:104710000E94CA0D61E0D8018C910E941E08C80158
:104720000E940D0F8091F804880F8093140564ECAB
:1047300073E082E294E00E946E064091FB04509187
:10474000FC046091FD047091FE0482E294E00E94FA
:10475000C91362EB73E082E294E00E946E0640911E
:10476000FF0450910005609101057091020582E2FD
:1047700094E00E94C9138DEE94E090930405809319
:10478000030584E08093EF041AE01093F0048DEEAB
:1047900094E00E945A1BE090ED04F090EE048250E9
:1047A000819FE00CF11C11246DEFC62E64E0D62E23
:1047B00003EF14E0F701EF5EF4407F01C701800FC3
:1047C000911F0E948E30D80152968C930F5F1F4F1D
:1047D000C016D10699F71092100510920F0583E3C9
:1047E00096E0909312058093110581E08093150562
:1047F0000E9425090E9425098FE295E00E94DC1B9A
:10480000809143056CEF73E0811102C061E174E0B7
:1048100082E294E00E944C1489E195E00E94B91B69
:1048200080912D056CEF73E0811102C061E174E0AD
:1048300082E294E00E944C141092570210925602A9
:104840008EE196E09093450580934405E0918B02BC
:10485000F0918C0280E0309709F18F5F0280F38144
:10486000E02DF9CF81E0ACCD87E0AACD82E0A8CDE4
:104870008B81823711F484E0A3CD88E0A1CD8B81B8
:10488000823711F483E09CCD85E09ACD89E098CD04
:104890008AE096CD8BE094CD8CE092CD8093480554
:1048A00067E274E082E294E00E946E06609148053F
:1048B00082E294E00E94351410914805812F90E027
:1048C000880F991F0E94AB32FC019093470580939B
:1048D000460590E0191721F0119211929F5FFACFCF
:1048E00081EE99E190937C0280937B0288E09FE0C7
:1048F000909371028093700283E29FE090936F0225
:1049000080936E0287E296E090937702809376021E
:1049100010926D0210927A021092790211E01093B7
:10492000780282E294E090936B0280936A0285E3BE
:1049300094E00E94FE1410936D02ECE1F3E0F8A7FE
:10494000EFA37F010EE310E0C8010E948E30D70173
:104950008D937D010F5F1F4F04341105A9F70E944D
:104960005E1460E080E10E944C080E94FA07892BE7
:1049700009F4CBC260ED77E080E090E00E94AD08E2
:104980000E94FA07019709F0C0C26BED76E082E25F
:1049900094E00E944C1463EE74E082E294E00E9482
:1049A0004C1460EB74E082E294E00E944C146DE7DA
:1049B00074E082E294E00E944C146AE474E082E2C3
:1049C00094E00E944C1448EC642E6AE375E082E2A5
:1049D00094E00E944C1465E275E082E294E00E944B
:1049E0004C1466E175E082E294E00E944C140E944F
:1049F0003F13182F813009F0ECC17724739469E9D3
:104A000075E082E294E00E944C1468E875E082E26E
:104A100094E00E944C146EE775E082E294E00E94FC
:104A20004C1463E775E082E294E00E944C146FE559
:104A300075E082E294E00E944C146CE475E082E23E
:104A400094E00E944C140E943F13833009F4A8C1E3
:104A500078F4813009F4A0C0823009F442C1811198
:104A6000B1C16EE376E082E294E00E944C14ADCFD7
:104A7000843009F49EC1853091F760E576E082E2EA
:104A800094E00E944C145AE9852E59E9952E59E17B
:104A9000A52E5FE3B52EC12CD12C60E8E62E6FE386
:104AA000F62E00E010E42CE935E440E050E06AE73F
:104AB00074E48EE295E00E94581C212C312C7AE798
:104AC000472E74E4572E20923705309238054092D5
:104AD000390550923A056DEC7CEC8CE890E46093DB
:104AE0003F05709340058093410590934205AB01CB
:104AF000BC018EE295E00E94221960933B05709301
:104B00003C0580933D0590933E05709243058FE2EE
:104B100095E00E94291B812C912CE8ECAE2EE2E45A
:104B2000BE2EC12CD12CF0E2EF2EF1E4FF2E00E0DE
:104B300010E020E83FE34AE959E969E270E488E1DE
:104B400095E00E94581C2092210530922205409247
:104B50002305509224058DEC9CECACE6B0E48093E8
:104B6000290590932A05A0932B05B0932C05AC0141
:104B7000BD0188E195E00E9422196093250570939C
:104B80002605809327059093280570922D0589E1CD
:104B900095E00E94F81A33CF64E776E082E294E071
:104BA0000E944C146CED75E082E294E00E944C147B
:104BB000C090FB04D090FC04E090FD04F090FE0453
:104BC0000CE0F694E794D794C7940A95D1F71601B0
:104BD0008091FF0490910005A0910105B09102051C
:104BE0002CE0B695A795979587952A95D1F72C0136
:104BF0008601102F00271295107F42145304C8F02D
:104C000067EC75E082E294E00E946E06B10182E2F8
:104C100094E00E94F312A80170E060E08091F30438
:104C20009091F4040E941710BFEF2B1A3B0A105FFB
:104C3000E4CFB701A601A4E0440F551F661F771FFC
:104C4000AA95D1F7407F6F7077278091F3049091F8
:104C5000F4040E94DC138091FB049091FC04A09169
:104C6000FD04B091FE048093050590930605A09382
:104C70000705B09308058093090590930A05A09352
:104C80000B05B0930C058091FF0490910005A09155
:104C90000105B09102051CE0B695A79597958795FB
:104CA0001A95D1F790930E0580930D056CEA75E087
:104CB00082E294E00E946E0660910D0570910E05EF
:104CC00082E294E00E94F312809103059091040522
:104CD0000E94691180910305909104050E94781B40
:104CE0008ECE67E176E082E294E00E944C148091DF
:104CF000FB049091FC04A091FD04B091FE0480930C
:104D0000050590930605A0930705B09308058093C9
:104D1000090590930A05A0930B05B0930C058091AB
:104D20000305909104050E946911809103059091FB
:104D300004050E94781B0091F3041091F40466EFBF
:104D400075E082E294E00E944C14C8010E940110B8
:104D500060E0F80180810E941E0880E60E94CA0D72
:104D600061E0D8018C910E941E08C8010E940D0FBD
:104D7000C8010E94BD0F61EF75E082E294E00E94DD
:104D80004C1480919E02882321F085E096E00E94D9
:104D9000FE14CE0101960E94C61A10921C032FCE5B
:104DA0006DE676E082E294E00E944C1410921D03BE
:104DB00026CE65E676E082E294E00E944C14709282
:104DC0001D031DCE62E376E082E294E00E944C1463
:104DD00016CE823009F077C06EED70E082E294E08A
:104DE0000E944C1469EC70E082E294E00E944C1442
:104DF00062EC70E082E294E00E944C146CEA76E08F
:104E000082E294E00E946E0642E0E42EF12CDD2462
:104E1000D39430EE832E33E9932E34E0A32EB12CBD
:104E200082E294E00E942207892B69F491E0891ABA
:104E30009108A108B10839F061E070E080E090E0ED
:104E40000E94AD08EDCF0E94540F8E010F5F1F4FDF
:104E5000B02EC12E97FD06C0D8018D938D010E9402
:104E6000540FF8CFF8011082F2E08B2D9C2DDF1645
:104E7000C9F00E941D2F70931F0360931E0382E2EE
:104E800094E00E94F312EA94EF28D1F067E976E00B
:104E900082E294E00E946E06EE24E394F12C22E07C
:104EA000D22EB7CF0E94FF2E909321038093200330
:104EB000BC0182E294E00E94F31260921C03E3CFF3
:104EC00064E876E0D0CD6AEC76E082E294E00E947D
:104ED0004C1411117ACD69EB76E082E294E00E94E5
:104EE0004C140EE310E0AFA1B8A56D91B8A7AFA325
:104EF0001A830983CE0101960E94AD1A0F5F1F4FDE
:104F00000434110581F70E945E1469E475E0809114
:104F10008B0290918C020E94FF1B90938C028093D5
:104F20008B0269EE76E082E294E00E946E0660E019
:104F300070E282E294E00E94F3129FB7F89414BEEC
:104F40008091600088618093600081E280936000BE
:104F50009FBF789410925B0210925A0268EE73E041
:104F600080E090E00E94AD0884E591E00E94E212AA
:104F700010929602109295028E010F5F1F4F22240D
:104F80002394312C80919502909196028130910565
:104F900001F1C0F0029701F1E0909502F0909602C5
:104FA000B2E0EB16F10409F4BFC0C8F4E114F10457
:104FB00061F1EA94EF2809F482C0109296021092EF
:104FC000950216C068EF76E082E294E00E944C14ED
:104FD000E3CF65E277E0F8CF60E177E0F5CF23E05B
:104FE000E216F10409F411C234E0E316F10429F7E2
:104FF000A89580E090E0892B29F20E942E07882353
:1050000009F4C0CF0E940000BDCF63E777E082E2E1
:1050100094E00E944C1480E00E941F0DF82E6DE673
:1050200077E082E294E00E946E062F2D30E0359505
:105030002795359527952370332781E090E0232B22
:1050400011F490E080E00E94091367E677E082E2C5
:1050500094E00E946E0681E090E00E9409136FE5E3
:1050600077E082E294E00E946E0681E090E00E9488
:10507000091361E577E082E294E00E946E0681E028
:1050800090E00E9409136BE377E082E294E00E94D3
:105090004C1480911C03883C29F430929602209293
:1050A0009502A6CF60E77AE082E294E00E944C1479
:1050B00064E070E0709396026093950299CF62E08D
:1050C00082E00E944C0889EE96E19093060180935D
:1050D0000501809169008C7F826080936900E89A65
:1050E0008091600080648093600010927E02109234
:1050F0007D028091200390912103B0E0A0E0809395
:10510000D9049093DA04A093DB04B093DC0469E83B
:1051100077E082E294E00E944C1482E090E0909369
:1051200096028093950264CF0E949216609391023A
:1051300070939202809393029093940264E078E0DB
:1051400082E294E00E946E06409191025091920298
:10515000609193027091940282E294E00E94C913DC
:1051600060919102709192028091930290919402C9
:10517000611571058105910509F462C0609385028E
:10518000709386028093870290938802E091630275
:10519000F0916402309709F0099510926202109222
:1051A000610280918100887F8093810080918100DD
:1051B00090915E02892B80938100E0906102F090D3
:1051C000620264ED77E082E294E00E946E0691E074
:1051D000E916F10409F474C008F46BC0B2E0EB16F0
:1051E000F10409F470C060EB77E082E294E00E9481
:1051F0004C14409185025091860260918702709113
:105200008802C8010E94220C86E0F801ABECB4E0F1
:1052100001900D928A95E1F78091CE0480938002EF
:1052200080937F028091610290916202029709F05F
:105230004DC068E873E180E090E00E94AD08D8CEF0
:10524000E0915F02F0916002309731F109956115AC
:1052500071058105910569F060938502709386025E
:1052600080938702909388023092620220926102BA
:1052700098CF1092850210928602109287021092A7
:105280008802F0926202E09261026CEE77E082E2C4
:1052900094E00E944C1485CF1092850210928602F1
:1052A0001092870210928802F0926202E0926102EC
:1052B00078CF69EC77E082E294E00E946E0693CFAB
:1052C0006EEB77E0F8CF65EB77E0F5CF65E478E05B
:1052D00082E294E00E944C146801AAE2EA2EF12CCA
:1052E000C7010E948E30F60181936F01FFEFEF1A24
:1052F000FF0A22E3E216F10499F768E0C8010E9470
:10530000DA118E81883C19F48F818C3CC1F1809137
:105310009E02882321F08AE598E00E94FE1462E054
:1053200080E00E944D0D62E070E080E090E00E941D
:10533000AD080E94770E48E0B8018CEC0E9473150E
:10534000009709F458C0FC01AC01495F5F4F30E0A1
:1053500020E06191260F311D4E175F07D1F7DC0168
:1053600017968C91821741F080919E02882321F03C
:105370008AE298E00E94FE14C8010E94C61A85E0E5
:10538000F801A5E6B2E001900D928A95E1F78091CF
:105390009E02882349F08FE098E00E94EB0C65E0C4
:1053A00085E692E00E94DA11E3E0F0E0F0939602E5
:1053B000E09395028091850290918602A0918702E8
:1053C000B09188028093910290939202A0939302ED
:1053D000B09394028091910290919202A0919302D5
:1053E000B091940280938D0290938E02A0938F02CD
:1053F000B0939002FDCD80919E02882309F4BCCF2A
:105400008AE198E00E94EB0CB7CFE091F504F091AF
:10541000F60480819181892B09F417C1E09111056F
:10542000F0911205309709F009956090F30470909F
:10543000F4044090F9045090FA04E091F504F091DE
:10544000F604208131813CA72BA780900505909020
:105450000605A0900705B0900805C401992760E0F3
:1054600071E0681B790BCB01D12CC12C4114510484
:1054700009F444C072018415950508F47C01C30148
:105480000E94BD0FC3010E94011060E0D3018C9106
:105490000E941E0882E00E94CA0D8A2D0E94CA0D39
:1054A000892D0E94CA0D882D0E94CA0DEBA5FCA56E
:1054B000EC0DFD1DFAA7E9A7F8A7EFA3AFA1B8A5CA
:1054C0008D91B8A7AFA30E94CA0D8FA198A5E9A599
:1054D000FAA58E1B9F0B8E159F0580F361E0D3010B
:1054E0008C910E941E088E0C9F1CA11CB11CCE0C1E
:1054F000DF1C4E185F0880E091E0B8CFE0910F0507
:10550000F0911005309709F00995809115058823D1
:10551000C9F06BEB78E082E294E00E946E06409165
:1055200005055091060560910705709108052AE070
:1055300082E294E00E948E1167EB78E082E294E0D0
:105540000E944C142091F9043091FA0480910505D1
:1055500090910605A0910705B0910805820F931F51
:10556000A11DB11D8093050590930605A093070525
:10557000B09308054091FF0450910005609101052A
:105580007091020584179507A607B70708F450C065
:105590008091FB049091FC04A091FD04B091FE0465
:1055A0008093050590930605A0930705B093080521
:1055B00062EA78E082E294E00E946E06409105057E
:1055C000509106056091070570910805ECE076950D
:1055D000679557954795EA95D1F782E294E00E9446
:1055E000C91340910505509106056091070570911A
:1055F00008058091F3049091F4040E9417108091A3
:10560000050590910605A0910705B0910805FCE0FD
:10561000B695A79597958795FA95D1F790930E052E
:1056200080930D0580910305909104050E94781BDD
:10563000809113059091F804890F80931305E091F0
:10564000F504F091F6041182108290911305809177
:105650001405981708F471C065E878E082E294E0D8
:105660000E944C148091050590910605A0910705B4
:10567000B09108053CE0B695A795979587953A9522
:10568000D1F720910D0530910E052817390709F043
:105690004CC07C01EFEFEE1AFE0A8091FF0490915E
:1056A0000005A0910105B09102052CE0B695A795E3
:1056B000979587952A95D1F78E159F05B0F16BE6E2
:1056C00078E082E294E00E946E06B70182E294E004
:1056D0000E94F312A70170E060E0FCE0440F551F48
:1056E000661F771FFA95D1F78091F3049091F40427
:1056F0000E941710F0920E05E0920D0580910305AF
:10570000909104050E94781B40910D0550910E0563
:10571000A4E0440F551FAA95E1F770E060E0809186
:10572000F3049091F4040E94DC138091030590919E
:1057300004050E94781B1092130580917D029091C0
:105740007E028130910509F453C070F0029709F48C
:10575000EBC06DE479E082E294E00E944C14109278
:105760007E0210927D0272C0809185029091860225
:10577000A0918702B0918802809391029093920247
:10578000A0939302B093940280919102909192021F
:10579000A0919302B091940240918D0250918E029B
:1057A00060918F0270919002841B950BA60BB70B32
:1057B0000F97A105B10508F449C08091910290911D
:1057C0009202A0919302B091940280938D029093E3
:1057D0008E02A0938F02B093900230927E022092AC
:1057E0007D026FE979E082E294E00E944C142EC0C1
:1057F0000E949216672B682B692B39F40E9492162F
:10580000672B682B692B09F4F3C285E692E00E94AE
:10581000431162E080E00E944D0D62E070E080E0A4
:1058200090E00E94AD080E94770E80919E0288232E
:1058300021F08BEC98E00E94FE1481E080936D02D1
:1058400022E030E030937E0220937D0280917D0241
:1058500090917E028130910509F4F4C0029709F419
:10586000F8C08091890290918A028130910509F4F3
:1058700021C108F4F1C08230910509F499C203975F
:1058800009F4A7C2E0908B02F0908C02C09046050C
:10589000D0904705E0914405F09145050995D70161
:1058A000ED91FC9186809780A084B1842B013C010E
:1058B000481859086A087B0882809380A480B580C4
:1058C000481459046A047B0408F48EC26683778303
:1058D00080879187D601ED93FD936D01D7011296D4
:1058E000ED90FC90E114F104D1F6E0914605F091C1
:1058F000470580819181892B09F47ACB7F01D12CD6
:1059000080914805D81608F073CBD701ED91FC9132
:10591000309721F00190F081E02D0995F701119267
:1059200011927F01D394ECCF66E779E082E294E0B4
:105930000E944C14F12CE12CDD24D394E0917B02E5
:10594000F0917C02099590937A0280937902892BD9
:1059500009F444C080917802882369F0E0917602CE
:10596000F0917702099560937202709373028093AD
:10597000740290937502E0917002F091710280912F
:10598000790290917A020995E0916E02F0916F028E
:10599000099520917802883C910591F5D0926D028D
:1059A0003FEFE31AF30A2223C9F0E0917602F09167
:1059B0007702099580917202681B60936C0288E0FF
:1059C00099E00E94EB0C40916C0250E070E060E0C6
:1059D00080916A0290916B020E94C91380917902B2
:1059E00090917A02892BA9F080916D028111A6CF46
:1059F000E114F10489F430927E0220927D0226CFD8
:105A0000222321F08CEF98E00E94EB0C10926D02A3
:105A1000E5CFE114F10459F081EE98E00E94EB0C1F
:105A2000B70180916A0290916B020E94F3128091FB
:105A30006D02882301F310927E0210927D0268E6C7
:105A400079E0D1CE62E379E082E294E00E944C14E6
:105A500008CF6BE179E0F8CF8091850290918602C2
:105A6000A0918702B09188024091810250918202F8
:105A70006091830270918402841B950BA60BB70B77
:105A80004E97A105B10508F4FDCE80918502909155
:105A90008602A0918702B091880280938102909340
:105AA0008202A0938302B093840230928A022092F1
:105AB0008902E8CE4091850250918602609187026A
:105AC00070918802C8010E94220C86E0F801ABECBC
:105AD000B4E001900D928A95E1F784E1E6E6F1E009
