:020000040000FA
:100000000C9412060C94CD1E0C94A61E0C94132076
:100010000C9413200C9413200C9444200C943A0656
:100020000C943A060C943A060C943A060C943A0650
:100030000C941D200C943A060C943A060C943A0643
:100040000C945C1E0C943A060C942A1E0C94041E0C
:100050000C943A060C943A060C943A060C943A0620
:100060000C94F41E0C943A0608000000BE92244939
:10007000123EABAAAA2ABECDCCCC4C3E00000080DA
:10008000BEABAAAAAA3E00000000BF000000803F4D
:100090000000000000084178D3BB4387D1133D190D
:1000A0000E3CC3BD4282AD2B3E68EC8276BED98F3A
:1000B000E1A93E4C80EFFFBE01C4FF7F3F0000007E
:1000C000000007634236B79BD8A71A39685618AEA6
:1000D000BAAB558C1D3CB7CC5763BD6DEDFD753E7D
:1000E000F6177231BF000000803F332E2055524C6E
:1000F00000322E2053616D706C696E6720496E74FA
:10010000657276616C00312E2044657669636520E6
:1001100049440047657474696E67205254432074E3
:10012000696D65005570646174696E67205254434F
:100130002054696D65005254432074696D652069CF
:100140007320757064617465640052544320536574
:10015000633A2000525820495251004E52462045E1
:100160004550524F4D20536176696E672E2E003CEC
:10017000504F5745525F444F574E3E003C535441F9
:100180004E444259313E003C54584D4F44453E0088
:100190003C5354414E444259323E003C52584D4F1C
:1001A00044453E0043455F50494E203A20003C7292
:1001B000785F6972713E003C6D61785F72745F694F
:1001C00072713E003C74785F6972713E000D0A00E6
:1001D00020200050696E67204661696C65640043A9
:1001E0006865636B73756D206D69736D61746368A9
:1001F000004D657468616E65203A2000416D6D6F39
:100200006E6961203A200048756D696469747920CF
:100210003A200054656D7065726174757265203A9C
:1002200020004944203A200054696D65203A20009E
:100230003C2D2D2D2D2D2D2D2D2D53656E736F7273
:1002400020446174612D2D2D2D2D2D2D2D2D2D2D25
:100250002D2D2D2D2D2D3E0072616D5120436F757A
:100260006E746572203A0043616C69622053617656
:10027000696E6720666F72206D71340043616C692E
:100280006220526164696E6720666F72206D7134FE
:100290000043616C696220536176696E6720666F06
:1002A00072206D713133350043616C696220526197
:1002B00064696E6720666F72206D71313335004955
:1002C0006E70757420436D64203A004275666665F1
:1002D000723A20002D2D3E003C2D2D466C61736836
:1002E00020526561643A002D2D2D2D2D3E52656101
:1002F00064204D656D203A204F6C640063203A20E5
:10030000006D203A200043616C6962726174696E0D
:10031000672E2E001F1C1F1E1F1E1F1F1E1F1E00CC
:10032000000000240027002A00000000002500280B
:10033000002B004E524620536574757020646F6E1A
:1003400065005F4D696C6C6973206973206E756C14
:100350006C2C206E6565642074696D652066756E11
:100360006374696F6E7300526164696F20736574A2
:10037000757020646F6E65005254432041646A7545
:10038000737465640031353A33373A3131004D6169
:10039000722020322032303231002D2D3E52544313
:1003A0002069732052756E6E696E67005254432047
:1003B000466F756E6400525443204E6F7420466F32
:1003C000756E6400207C205072657363616C657289
:1003D000203A200054696D65724120746F70203A94
:1003E00000466C61736820456E642041646472202D
:1003F0003A2000466C617368205374617274204126
:10040000646472203A20004C617374204164647209
:100410003A20004C6566742042797465203A2000C9
:10042000656E6420736563203A200053656E736FB8
:10043000722069732043616C696272617465640043
:1004400053656E736F72206E6F742043616C6962C6
:10045000726174656400546F74616C205461736BD5
:10046000733A20006173796E635866657220736514
:1004700074757020646F6E65007C2D2D2D2D2D2DD3
:100480002D2D2D2D2D2D2D2D2D2D2D2D2D2D2D2D9C
:100490002D2D2D2D2D2D2D2D2D2D2D2D2D2D2D2D8C
:1004A0002D2D2D2D2D2D2D2D2D2D7C007C20202032
:1004B0002020202020412050726F64756374206FCB
:1004C000662041646F7273686F205072616E697349
:1004D000686562612020202020202020207C007C74
:1004E000202020202020202020202020202020200C
:1004F0002020204761732053656E736F7220202087
:1005000020202020202020202020202020202020EB
:100510007C007C2D2D2D2D2D2D2D2D2D2D2D2D2D9A
:100520002D2D2D2D2D2D2D2D2D2D2D2D2D2D2D2DFB
:100530002D2D2D2D2D2D2D2D2D2D2D2D2D2D2D2DEB
:100540002D2D2D7C00302E204578697420436F6E50
:1005500066696700322E20506172616D6574657244
:100560002053657474696E6700312E204465766986
:1005700063652053657474696E6700302E2045787A
:100580006974205365747570204D656E7500352E45
:100590002043616C6962726174652053656E736F8C
:1005A0007200342E204C6F67204F666600332E2079
:1005B0004C6F67204F6E00322E20466163746F725D
:1005C0007920526573657400312E2052657365740D
:1005D00020466C617368204D656D0072696E6742DC
:1005E00075666665722E65726173656453656374C2
:1005F0006F72203A20002D2D3E45726173696E673F
:1006000020536563746F72203A20004572617369EC
:100610006E6720466C61736820427566666572007D
:10062000446F6E650045726173696E672043686947
:10063000702E2E00526573657474696E672054586D
:10064000204164647200466163746F727920526560
:1006500073657474696E67204465766963652E2ED0
:1006600000556E6B6E6F776E20636D640045786920
:100670007465642044657669636520436D64004356
:10068000616C6962726174696E672053656E736F25
:10069000722E2E004C6F67204F6666004C6F6720ED
:1006A0004F6E0045726173696E6720466C617368B6
:1006B0002E2E004578697420506172616D2053655B
:1006C0007474696E670053616D706C696E67204960
:1006D0006E74657276616C203A20004465766963B9
:1006E00065204964203A20002D2D2D2D3E45786946
:1006F0007420436F6E66696700556E6B6E6F776E20
:10070000206D61696E20636D6400454E544552450D
:1007100044205345545550005744542054696D6546
:10072000286D7329203A006D5F53544154453A2097
:10073000434845434B5F4841524457415245006D41
:100740005F53544154453A2053594E435F444556F4
:10075000494345006D5F53544154453A2053544139
:1007600052545F444556494345003C2D2D2D2D2DB7
:100770002D2D2D2D2D2D2D2D2D2D2D2D2D2D3E00C5
:100780004C6F67696320506F7765723A2000466C42
:10079000617368203A005254433A20004E5246207A
:1007A0003A003C2D2D486172647761726520537464
:1007B000617475732D2D3E002D2D2D2D2D2D2D2D7C
:1007C0002D2D2D2D2D2D3E53616D706C6520496EA4
:1007D00074657276616C2075706461746564002D57
:1007E0002D2D3E00554E53594E434544005254431F
:1007F0005F53594E434544004E54505F53594E4346
:100800004544003C2D2D54696D65722073796E63EB
:1008100020537461747573203A2000556E73796E9D
:1008200063656420616E6420525443204661696CA4
:100830006564004E54502054696D653A2000545848
:100840002041646472203A20004164647220517235
:1008500079204661696C656400416464722051725C
:100860007920636865636B73756D206D69736D6165
:10087000746368004E524620454550524F4D2052F9
:10088000656164696E672E2E0047657474696E67D2
:10089000204E65772041646472003E3E3E4164769E
:1008A0002E2045726173696E6720536563746F72A1
:1008B000203A20003C3D3D5570646174696E6720AC
:1008C000464C61736820506F696E7465723D3D3EA1
:1008D000003E3E3E45726173696E672053656374E6
:1008E0006F72203A20002D2D3E003C2D2D466C616C
:1008F00073682057726974653A00545820526561D4
:10090000647920666F72205472616E736D69740031
:100910002D2D2D2D2D3E546F74616C2058666572FF
:10092000205061636B6574203A2000586665723A06
:100930004661696C656400586665723A5375636315
:100940006573737C54696D653A0072756E5374619A
:100950007465203A2052554E5F54585F58464552B0
:100960000072756E5374617465203A2052554E5F63
:1009700043484B5F42535F434F4E4E002D2D3E4147
:1009800063636964656E74616C2044656661756C4F
:1009900074206D6F6465004661696C656420616EEA
:1009A00064207761697400446F6E6520616E642015
:1009B000776169740072756E203A2052554E5F540B
:1009C000585F58464552003C3D3D4253204E6F749F
:1009D00020436F6E6E65637465643D3D3E005469EF
:1009E0006D6520746F20646174612073656E6400AE
:1009F0004A616E4665624D61724170724D61794A1D
:100A0000756E4A756C4175675365704F63744E6FB0
:100A1000764465630053756E4D6F6E54756557650A
:100A20006454687546726953617400202020202048
:100A30002020207C0D0A7C2D2D2D2D2D2D2D2D2DB2
:100A40002D2D2D2D2D2D2D2D2D2D2D2D2D2D2D2DD6
:100A50002D2D2D2D2D2D2D2D2D2D2D7C007C2D2D55
:100A60002D2D2D2D2D2D2D2D2D2D2D2D2D2D2D2DB6
:100A70002D2D2D2D2D2D2D2D2D2D2D2D2D2D2D2DA6
:100A80002D2D7C0D0A7C20202020202020202000DD
:100A90004461696C79205363686564756C650048CE
:100AA0006F75726C79205363686564756C6500447A
:100AB0006576696365206973206E6F7420636F6E5D
:100AC0006669677572656400646F6E65203A200020
:100AD00061697252735230203A20005230203A201D
:100AE00000524C203A20006D203A200063203A202A
:100AF000003C2D2D4D512043616C69627261746917
:100B00006F6E2D2D2D2D3E003C517279204661696E
:100B10006C65643E003C517279204F6B3E0051750C
:100B2000657279696E672E2E000000000023002692
:100B30000029000404040404040404020202020262
:100B40000203030303030301020408102040800191
:100B50000204081020010204081020000000080010
:100B60000201000003040700000000000000002D47
:100B70002D2D2D2D2D2D2D2D2D2D2D2D2D2D2D2DA5
:100B80002D2D2D2D2D005265676973747261746966
:100B90006F6E3A20004465627567204F66663A20A2
:100BA0000053616D7020496E74657276616C3A20F5
:100BB000004465766963652049643A20007C2044DE
:100BC000657669636520436F6E6669672050617260
:100BD000616D207C0D0A2D2D2D2D2D2D2D2D2D2DD2
:100BE0002D2D2D2D2D2D2D2D2D2D2D2D002D2D2D62
:100BF0002D2D2D2D2D2D2D2D2D2D2D2D2D2D2D2D25
:100C00002D2D2D00526561642050616765203A20CA
:100C10000044756D70696E672050616765203A20E9
:100C20000000762011241FBECFEFD8E0DEBFCDBF7D
:100C300025E0AAE7B1E001C01D92A835B207E1F7AF
:100C400011E0A0E0B1E0EAE2FCE602C005900D92FE
:100C5000AA37B107D9F716E0C2E1D6E004C0219760
:100C6000FE010E94CE34C131D107C9F70E944A214A
:100C70000C9413360C940000089508959091190374
:100C8000809118032FEF3FEF981748F4E92FF0E019
:100C9000EC55FD4F208130E09F5F90931903C9010F
:100CA000089590911903809118032FEF3FEF981743
:100CB00048F4E92FF0E0EC55FD4F208130E09F5FD4
:100CC00090931903C9010895809118039091190315
:100CD000891B990B0895609185027091860280911D
:100CE00087029091880208952FB7F8946091FB01D4
:100CF0007091FC018091FD019091FE012FBF08953C
:100D00003091A302E091A102F091A202208181E042
:100D100090E002C0880F991F3A95E2F78095909570
:100D20008223808308958091850290918602A0910C
:100D30008702B09188020196A11DB11D80938502A2
:100D400090938602A0938702B09388028091090253
:100D500090910A02A0910B02B0910C020196A11D84
:100D6000B11D8093090290930A02A0930B02B093E5
:100D70000C0208950895EF92FF920F931F93CF9363
:100D8000DF938C017B01D0E0C0E0F701EC0FFD1F89
:100D90006491662361F0D801ED91FC910190F0819E
:100DA000E02DC8010995892B11F02196EECFCE01D7
:100DB000DF91CF911F910F91FF90EF900895AF9227
:100DC000BF92CF92DF92EF92FF920F931F93CF9338
:100DD000DF936C017B018B01040F151FEB015E019A
:100DE000AE18BF08C017D10759F06991D601ED912F
:100DF000FC910190F081E02DC6010995892B79F7CE
:100E0000C501DF91CF911F910F91FF90EF90DF907F
:100E1000CF90BF90AF900895FC01538D448D252F46
:100E200030E0842F90E0821B930B541710F0CF9684
:100E3000089501970895FC01918D828D981761F0B6
:100E4000A28DAE0FBF2FB11D5D968C91928D9F5FCD
:100E50009F73928F90E008958FEF9FEF0895FC01AC
:100E6000918D828D981731F0828DE80FF11D858D5F
:100E700090E008958FEF9FEF08950F931F930E94C6
:100E8000740660932A0470932B0480932C0490932F
:100E90002D0482E294E00E942F0797FF1DC00E945C
:100EA000740600912A0410912B0420912C04309197
:100EB0002D04601B710B820B930B00912604109183
:100EC00027042091280430912904601771078207B4
:100ED0009307F8F28FEF9FEF1F910F910895FC0198
:100EE000918D228D892F90E0805C9F4F821B91090C
:100EF0008F739927089582E294E00E946F0721E0A2
:100F0000892B09F420E0822F089580E090E0892B5E
:100F100029F00E947B0781110C9400000895FC01C8
:100F2000A48DA80FB92FB11DA35ABF4F2C91848D4A
:100F300090E001968F739927848FA689B7892C93A7
:100F4000A089B1898C91837080648C93938D848DFA
:100F5000981306C00288F389E02D80818F7D8083FD
:100F60000895EF92FF920F931F93CF93DF93EC01BD
:100F700081E0888F9B8D8C8D98131AC0E889F98940
:100F8000808185FF15C09FB7F894EE89FF89608343
:100F9000E889F98980818370806480839FBF81E0C4
:100FA00090E0DF91CF911F910F91FF90EF90089506
:100FB000F62E0B8D10E00F5F1F4F0F731127E02EE1
:100FC0008C8D8E110CC00FB607FCFACFE889F98919
:100FD000808185FFF5CFCE010E948F07F1CFEB8D89
:100FE000EC0FFD2FF11DE35AFF4FF0829FB7F894ED
:100FF0000B8FEA89FB8980818062CFCFCF93DF930B
:10100000EC01888D8823B9F0AA89BB89E889F98920
:101010008C9185FD03C0808186FD0DC00FB607FC55
:10102000F7CF8C9185FFF2CF808185FFEDCFCE0188
:101030000E948F07E9CFDF91CF910895833081F02F
:1010400028F4813099F08230A9F008958730A9F012
:101050008830C9F08430B1F4809180008F7D03C066
:10106000809180008F7780938000089584B58F777A
:1010700084BD089584B58F7DFBCF8091B0008F77BC
:101080008093B00008958091B0008F7DF9CFCF9309
:10109000DF93EBE6FBE08491E7E5FBE0D491E3E44A
:1010A000FBE0C491CC23A1F081110E941E08EC2F1B
:1010B000F0E0EE0FFF1FE75DF44FA591B491EC91C6
:1010C000ED2381E090E009F480E0DF91CF91089575
:1010D00080E090E0FACF1F93CF93DF93282F30E08A
:1010E000F901E55AF44F8491F901E95BF44FD49189
:1010F000F901ED5CF44FC491CC23A9F0162F8111B6
:101100000E941E08EC2FF0E0EE0FFF1FE75DFC4F82
:10111000A591B4918FB7F894EC91111108C0D095B6
:10112000DE23DC938FBFDF91CF911F910895DE2BDB
:10113000F8CFCF93DF9390E0FC01E95BF44F24916B
:101140008D5C944FFC0184918823C9F090E0880F56
:10115000991FFC01E15EFC4FA591B491FC01E75D94
:10116000FC4FC591D49161110DC09FB7F8948C913B
:10117000209582238C938881282328839FBFDF9129
:10118000CF910895623051F49FB7F8943C91822F2B
:10119000809583238C93E8812E2BEFCF8FB7F89423
:1011A000EC912E2B2C938FBFEACF3FB7F894809110
:1011B000FF0190910002A0910102B091020226B5B8
:1011C000A89B05C02F3F19F00196A11DB11D3FBF7F
:1011D000BA2FA92F982F8827BC01CD01620F711D4E
:1011E000811D911D43E0660F771F881F991F4A9547
:1011F000D1F708958F929F92AF92BF92CF92DF92D4
:10120000EF92FF924B015C010E94D5086B017C01BB
:101210000E94D5086C197D098E099F09683E7340AC
:1012200081059105A8F321E0821A9108A108B1086F
:1012300088EEC80E83E0D81EE11CF11C81149104D5
:10124000A104B10429F7FF90EF90DF90CF90BF90F9
:10125000AF909F908F90089508952091D701260F09
:101260003327331F21323105ECF42091EA02FC01CF
:1012700090E080E0243069F082E00895A091D701E9
:101280002191AC0149545E4FA40FB52FB11D2C9391
:101290000196861798F38091D701680F6093D70164
:1012A00080E0089581E008951092EA0281E0809341
:1012B000E9021092C40261E082E10E946B0861E0E1
:1012C00083E10E946B08E9EBF0E080818E7F8083F0
:1012D00080818D7F808380E28093B80085E4809355
:1012E000BC0008951092190310921803109217036E
:1012F000109216030E9454098CE396E09093150314
:10130000809314038DE396E090931303809312036C
:101310000895CF93DF9391E09093B6018823B9F0BD
:10132000C091B800D091BA008091BC008A7B8093B4
:10133000BC0060E082E10E946B0860E083E10E94F3
:101340006B080E945409D093BA00C093B800DF9193
:10135000CF910895CF92DF92EF92FF920F931F9358
:10136000CF93DF93D091160381E0D13208F09CC077
:10137000C09111030E94D5086B017C018091EA02A3
:1013800081116CC082E08093EA0281E08093E902DF
:101390008FEF8093E8021092E702D093E602A1EF6C
:1013A000B2E0E6ECF2E080E0D8138DC01092C50206
:1013B0008091C502CC0FC82BC093C5028091C40296
:1013C000813009F084C01092C4020E94D5086B01DC
:1013D0007C018091C5028093BB008091EC029091CA
:1013E000ED02A091EE02B091EF02892B8A2B8B2B9C
:1013F000A1F00E94D5080091EC021091ED0220911D
:10140000EE023091EF026C197D098E099F090617D3
:1014100017072807390708F442C08091BC0083FDF4
:10142000D8CF85EC8093BC000E94D5086B017C016D
:101430008091EA02823009F44CC08091E8028F3F2B
:1014400009F469C08091E802803209F466C0809195
:10145000E802803309F463C084E026C08091EC0286
:101460009091ED02A091EE02B091EF02892B8A2BB0
:101470008B2B09F483CF0E94D5080091EC021091C8
:10148000ED022091EE023091EF026C197D098E0978
:101490009F09061717072807390708F06FCF8091B3
:1014A000EB020E94890985E010921703109216033F
:1014B0001092F002DF91CF911F910F91FF90EF906A
:1014C000DF90CF9008959D9191938F5F6DCF85EEC2
:1014D000A9CF8091EC029091ED02A091EE02B09123
:1014E000EF02892B8A2B8B2B09F4A2CF0E94D508FF
:1014F0000091EC021091ED022091EE023091EF028A
:101500006C197D098E099F090617170728073907E7
:1015100008F08ECFC4CF80E0C7CF82E0C5CF83E094
:10152000C3CF0895E091190380911803E81730F4B0
:10153000F0E0EC55FD4F808190E008958FEF9FEF34
:101540000895CF92DF92EF92FF920F931F93CF9364
:10155000DF937C01CB018A012091F002222389F0E4
:10156000EB016B01C40ED51ECC15DD0569F0699148
:10157000D701ED91FC910190F081E02DC701099513
:10158000F3CF642F0E942D09C801DF91CF911F91E5
:101590000F91FF90EF90DF90CF900895CF93DF935E
:1015A0001F92CDB7DEB769832091F0022223F9F0B4
:1015B00020911603203258F021E030E0FC01338303
:1015C000228390E080E00F90DF91CF910895809189
:1015D0001703E82FF0E0EF50FD4F998190838F5F64
:1015E000809317038093160381E090E0ECCF61E0D5
:1015F000CE0101960E942D09F7CFCF93CFB7F89473
:101600008091B501811127C0EDE3FBE08491E1E514
:10161000FBE09491E82FF0E0EE0FFF1FE15EFC4F3E
:10162000A591B491EC91E92321F461E08AE00E9454
:101630006B0861E08AE00E9499088CB580618CBDDE
:101640008CB580648CBD61E08DE00E94990861E0FA
:101650008BE00E9499088091B5018F5F8093B5015E
:10166000CFBFCF91089590E080E008950CB405FCC1
:101670000DC09EBD00000DB407FEFDCF9EB58EBD12
:1016800000000DB407FEFDCF8EB508958EBD00009D
:101690000DB407FEFDCF8EB59EBD00000DB407FE54
:1016A000FDCF9EB50895BC0180916A0290916B02B6
:1016B0000C94BB061F93CF93DF93EC0181E08093E2
:1016C000F00288E68093110310921703109216031C
:1016D00060E08FEB94E00E94CE0A2D811AE0822F09
:1016E000612F0E948C34682F660F680F660F620F9F
:1016F0008FEB94E00E94CE0A2C81822F612F0E94F2
:101700008C34682F660F680F660F620F8FEB94E0C2
:101710000E94CE0A2B81822F612F0E948C34682F69
:10172000660F680F660F620F8FEB94E00E94CE0A7F
:1017300060E08FEB94E00E94CE0A2A81822F612F15
:101740000E948C34682F660F680F660F620F8FEB54
:1017500094E00E94CE0A2981822F612F0E948C344E
:10176000682F660F680F660F620F8FEB94E00E9480
:10177000CE0A2881822F612F0E948C34682F660F39
:10178000680F660F620F8FEB94E00E94CE0ADF9124
:10179000CF911F910C94AA09FC01908190539A302B
:1017A00008F090E0818180532AE0929F800D1124FF
:1017B00008958F929F92AF92BF92CF92DF92EF9255
:1017C000FF92CF93DF93EC016A017B0180E8C81A96
:1017D00083E4D80A8DE6E80A88E3F80A8CE3882EC9
:1017E000912CA12CB12CC701B601A50194010E9436
:1017F000AC346D83CA01B901A50194010E94AC34D7
:101800006C83C701B60120E13EE040E050E00E9459
:10181000AC34CA01B90128E130E040E050E00E9458
:10182000AC346B83C701B60120E831E541E050E0FC
:101830000E94AC34188263E97EEF8881982F937000
:1018400041E050E011F050E040E0FA01E359FE4F72
:101850002E173F0740F0FB01E41BF50B2E0F3F1F37
:101860008F5F8883EACF81E0898389818C30A0F4FF
:10187000482F4150550BFA01EC5EFC4FE491911159
:1018800003C0823009F4EF5FF0E02E173F0720F02D
:101890002E1B3F0B8F5FE8CF2F5F2A83DF91CF9105
:1018A000FF90EF90DF90CF90BF90AF909F908F9080
:1018B0000895DC0150E0E4E1F3E081E0861730F4C4
:1018C0009491490F511D8F5F3196F8CF633038F0F6
:1018D000CD0183709927892B11F44F5F5F4F9D01D4
:1018E0002D5F3F4F36952795369527956DE671E02C
:1018F000A69FC001A79F900DB69F900D1124019740
:10190000820F931F840F951F08958F929F92AF921D
:10191000BF92CF92DF92EF92FF92CF93DF93EC01D1
:1019200022E340E050E0BA0188818E3008F08E500A
:101930008770806480937C0080917A0080648093BB
:101940007A0080917A0086FDFCCF9091780080919A
:101950007900892798278927092E000CAA0BBB0B31
:10196000480F591F6A1F7B1F2150F1F6CB01BA01A6
:1019700022E330E040E050E00E94AC3469017A019B
:101980006FEF73E080E090E06C197D098E099F098C
:101990000E94983029853A854B855C850E94F930F4
:1019A0004B015C01C701B6010E9498309B01AC015C
:1019B000C501B4010E945432DF91CF91FF90EF90A6
:1019C000DF90CF90BF90AF909F908F9008958EBD85
:1019D00000000DB407FEFDCF8EB50895EF92FF9283
:1019E0000F931F93CF93DF937B014091A302E0916C
:1019F000A102F091A202908121E030E0B90102C081
:101A0000660F771F4A95E2F7AB01409550959423F6
:101A100090834091A00200919E0210919F02F801D4
:101A2000908102C0220F331F4A95E2F7209530952E
:101A30002923208380620E94E70C80939D02E701A6
:101A4000F5E0EF0EF11C89910E94E70CCE15DF0541
:101A5000D1F79091A002F801808121E030E001C02F
:101A6000220F9A95EAF7822B8083DF91CF911F9105
:101A70000F91FF90EF900895CF93DF93EC0160E01A
:101A800088810E946B0884E00E94E70C61E08881F5
:101A9000DF91CF910C946B088CBD9DBD0895CF92C2
:101AA000DF92EF92FF92E0919802F09199020995EE
:101AB0006B017C018091960290919702883C910580
:101AC000C1F08439914071F0E0919802F09199024F
:101AD00009956C197D098E099F0960327105810590
:101AE000910540F38FEF9FEFFF90EF90DF90CF9045
:101AF0000895109257021092560288EC90E0F4CFAD
:101B0000CF92DF92EF92FF920E9474066B017C01EC
:101B100082E294E00E941B07181619066CF00E94DE
:101B200074066C197D098E099F09683E7340810512
:101B3000910570F38FEF9FEFFF90EF90DF90CF90C4
:101B400008950F931F93CF93DF939091A002C091BC
:101B50009E02D0919F02888101E010E0980102C0AE
:101B6000220F331F9A95E2F72095309582238883C0
:101B700082EE0E94E70C80939D029091A0028881E2
:101B800001C0000F9A95EAF7082B0883DF91CF91E7
:101B90001F910F9108950F931F93CF93DF9390910F
:101BA000A002C0919E02D0919F02888101E010E0C6
:101BB000980102C0220F331F9A95E2F720953095C5
:101BC0008223888381EE0E94E70C80939D0290918E
:101BD000A002888101C0000F9A95EAF7082B0883BC
:101BE000DF91CF911F910F9108950E94A10D0C9448
:101BF000CB0D0F931F93CF93DF932091A002C09141
:101C00009E02D0919F02988101E010E0A80102C0DD
:101C1000440F551F2A95E2F79A012095309592239B
:101C20009883982F862F90620E94360B2091A002F5
:101C3000888101C0000F2A95EAF7082B088390934A
:101C40009D02DF91CF911F910F9108950F931F93E4
:101C5000CF93DF932091A002C0919E02D0919F026A
:101C6000988101E010E0A80102C0440F551F2A9599
:101C7000E2F79A01209530959223988390E0982F6F
:101C800088278F6F0E94360B3091A002288101C0F7
:101C9000000F3A95EAF7022B088390939D02DF919B
:101CA000CF911F910F910895CF93DF93D82FC62F17
:101CB0000E94260E682F6C2B8D2FDF91CF910C94F4
:101CC000F90DCF92DF92EF92FF920F931F93CF9374
:101CD000DF93F82ED92EE62E9091A302E091A10277
:101CE000F091A2028081C1E0D0E09E0102C0220FEB
:101CF000331F9A95E2F720953095822380830E94C6
:101D0000CB0D9091A00200919E0210919F02F801CC
:101D1000808102C0CC0FDD1F9A95E2F7C095D09567
:101D2000C823C08380EA0E94E70CCF2CCF2DDD2D85
:101D300089910E94E70C8C2F8C198E15C8F3909115
:101D4000A002F801808121E030E001C0220F9A95C5
:101D5000EAF7822B80838DEA91E09093970280933B
:101D60009602DF91CF911F910F91FF90EF90DF903E
:101D7000CF9008953091A302E091A102F091A202C8
:101D8000208181E090E0AC0101C0440F3A95EAF770
:101D9000242B2083AAE1B0E01197F1F73091A30240
:101DA000208102C0880F991F3A95E2F7809590959F
:101DB000822380830895439A60E20E94610E0E940C
:101DC000BA0E439808950F931F93CF93DF9390918A
:101DD000A3020091A1021091A202F8018081C1E04A
:101DE000D0E09E0102C0220F331F9A95E2F72095A2
:101DF00030958223808360E787E00E94F90D0E947E
:101E0000CB0D80E00E94260E682F6E7F80E00E943E
:101E1000F90D9091A302F801808102C0CC0FDD1F63
:101E20009A95E2F7C095D095C823C083DF91CF91F2
:101E30001F910F9108951F93CF93DF93182F64E0A4
:101E40008DE10E94F90DC1E0D0E001C0CC0F1A95E0
:101E5000EAF76C2F8CE10E94540E6C2F81E0DF9129
:101E6000CF911F910C94540E1F93CF93DF93EC01ED
:101E700060E088810E946B0885E00E94E70C80E0AA
:101E80000E94E70C182F61E088810E946B08812F67
:101E9000DF91CF911F910895CF93DF93EC01CE0195
:101EA0000E94340F80FDFBCFDF91CF910895BF9248
:101EB000CF92DF92EF92FF920F931F93CF93DF9316
:101EC0007C01EA01B62E69010E944C0F60E0F70127
:101ED00080810E946B0883E00E94E70C8B2D0E949A
:101EE000E70C8D2F0E94E70C8C2F0E94E70CE60177
:101EF0000C0D1D1DC017D10729F080E00E94E70CD2
:101F00008993F8CF61E0F7018081DF91CF911F9134
:101F10000F91FF90EF90DF90CF90BF900C946B08E3
:101F2000CF93DF93EC0160E088810E946B0886E02C
:101F30000E94E70C61E088810E946B08CE010E943C
:101F4000340F86958170DF91CF910895FF920F93A2
:101F50001F93CF93DF93EC01142F052FF62E0E94D1
:101F60004C0FCE010E94900F8823C9F060E0888159
:101F70000E946B0880E20E94E70C8F2D0E94E70C04
:101F8000802F0E94E70C812F0E94E70C61E088817E
:101F90000E946B08CE010E94340F81FDFBCFDF91C0
:101FA000CF911F910F91FF900895CF92DF92EF9202
:101FB000FF920F931F93CF93DF93C1EDD4E08EEC8C
:101FC000C82E84E0D82E0D81F090D104E090D20488
:101FD00018E0602F661F6627661F8E2D0E946B0813
:101FE000000F61E08F2D0E946B0860E08F2D0E9432
:101FF0006B08115071F72197CC16DD0621F761E0CF
:102000008091D3040E946B0860E08091D304DF913B
:10201000CF911F910F91FF90EF90DF90CF900C9494
:102020006B08E82FE695E695E695F0E0EF52FB4F5A
:102030002381382F377081E090E0A0E0B0E004C049
:10204000880F991FAA1FBB1F3A95D2F7662321F06C
:10205000822B83830C94D50F80958223FACF8F92A5
:102060009F92AF92BF92CF92DF92EF92FF920F9327
:102070001F93CF93DF937C01D62F0E94D5084B018D
:102080005C018091EA02811167C0CD2F81E08093CD
:10209000EA028093E9029FEF9093E8021092E70230
:1020A0009D0F9093E6028093C5028091C502EE0CCD
:1020B000FF1C8E298093C5028091C402813009F0F3
:1020C00083C01092C4020E94D5086B017C018091EC
:1020D000C5028093BB008091EC029091ED02A0912B
:1020E000EE02B091EF02892B8A2B8B2BA1F00E947C
:1020F000D5088090EC029090ED02A090EE02B09096
:10210000EF026C197D098E099F0986169706A806AD
:10211000B90608F442C08091BC0083FDD8CF85EC9D
:102120008093BC000E94D5086B017C018091EA027B
:10213000813009F44BC08091E7028D1710F4C091F3
:10214000E702E6ECF2E0A4EAB2E080E08C1751F19D
:1021500091919D938F5FFACF8091EC029091ED0267
:10216000A091EE02B091EF02892B8A2B8B2B09F400
:1021700088CF0E94D5080091EC021091ED022091C9
:10218000EE023091EF02681979098A099B09061756
:1021900017072807390708F074CF8091EB020E94D7
:1021A0008909C0E010921903C09318038C2FDF91A6
:1021B000CF911F910F91FF90EF90DF90CF90BF9044
:1021C000AF909F908F90089585EEAACF8091EC02FA
:1021D0009091ED02A091EE02B091EF02892B8A2B33
:1021E0008B2B09F4A3CF0E94D5088090EC0290902D
:1021F000ED02A090EE02B090EF026C197D098E09FD
:102200009F0986169706A806B90608F08FCFC5CF96
:1022100081E08093F00288E6809311031092170307
:102220001092160360E08FEB94E00E94CE0A0E94A9
:10223000AA0961E070E088E690E00E942F100E94F9
:102240005106805887FB882780F908951F93CF9304
:10225000DF93CEE1833F09F4C5E591E09093F0026E
:1022600090E4909311031092170310921603682FB5
:102270008FEB94E00E94CE0A0E94AA096C2F70E0B6
:1022800090E080E00E94FA0863E070E080E490E073
:102290000E942F10CBE08091180390911903891BA5
:1022A000990B03975CF46AE070E080E090E00E9494
:1022B000FA08C15081F790E080E020C00E945106EA
:1022C000182FC82F0E945106D82F0E94510698E05F
:1022D00021E33C2FCC0F37FD15C09150D1F7CD270E
:1022E00098E021E33C2FCC0F37FD0EC09150D1F781
:1022F0008C130CC080E0912F8D0F911DDF91CF9139
:102300001F910895C227E9CFC227F0CF81E08093C3
:10231000F00210921703109216036EEF8FEB94E009
:102320000E94CE0A0E94AA096FE070E080E090E06F
:102330000E94FA0881E090E0E1CFCF93DF93EC01B7
:102340003091A302E091A102F091A202208181E0EC
:1023500090E002C0880F991F3A95E2F7809590951A
:1023600082238083BE0180E10E94EE0CBE018AE0E0
:102370000E94EE0C61E082E00E94540E80E0DF914A
:10238000CF910C941B0F0F931F93CF93DF938C016E
:10239000C0912004D091210484E090E00E94D434C4
:1023A000FC011382128211830083FE01209751F4F5
:1023B0009093210480932004DF91CF911F910F917E
:1023C0000895F9012281338121153105D1F79383D5
:1023D0008283CE01EDCF0F931F93CF938C01C0E08A
:1023E000F8018281C81748F48081918160E08C0FE8
:1023F000911D0E94BF31CF5FF3CFCF911F910F91FD
:102400000895FB0101900020E9F73197AF01461BC9
:10241000570BDC01ED91FC910280F381E02D0994D2
:1024200063E371E00C9401120F931F93CF93DF933A
:10243000EC010E94BB068C01CE010E941012800F9D
:10244000911FDF91CF911F910F91089564E571E085
:1024500082E294E00C941412BC0180916A02909183
:102460006B020C9414122F923F924F925F926F92D4
:102470007F928F929F92AF92BF92CF92DF92EF9214
:10248000FF920F931F93CF93DF9300D01F92CDB78E
:10249000DEB7E62E372E4B8398EC99838A838091A2
:1024A0009C02882321F08EE19BE00E942C128091F7
:1024B0009A0290919B020E949D110E94E30E62E09D
:1024C000CE0101960E94610E0E94BA0EE091980220
:1024D000F091990209952B013C01CC24C394D12C95
:1024E00098E2A92EBB24B3942DEA822E99249394CA
:1024F0008091960290919702883C9105E9F08A3C80
:10250000910509F47DC0E0919802F0919902099536
:102510006419750986099709683E7340810591051C
:1025200038F380919C02882321F088E09BE00E9490
:102530002C12E12C312C9EC060919A0270919B026A
:10254000F09095029091A3020091A1021091A20235
:10255000F8018081960102C0220F331F9A95E2F79D
:102560002095309582238083F5E0FF1508F441C063
:1025700021E02F2C2F1508F03EC0FB0160818AE07E
:102580008F0D0E94F90DB60101C0660F2A94EAF77B
:1025900082E00E94540E8F2D0E941B0F9091A30287
:1025A000F8018081960102C0220F331F9A95E2F74D
:1025B000209530958223808360E787E00E94F90DA3
:1025C0000E94A10D61E080E00E94540E9091A30250
:1025D000F8018081960101C0220F9A95EAF7822BBB
:1025E0008083C5010197F1F790929702809296023D
:1025F0008ACF222423948AE0820D0E94EE0CC3CF5E
:102600003091A002C0909E02D0909F02F6012081DE
:1026100081E090E002C0880F991F3A95E2F780951B
:1026200090958223808381E60E94E70CFE2C0E2D7C
:10263000132D8FEF0E94E70CF80181938F018E2FED
:102640008F19FB818F17A8F39091A002F60180816A
:1026500021E030E001C0220F9A95EAF7822B8083B7
:102660000E94A10D80919C02882321F085E19BE0CE
:102670000E942C128E2D932D0F900F900F90DF91B2
:10268000CF911F910F91FF90EF90DF90CF90BF906F
:10269000AF909F908F907F906F905F904F903F9002
:1026A0002F9008950F931F93CF93DF93CDB7DEB78D
:1026B0002C970FB6F894DEBF0FBECDBF62E080E06E
:1026C0000E94540E62E070E080E090E00E94FA0800
:1026D0000E94E30E4CE0BE016F5F7F4F89EC0E94C9
:1026E00033128C01892B49F1FE0131969E01245F42
:1026F0003F4F90E080E04191840F911D2E173F07DE
:10270000D1F7F8019385981741F080919C028823B6
:1027100021F08FED91E00E942C12F801608171810F
:10272000828193812C960FB6F894DEBF0FBECDBF89
:10273000DF91CF911F910F91089580919C02882382
:1027400021F083ED91E00E942C1260E070E0CB015B
:10275000E9CF60E787E00E94F90D80919D0285FF37
:1027600015C088EC90E09093970280939602E091D8
:102770000702F0910802309709F0099580919C02B8
:10278000882381F184EC91E00C942C1280919D02BD
:1027900086FF14C08AEC90E0909397028093960293
:1027A000E0910502F0910602309709F009958091B9
:1027B0009C028823B9F08EEA91E0E6CF84E991E0AB
:1027C0009093970280939602E0910302F0910402A5
:1027D000309709F0099580919C02882319F087EBC6
:1027E00091E0D2CF0895FF920F931F93CF93DF9381
:1027F0000E940811882309F4B8C063E171E082E205
:1028000094E00E94141281E08093F00288E68093A5
:102810001103109217031092160360E08FEB94E0FF
:102820000E94CE0A0E94AA0967E070E088E690E064
:102830000E942F100E9451068F77282F30E094E0DD
:10284000359527959A95E1F7922F990F990FC22FF9
:10285000C91BCC0FC80F0E9451069C0144E035955E
:1028600027954A95E1F72F703327922F990F990FEB
:10287000D22FD91BDD0FD80F0E9451069C0154E0C6
:10288000359527955A95E1F72F703327922F990F99
:10289000990F122F191B110F180F0E9451060E9439
:1028A00051069C0164E0359527956A95E1F72F70F4
:1028B0003327922F990F990FF22EF91AFF0CF80E69
:1028C0000E9451069C0174E0359527957A95E1F7B1
:1028D0002F703327922F990F990F022F091B000F8A
:1028E000080F0E9451069C01E4E035952795EA9572
:1028F000E1F72F703327922F990F990F291B220F81
:10290000820F4F2D602F90E00E94590C9C01A8E18E
:10291000B0E00E94D8319B01AC01210F311D411D57
:10292000511DACE3B0E00E94CD319B01AC012D0FF5
:10293000311D411D511D0E94CD31AB01BC018C2FB9
:1029400090E0B0E0A0E080589C4BA249B74C8A01CF
:102950009B01080F191F2A1F3B1FC901B801DF91F6
:10296000CF911F910F91FF90089560E070E0CB012F
:10297000F6CF8F929F92AF92BF92EF92FF920F93FA
:102980001F93CF93DF93CDB7DEB7A1970FB6F8941F
:10299000DEBF0FBECDBF7C01FA01CB0119A22230F0
:1029A00008F42AE08E010F5D1F4F822E912CB12C6E
:1029B000A12CBF01A50194010E94AC34F901CA0108
:1029C0006A300CF5605DD8016E938D01232B242BAA
:1029D000252B79F790E080E0109721F0BD01C70129
:1029E0000E940112A1960FB6F894DEBF0FBECDBFB4
:1029F000DF91CF911F910F91FF90EF90BF90AF901B
:102A00009F908F900895695CDECF0F931F93CF93B3
:102A1000DF93EC01AB0170E060E02AE00E94B914A2
:102A20008C01CE010E941012800F911FDF91CF9177
:102A30001F910F910895CF92DF92EF92FF92CF9363
:102A4000DF936C01990FEE08FF08F7FE21C06DE2DD
:102A500082E294E00E94B107EC0144275527BA01B5
:102A60004C195D096E097F092AE082E294E00E9418
:102A7000B914C80FD91F82E294E00E9410128C0F83
:102A80009D1FDF91CF91FF90EF90DF90CF90089541
:102A90002AE0B701A60182E294E00E94B914EC0199
:102AA000EACFCF92DF92EF92FF92CF9380EEC82EC3
:102AB00083E9D82E84E0E82EF12C82E294E00E9493
:102AC0006F07892B89F481E0C81AD108E108F10861
:102AD00059F061E070E080E090E00E94FA08EDCFEC
:102AE00082E294E00E941B070E943D07FC0197FDD3
:102AF00050C08D32910519F0C0970A9788F7C12C04
:102B0000D12C7601C0E0E130F105D1F0ED32F105D4
:102B1000F1F1CF01C0970A9798F4AAE0B0E0A701BD
:102B200096010E94CD316F01FF0FEE08FF08C60E1F
:102B3000D71EE81EF91E80E3C81AD108E108F10883
:102B400082E294E00E941B070E943D07FC01C097AF
:102B50000A97C8F2E130F105B1F2CC2341F0F094CC
:102B6000E094D094C094C11CD11CE11CF11C6FEB0B
:102B700072E082E294E00E94BB06C6010E941B152F
:102B80008C2DCF91FF90EF90DF90CF900895C1E012
:102B9000D7CFC12CD12C7601EACF0F931F93CF93BF
:102BA000DF93EC012AE00E94B9148C01CE010E944F
:102BB0001012800F911FDF91CF911F910F910895F7
:102BC0008F929F92AF92BF92CF92DF92EF92FF923D
:102BD000CF93DF9300D000D000D0CDB7DEB76B012C
:102BE0007C010E9408118823D9F10E94F3134B0144
:102BF0005C016AE471E082E294E00E94BB06B501E8
:102C0000A40182E294E00E94CD15D701C601881983
:102C10009909AA09BB09181619061A061B065CF4BD
:102C20000297A105B10564F466E371E082E294E0E5
:102C30000E94141215C08F3F9F4FAF4FBF4FA4F794
:102C400064E271E082E294E00E941412B701A601EE
:102C5000CE0101960E94D90BCE0101960E945A0B1B
:102C600026960FB6F894DEBF0FBECDBFDF91CF9191
:102C7000FF90EF90DF90CF90BF90AF909F908F909C
:102C800008950F931F93CF93DF93162F082FEC0116
:102C9000499150E070E060E02AE080916A029091F2
:102CA0006B020E94B91480ED91E00E94530B8C2FAF
:102CB000801B811768F38DEC91E0DF91CF911F911C
:102CC0000F910C94530B0F931F93CF93DF93EC0151
:102CD000462F50E070E060E02AE00E94B9148C01B9
:102CE000CE010E941012800F911FDF91CF911F9192
:102CF0000F910895CF93DF936DEE7BE082E294E035
:102D00000E9414126DEB7BE082E294E00E941412A8
:102D100061EB7BE082E294E00E94BB06CAE1D3E073
:102D20006A817B8182E294E00E94051561EA7BE082
:102D300082E294E00E94BB066C817D8182E294E095
:102D40000E94051565E97BE082E294E00E94BB06E3
:102D5000898190E00E941B1566E87BE082E294E0A6
:102D60000E94BB06688182E294E00E9463166FE6CF
:102D70007BE082E294E0DF91CF910C941412CF9328
:102D8000DF9380E00E94260ED82F81FF58C0E0918B
:102D9000A102F091A2023297C0812091A30281E0AA
:102DA00090E001C0880F2A95EAF7C82380919C0221
:102DB000882371F084EA91E00E94530B61E0C11115
:102DC00001C060E080916A0290916B020E946316DC
:102DD000D0FF0DC0CC23F1F180919C02882321F01B
:102DE0008BE991E00E942C1283E090E033C0CC2369
:102DF000D9F087E10E94260E84FF0BC080919C02CF
:102E0000882321F080E991E00E942C1282E090E07A
:102E100021C080919C02882321F087E891E00E94E4
:102E20002C1284E090E016C080919C02882321F04F
:102E30008CE791E00E942C1281E090E00BC0809121
:102E40009C02882321F08FE691E00E942C1290E0F2
:102E500080E000C0DF91CF910895CF93DF93BC0154
:102E600082E294E00E940112EC0182E294E00E946E
:102E700010128C0F9D1FDF91CF9108954F925F929A
:102E80006F927F928F929F92AF92BF92CF92DF927A
:102E9000EF92FF920F931F93CF936B017C01742EDF
:102EA000AC019B010E94A23366E371E0811126C050
:102EB00046015701E894B7F82FEF3FEF4FE75FE780
:102EC000C501B4010E94A23381110CC02FEF3FEF66
:102ED0004FE75FE7C501B4010E9493306AE371E0F8
:102EE000181664F02FEF3FEF4FE75FE4C701B6011C
:102EF0000E94F5321816ACF46EE371E082E294E0C1
:102F0000CF911F910F91FF90EF90DF90CF90BF90E6
:102F1000AF909F908F907F906F905F904F900C94A8
:102F200001122FEF3FEF4FE75FECC701B6010E94A0
:102F3000933087FDE1CF20E030E0A901C701B60161
:102F40000E94933010E000E087FF0AC06DE282E249
:102F500094E00E94B1078C01F7FAF094F7F8F0942E
:102F6000C0E060E070E080E09FE37C1641F020E08C
:102F700030E040E251E40E945432CF5FF6CFA70127
:102F800096010E94E8312B013C010E94C6324B01A0
:102F90005C012AE0BC01A40182E294E00E94B91421
:102FA0007C01E00EF11ECC23D1F1C501B4010E94D9
:102FB00098309B01AC01C301B2010E94E7314B0183
:102FC0005C016EE282E294E00E94B107E80EF91E15
:102FD000C15028F120E030E040E251E4C501B401E5
:102FE0000E94F9302B013C010E94C6324B01B12CEA
:102FF000A12C2AE0B501A40182E294E00E94B91458
:10300000E80EF91EC501B4010E9498309B01AC0185
:10301000C301B2010E94E7314B015C01D9CFC70166
:10302000CF911F910F91FF90EF90DF90CF90BF90C5
:10303000AF909F908F907F906F905F904F9008958A
:10304000CF93DF930E943E17EC0182E294E00E944E
:1030500010128C0F9D1FDF91CF910895CF93DF93B6
:10306000EC0161EF7AE082E294E00E9414126CEECF
:103070007AE082E294E00E94BB06688179818A81CD
:103080009B8142E050E00E94201867EE7AE082E2E5
:1030900094E00E94BB066C817D818E819F8142E01D
:1030A00050E00E94201861EE7AE082E294E00E94F3
:1030B000BB06688579858A859B8542E050E00E9441
:1030C00020186BED7AE082E294E00E94BB066C85EA
:1030D0007D858E859F8542E050E00E94201860ED3E
:1030E0007AE082E294E00E94BB06688979898A8945
:1030F0009B8942E050E00E94201868EC7AE082E26E
:1031000094E00E94BB068C8990E0DF91CF910C94F3
:103110001B15CF92DF92EF92FF920F931F93CF93E5
:10312000DF93EC016A017B0161E17CE082E294E0E3
:103130000E94BB06B701A60182E294E00E94CD1571
:1031400064E07CE082E294E00E94BB06B701A60145
:1031500082E294E00E94CD157E2D6D2D5C2D4427DA
:1031600000E011E020E233E0CE010E94570F00E2C0
:1031700013E0C0E17801D0E0F70141917F0150E018
:1031800070E060E02AE082E294E00E94B91465E415
:1031900071E082E294E00E940112DF5FD03161F7BA
:1031A00082E294E00E941012C150005F1F4FC111D3
:1031B000E1CFDF91CF911F910F91FF90EF90DF90C2
:1031C000CF9008954F925F926F927F928F929F92CD
:1031D000AF92BF92CF92DF92EF92FF920F931F9325
:1031E000CF938C012A013B0166E073E082E294E018
:1031F0000E941412C4E1C8010E94850C4B015C01BD
:1032000064E670E080E090E00E94FA08A501940175
:10321000C701B6010E94E8316B017C01C15059F72A
:1032200020E030E040EA51E40E945432A3019201D0
:103230000E9454326B017C0162E471E082E294E00E
:103240000E94011242E050E0C701B6010E9420181E
:1032500020E030E0A901C701B6010E94933087FF4A
:1032600003C0C12CD12C7601C701B601CF911F91AB
:103270000F91FF90EF90DF90CF90BF90AF909F9015
:103280008F907F906F905F904F9008950F931F9352
:10329000CF93DF938091560290915702892B09F0CA
:1032A000BAC04091090550910A0560910B057091D3
:1032B0000C058091050590910605A0910705B09138
:1032C0000805481759076A077B0709F49BC08091D6
:1032D00015058823C9F068ED72E082E294E00E944F
:1032E000BB064091090550910A0560910B0570914C
:1032F0000C052AE082E294E00E94B91464ED72E0C9
:1033000082E294E00E941412C091F7040C2F10E0A6
:10331000E0911105F0911205309709F0099540915F
:10332000090550910A0560910B0570910C052BE77A
:1033300031E08091F3049091F4040E94570FE091E2
:103340000F05F0911005309709F009958091090556
:1033500090910A05A0910B05B0910C058C0F911D61
:10336000A11DB11D8093090590930A05A0930B053B
:10337000B0930C054091FF04509100056091010548
:103380007091020584179507A607B70780F0809112
:10339000FB049091FC04A091FD04B091FE04809385
:1033A000090590930A05A0930B05B0930C05809135
:1033B00013058F5F809313058BE791E0909357027D
:1033C000809356026BEC72E082E294E00E94BB06AE
:1033D000CBE7D1E00BE911E0499150E070E060E00B
:1033E0002AE082E294E00E94B91465E471E082E28E
:1033F00094E00E9401120C171D0771F782E294E01D
:103400000E9410128091560290915702DF91CF9145
:103410001F910F91089567EE72E082E294E00E949E
:103420001412F0CFFF920F931F93CF93DF93EC0111
:10343000F62E08811981C8010E94B731F81621F0D3
:103440006F2DC8010E94BF31CE01DF91CF911F9136
:103450000F91FF900895CF92DF92EF92FF920F931A
:103460001F93CF93DF9300D0CDB7DEB76C016BE530
:1034700071E082E294E00E94141276010AE210E008
:10348000F70161917F011A830983CE0101960E94A1
:10349000121A0F5F1F4F0233110591F768E0C60142
:1034A0000E9441160F900F90DF91CF911F910F91C5
:1034B000FF90EF90DF90CF900895CF92DF92EF9240
:1034C000FF920F931F93CF93DF9300D0CDB7DEB75A
:1034D0006C0161E972E082E294E00E9414127601CC
:1034E00005E110E0F70161917F011A830983CE01A4
:1034F00001960E94121A0F5F1F4F0A32110591F7B1
:10350000C6010E942E180F900F90DF91CF911F914E
:103510000F91FF90EF90DF90CF900895CF92DF92C0
:10352000EF92FF920F931F93CF93DF9300D0CDB70D
:10353000DEB76C0167E672E082E294E00E9414124A
:10354000760110E000E0F70161917F011A830983A1
:10355000CE0101960E94121A0F5F1F4F053111050F
:1035600091F7C6010E942E180F900F90DF91CF9116
:103570001F910F91FF90EF90DF90CF9008950F93E0
:103580001F93CF938C01C0E0F801808191818C0F53
:10359000911D0E94B731982F81E08C0FCF3F59F0D9
:1035A000992329F0C82FF8019281981768F7CF91D5
:1035B0001F910F91089580E0FACFEF92FF920F9341
:1035C0001F93CF93DF93EC010E94BF1A182F8A81BB
:1035D000811720F4CE010E94EB1111E02FEF210F93
:1035E000E22EF12C8A8148815981840F952F911DFB
:1035F0003B81239F800D911D11249D838C8300E0CE
:103600008B81081770F4802F90E0FC01EB5FFA4F7C
:103610002C813D816081820F931F0E94BF310F5F1B
:10362000EFCF88819981612F8E0D9F1DDF91CF9102
:103630001F910F91FF90EF900C94BF31EF92FF928A
:103640000F931F93CF93DF937C0168EA72E082E2CD
:1036500094E00E9414128701C5E1D0E0CE010E94DF
:10366000B731F80181938F012196CA32D105B1F7A4
:10367000C701DF91CF911F910F91FF90EF900C94B4
:103680002E18EF92FF920F931F93CF93DF937C013D
:103690006CE772E082E294E00E9414128701D0E0AD
:1036A000C0E0CE010E94B731F80181938F012196CD
:1036B000C531D105B1F7C701DF91CF911F910F91AE
:1036C000FF90EF900C942E1885ED8093BC008091B4
:1036D000EC029091ED02A091EE02B091EF020796FC
:1036E000A11DB11D23E0B695A795979587952A95BD
:1036F000D1F72091BC0024FD03C01092EA02089586
:103700004091EC025091ED026091EE027091EF0257
:10371000452B462B472B69F30097A105B10541F0D6
:103720002AE12A95F1F700C00197A109B109E1CF7B
:103730008091EB020C948909CF93DF93EC010E94F6
:10374000850C2D853E854F8558890E9454320E94F4
:10375000FA3229813A814B815C810E94E7312D81C7
:103760003E814F8158850E9454329B01AC0160E03C
:1037700070E080E291E4DF91CF910C945233CF93CB
:10378000DF93EC0182E0888380911C0390911D03FC
:103790009B838A838091850290918602A091870203
:1037A000B09188028C839D83AE83BF8383EF0E9498
:1037B00026118C7FBC0190E080E00E94983022E5C9
:1037C00038EB4FE25BE30E94F93026E636E64BE346
:1037D00052E40E94E731282F220F292F221F2F3F6A
:1037E00019F460E070E0CB016C8B7D8B8E8B9F8B2E
:1037F00085EF0E9426118C7FBC0190E080E00E9442
:10380000983020E030E04AEF5AE30E94F93020E09F
:1038100030E040EC50E40E94E731282F220F292F9E
:10382000221F2F3F19F460E070E0CB01688B798B89
:103830008A8B9B8B8EE295E00E949C1B282F220F87
:10384000292F221F2F3F19F460E070E0CB01688719
:1038500079878A879B8788E195E00E949C1B282FA7
:10386000220F292F221F2F3F19F460E070E0CB01B7
:103870006C877D878E879F87CE01DF91CF910895DA
:10388000EF92FF920F931F93CF93DF938BE991E019
:103890000E94BF1B8C01FC01608971898289938918
:1038A0000E94C632862F64E10E948C34C5E0D0E0CD
:1038B0007E01E81AF10861E0EC16FD060CF060E00C
:1038C0008C2F0E9411102197B1F7F8016489758936
:1038D000868997890E94C632862F6AE00E948C34BE
:1038E000CAE0D0E07E01E81AF10861E0EC16FD06BE
:1038F0000CF060E08C2F0E9411102197C530D1058B
:10390000A1F7F80164857585868597850E94C63282
:10391000862F65E00E948C34CFE0D0E07E01E81A6B
:10392000F10861E0EC16FD060CF060E08C2F0E94BF
:1039300011102197CA30D105A1F7F8016085718572
:10394000828593850E94C632862F6AE00E948C345D
:10395000C4E1D0E08E01081B110961E00C171D07BE
:103960000CF060E08C2F0E9411102197CF30D10510
:10397000A1F7DF91CF911F910F91FF90EF900895E4
:10398000CF93DF93C0911002D0911102CE010E941B
:10399000BF1B60E372E082E294E00E94141268E2CE
:1039A00072E082E294E00E94BB064C815D816E81F0
:1039B0007F8182E294E00E94CD1562E272E082E2B1
:1039C00094E00E94BB066A817B8182E294E00E94BF
:1039D000051563E172E082E294E00E94BB066C8907
:1039E0007D898E899F8942E00E943E1787E491E09D
:1039F0000E942D1767E072E082E294E00E94BB060D
:103A0000688979898A899B8942E00E943E178AE405
:103A100091E00E942D176CEF71E082E294E00E9429
:103A2000BB06688579858A859B8542E00E943E17A2
:103A30008FE491E00E942D1761EF71E082E294E043
:103A40000E94BB066C857D858E859F8542E00E9425
:103A50003E178FE491E00E942D1768E572E082E244
:103A600094E00E94BB0680917A01082E000C990B0D
:103A70000E941B1580917A018F5F80937A0180915B
:103A80000F022091100230911102820F932F911D8D
:103A9000909311028093100220910D0230910E023A
:103AA0008217930758F08217930759F480911402F4
:103AB000909115029093590280935802DF91CF9113
:103AC0000895409112025091130284179507B1F79F
:103AD00010927A0180911402909115029093110234
:103AE000809310023093590220935802E7CF2F920F
:103AF0003F924F925F926F927F928F929F92AF927E
:103B0000BF92CF92DF92EF92FF920F931F93CF93CA
:103B1000DF9300D000D0CDB7DEB71C012A013B01F6
:103B200009831A832B833C83A7019601C501B40145
:103B30000E9454320E94FA324B015C01A3019201AF
:103B400069817A818B819C810E9454320E94FA3271
:103B50009B01AC01C501B4010E9454324B015C01D0
:103B6000F10185829682A782B086C701B6010E94C4
:103B7000FA326B017C01C301B2010E94FA329B014F
:103B8000AC01C501B4010E94F9309B01AC01C70131
:103B9000B6010E94E731F1016183728383839483CC
:103BA00061E073E082E294E00E94BB06F10165816E
:103BB00076818781908546E050E00E9420186CEF66
:103BC00072E082E294E00E94BB06F10161817281A1
:103BD0008381948142E050E00F900F900F900F90FE
:103BE000DF91CF911F910F91FF90EF90DF90CF90D9
:103BF000BF90AF909F908F907F906F905F904F900D
:103C00003F902F900C9420181F920F920FB60F9296
:103C100011242F933F934F935F936F937F938F93D1
:103C20009F93AF93BF93EF93FF9382E294E00E9440
:103C30008F07FF91EF91BF91AF919F918F917F91EE
:103C40006F915F914F913F912F910F900FBE0F9009
:103C50001F9018951F920F920FB60F9211242F9359
:103C60008F939F93EF93FF93E0913204F09133048D
:103C70008081E0913804F091390482FD1BC090816D
:103C800080913B048F5F8F7320913C04821741F039
:103C9000E0913B04F0E0EE5DFB4F958F80933B0499
:103CA000FF91EF919F918F912F910F900FBE0F90E9
:103CB0001F9018958081F4CF1F920F920FB60F922C
:103CC00011242F933F938F939F93AF93BF93809132
:103CD000FB019091FC01A091FD01B091FE0130919A
:103CE000FA0126E0230F2D3758F50296A11DB11DCC
:103CF0002093FA018093FB019093FC01A093FD01B6
:103D0000B093FE018091FF0190910002A091010209
:103D1000B09102020196A11DB11D8093FF01909305
:103D20000002A0930102B0930202BF91AF919F9154
:103D30008F913F912F910F900FBE0F901F9018956C
:103D400029E8230F0396A11DB11DD2CF1F920F9218
:103D50000FB60F9211242F933F934F935F936F935E
:103D60007F938F939F93AF93BF93EF93FF93E091D4
:103D70000701F09108010995FF91EF91BF91AF9173
:103D80009F918F917F916F915F914F913F912F9173
:103D90000F900FBE0F901F9018951F920F920FB6A5
:103DA0000F9211242F933F934F935F936F937F93C1
:103DB0008F939F93AF93BF93EF93FF93E091050190
:103DC000F09106010995FF91EF91BF91AF919F91FD
:103DD0008F917F916F915F914F913F912F910F90B4
:103DE0000FBE0F901F9018951F920F920FB60F9253
:103DF00011242F933F934F935F936F937F938F93F0
:103E00009F93AF93BF93EF93FF938091B900887F07
:103E1000803609F44AC0F0F5883209F4A7C018F5D5
:103E2000803109F49BC0B8F4882309F4F9C08830C4
:103E300009F494C0FF91EF91BF91AF919F918F9141
:103E40007F916F915F914F913F912F910F900FBE96
:103E50000F901F901895883109F488C0803251F76F
:103E60008093E80214C0803409F49DC040F480338C
:103E7000B9F38833F9F68093E80285ECB0C0803559
:103E800009F485C0883509F496C0883499F60E94F3
:103E9000641BD0CF883909F48CC038F5883729F0F5
:103EA00050F4883611F0803729F683E08093EA02D7
:103EB0001092F90157C0883809F47BC0803919F095
:103EC000803809F0B7CF8091F901803208F071C0D5
:103ED000E091F90181E08E0F8093F9018091BB00A0
:103EE000F0E0E752FE4F80833DC0803B39F0E0F4C4
:103EF000803A09F479C0883A09F09CCF84E0809335
:103F0000EA021092D8011092D701E0911403F091C7
:103F1000150309958091D70181110FC081E080932D
:103F2000D7011092B70109C0803C09F4A6CF883CA4
:103F300009F4A3CF883B09F07DCFE091D80181E05F
:103F40008E0F8093D801F0E0E954FE4F808180937A
:103F5000BB009091D8018091D70129C08091C50202
:103F60008093BB0085EC8093BC0064CF9091E70206
:103F70008091E602981758F5E091E70281E08E0FF4
:103F80008093E702F0E0EA53FD4F8081E9CFE091B2
:103F9000E70281E08E0F8093E7028091BB00F0E0A2
:103FA000EA53FD4F80839091E7028091E6029817D3
:103FB000C8F285E8D8CFE091E70281E08E0F8093C8
:103FC000E7028091BB00F0E0EA53FD4F80838091CF
:103FD000E90281115CCF81E08093C40284EA80937E
:103FE000BC001092EA0226CF85EC8093BC001092B0
:103FF000EA028091F901803230F4E091F901F0E0B9
:10400000E752FE4F10826091F90170E0E0911203D7
:10401000F091130389ED91E009951092F9010ACF0F
:104020001092E80234CF1F920F920FB60F92112414
:104030000F900FBE0F901F9018951F920F920FB602
:104040000F9211242F933F934F935F936F937F931E
:104050008F939F93AF93BF93EF93FF93E0915C0295
:10406000F0915D020995FF91EF91BF91AF919F9102
:104070008F917F916F915F914F913F912F910F9011
:104080000FBE0F901F9018951F920F920FB60F92B0
:1040900011242F933F934F935F936F937F938F934D
:1040A0009F93AF93BF93EF93FF93E0915A02F091E8
:1040B0005B02309709F0099514BE80916000886119
:1040C0008093600088E080936000FF91EF91BF9142
:1040D000AF919F918F917F916F915F914F913F91A0
:1040E0002F910F900FBE0F901F901895E2E2F4E011
:1040F0001382128288EE93E0A0E0B0E0848395837F
:10410000A683B78323E131E03183208325EC30E0BF
:104110003587248724EC30E03787268720EC30E091
:10412000318B208B21EC30E0338B228B22EC30E082
:10413000358B248B26EC30E0378B268B118E128E3C
:10414000138E148EEFEBF4E0138212828483958336
:10415000A683B78385E291E09183808340E853E4AE
:104160006DE678E38BEC94E00E94D90BE1EDF4E08E
:1041700084E1808385E0818385E1828361E084E15D
:104180000E94990861E085E00E94990861E085E15C
:104190000E94990860E084E10E946B0860E085E07D
:1041A0000E946B0860E085E10E946B08E4EDF4E09A
:1041B00083E0DF011D928A95E9F70E94D50FE6E1C1
:1041C000F5E086E0808387E08183E3EFF4E0158EFD
:1041D000148E178E168E10A211A212A280E090E10A
:1041E000A0E0B0E080879187A287B3878FEF9FE43C
:1041F000A6E0B0E084879587A687B787EDEEF4E068
:1042000088E490E09183808384E0828382E08383EA
:10421000E2EEF4E080E49CE1918380838AE090E028
:10422000A0E0B0E082839383A483B58312861682D4
:10423000178210861186E7EDF4E080EC9CE1918313
:10424000808382E090E0A0E0B0E082839383A48347
:10425000B583128616821782108611868EE08093AF
:104260002E058FE08093180510924805E9E4F5E0EB
:104270008FEB96E19183808385E090E0A0E0B0E051
:1042800082839383A483B583128616821782108655
:1042900011860895CF93DF93CDB7DEB7AC970FB6F5
:1042A000F894DEBF0FBECDBF789484B5826084BD24
:1042B00084B5816084BD85B5826085BD85B581602A
:1042C00085BD80916E00816080936E0010928100A8
:1042D0008091810082608093810080918100816063
:1042E0008093810080918000816080938000809124
:1042F000B10084608093B1008091B00081608093B0
:10430000B00080917A00846080937A0080917A0076
:10431000826080937A0080917A008E7F80937A0009
:1043200080917A00806880937A001092C100E091B9
:104330003204F091330482E08083E0912E04F09106
:104340002F041082E0913004F091310483E08083E7
:1043500010923A04E0913604F091370486E08083AD
:10436000E0913404F0913504808180618083E09194
:104370003404F0913504808188608083E0913404B6
:10438000F0913504808180688083E0913404F0915D
:10439000350480818F7D808384E796E09093990235
:1043A0008093980285E290E09093A2028093A1020C
:1043B00031E03093A30290939F0280939E0210926B
:1043C000A00284B1836084B94091A302E091A1026C
:1043D000F091A202208181E090E0BC0102C0660F52
:1043E000771F4A95E2F7AB0140955095242320832F
:1043F0004091A00200919E0210919F02D8012C9141
:1044000001C0880F4A95EAF7822B8C938DEA91E0E0
:1044100090939702809396021092080210920702DE
:1044200010920602109205021092040210920302EA
:1044300030939C020E94FD0A83E590E00E944C0D9F
:1044400080919C02882331F082E294E090936B0289
:1044500080936A0264E670E080E090E00E94FA08CF
:104460009091A002F8018081EE24E394F12C970151
:1044700002C0220F331F9A95E2F7209530958223D0
:1044800080838FEF0E94E70C9091A002D8018C915D
:1044900001C0EE0C9A95EAF7E82AEC926CE780E00E
:1044A0000E94F90D60E787E00E94F90D60E082E06C
:1044B0000E94F90D60E081E00E94F90D60E08CE15E
:1044C0000E94F90D68E785E00E94F90D63E083E042
:1044D0000E94F90D6FE784E00E94F90D6EE086E01E
:1044E0000E94F90D0E94CB0D0E94A10D6CE080E0AE
:1044F0000E94F90D8091980290919902892B21F4E4
:1045000082E493E00E94530B83E393E00E942C1219
:104510008AEB96E0909308028093070286E292E18C
:10452000909306028093050285EF9DE0909304022C
:104530008093030280E091E090939B0280939A0223
:104540001092950280E00E94260E682F6D7F80E019
:104550000E94F90D67E673E082E294E00E94141273
:104560000E94720981E08093F00288E68093110333
:1045700010921703109216030E94AA096CEA73E0C6
:10458000882311F066EB73E082E294E00E9414123B
:104590000E9408116AE973E0811157C04BE050E0B6
:1045A0006EE873E0CE0101960E946D30CE010A964E
:1045B0000E94CC0B89A3E981E154E33120F50E2E52
:1045C000000CFF0BEA51FD4D0C94CE345125032312
:1045D0000323652503234F25032303230323F92204
:1045E0000323032358256325612503230323032382
:1045F0005F258A81813609F44EC28B818E3609F09F
:104600004CC286E08AA3CE0105960E94CC0B8BA3F8
:1046100048E050E065E873E0CE0101960E946D30FD
:10462000CE0101960E94CC0B8CA3CE0104960E9471
:10463000CC0B8DA3CE0107960E94CC0B8EA3CE018E
:1046400081960E945A0B68E773E082E294E00E9430
:10465000141283EF93E19093600280935F0280EEE7
:1046600095E1909364028093630210928502109208
:104670008602109287021092880210928102109294
:104680008202109283021092840210920902109208
:104690000A0210920B0210920C0210928A021092DF
:1046A000890282E090E0909362028093610210920E
:1046B000800210927F0210928000109281008091FF
:1046C0008100886180938100809180008260809366
:1046D000800084E080935E0264ED73E082E294E007
:1046E0000E94BB062AE042E15AE760E070E082E205
:1046F00094E00E94B91464EC73E082E294E00E94BA
:10470000BB0660915E0282E294E00E9463168FB75E
:10471000F89421E13AE730938700209386008FBF19
:1047200083E996E090935D0280935C027894809197
:104730006F00846080936F0086E192E09093150291
:104740008093140226E532E0309313022093120284
:10475000909311028093100210E210930F021092B6
:1047600059021092580286E392E090930E028093D1
:104770000D0282E294E090936B0280936A0261E002
:104780008AE00E94990860E08AE00E946B0810921B
:10479000D4041092D5041092D6040E94D50F61E083
:1047A00080E00E94111087ED94E00E94C31182EE18
:1047B00094E00E94C3113B9A439886E195E0909360
:1047C000F4048093F30488E592E09093F6048093D8
:1047D000F5041093F70481E08093F80480E290E000
:1047E0009093FA048093F90460E274E082E294E02A
:1047F0000E94BB064091FF045091000560910105A5
:104800007091020582E294E00E94CD156091FF0450
:104810007091000580910105909102050091FB04C3
:104820001091FC042091FD043091FE04601B710B7B
:10483000820B930B2091F9043091FA0450E040E090
:104840000E94AC346B017C0163E174E082E294E08D
:104850000E94BB06B60182E294E00E940515809199
:10486000FF0490910005A0910105B09102058C19FB
:104870009D09AE09BF098093FF0490930005A093A2
:104880000105B093020567E074E082E294E00E94C3
:10489000BB064091FF0450910005609101057091A5
:1048A000020582E294E00E94CD150091F30410917C
:1048B000F40461E0F80180810E94990861E0D80168
:1048C0008C910E946B08F80181818F3F49F061E073
:1048D0000E94990861E0D80111968C910E946B08A2
:1048E00081E591E00E944C0D0E94FD0A61E070E0BC
:1048F00080E090E00E94FA08C8010E944C0FC801B5
:104900000E94900F60E0F80180810E946B0881E0B6
:104910000E94E70C80E00E94E70C61E0D8018C91D6
:104920000E946B08C8010E943C0DC8010E944C0FF8
:10493000C8010E94900F60E0F80180810E946B081E
:1049400081E30E94E70C80E00E94E70C61E0D8015F
:104950008C910E946B08C8010E943C0D8091F80464
:10496000880F8093140563EF73E082E294E00E9465
:10497000BB064091FB045091FC046091FD047091D2
:10498000FE0482E294E00E94CD1561EE73E082E2C3
:1049900094E00E94BB064091FF0450910005609195
:1049A00001057091020582E294E00E94CD158DEE22
:1049B00094E0909304058093030584E08093EF04D2
:1049C0001AE01093F0048DEE94E00E94BF1AE0907C
:1049D000ED04F090EE048250819FE00CF11C112454
:1049E00003EF14E0F701EF5EF4407F01C701800F91
:1049F000911F0E94B731D80152968C930F5F1F4FC1
:104A0000B4E00D3F1B0791F71092100510920F05AF
:104A100080E896E0909312058093110581E08093E1
:104A200015050E9472090E9472098FE295E00E94AA
:104A3000411B809143056BE274E0811102C060E488
:104A400074E082E294E00E94141289E195E00E94F1
:104A50001E1B80912D056BE274E0811102C060E4A1
:104A600074E082E294E00E941412109257021092B5
:104A700056028BE696E09093450580934405E091BD
:104A80002004F091210480E0309709F18F5F0280CB
:104A9000F381E02DF9CF81E0B5CD87E0B3CD82E0A1
:104AA000B1CD8B81823711F484E0ACCD88E0AACD02
:104AB0008B81823711F483E0A5CD85E0A3CD89E019
:104AC000A1CD8AE09FCD8BE09DCD8CE09BCD8093E6
:104AD000480566E574E082E294E00E94BB066091BE
:104AE000480582E294E00E94631610914805812FE8
:104AF00090E0880F991F0E94D434FC0190934705E1
:104B00008093460590E0191721F0119211929F5F52
:104B1000FACF86E499E190937C0280937B028BED3F
:104B20009EE090937102809370028FE49DE09093D9
:104B30006F0280936E0284E796E0909377028093F1
:104B4000760210926D0210927A021092790211E0B0
:104B50001093780282E294E090936B0280936A0251
:104B600084E694E00E942C1210936D02EAE1F3E0D7
:104B7000F8A7EFA37F010EE310E0C8010E94B73150
:104B8000D7018D937D010F5F1F4F04341105A9F7E5
:104B90000E947A1660E080E10E9499080E9447080E
:104BA000892B09F4CBC260ED77E080E090E00E94B1
:104BB000FA080E944708019709F0C0C26AE077E04E
:104BC00082E294E00E94141262E175E082E294E0D5
:104BD0000E9414126FED74E082E294E00E941412BD
:104BE0006CEA74E082E294E00E94141269E774E0D7
:104BF00082E294E00E94141248EC642E69E675E0AB
:104C000082E294E00E94141264E575E082E294E08E
:104C10000E94141265E475E082E294E00E9414128E
:104C20000E945115182F813009F0ECC1772473943C
:104C300068EC75E082E294E00E94141267EB75E084
:104C400082E294E00E9414126DEA75E082E294E040
:104C50000E94141262EA75E082E294E00E9414124B
:104C60006EE875E082E294E00E9414126BE775E052
:104C700082E294E00E9414120E945115833009F4DC
:104C8000A8C178F4813009F4A0C0823009F442C18F
:104C90008111B1C16DE676E082E294E00E941412C7
:104CA000ADCF843009F49EC1853091F76FE776E08F
:104CB00082E294E00E9414125AE9852E59E9952E59
:104CC00059E1A52E5FE3B52EC12CD12C60E8E62E6C
:104CD0006FE3F62E00E010E42CE935E440E050E00C
:104CE0006AE774E48EE295E00E94771D212C312C56
:104CF0007AE7472E74E4572E209237053092380514
:104D00004092390550923A056DEC7CEC8CE890E4C9
:104D100060933F0570934005809341059093420551
:104D2000AB01BC018EE295E00E94E21860933B0566
:104D300070933C0580933D0590933E05709243052A
:104D40008FE295E00E948E1A812C912CE8ECAE2E19
:104D5000E2E4BE2EC12CD12CF0E2EF2EF1E4FF2EC6
:104D600000E010E020E83FE34AE959E969E270E435
:104D700088E195E00E94771D20922105309222055E
:104D800040922305509224058DEC9CECACE6B0E4F7
:104D90008093290590932A05A0932B05B0932C05A9
:104DA000AC01BD0188E195E00E94E2186093250501
:104DB00070932605809327059093280570922D0502
:104DC00089E195E00E945D1A33CF63EA76E082E2E2
:104DD00094E00E9414126BE076E082E294E00E947C
:104DE0001412C090FB04D090FC04E090FD04F090FD
:104DF000FE040CE0F694E794D794C7940A95D1F793
:104E000016018091FF0490910005A0910105B091D9
:104E100002052CE0B695A795979587952A95D1F729
:104E20002C018601102F00271295107F4214530485
:104E3000C8F066EF75E082E294E00E94BB06B10123
:104E400082E294E00E940515A80170E060E0809184
:104E5000F3049091F4040E94A60FBFEF2B1A3B0AB3
:104E6000105FE4CFB701A601A4E0440F551F661FF1
:104E7000771FAA95D1F7407F6F7077278091F30451
:104E80009091F4040E9489188091FB049091FC0495
:104E9000A091FD04B091FE04809305059093060552
:104EA000A0930705B09308058093090590930A0520
:104EB000A0930B05B0930C058091FF049091000521
:104EC000A0910105B09102051CE0B695A7959795B4
:104ED00087951A95D1F790930E0580930D056BED8C
:104EE00075E082E294E00E94BB0660910D0570912E
:104EF0000E0582E294E00E940515809103059091D1
:104F000004050E94EB1180910305909104050E9415
:104F1000DD1A8ECE66E476E082E294E00E941412FE
:104F20008091FB049091FC04A091FD04B091FE04DB
:104F30008093050590930605A0930705B093080597
:104F40008093090590930A05A0930B05B0930C0577
:104F500080910305909104050E94EB118091030557
:104F6000909104050E94DD1A0091F3041091F4045D
:104F700065E276E082E294E00E941412C8010E9489
:104F8000900F60E0F80180810E946B0880E60E942B
:104F9000E70C61E0D8018C910E946B08C8010E9467
:104FA0003C0DC8010E944C0F60E276E082E294E082
:104FB0000E94141280919C02882321F084E396E0E1
:104FC0000E942C12CE0101960E942B1A10921A03F5
:104FD0002FCE6CE976E082E294E00E9414121092E7
:104FE0001B0326CE64E976E082E294E00E9414126C
:104FF00070921B031DCE61E676E082E294E00E948F
:10500000141216CE823009F077C066E071E082E2B9
:1050100094E00E94141261EF70E082E294E00E943A
:1050200014126AEE70E082E294E00E9414126BEDBA
:1050300076E082E294E00E94BB0642E0E42EF12C8E
:10504000DD24D39430EE832E33E9932E34E0A32E67
:10505000B12C82E294E00E946F07892B69F491E001
:10506000891A9108A108B10839F061E070E080E088
:1050700090E00E94FA08EDCF0E94800D8E010F5F34
:105080001F4FB02EC12E97FD06C0D8018D938D0104
:105090000E94800DF8CFF8011082F2E08B2D9C2D3C
:1050A000DF16C9F00E94463070931D0360931C0305
:1050B00082E294E00E940515EA94EF28D1F066ECB4
:1050C00076E082E294E00E94BB06EE24E394F12CA9
:1050D00022E0D22EB7CF0E94283090931F038093F6
:1050E0001E03BC0182E294E00E94051560921A033F
:1050F000E3CF63EB76E0D0CD69EF76E082E294E037
:105100000E94141211117ACD68EE76E082E294E0EA
:105110000E9414120EE310E0AFA1B8A56D91B8A7DC
:10512000AFA31A830983CE0101960E94121A0F5F62
:105130001F4F0434110581F70E947A160091200454
:105140001091210484E090E00E94D434FC01138289
:10515000128229E435E031832083F801011511051D
:1051600009F056C0909321048093200468E177E011
:1051700082E294E00E94BB0660E070E282E294E08A
:105180000E9405159FB7F89414BE80916000886155
:105190008093600081E2809360009FBF78941092BA
:1051A0005B0210925A0268EE73E080E090E00E9489
:1051B000FA0884E591E00E942D1710929402109253
:1051C00093028E010F5F1F4F22242394312C809174
:1051D0009302909194028130910551F110F1029760
:1051E00051F1E0909302F0909402F2E0EF16F10496
:1051F00009F4C8C018F5E114F104B9F1EA94EF28F4
:1052000009F48DC0109294021092930220C0F9010B
:105210002281338121153105D1F793838283C8011F
:10522000A1CF67E277E082E294E00E941412D9CF26
:1052300064E577E0F8CF6FE377E0F5CF63E0E6165B
:10524000F10409F410C274E0E716F104D9F6A89548
:1052500080E090E0892B09F4BACF0E947B07882375
:1052600009F4B5CF0E940000B2CF62EA77E082E293
:1052700094E00E94141280E00E94260EF82E6CE941
:1052800077E082E294E00E94BB062F2D30E0359556
:105290002795359527952370332781E090E0232BC0
:1052A00011F490E080E00E941B1566E977E082E24D
:1052B00094E00E94BB0681E090E00E941B156EE81E
:1052C00077E082E294E00E94BB0681E090E00E94D9
:1052D0001B1560E877E082E294E00E94BB0681E063
:1052E00090E00E941B156AE677E082E294E00E945B
:1052F000141280911A03883C29F43092940220926F
:105300009302A5CF6FEA7AE082E294E00E94141241
:1053100084E090E0909394028093930298CF62E0AF
:1053200082E00E94990889EA93E1909306018093B4
:105330000501809169008C7F826080936900E89A02
:105340008091600080648093600010927E021092D1
:105350007D0282E090E0A0E0B0E08093D9049093D9
:10536000DA04A093DB04B093DC0468EB77E082E21C
:1053700094E00E941412A2E0B0E0B0939402A093D3
:10538000930265CF0E94521360938F027093900234
:10539000809391029093920263E378E082E294E03A
:1053A0000E94BB0640918F02509190026091910241
:1053B0007091920282E294E00E94CD1560918F027A
:1053C0007091900280919102909192026115710505
:1053D0008105910509F462C060938502709386028D
:1053E0008093870290938802E0916302F0916402B7
:1053F000309709F009951092620210926102809133
:105400008100887F809381008091810090915E026D
:10541000892B80938100E0906102F090620263E04A
:1054200078E082E294E00E94BB06B1E0EB16F10462
:1054300009F474C008F46BC0F2E0EF16F10409F44B
:1054400070C06FED77E082E294E00E941412409108
:105450008502509186026091870270918802C8018E
:105460000E94D90B86E0F801ABECB4E001900D92FC
:105470008A95E1F78091CE048093800280937F0229
:105480008091610290916202029709F04DC068E834
:1054900073E180E090E00E94FA08D9CEE0915F02CB
:1054A000F0916002309731F1099561157105810520
:1054B000910569F06093850270938602809387025C
:1054C00090938802309262022092610298CF1092EB
:1054D0008502109286021092870210928802F09242
:1054E0006202E09261026BE178E082E294E00E9465
:1054F000141285CF109285021092860210928702B4
:1055000010928802F0926202E092610278CF68EF16
:1055100077E082E294E00E94BB0693CF6DEE77E0E5
:10552000F8CF64EE77E0F5CF64E778E082E294E0CC
:105530000E9414126801AAE2EA2EF12CC7010E940F
:10554000B731D6018D936D01BFEFEB1AFB0AE2E391
:10555000EE16F10499F768E0C8010E9441168E81A9
:10556000883C19F48F818C3CC1F180919C02882386
:1055700021F089E898E00E942C1262E080E00E940D
:10558000540E62E070E080E090E00E94FA080E9411
:10559000E30E48E0B8018CEC0E943312009709F446
:1055A00058C0FC01AC01495F5F4F30E020E06191E1
:1055B000260F311D4E175F07D1F7DC0117968C912E
:1055C000821741F080919C02882321F089E598E0C0
:1055D0000E942C12C8010E942B1A85E0F801A5E652
:1055E000B2E001900D928A95E1F780919C028823A8
:1055F00049F08EE398E00E94530B65E085E692E067
:105600000E944116E3E0F0E0F0939402E0939302ED
:105610008091850290918602A0918702B0918802C4
:1056200080938F0290939002A0939102B093920284
:1056300080918F0290919002A0919102B09192027C
:1056400080938B0290938C02A0938D02B0938E0274
:10565000FECD80919C02882309F4BCCF89E498E0B8
:105660000E94530BB7CFE091F504F091F6048081CE
:105670009181892B09F417C1E0911105F091120570
:10568000309709F009956090F3047090F40440900D
:10569000F9045090FA04E091F504F091F6042081A9
:1056A00031813CA72BA78090050590900605A0901E
:1056B0000705B0900805C401992760E071E0681BF8
:1056C000790BCB01D12CC12C4114510409F444C0F5
:1056D00072018415950508F47C01C3010E944C0FEA
:1056E000C3010E94900F60E0D3018C910E946B086F
:1056F00082E00E94E70C8A2D0E94E70C892D0E940F
:10570000E70C882D0E94E70CEBA5FCA5EC0DFD1D18
:10571000FAA7E9A7F8A7EFA3AFA1B8A58D91B8A7FD
:10572000AFA30E94E70C8FA198A5E9A5FAA58E1B4F
:105730009F0B8E159F0580F361E0D3018C910E9431
:105740006B088E0C9F1CA11CB11CCE0CDF1C4E18CC
:105750005F0880E091E0B8CFE0910F05F09110056F
:10576000309709F00995809115058823C9F06AEEF4
:1057700078E082E294E00E94BB06409105055091DA
:10578000060560910705709108052AE082E294E021
:105790000E94B91466EE78E082E294E00E9414124E
:1057A0002091F9043091FA04809105059091060545
:1057B000A0910705B0910805820F931FA11DB11D8F
:1057C0008093050590930605A0930705B0930805FF
:1057D0004091FF0450910005609101057091020510
:1057E00084179507A607B70708F450C08091FB04FB
:1057F0009091FC04A091FD04B091FE0480930505F6
:1058000090930605A0930705B093080561ED78E035
:1058100082E294E00E94BB06409105055091060586
:105820006091070570910805ECE0769567955795AE
:105830004795EA95D1F782E294E00E94CD15409118
:105840000505509106056091070570910805809146
:10585000F3049091F4040E94A60F809105059091A5
:105860000605A0910705B0910805FCE0B695A7953F
:1058700097958795FA95D1F790930E0580930D052E
:1058800080910305909104050E94DD1A8091130513
:105890009091F804890F80931305E091F504F0913D
:1058A000F6041182108290911305809114059817C7
:1058B00008F471C064EB78E082E294E00E94141274
:1058C0008091050590910605A0910705B091080506
:1058D0003CE0B695A795979587953A95D1F7209195
:1058E0000D0530910E052817390709F04CC07C01D1
:1058F000EFEFEE1AFE0A8091FF0490910005A0914F
:105900000105B09102052CE0B695A795979587956E
:105910002A95D1F78E159F05B0F16AE978E082E209
:1059200094E00E94BB06B70182E294E00E94051554
:10593000A70170E060E0FCE0440F551F661F771F71
:10594000FA95D1F78091F3049091F4040E94A60F88
:10595000F0920E05E0920D058091030590910405EB
:105960000E94DD1A40910D0550910E05A4E0440FF0
:10597000551FAA95E1F770E060E08091F3049091E3
:10598000F4040E94891880910305909104050E94F7
:10599000DD1A1092130580917D0290917E02813074
:1059A000910509F453C070F0029709F4EBC06CE75D
:1059B00079E082E294E00E94141210927E0210922A
:1059C0007D0272C08091850290918602A09187022B
:1059D000B091880280938F0290939002A0939102DD
:1059E000B093920280918F0290919002A0919102C7
:1059F000B091920240918B0250918C0260918D0285
:105A000070918E02841B950BA60BB70B0A97A1050C
:105A1000B10508F449C080918F0290919002A09145
:105A20009102B091920280938B0290938C02A0938A
:105A30008D02B0938E0230927E0220927D026EED36
:105A400079E082E294E00E9414122EC00E94521368
:105A5000672B682B692B39F410927E0210927D021D
:105A600067EC79E0EECF85E692E00E949D1162E05E
:105A700080E00E94540E62E070E080E090E00E94BE
:105A8000FA080E94E30E80919C02882321F08AEF9D
:105A900098E00E942C1281E080936D0222E030E0B9
:105AA00030937E0220937D0280917D0290917E0250
:105AB0008130910509F4F6C0029709F4FAC080918B
:105AC000890290918A028130910509F423C108F47A
:105AD000F3C08230910509F49BC2039709F4A9C26F
