:020000040000FA
:100000000C9406060C94B21E0C948B1E0C94F81FD4
:100010000C94F81F0C94F81F0C9429200C942E06B5
:100020000C942E060C942E060C942E060C942E0680
:100030000C9402200C942E060C942E060C942E0682
:100040000C94411E0C942E060C940F1E0C94E91D6A
:100050000C942E060C942E060C942E060C942E0650
:100060000C94D91E0C942E0608000000BE92244960
:10007000123EABAAAA2ABECDCCCC4C3E00000080DA
:10008000BEABAAAAAA3E00000000BF000000803F4D
:100090000000000000084178D3BB4387D1133D190D
:1000A0000E3CC3BD4282AD2B3E68EC8276BED98F3A
:1000B000E1A93E4C80EFFFBE01C4FF7F3F0000007E
:1000C000000007634236B79BD8A71A39685618AEA6
:1000D000BAAB558C1D3CB7CC5763BD6DEDFD753E7D
:1000E000F6177231BF000000803F332E2055524C6E
:1000F00000322E2053616D706C696E6720496E74FA
:10010000657276616C00312E2044657669636520E6
:1001100049440047657474696E67205254432074E3
:10012000696D65005570646174696E67205254434F
:100130002054696D65005254432074696D652069CF
:100140007320757064617465640052544320536574
:10015000633A20004E524620454550524F4D2053A1
:100160006176696E672E2E003C504F5745525F44B2
:100170004F574E3E003C5354414E444259313E008D
:100180003C54584D4F44453E003C5354414E44422C
:1001900059323E003C52584D4F44453E0043455F66
:1001A00050494E203A20003C72785F6972713E00DF
:1001B0003C6D61785F72745F6972713E003C747867
:1001C0005F6972713E000D0A0020200050696E6761
:1001D000204661696C656400436865636B73756D87
:1001E000206D69736D61746368004D657468616E3C
:1001F00065203A2000416D6D6F6E6961203A2000E4
:1002000048756D6964697479203A200054656D7091
:1002100065726174757265203A20004944203A2065
:100220000054696D65203A20003C2D2D2D2D2D2D7B
:100230002D2D2D53656E736F7220446174612D2DC9
:100240002D2D2D2D2D2D2D2D2D2D2D2D2D2D2D3ECD
:100250000072616D5120436F756E746572203A00B3
:1002600043616C696220536176696E6720666F72C4
:10027000206D71340043616C696220526164696E63
:100280006720666F72206D71340043616C69622073
:10029000536176696E6720666F72206D71313335F8
:1002A0000043616C696220526164696E6720666F09
:1002B00072206D7131333500496E70757420436D55
:1002C00064203A004275666665723A20002D2D3E24
:1002D000003C2D2D466C61736820526561643A00C4
:1002E0002D2D2D2D2D3E52656164204D656D203ADA
:1002F000204F6C640063203A20006D203A200043B8
:10030000616C6962726174696E672E2E001F1C1F1A
:100310001E1F1E1F1F1E1F1E00000000240027009E
:100320002A0000000000250028002B004E52462025
:10033000536574757020646F6E65005F4D696C6CF9
:100340006973206973206E756C6C2C206E65656412
:100350002074696D652066756E6374696F6E7300D5
:10036000526164696F20736574757020646F6E6587
:10037000005254432041646A7573746564003131DE
:100380003A31333A3531004D61722020322032301B
:100390003231002D2D3E5254432069732052756E28
:1003A0006E696E670052544320466F756E6400524A
:1003B0005443204E6F7420466F756E6400207C207D
:1003C0005072657363616C6572203A200054696DE8
:1003D00065724120746F70203A00466C617368202A
:1003E000456E642041646472203A2000466C61735B
:1003F000682053746172742041646472203A200052
:100400004C61737420416464723A20004C656674D8
:100410002042797465203A2000656E64207365631C
:10042000203A200053656E736F7220697320436118
:100430006C696272617465640053656E736F7220DB
:100440006E6F742043616C696272617465640054FC
:100450006F74616C205461736B733A20006173791F
:100460006E635866657220736574757020646F6E74
:1004700065007C2D2D2D2D2D2D2D2D2D2D2D2D2D52
:100480002D2D2D2D2D2D2D2D2D2D2D2D2D2D2D2D9C
:100490002D2D2D2D2D2D2D2D2D2D2D2D2D2D2D2D8C
:1004A0002D2D2D7C007C202020202020202041206C
:1004B00050726F64756374206F662041646F72734D
:1004C000686F205072616E697368656261202020D8
:1004D0002020202020207C007C2020202020202084
:1004E0002020202020202020202020204761732051
:1004F00053656E736F722020202020202020202042
:100500002020202020202020207C007C2D2D2D2D1F
:100510002D2D2D2D2D2D2D2D2D2D2D2D2D2D2D2D0B
:100520002D2D2D2D2D2D2D2D2D2D2D2D2D2D2D2DFB
:100530002D2D2D2D2D2D2D2D2D2D2D2D7C00302EC5
:10054000204578697420436F6E66696700322E20FB
:10055000506172616D657465722053657474696E63
:100560006700312E20446576696365205365747495
:10057000696E6700302E2045786974205365747564
:1005800070204D656E7500352E2043616C69627276
:100590006174652053656E736F7200342E204C6F4A
:1005A00067204F666600332E204C6F67204F6E0029
:1005B000322E20466163746F7279205265736574C0
:1005C00000312E20526573657420466C617368207B
:1005D0004D656D0072696E674275666665722E655F
:1005E0007261736564536563746F72203A20002DE5
:1005F0002D3E45726173696E6720536563746F7237
:10060000203A200045726173696E6720466C617301
:10061000682042756666657200446F6E65004572BB
:100620006173696E6720436869702E2E005265738E
:10063000657474696E672054582041646472004682
:100640006163746F727920526573657474696E6743
:10065000204465766963652E2E00556E6B6E6F774C
:100660006E20636D64004578697465642044657626
:1006700069636520436D640043616C6962726174F3
:10068000696E672053656E736F722E2E004C6F6714
:10069000204F6666004C6F67204F6E004572617395
:1006A000696E6720466C6173682E2E004578697408
:1006B00020506172616D2053657474696E670053D8
:1006C000616D706C696E6720496E74657276616CDD
:1006D000203A2000446576696365204964203A2009
:1006E000002D2D2D2D3E4578697420436F6E66696F
:1006F0006700556E6B6E6F776E206D61696E20635B
:100700006D6400454E544552454420534554555060
:10071000005744542054696D65286D7329203A00B0
:100720006D5F53544154453A20434845434B5F481D
:1007300041524457415245006D5F53544154453A2C
:100740002053594E435F444556494345006D5F531E
:10075000544154453A2053544152545F44455649FC
:100760004345003C2D2D2D2D2D2D2D2D2D2D2D2DA9
:100770002D2D2D2D2D2D2D3E004C6F6769632050A2
:100780006F7765723A2000466C617368203A0052B8
:1007900054433A20004E5246203A003C2D2D4861E9
:1007A000726477617265205374617475732D2D3E88
:1007B000002D2D2D2D2D2D2D2D2D2D2D2D2D2D3E85
:1007C00053616D706C6520496E74657276616C2042
:1007D00075706461746564002D2D2D3E00554E5377
:1007E000594E434544005254435F53594E43454488
:1007F000004E54505F53594E434544003C2D2D54F8
:10080000696D65722073796E6320537461747573BA
:10081000203A2000556E73796E63656420616E64C2
:1008200020525443204661696C6564004E54502048
:1008300054696D653A200054582041646472203A2E
:1008400020004164647220517279204661696C65B0
:100850006400416464722051727920636865636B3F
:1008600073756D206D69736D61746368004E5246D7
:1008700020454550524F4D2052656164696E672E88
:100880002E0047657474696E67204E657720416459
:100890006472003E3E3E4164762E2045726173696B
:1008A0006E6720536563746F72203A20003C3D3DB3
:1008B0005570646174696E6720464C61736820509E
:1008C0006F696E7465723D3D3E003E3E3E4572610D
:1008D00073696E6720536563746F72203A20002D30
:1008E0002D3E003C2D2D466C617368205772697453
:1008F000653A00545820526561647920666F722011
:100900005472616E736D6974002D2D2D2D2D3E5422
:100910006F74616C2058666572205061636B6574FA
:10092000203A2000586665723A4661696C65640039
:10093000586665723A537563636573737C54696D69
:10094000653A0072756E5374617465203A20525591
:100950004E5F54585F584645520072756E5374612D
:100960007465203A2052554E5F43484B5F42535FB7
:10097000434F4E4E002D2D3E4163636964656E7496
:10098000616C2044656661756C74206D6F646500F0
:10099000476F696E6720746F2057616974007275C4
:1009A0006E203A2052554E5F54585F5846455200CB
:1009B0003C3D3D4253204E6F7420436F6E6E656325
:1009C0007465643D3D3E0054696D6520746F20641C
:1009D0006174612073656E64004A616E4665624DA4
:1009E00061724170724D61794A756E4A756C4175DC
:1009F000675365704F63744E6F764465630053753B
:100A00006E4D6F6E547565576564546875467269AE
:100A10005361740020202020202020207C0D0A7C9F
:100A20002D2D2D2D2D2D2D2D2D2D2D2D2D2D2D2DF6
:100A30002D2D2D2D2D2D2D2D2D2D2D2D2D2D2D2DE6
:100A40002D2D2D2D7C007C2D2D2D2D2D2D2D2D2D65
:100A50002D2D2D2D2D2D2D2D2D2D2D2D2D2D2D2DC6
:100A60002D2D2D2D2D2D2D2D2D2D2D7C0D0A7C2068
:100A70002020202020202020004461696C79205310
:100A800063686564756C6500486F75726C79205396
:100A900063686564756C65004465766963652069A3
:100AA00073206E6F7420636F6E666967757265641C
:100AB00000646F6E65203A20006169725273523093
:100AC000203A20005230203A2000524C203A200098
:100AD0006D203A200063203A20003C2D2D4D5120FE
:100AE00043616C6962726174696F6E2D2D2D2D3EAC
:100AF000003C517279204661696C65643E003C514E
:100B00007279204F6B3E005175657279696E672E60
:100B10002E00000000002300260029000404040425
:100B20000404040402020202020203030303030397
:100B30000102040810204080010204081020010274
:100B40000408102000000008000201000003040750
:100B500000000000000000002D2D2D2D2D2D2D2D2D
:100B60002D2D2D2D2D2D2D2D2D2D2D2D2D2D0052BD
:100B70006567697374726174696F6E3A20004465C9
:100B8000627567204F66663A200053616D70204998
:100B90006E74657276616C3A2000446576696365AF
:100BA0002049643A20007C204465766963652043CF
:100BB0006F6E66696720506172616D207C0D0A2D31
:100BC0002D2D2D2D2D2D2D2D2D2D2D2D2D2D2D2D55
:100BD0002D2D2D2D2D002D2D2D2D2D2D2D2D2D2D72
:100BE0002D2D2D2D2D2D2D2D2D2D2D2D00526561D1
:100BF000642050616765203A200044756D70696E0D
:100C0000672050616765203A20005B2011241FBED9
:100C1000CFEFD8E0DEBFCDBF25E0AAE7B1E001C04D
:100C20001D92A835B207E1F711E0A0E0B1E0EEEDCA
:100C3000FBE602C005900D92AA37B107D9F716E07E
:100C4000C6E0D6E004C02197FE010E94A834C5305A
:100C5000D107C9F70E942B210C94ED350C940000AC
:100C60000895089590911B0380911A032FEF3FEF91
:100C7000981748F4E92FF0E0EA55FD4F208130E065
:100C80009F5F90931B03C901089590911B0380916E
:100C90001A032FEF3FEF981748F4E92FF0E0EA55D9
:100CA000FD4F208130E09F5F90931B03C9010895A1
:100CB00080911A0390911B03891B990B08956091F1
:100CC0008502709186028091870290918802089532
:100CD0002FB7F8946091FB017091FC018091FD01A8
:100CE0009091FE012FBF08953091A502E091A302DB
:100CF000F091A402208181E090E002C0880F991F4A
:100D00003A95E2F7809590958223808308958091AB
:100D1000850290918602A0918702B0918802019687
:100D2000A11DB11D8093850290938602A093870236
:100D3000B09388028091090290910A02A0910B025F
:100D4000B0910C020196A11DB11D809309029093F0
:100D50000A02A0930B02B0930C0208950895EF923B
:100D6000FF920F931F93CF93DF938C017B01D0E011
:100D7000C0E0F701EC0FFD1F6491662361F0D8011C
:100D8000ED91FC910190F081E02DC8010995892B2E
:100D900011F02196EECFCE01DF91CF911F910F91EF
:100DA000FF90EF900895AF92BF92CF92DF92EF92B3
:100DB000FF920F931F93CF93DF936C017B018B0105
:100DC000040F151FEB015E01AE18BF08C017D10755
:100DD00059F06991D601ED91FC910190F081E02DDF
:100DE000C6010995892B79F7C501DF91CF911F9134
:100DF0000F91FF90EF90DF90CF90BF90AF9008954C
:100E0000FC01538D448D252F30E0842F90E0821B10
:100E1000930B541710F0CF96089501970895FC0195
:100E2000918D828D981761F0A28DAE0FBF2FB11DED
:100E30005D968C91928D9F5F9F73928F90E0089545
:100E40008FEF9FEF0895FC01918D828D981731F0FF
:100E5000828DE80FF11D858D90E008958FEF9FEF53
:100E600008950F931F930E94680660932A0470935D
:100E70002B0480932C0490932D0482E294E00E9432
:100E8000230797FF1DC00E94680600912A04109155
:100E90002B0420912C0430912D04601B710B820BCC
:100EA000930B00912604109127042091280430917F
:100EB00029046017710782079307F8F28FEF9FEFFD
:100EC0001F910F910895FC01918D228D892F90E043
:100ED000805C9F4F821B91098F739927089582E24E
:100EE00094E00E94630721E0892B09F420E0822F1F
:100EF000089580E090E0892B29F00E946F0781110E
:100F00000C9400000895FC01A48DA80FB92FB11D09
:100F1000A35ABF4F2C91848D90E001968F7399272F
:100F2000848FA689B7892C93A089B1898C9183700D
:100F300080648C93938D848D981306C00288F38906
:100F4000E02D80818F7D80830895EF92FF920F9333
:100F50001F93CF93DF93EC0181E0888F9B8D8C8D65
:100F600098131AC0E889F989808185FF15C09FB759
:100F7000F894EE89FF896083E889F989808183701C
:100F8000806480839FBF81E090E0DF91CF911F91CB
:100F90000F91FF90EF900895F62E0B8D10E00F5FEC
:100FA0001F4F0F731127E02E8C8D8E110CC00FB6C2
:100FB00007FCFACFE889F989808185FFF5CFCE015A
:100FC0000E948307F1CFEB8DEC0FFD2FF11DE35A4B
:100FD000FF4FF0829FB7F8940B8FEA89FB898081DD
:100FE0008062CFCFCF93DF93EC01888D8823B9F057
:100FF000AA89BB89E889F9898C9185FD03C0808124
:1010000086FD0DC00FB607FCF7CF8C9185FFF2CFA0
:10101000808185FFEDCFCE010E948307E9CFDF916C
:10102000CF910895833081F028F4813099F0823097
:10103000A9F008958730A9F08830C9F08430B1F460
:10104000809180008F7D03C0809180008F77809396
:101050008000089584B58F7784BD089584B58F7D11
:10106000FBCF8091B0008F778093B000089580917E
:10107000B0008F7DF9CFCF93DF93E4E5FBE084915F
:10108000E0E4FBE0D491ECE2FBE0C491CC23A1F0DE
:1010900081110E941208EC2FF0E0EE0FFF1FEE5EB0
:1010A000F44FA591B491EC91ED2381E090E009F427
:1010B00080E0DF91CF91089580E090E0FACF1F9318
:1010C000CF93DF93282F30E0F901EC5BF44F84914C
:1010D000F901E05DF44FD491F901E45EF44FC4915D
:1010E000CC23A9F0162F81110E941208EC2FF0E0FA
:1010F000EE0FFF1FEE5DFC4FA591B4918FB7F894F2
:10110000EC91111108C0D095DE23DC938FBFDF91E5
:10111000CF911F910895DE2BF8CFCF93DF9390E00E
:10112000FC01E05DF44F2491845E944FFC018491B6
:101130008823C9F090E0880F991FFC01E85EFC4FFE
:10114000A591B491FC01EE5DFC4FC591D491611164
:101150000DC09FB7F8948C91209582238C93888141
:10116000282328839FBFDF91CF910895623051F4E7
:101170009FB7F8943C91822F809583238C93E881CC
:101180002E2BEFCF8FB7F894EC912E2B2C938FBF93
:10119000EACF3FB7F8948091FF0190910002A091AF
:1011A0000102B091020226B5A89B05C02F3F19F09D
:1011B0000196A11DB11D3FBFBA2FA92F982F8827D7
:1011C000BC01CD01620F711D811D911D43E0660FB1
:1011D000771F881F991F4A95D1F708958F929F9284
:1011E000AF92BF92CF92DF92EF92FF924B015C01E0
:1011F0000E94C9086B017C010E94C9086C197D0915
:101200008E099F09683E734081059105A8F321E08E
:10121000821A9108A108B10888EEC80E83E0D81E92
:10122000E11CF11C81149104A104B10429F7FF9081
:10123000EF90DF90CF90BF90AF909F908F900895E8
:1012400008952091D701260F3327331F213231050E
:10125000ECF42091EC02FC0190E080E0243069F095
:1012600082E00895A091D7012191AC0149545E4FCD
:10127000A40FB52FB11D2C930196861798F380917A
:10128000D701680F6093D70180E0089581E0089549
:101290001092EC0281E08093EB021092C60261E0B2
:1012A00082E10E945F0861E083E10E945F08E9EB50
:1012B000F0E080818E7F808380818D7F808380E2DB
:1012C0008093B80085E48093BC00089510921B03BE
:1012D00010921A0310921903109218030E944809E1
:1012E00080E396E0909317038093160381E396E0E2
:1012F00090931503809314030895CF93DF9391E0A7
:101300009093B6018823B9F0C091B800D091BA008B
:101310008091BC008A7B8093BC0060E082E10E94E7
:101320005F0860E083E10E945F080E944809D09353
:10133000BA00C093B800DF91CF910895CF92DF92A9
:10134000EF92FF920F931F93CF93DF93D0911803E7
:1013500081E0D13208F09CC0C09113030E94C908FB
:101360006B017C018091EC0281116CC082E0809362
:10137000EC0281E08093EB028FEF8093EA021092FF
:10138000E902D093E802A3EFB2E0E8ECF2E080E0FB
:10139000D8138DC01092C7028091C702CC0FC82B02
:1013A000C093C7028091C602813009F084C01092B8
:1013B000C6020E94C9086B017C018091C70280931C
:1013C000BB008091EE029091EF02A091F002B091EB
:1013D000F102892B8A2B8B2BA1F00E94C908009166
:1013E000EE021091EF022091F0023091F1026C199F
:1013F0007D098E099F09061717072807390708F482
:1014000042C08091BC0083FDD8CF85EC8093BC00A6
:101410000E94C9086B017C018091EC02823009F4C2
:101420004CC08091EA028F3F09F469C08091EA02C2
:10143000803209F466C08091EA02803309F463C007
:1014400084E026C08091EE029091EF02A091F0021C
:10145000B091F102892B8A2B8B2B09F483CF0E9448
:10146000C9080091EE021091EF022091F002309134
:10147000F1026C197D098E099F09061717072807C5
:10148000390708F06FCF8091ED020E947D0985E059
:1014900010921903109218031092F202DF91CF916B
:1014A0001F910F91FF90EF90DF90CF9008959D9145
:1014B00091938F5F6DCF85EEA9CF8091EE029091D1
:1014C000EF02A091F002B091F102892B8A2B8B2BB5
:1014D00009F4A2CF0E94C9080091EE021091EF0218
:1014E0002091F0023091F1026C197D098E099F095B
:1014F000061717072807390708F08ECFC4CF80E0FA
:10150000C7CF82E0C5CF83E0C3CF0895E0911B032E
:1015100080911A03E81730F4F0E0EA55FD4F80811E
:1015200090E008958FEF9FEF0895CF92DF92EF92B2
:10153000FF920F931F93CF93DF937C01CB018A011E
:101540002091F202222389F0EB016B01C40ED51E1B
:10155000CC15DD0569F06991D701ED91FC91019001
:10156000F081E02DC7010995F3CF642F0E94210976
:10157000C801DF91CF911F910F91FF90EF90DF9005
:10158000CF900895CF93DF931F92CDB7DEB76983D5
:101590002091F2022223F9F020911803203258F012
:1015A00021E030E0FC013383228390E080E00F9063
:1015B000DF91CF91089580911903E82FF0E0ED506D
:1015C000FD4F998190838F5F809319038093180357
:1015D00081E090E0ECCF61E0CE0101960E9421090C
:1015E000F7CFCF93CFB7F8948091B501811127C081
:1015F000E6E2FBE08491EAE3FBE09491E82FF0E07F
:10160000EE0FFF1FE85EFC4FA591B491EC91E9232A
:1016100021F461E08AE00E945F0861E08AE00E94B4
:101620008D088CB580618CBD8CB580648CBD61E00B
:101630008DE00E948D0861E08BE00E948D08809112
:10164000B5018F5F8093B501CFBFCF91089590E032
:1016500080E008950CB405FC0DC09EBD00000DB4E3
:1016600007FEFDCF9EB58EBD00000DB407FEFDCF79
:101670008EB508958EBD00000DB407FEFDCF8EB56A
:101680009EBD00000DB407FEFDCF9EB50895BC01C0
:1016900080916A0290916B020C94AF061F93CF93D6
:1016A000DF93EC0181E08093F20288E680931303DC
:1016B000109219031092180360E08FEB94E00E94DF
:1016C000C20A2D811AE0822F612F0E946634682F92
:1016D000660F680F660F620F8FEB94E00E94C20ADC
:1016E0002C81822F612F0E946634682F660F680F4D
:1016F000660F620F8FEB94E00E94C20A2B81822F4B
:10170000612F0E946634682F660F680F660F620FA4
:101710008FEB94E00E94C20A60E08FEB94E00E949D
:10172000C20A2A81822F612F0E946634682F660FB9
:10173000680F660F620F8FEB94E00E94C20A298146
:10174000822F612F0E946634682F660F680F660F24
:10175000620F8FEB94E00E94C20A2881822F612FD2
:101760000E946634682F660F680F660F620F8FEB5A
:1017700094E00E94C20ADF91CF911F910C949E09C0
:10178000FC01908190539A3008F090E08181805361
:101790002AE0929F800D112408958F929F92AF921C
:1017A000BF92CF92DF92EF92FF92CF93DF93EC0143
:1017B0006A017B0180E8C81A83E4D80A8DE6E80A4A
:1017C00088E3F80A8CE3882E912CA12CB12CC70158
:1017D000B601A50194010E9486346D83CA01B90146
:1017E000A50194010E9486346C83C701B60120E1F3
:1017F0003EE040E050E00E948634CA01B90128E191
:1018000030E040E050E00E9486346B83C701B601AF
:1018100020E831E541E050E00E948634188263E917
:101820007EEF8881982F937041E050E011F050E0F6
:1018300040E0FA01E359FE4F2E173F0740F0FB014D
:10184000E41BF50B2E0F3F1F8F5F8883EACF81E0EB
:10185000898389818C30A0F4482F4150550BFA01BF
:10186000E35FFC4FE491911103C0823009F4EF5F14
:10187000F0E02E173F0720F02E1B3F0B8F5FE8CFC5
:101880002F5F2A83DF91CF91FF90EF90DF90CF9071
:10189000BF90AF909F908F900895DC0150E0EDE0F5
:1018A000F3E081E0861730F49491490F511D8F5F6A
:1018B0003196F8CF633038F0CD0183709927892BAA
:1018C00011F44F5F5F4F9D012D5F3F4F3695279578
:1018D000369527956DE671E0A69FC001A79F900DF4
:1018E000B69F900D11240197820F931F840F951FAF
:1018F00008958F929F92AF92BF92CF92DF92EF9214
:10190000FF92CF93DF93EC0122E340E050E0BA0175
:1019100088818E3008F08E508770806480937C00C0
:1019200080917A00806480937A0080917A0086FDAD
:10193000FCCF90917800809179008927982789279A
:10194000092E000CAA0BBB0B480F591F6A1F7B1FE7
:101950002150F1F6CB01BA0122E330E040E050E043
:101960000E94863469017A016FEF73E080E090E0B5
:101970006C197D098E099F090E94723029853A856C
:101980004B855C850E94D3304B015C01C701B601D9
:101990000E9472309B01AC01C501B4010E942E323D
:1019A000DF91CF91FF90EF90DF90CF90BF90AF90FD
:1019B0009F908F9008958EBD00000DB407FEFDCF5F
:1019C0008EB50895EF92FF920F931F93CF93DF93FD
:1019D0007B014091A502E091A302F091A4029081C5
:1019E00021E030E0B90102C0660F771F4A95E2F7A7
:1019F000AB0140955095942390834091A2020091B1
:101A0000A0021091A102F801908102C0220F331FA1
:101A10004A95E2F7209530952923208380620E9421
:101A2000DB0C80939F02E701F5E0EF0EF11C89913A
:101A30000E94DB0CCE15DF05D1F79091A202F801D0
:101A4000808121E030E001C0220F9A95EAF7822BD5
:101A50008083DF91CF911F910F91FF90EF900895B8
:101A6000CF93DF93EC0160E088810E945F0884E0FF
:101A70000E94DB0C61E08881DF91CF910C945F08BC
:101A80008CBD9DBD0895CF92DF92EF92FF92E091C1
:101A90009A02F0919B0209956B017C01809198025A
:101AA00090919902883C9105C1F08439914071F080
:101AB000E0919A02F0919B0209956C197D098E09BB
:101AC0009F09603271058105910540F38FEF9FEF0B
:101AD000FF90EF90DF90CF900895109257021092F0
:101AE000560288EC90E0F4CFCF92DF92EF92FF9213
:101AF0000E9468066B017C0182E294E00E940F075D
:101B0000181619066CF00E9468066C197D098E097A
:101B10009F09683E73408105910570F38FEF9FEF39
:101B2000FF90EF90DF90CF9008950F931F93CF9386
:101B3000DF939091A202C091A002D091A10288816E
:101B400001E010E0980102C0220F331F9A95E2F7DE
:101B5000209530958223888382EE0E94DB0C80934F
:101B60009F029091A202888101C0000F9A95EAF726
:101B7000082B0883DF91CF911F910F9108950F9348
:101B80001F93CF93DF939091A202C091A002D091B6
:101B9000A102888101E010E0980102C0220F331FEA
:101BA0009A95E2F7209530958223888381EE0E94F2
:101BB000DB0C80939F029091A202888101C0000FEC
:101BC0009A95EAF7082B0883DF91CF911F910F9127
:101BD00008950E94950D0C94BF0D0F931F93CF9302
:101BE000DF932091A202C091A002D091A10298811E
:101BF00001E010E0A80102C0440F551F2A95E2F74A
:101C00009A012095309592239883982F862F906281
:101C10000E942A0B2091A202888101C0000F2A9500
:101C2000EAF7082B088390939F02DF91CF911F91D1
:101C30000F9108950F931F93CF93DF932091A202EA
:101C4000C091A002D091A102988101E010E0A8010A
:101C500002C0440F551F2A95E2F79A01209530954E
:101C60009223988390E0982F88278F6F0E942A0BE9
:101C70003091A202288101C0000F3A95EAF7022BA9
:101C8000088390939F02DF91CF911F910F91089548
:101C9000CF93DF93D82FC62F0E941A0E682F6C2B7C
:101CA0008D2FDF91CF910C94ED0DCF92DF92EF92BB
:101CB000FF920F931F93CF93DF93F82ED92EE62E2A
:101CC0009091A502E091A302F091A4028081C1E06D
:101CD000D0E09E0102C0220F331F9A95E2F72095B3
:101CE0003095822380830E94BF0D9091A2020091C3
:101CF000A0021091A102F801808102C0CC0FDD1F6B
:101D00009A95E2F7C095D095C823C08380EA0E94D7
:101D1000DB0CCF2CCF2DDD2D89910E94DB0C8C2F7D
:101D20008C198E15C8F39091A202F801808121E0F0
:101D300030E001C0220F9A95EAF7822B80838DEA6A
:101D400091E09093990280939802DF91CF911F9137
:101D50000F91FF90EF90DF90CF9008953091A50202
:101D6000E091A302F091A402208181E090E0AC0117
:101D700001C0440F3A95EAF7242B2083AAE1B0E092
:101D80001197F1F73091A502208102C0880F991FA9
:101D90003A95E2F78095909582238083089560E2DA
:101DA0000E94550E0C94AE0E0F931F93CF93DF93AA
:101DB0009091A5020091A3021091A402F8018081E4
:101DC000C1E0D0E09E0102C0220F331F9A95E2F7D6
:101DD000209530958223808360E787E00E94ED0D97
:101DE0000E94BF0D80E00E941A0E682F6E7F80E077
:101DF0000E94ED0D9091A502F801808102C0CC0FE8
:101E0000DD1F9A95E2F7C095D095C823C083DF9176
:101E1000CF911F910F9108951F93CF93DF93182FA8
:101E200064E08DE10E94ED0DC1E0D0E001C0CC0F77
:101E30001A95EAF76C2F8CE10E94480E6C2F81E016
:101E4000DF91CF911F910C94480E08951F93CF936B
:101E5000DF93EC0160E088810E945F0885E00E94CA
:101E6000DB0C80E00E94DB0C182F61E088810E946F
:101E70005F08812FDF91CF911F910895CF93DF935A
:101E8000EC01CE010E94260F80FDFBCFDF91CF91A8
:101E90000895BF92CF92DF92EF92FF920F931F931C
:101EA000CF93DF937C01EA01B62E69010E943E0FB9
:101EB00060E0F70180810E945F0883E00E94DB0CF4
:101EC0008B2D0E94DB0C8D2F0E94DB0C8C2F0E942F
:101ED000DB0CE6010C0D1D1DC017D10729F080E0B9
:101EE0000E94DB0C8993F8CF61E0F7018081DF91DC
:101EF000CF911F910F91FF90EF90DF90CF90BF9007
:101F00000C945F08CF93DF93EC0160E088810E941E
:101F10005F0886E00E94DB0C61E088810E945F0818
:101F2000CE010E94260F86958170DF91CF91089592
:101F3000FF920F931F93CF93DF93EC01142F052F84
:101F4000F62E0E943E0FCE010E94820F8823C9F018
:101F500060E088810E945F0880E20E94DB0C8F2D88
:101F60000E94DB0C802F0E94DB0C812F0E94DB0C77
:101F700061E088810E945F08CE010E94260F81FDEA
:101F8000FBCFDF91CF911F910F91FF900895CF92DA
:101F9000DF92EF92FF920F931F93CF93DF93C1EDE8
:101FA000D4E08EECC82E84E0D82E0D81F090D104C0
:101FB000E090D20418E0602F661F6627661F8E2D02
:101FC0000E945F08000F61E08F2D0E945F0860E0B3
:101FD0008F2D0E945F08115071F72197CC16DD06F6
:101FE00021F761E08091D3040E945F0860E0809156
:101FF000D304DF91CF911F910F91FF90EF90DF906D
:10200000CF900C945F08E82FE695E695E695F0E012
:10201000EF52FB4F2381382F377081E090E0A0E032
:10202000B0E004C0880F991FAA1FBB1F3A95D2F7D2
:10203000662321F0822B83830C94C70F8095822323
:10204000FACF8F929F92AF92BF92CF92DF92EF9290
:10205000FF920F931F93CF93DF937C01D62F0E94A3
:10206000C9084B015C018091EC02811167C0CD2F42
:1020700081E08093EC028093EB029FEF9093EA0261
:102080001092E9029D0F9093E8028093C70280911D
:10209000C702EE0CFF1C8E298093C7028091C602F6
:1020A000813009F083C01092C6020E94C9086B01FA
:1020B0007C018091C7028093BB008091EE029091D9
:1020C000EF02A091F002B091F102892B8A2B8B2BA9
:1020D000A1F00E94C9088090EE029090EF02A090BB
:1020E000F002B090F1026C197D098E099F098616E5
:1020F0009706A806B90608F442C08091BC0083FD8B
:10210000D8CF85EC8093BC000E94C9086B017C018C
:102110008091EC02813009F44BC08091E9028D1767
:1021200010F4C091E902E8ECF2E0A6EAB2E080E047
:102130008C1751F191919D938F5FFACF8091EE02B0
:102140009091EF02A091F002B091F102892B8A2BBD
:102150008B2B09F488CF0E94C9080091EE021091E0
:10216000EF022091F0023091F102681979098A0991
:102170009B09061717072807390708F074CF8091C5
:10218000ED020E947D09C0E010921B03C0931A0368
:102190008C2FDF91CF911F910F91FF90EF90DF90E7
:1021A000CF90BF90AF909F908F90089585EEAACF6B
:1021B0008091EE029091EF02A091F002B091F102B5
:1021C000892B8A2B8B2B09F4A3CF0E94C9088090FE
:1021D000EE029090EF02A090F002B090F1026C1924
:1021E0007D098E099F0986169706A806B90608F08C
:1021F0008FCFC5CF81E08093F20288E680931303EE
:10220000109219031092180360E08FEB94E00E9483
:10221000C20A0E949E0961E070E088E690E00E9498
:1022200021100E944506805887FB882780F9089571
:102230001F93CF93DF93CEE1833F09F4C5E591E08F
:102240009093F20290E4909313031092190310926A
:102250001803682F8FEB94E00E94C20A0E949E0927
:102260006C2F70E090E080E00E94EE0863E070E088
:1022700080E490E00E942110CBE080911A039091BD
:102280001B03891B990B03975CF46AE070E080E004
:1022900090E00E94EE08C15081F790E080E020C0FD
:1022A0000E944506182FC82F0E944506D82F0E946D
:1022B000450698E021E33C2FCC0F37FD15C0915027
:1022C000D1F7CD2798E021E33C2FCC0F37FD0EC08E
:1022D0009150D1F78C130CC080E0912F8D0F911D80
:1022E000DF91CF911F910895C227E9CFC227F0CF88
:1022F00081E08093F20210921903109218036EEF9E
:102300008FEB94E00E94C20A0E949E096FE070E089
:1023100080E090E00E94EE0881E090E0E1CFCF9372
:10232000DF93EC013091A502E091A302F091A402A9
:10233000208181E090E002C0880F991F3A95E2F772
:102340008095909582238083BE0180E10E94E20CFB
:10235000BE018AE00E94E20C61E082E00E94480E29
:1023600080E0DF91CF910C940C0F0F931F93CF93CC
:102370008C01C0E0F8018281C81748F48081918106
:1023800060E08C0F911D0E949931CF5FF3CFCF9108
:102390001F910F910895FB0101900020E9F73197FB
:1023A000AF01461B570BDC01ED91FC910280F381DC
:1023B000E02D099463E371E00C94CB110F931F930C
:1023C000CF93DF93EC010E94AF068C01CE010E94F7
:1023D000DA11800F911FDF91CF911F910F91089516
:1023E000BC0180916A0290916B020C94DE112F92D5
:1023F0003F924F925F926F927F928F929F92AF9295
:10240000BF92CF92DF92EF92FF920F931F93CF93E1
:10241000DF9300D01F92CDB7DEB7E62E372E4B8369
:1024200098EC99838A8380919E02882321F087E02B
:102430009BE00E94F01180919C0290919D020E946D
:102440008F110E94D40E62E0CE0101960E94550EBB
:102450000E94AE0EE0919A02F0919B0209952B0129
:102460003C01CC24C394D12C98E2A92EBB24B39474
:102470002DEA822E9924939480919802909199024A
:10248000883C9105E9F08A3C910509F47DC0E09112
:102490009A02F0919B0209956419750986099709BA
:1024A000683E73408105910538F380919E02882330
:1024B00021F081EF9AE00E94F011E12C312C9EC0B6
:1024C00060919C0270919D02F09097029091A502FC
:1024D0000091A3021091A402F8018081960102C02C
:1024E000220F331F9A95E2F720953095822380833F
:1024F000F5E0FF1508F441C021E02F2C2F1508F05E
:102500003EC0FB0160818AE08F0D0E94ED0DB60197
:1025100001C0660F2A94EAF782E00E94480E8F2DD0
:102520000E940C0F9091A502F8018081960102C0D3
:10253000220F331F9A95E2F72095309582238083EE
:1025400060E787E00E94ED0D0E94950D61E080E05C
:102550000E94480E9091A502F8018081960101C069
:10256000220F9A95EAF7822B8083C5010197F1F734
:1025700090929902809298028ACF222423948AE032
:10258000820D0E94E20CC3CF3091A202C090A00243
:10259000D090A102F601208181E090E002C0880F76
:1025A000991F3A95E2F7809590958223808381E682
:1025B0000E94DB0CFE2C0E2D132D8FEF0E94DB0CE6
:1025C000F80181938F018E2F8F19FB818F17A8F34C
:1025D0009091A202F601808121E030E001C0220F3B
:1025E0009A95EAF7822B80830E94950D80919E0236
:1025F000882321F08EEF9AE00E94F0118E2D932D0A
:102600000F900F900F90DF91CF911F910F91FF903E
:10261000EF90DF90CF90BF90AF909F908F907F9082
:102620006F905F904F903F902F9008950F931F935E
:10263000CF93DF93CDB7DEB72C970FB6F894DEBFFC
:102640000FBECDBF62E080E00E94480E62E070E005
:1026500080E090E00E94EE080E94D40E4CE0BE01A3
:102660006F5F7F4F89EC0E94F7118C01892B49F134
:10267000FE0131969E01245F3F4F90E080E0419142
:10268000840F911D2E173F07D1F7F80193859817F6
:1026900041F080919E02882321F088ED91E00E9414
:1026A000F011F80160817181828193812C960FB6BF
:1026B000F894DEBF0FBECDBFDF91CF911F910F9178
:1026C000089580919E02882321F08CEC91E00E9475
:1026D000F01160E070E0CB01E9CF60E787E00E9495
:1026E000ED0D80919F0285FF15C088EC90E09093DE
:1026F000990280939802E0910702F09108023097C6
:1027000009F0099580919E02882381F18DEB91E07B
:102710000C94F01180919F0286FF14C08AEC90E027
:102720009093990280939802E0910502F09106023D
:10273000309709F0099580919E028823B9F087EAC5
:1027400091E0E6CF84E991E090939902809398021A
:10275000E0910302F0910402309709F0099580910D
:102760009E02882319F080EB91E0D2CF0895FF926A
:102770000F931F93CF93DF930E94FA10882309F4DD
:10278000B8C063E171E082E294E00E94DE1181E072
:102790008093F20288E6809313031092190310923B
:1027A000180360E08FEB94E00E94C20A0E949E0929
:1027B00067E070E088E690E00E9421100E944506E4
:1027C0008F77282F30E094E0359527959A95E1F79B
:1027D000922F990F990FC22FC91BCC0FC80F0E94BF
:1027E00045069C0144E0359527954A95E1F72F7001
:1027F0003327922F990F990FD22FD91BDD0FD80FA6
:102800000E9445069C0154E0359527955A95E1F7BD
:102810002F703327922F990F990F122F191B110F19
:10282000180F0E9445060E9445069C0164E03595FC
:1028300027956A95E1F72F703327922F990F990FFB
:10284000F22EF91AFF0CF80E0E9445069C0174E066
:10285000359527957A95E1F72F703327922F990FA9
:10286000990F022F091B000F080F0E9445069C01BB
:10287000E4E035952795EA95E1F72F703327922FFD
:10288000990F990F291B220F820F4F2D602F90E077
:102890000E944D0C9C01A8E1B0E00E94B2319B0166
:1028A000AC01210F311D411D511DACE3B0E00E9470
:1028B000A7319B01AC012D0F311D411D511D0E94FF
:1028C000A731AB01BC018C2F90E0B0E0A0E08058B4
:1028D0009C4BA249B74C8A019B01080F191F2A1F64
:1028E0003B1FC901B801DF91CF911F910F91FF905C
:1028F000089560E070E0CB01F6CF8F929F92AF9287
:10290000BF92EF92FF920F931F93CF93DF93CDB7B8
:10291000DEB7A1970FB6F894DEBF0FBECDBF7C0126
:10292000FA01CB0119A2223008F42AE08E010F5DD2
:102930001F4F822E912CB12CA12CBF01A501940117
:102940000E948634F901CA016A300CF5605DD80135
:102950006E938D01232B242B252B79F790E080E0BB
:10296000109721F0BD01C7010E94CB11A1960FB6AF
:10297000F894DEBF0FBECDBFDF91CF911F910F91B5
:10298000FF90EF90BF90AF909F908F900895695CFB
:10299000DECF0F931F93CF93DF93EC01AB0170E079
:1029A00060E02AE00E947D148C01CE010E94DA11C1
:1029B000800F911FDF91CF911F910F910895CF92BA
:1029C000DF92EF92FF92CF93DF936C01990FEE08A5
:1029D000FF08F7FE21C06DE282E294E00E94A507A5
:1029E000EC0144275527BA014C195D096E097F098E
:1029F0002AE082E294E00E947D14C80FD91F82E28F
:102A000094E00E94DA118C0F9D1FDF91CF91FF900F
:102A1000EF90DF90CF9008952AE0B701A60182E2FF
:102A200094E00E947D14EC01EACFCF92DF92EF9206
:102A3000FF92CF9380EEC82E83E9D82E84E0E82E53
:102A4000F12C82E294E00E946307892B89F481E0F3
:102A5000C81AD108E108F10859F061E070E080E09F
:102A600090E00E94EE08EDCF82E294E00E940F0712
:102A70000E943107FC0197FD50C08D32910519F07D
:102A8000C0970A9788F7C12CD12C7601C0E0E130BD
:102A9000F105D1F0ED32F105F1F1CF01C0970A97C0
:102AA00098F4AAE0B0E0A70196010E94A7316F0157
:102AB000FF0FEE08FF08C60ED71EE81EF91E80E3C2
:102AC000C81AD108E108F10882E294E00E940F07D9
:102AD0000E943107FC01C0970A97C8F2E130F10566
:102AE000B1F2CC2341F0F094E094D094C094C11C96
:102AF000D11CE11CF11C68EB72E082E294E00E94C0
:102B0000AF06C6010E94DF148C2DCF91FF90EF908D
:102B1000DF90CF900895C1E0D7CFC12CD12C7601A2
:102B2000EACF0F931F93CF93DF93EC012AE00E942B
:102B30007D148C01CE010E94DA11800F911FDF916C
:102B4000CF911F910F9108958F929F92AF92BF9254
:102B5000CF92DF92EF92FF92CF93DF9300D000D01D
:102B600000D0CDB7DEB76B017C010E94FA1088233C
:102B7000D9F10E94B7134B015C016AE471E082E273
:102B800094E00E94AF06B501A40182E294E00E94A5
:102B90009115D701C60188199909AA09BB09181608
:102BA00019061A061B065CF40297A105B10564F428
:102BB00066E371E082E294E00E94DE1115C08F3F6F
:102BC0009F4FAF4FBF4FA4F764E271E082E294E001
:102BD0000E94DE11B701A601CE0101960E94CD0B25
:102BE000CE0101960E944E0B26960FB6F894DEBFDA
:102BF0000FBECDBFDF91CF91FF90EF90DF90CF90D0
:102C0000BF90AF909F908F9008950F931F93CF9395
:102C1000DF93162F082FEC01499150E070E060E03F
:102C20002AE080916A0290916B020E947D1489ECE7
:102C300091E00E94470B8C2F801B811768F386EC74
:102C400091E0DF91CF911F910F910C94470B0F935F
:102C50001F93CF93DF93EC01462F50E070E060E0CC
:102C60002AE00E947D148C01CE010E94DA11800FAF
:102C7000911FDF91CF911F910F910895CF93DF9313
:102C800066ED7BE082E294E00E94DE1166EA7BE082
:102C900082E294E00E94DE116AE97BE082E294E045
:102CA0000E94AF06CCE1D3E06A817B8182E294E0AE
:102CB0000E94C9146AE87BE082E294E00E94AF06B9
:102CC0006C817D8182E294E00E94C9146EE77BE012
:102CD00082E294E00E94AF06898190E00E94DF14B6
:102CE0006FE67BE082E294E00E94AF06688182E2B8
:102CF00094E00E94271668E57BE082E294E0DF9191
:102D0000CF910C94DE11CF93DF9380E00E941A0ED6
:102D1000D82F81FF58C0E091A302F091A40232970E
:102D2000C0812091A50281E090E001C0880F2A9522
:102D3000EAF7C82380919E02882371F08DE991E023
:102D40000E94470B61E0C11101C060E080916A02FE
:102D500090916B020E942716D0FF0DC0CC23F1F199
:102D600080919E02882321F084E991E00E94F01175
:102D700083E090E033C0CC23D9F087E10E941A0EA3
:102D800084FF0BC080919E02882321F089E891E0A6
:102D90000E94F01182E090E021C080919E02882381
:102DA00021F080E891E00E94F01184E090E016C0EC
:102DB00080919E02882321F085E791E00E94F01126
:102DC00081E090E00BC080919E02882321F088E68C
:102DD00091E00E94F01190E080E000C0DF91CF917F
:102DE0000895CF93DF93BC0182E294E00E94CB115F
:102DF000EC0182E294E00E94DA118C0F9D1FDF91BA
:102E0000CF9108954F925F926F927F928F929F928F
:102E1000AF92BF92CF92DF92EF92FF920F931F93E8
:102E2000CF936B017C01742EAC019B010E947C331B
:102E300066E371E0811126C046015701E894B7F8B6
:102E40002FEF3FEF4FE75FE7C501B4010E947C33EE
:102E500081110CC02FEF3FEF4FE75FE7C501B401D1
:102E60000E946D306AE371E0181664F02FEF3FEFB7
:102E70004FE75FE4C701B6010E94CF321816ACF4E9
:102E80006EE371E082E294E0CF911F910F91FF9089
:102E9000EF90DF90CF90BF90AF909F908F907F90FA
:102EA0006F905F904F900C94CB112FEF3FEF4FE757
:102EB0005FECC701B6010E946D3087FDE1CF20E0D5
:102EC00030E0A901C701B6010E946D3010E000E0BA
:102ED00087FF0AC06DE282E294E00E94A5078C01A0
:102EE000F7FAF094F7F8F094C0E060E070E080E06A
:102EF0009FE37C1641F020E030E040E251E40E9484
:102F00002E32CF5FF6CFA70196010E94C2312B016E
:102F10003C010E94A0324B015C012AE0BC01A401EB
:102F200082E294E00E947D147C01E00EF11ECC232D
:102F3000D1F1C501B4010E9472309B01AC01C30103
:102F4000B2010E94C1314B015C016EE282E294E069
:102F50000E94A507E80EF91EC15028F120E030E0DC
:102F600040E251E4C501B4010E94D3302B013C0181
:102F70000E94A0324B01B12CA12C2AE0B501A40182
:102F800082E294E00E947D14E80EF91EC501B401AE
:102F90000E9472309B01AC01C301B2010E94C13199
:102FA0004B015C01D9CFC701CF911F910F91FF90C9
:102FB000EF90DF90CF90BF90AF909F908F907F90D9
:102FC0006F905F904F900895CF93DF930E94021708
:102FD000EC0182E294E00E94DA118C0F9D1FDF91D8
:102FE000CF910895CF93DF93EC016AED7AE082E20E
:102FF00094E00E94DE1165ED7AE082E294E00E94A6
:10300000AF06688179818A819B8142E050E00E940D
:10301000E41760ED7AE082E294E00E94AF066C81F2
:103020007D818E819F8142E050E00E94E4176AEC2E
:103030007AE082E294E00E94AF06688579858A850D
:103040009B8542E050E00E94E41764EC7AE082E263
:1030500094E00E94AF066C857D858E859F8542E059
:1030600050E00E94E41769EB7AE082E294E00E946B
:10307000AF06688979898A899B8942E050E00E947D
:10308000E41761EB7AE082E294E00E94AF068C895B
:1030900090E0DF91CF910C94DF14CF92DF92EF920A
:1030A000FF920F931F93CF93DF93EC016A017B0193
:1030B0006AEF7BE082E294E00E94AF06B701A601CE
:1030C00082E294E00E9491156DEE7BE082E294E052
:1030D0000E94AF06B701A60182E294E00E9491151A
:1030E0007E2D6D2D5C2D442700E011E022E233E0BF
:1030F000CE010E94490F02E213E0C0E17801D0E066
:10310000F70141917F0150E070E060E02AE082E247
:1031100094E00E947D1465E471E082E294E00E94F4
:10312000CB11DF5FD03161F782E294E00E94DA11C7
:10313000C150005F1F4FC111E1CFDF91CF911F91AF
:103140000F91FF90EF90DF90CF9008954F925F9294
:103150006F927F928F929F92AF92BF92CF92DF92A7
:10316000EF92FF920F931F93CF938C012A013B01A3
:103170006FEF72E082E294E00E94DE11C4E1C801C8
:103180000E94790C4B015C0164E670E080E090E005
:103190000E94EE08A5019401C701B6010E94C23148
:1031A0006B017C01C15059F720E030E040EA51E466
:1031B0000E942E32A30192010E942E326B017C01EB
:1031C00062E471E082E294E00E94CB1142E050E0C0
:1031D000C701B6010E94E41720E030E0A901C70151
:1031E000B6010E946D3087FF03C0C12CD12C76013F
:1031F000C701B601CF911F910F91FF90EF90DF9023
:10320000CF90BF90AF909F908F907F906F905F9086
:103210004F9008950F931F93CF93DF9380915602A1
:1032200090915702892B09F0BAC04091090550913D
:103230000A0560910B0570910C0580910505909130
:103240000605A0910705B0910805481759076A07B8
:103250007B0709F49BC0809115058823C9F061EDB7
:1032600072E082E294E00E94AF064091090550911D
:103270000A0560910B0570910C052AE082E294E04A
:103280000E947D146DEC72E082E294E00E94DE11F7
:10329000C091F7040C2F10E0E0911105F091120598
:1032A000309709F009954091090550910A05609100
:1032B0000B0570910C052BE731E08091F3049091A0
:1032C000F4040E94490FE0910F05F091100530972A
:1032D00009F009958091090590910A05A0910B05C7
:1032E000B0910C058C0F911DA11DB11D8093090596
:1032F00090930A05A0930B05B0930C054091FF0431
:1033000050910005609101057091020584179507A1
:10331000A607B70780F08091FB049091FC04A09170
:10332000FD04B091FE048093090590930A05A093D3
:103330000B05B0930C05809113058F5F80931305E7
:103340008BE791E0909357028093560264EC72E011
:1033500082E294E00E94AF06CBE7D1E00BE911E0F6
:10336000499150E070E060E02AE082E294E00E943F
:103370007D1465E471E082E294E00E94CB110C17A9
:103380001D0771F782E294E00E94DA1180915602E3
:1033900090915702DF91CF911F910F91089560EEA8
:1033A00072E082E294E00E94DE11F0CFFF920F9370
:1033B0001F93CF93DF93EC01F62E08811981C8018A
:1033C0000E949131F81621F06F2DC8010E949931A9
:1033D000CE01DF91CF911F910F91FF900895CF9271
:1033E000DF92EF92FF920F931F93CF93DF9300D062
:1033F000CDB7DEB76C0164E571E082E294E00E9433
:10340000DE1176010AE210E0F70161917F011A8373
:103410000983CE0101960E94D6190F5F1F4F023318
:10342000110591F768E0C6010E9405160F900F90F4
:10343000DF91CF911F910F91FF90EF90DF90CF9090
:103440000895CF92DF92EF92FF920F931F93CF9345
:10345000DF9300D0CDB7DEB76C016AE872E082E29C
:1034600094E00E94DE11760105E110E0F701619120
:103470007F011A830983CE0101960E94D6190F5F3E
:103480001F4F0A32110591F7C6010E94F2170F90E3
:103490000F90DF91CF911F910F91FF90EF90DF90F0
:1034A000CF900895CF92DF92EF92FF920F931F93E8
:1034B000CF93DF9300D0CDB7DEB76C0160E672E04A
:1034C00082E294E00E94DE11760110E000E0F70154
:1034D00061917F011A830983CE0101960E94D6195A
:1034E0000F5F1F4F0531110591F7C6010E94F217BA
:1034F0000F900F90DF91CF911F910F91FF90EF9060
:10350000DF90CF9008950F931F93CF938C01C0E06D
:10351000F801808191818C0F911D0E949131982F2B
:1035200081E08C0FCF3F59F0992329F0C82FF80183
:103530009281981768F7CF911F910F91089580E0BD
:10354000FACFEF92FF920F931F93CF93DF93EC018B
:103550000E94831A182F8A81811720F4CE010E94BD
:10356000B51111E02FEF210FE22EF12C8A81488155
:103570005981840F952F911D3B81239F800D911DB3
:1035800011249D838C8300E08B81081770F4802FB9
:1035900090E0FC01EB5FFA4F2C813D816081820F4E
:1035A000931F0E9499310F5FEFCF88819981612F1E
:1035B0008E0D9F1DDF91CF911F910F91FF90EF9086
:1035C0000C949931EF92FF920F931F93CF93DF9357
:1035D0007C0161EA72E082E294E00E94DE118701E0
:1035E000C5E1D0E0CE010E949131F80181938F01B5
:1035F0002196CA32D105B1F7C701DF91CF911F9152
:103600000F91FF90EF900C94F217EF92FF920F93AF
:103610001F93CF93DF937C0165E772E082E294E031
:103620000E94DE118701D0E0C0E0CE010E949131FE
:10363000F80181938F012196C531D105B1F7C701FA
:10364000DF91CF911F910F91FF90EF900C94F217A3
:103650000F931F93CF93DF93EC018B0184E090E0F5
:103660000E94AE34FC011382128211830083FE019A
:10367000209731F4DF91CF911F910F910895F901B7
:103680002281338121153105D1F793838283CE01C5
:10369000F1CF85ED8093BC008091EE029091EF0216
:1036A000A091F002B091F1020796A11DB11D23E097
:1036B000B695A795979587952A95D1F72091BC0047
:1036C00024FD03C01092EC0208954091EE02509147
:1036D000EF026091F0027091F102452B462B472BCF
:1036E00069F30097A105B10541F02AE12A95F1F7A8
:1036F00000C00197A109B109E1CF8091ED020C94BE
:103700007D09CF93DF93EC010E94790C2D853E85D6
:103710004F8558890E942E320E94D43229813A81E5
:103720004B815C810E94C1312D813E814F81588542
:103730000E942E329B01AC0160E070E080E291E4D7
:10374000DF91CF910C942C33CF93DF93EC0182E087
:10375000888380911E0390911F039B838A838091AD
:10376000850290918602A0918702B09188028C8395
:103770009D83AE83BF8383EF0E9418118C7FBC01B1
:1037800090E080E00E94723022E538EB4FE25BE38C
:103790000E94D33026E636E64BE352E40E94C13164
:1037A000282F220F292F221F2F3F19F460E070E0ED
:1037B000CB016C8B7D8B8E8B9F8B85EF0E941811BC
:1037C0008C7FBC0190E080E00E94723020E030E00D
:1037D0004AEF5AE30E94D33020E030E040EC50E45E
:1037E0000E94C131282F220F292F221F2F3F19F4A9
:1037F00060E070E0CB01688B798B8A8B9B8B8EE2CB
:1038000095E00E94811B282F220F292F221F2F3F76
:1038100019F460E070E0CB01688779878A879B871D
:1038200088E195E00E94811B282F220F292F221F5B
:103830002F3F19F460E070E0CB016C877D878E87A5
:103840009F87CE01DF91CF910895EF92FF920F9362
:103850001F93CF93DF938BE991E00E94A41B8C010F
:10386000FC0160897189828993890E94A032862F28
:1038700064E10E946634C5E0D0E07E01E81AF108F8
:1038800061E0EC16FD060CF060E08C2F0E94031046
:103890002197B1F7F80164897589868997890E9413
:1038A000A032862F6AE00E946634CAE0D0E07E0132
:1038B000E81AF10861E0EC16FD060CF060E08C2FD0
:1038C0000E9403102197C530D105A1F7F801648546
:1038D0007585868597850E94A032862F65E00E94B7
:1038E0006634CFE0D0E07E01E81AF10861E0EC1622
:1038F000FD060CF060E08C2F0E9403102197CA3067
:10390000D105A1F7F80160857185828593850E94B4
:10391000A032862F6AE00E946634C4E1D0E08E01B6
:10392000081B110961E00C171D070CF060E08C2FDB
:103930000E9403102197CF30D105A1F7DF91CF91DD
:103940001F910F91FF90EF900895CF93DF93C09157
:103950001002D0911102CE010E94A41B69E272E014
:1039600082E294E00E94DE1161E272E082E294E081
:103970000E94AF064C815D816E817F8182E294E07E
:103980000E9491156BE172E082E294E00E94AF0622
:103990006A817B8182E294E00E94C9146CE072E04B
:1039A00082E294E00E94AF066C897D898E899F89AE
:1039B00042E00E94021787E491E00E94F11660E065
:1039C00072E082E294E00E94AF06688979898A8970
:1039D0009B8942E00E9402178AE491E00E94F1165E
:1039E00065EF71E082E294E00E94AF066885798518
:1039F0008A859B8542E00E9402178FE491E00E9435
:103A0000F1166AEE71E082E294E00E94AF066C85E6
:103A10007D858E859F8542E00E9402178FE491E0AC
:103A20000E94F11661E572E082E294E00E94AF0626
:103A300080917A01082E000C990B0E94DF1480916E
:103A40007A018F5F80937A0180910F02209110029A
:103A500030911102820F932F911D90931102809348
:103A6000100220910D0230910E028217930758F038
:103A70008217930759F48091140290911502909344
:103A8000590280935802DF91CF910895409112021C
:103A90005091130284179507B1F710927A01809123
:103AA00014029091150290931102809310023093AA
:103AB000590220935802E7CF2F923F924F925F9284
:103AC0006F927F928F929F92AF92BF92CF92DF922E
:103AD000EF92FF920F931F93CF93DF9300D000D00C
:103AE000CDB7DEB71C012A013B0109831A832B8362
:103AF0003C83A7019601C501B4010E942E320E94A9
:103B0000D4324B015C01A301920169817A818B81DE
:103B10009C810E942E320E94D4329B01AC01C501CF
:103B2000B4010E942E324B015C01F1018582968224
:103B3000A782B086C701B6010E94D4326B017C0116
:103B4000C301B2010E94D4329B01AC01C501B40192
:103B50000E94D3309B01AC01C701B6010E94C13164
:103B6000F10161837283838394836AEF72E082E25E
:103B700094E00E94AF06F10165817681878190858E
:103B800046E050E00E94E41765EF72E082E294E0C4
:103B90000E94AF06F101618172818381948142E0CC
:103BA00050E00F900F900F900F90DF91CF911F91E9
:103BB0000F91FF90EF90DF90CF90BF90AF909F90CC
:103BC0008F907F906F905F904F903F902F900C94CC
:103BD000E4171F920F920FB60F9211242F933F9369
:103BE0004F935F936F937F938F939F93AF93BF9305
:103BF000EF93FF9382E294E00E948307FF91EF919D
:103C0000BF91AF919F918F917F916F915F914F91F4
:103C10003F912F910F900FBE0F901F9018951F92FC
:103C20000F920FB60F9211242F938F939F93EF93C0
:103C3000FF93E0913204F09133048081E0913804E5
:103C4000F091390482FD1BC0908180913B048F5F0D
:103C50008F7320913C04821741F0E0913B04F0E027
:103C6000EE5DFB4F958F80933B04FF91EF919F9109
:103C70008F912F910F900FBE0F901F9018958081FC
:103C8000F4CF1F920F920FB60F9211242F933F93F0
:103C90008F939F93AF93BF938091FB019091FC0111
:103CA000A091FD01B091FE013091FA0126E0230FB1
:103CB0002D3758F50296A11DB11D2093FA0180936E
:103CC000FB019093FC01A093FD01B093FE01809154
:103CD000FF0190910002A0910102B09102020196B1
:103CE000A11DB11D8093FF0190930002A0930102DA
:103CF000B0930202BF91AF919F918F913F912F910D
:103D00000F900FBE0F901F90189529E8230F039670
:103D1000A11DB11DD2CF1F920F920FB60F92112489
:103D20002F933F934F935F936F937F938F939F93C3
:103D3000AF93BF93EF93FF93E0910701F0910801D8
:103D40000995FF91EF91BF91AF919F918F917F91D5
:103D50006F915F914F913F912F910F900FBE0F90F8
:103D60001F9018951F920F920FB60F9211242F9348
:103D70003F934F935F936F937F938F939F93AF93F3
:103D8000BF93EF93FF93E0910501F0910601099530
:103D9000FF91EF91BF91AF919F918F917F916F9123
:103DA0005F914F913F912F910F900FBE0F901F90F9
:103DB00018951F920F920FB60F9211242F933F93D5
:103DC0004F935F936F937F938F939F93AF93BF9323
:103DD000EF93FF938091B900887F803609F44AC041
:103DE000F0F5883209F4A7C018F5803109F49BC0BA
:103DF000B8F4882309F4F9C0883009F494C0FF911D
:103E0000EF91BF91AF919F918F917F916F915F9152
:103E10004F913F912F910F900FBE0F901F901895CB
:103E2000883109F488C0803251F78093EA0214C0C7
:103E3000803409F49DC040F48033B9F38833F9F637
:103E40008093EA0285ECB0C0803509F485C08835DE
:103E500009F496C0883499F60E94491BD0CF88395E
:103E600009F48CC038F5883729F050F4883611F001
:103E7000803729F683E08093EC021092F90157C055
:103E8000883809F47BC0803919F0803809F0B7CF41
:103E90008091F901803208F071C0E091F90181E070
:103EA0008E0F8093F9018091BB00F0E0E752FE4F46
:103EB00080833DC0803B39F0E0F4803A09F479C05A
:103EC000883A09F09CCF84E08093EC021092D801EC
:103ED0001092D701E0911603F09117030995809194
:103EE000D70181110FC081E08093D7011092B701F3
:103EF00009C0803C09F4A6CF883C09F4A3CF883BD5
:103F000009F07DCFE091D80181E08E0F8093D80138
:103F1000F0E0E954FE4F80818093BB009091D8017E
:103F20008091D70129C08091C7028093BB0085ECA6
:103F30008093BC0064CF9091E9028091E8029817C9
:103F400058F5E091E90281E08E0F8093E902F0E0FC
:103F5000E853FD4F8081E9CFE091E90281E08E0FC7
:103F60008093E9028091BB00F0E0E853FD4F80832D
:103F70009091E9028091E8029817C8F285E8D8CFBD
:103F8000E091E90281E08E0F8093E9028091BB000D
:103F9000F0E0E853FD4F80838091EB0281115CCF0C
:103FA00081E08093C60284EA8093BC001092EC0208
:103FB00026CF85EC8093BC001092EC028091F90131
:103FC000803230F4E091F901F0E0E752FE4F1082C8
:103FD0006091F90170E0E0911403F091150389ED0F
:103FE00091E009951092F9010ACF1092EA0234CFBC
:103FF0001F920F920FB60F9211240F900FBE0F90C9
:104000001F9018951F920F920FB60F9211242F93A5
:104010003F934F935F936F937F938F939F93AF9350
:10402000BF93EF93FF93E0915C02F0915D020995DD
:10403000FF91EF91BF91AF919F918F917F916F9180
:104040005F914F913F912F910F900FBE0F901F9056
:1040500018951F920F920FB60F9211242F933F9332
:104060004F935F936F937F938F939F93AF93BF9380
:10407000EF93FF93E0915A02F0915B02309709F0C1
:10408000099514BE8091600088618093600088E08B
:1040900080936000FF91EF91BF91AF919F918F91BD
:1040A0007F916F915F914F913F912F910F900FBE34
:1040B0000F901F901895E2E2F4E01382128288EECE
:1040C00093E0A0E0B0E084839583A683B78323E1E7
:1040D00031E03183208325EC30E03587248724ECE0
:1040E00030E03787268720EC30E0318B208B21ECC5
:1040F00030E0338B228B22EC30E0358B248B26ECA6
:1041000030E0378B268B118E128E138E148EEFEBD0
:10411000F4E01382128284839583A683B78385E2B9
:1041200091E09183808340E853E46DE678E38BEC83
:1041300094E00E94CD0BE1EDF4E084E1808385E022
:10414000818385E1828361E084E10E948D0861E0E2
:1041500085E00E948D0861E085E10E948D0860E0A5
:1041600084E10E945F0860E085E00E945F0860E0F3
:1041700085E10E945F08E4EDF4E083E0DF011D9239
:104180008A95E9F70E94C70FE6E1F5E086E08083B3
:1041900087E08183E3EFF4E0158E148E178E168E80
:1041A00010A211A212A280E090E1A0E0B0E080870E
:1041B0009187A287B3878FEF9FE4A6E0B0E0848762
:1041C0009587A687B787EDEEF4E088E490E09183C9
:1041D000808384E0828382E08383E2EEF4E085E200
:1041E0009CE1918380838AE090E0A0E0B0E082834C
:1041F0009383A483B5831286168217821086118654
:10420000E7EDF4E085EA9CE19183808385E090E02E
:10421000A0E0B0E082839383A483B58312861682E4
:104220001782108611862EE020932E052FE0209312
:10423000180510924805E9E4F5E023E836E13183FA
:10424000208382839383A483B58312861682178288
:10425000108611860895CF93DF93CDB7DEB7AC9764
:104260000FB6F894DEBF0FBECDBF789484B58260E0
:1042700084BD84B5816084BD85B5826085BD85B50A
:10428000816085BD80916E00816080936E00109288
:104290008100809181008260809381008091810003
:1042A0008160809381008091800081608093800094
:1042B0008091B10084608093B1008091B0008160F2
:1042C0008093B00080917A00846080937A0080911E
:1042D0007A00826080937A0080917A008E7F80934A
:1042E0007A0080917A00806880937A001092C100F1
:1042F000E0913204F091330482E08083E0912E0457
:10430000F0912F041082E0913004F091310483E0A9
:10431000808310923A04E0913604F091370486E0ED
:104320008083E0913404F091350480818061808342
:10433000E0913404F0913504808188608083E091BD
:104340003404F0913504808180688083E0913404E6
:10435000F091350480818F7D808388E696E090938C
:104360009B0280939A0285E290E09093A40280934E
:10437000A30231E03093A5029093A1028093A002A2
:104380001092A20284B1836084B94091A502E091A9
:10439000A302F091A402208181E090E0BC0102C060
:1043A000660F771F4A95E2F7AB014095509524239D
:1043B00020834091A2020091A0021091A102D80195
:1043C0002C9101C0880F4A95EAF7822B8C938DEAD5
:1043D00091E09093990280939802109208021092B3
:1043E0000702109206021092050210920402109227
:1043F000030230939E020E94F10A83E590E00E943E
:10440000400D80919E02882331F082E294E09093E7
:104410006B0280936A0264E670E080E090E00E94A4
:10442000EE089091A202F8018081EE24E394F12C31
:10443000970102C0220F331F9A95E2F7209530951D
:10444000822380838FEF0E94DB0C9091A202D8011F
:104450008C9101C0EE0C9A95EAF7E82AEC926CE791
:1044600080E00E94ED0D60E787E00E94ED0D60E0C6
:1044700082E00E94ED0D60E081E00E94ED0D60E0C1
:104480008CE10E94ED0D68E785E00E94ED0D63E090
:1044900083E00E94ED0D6FE784E00E94ED0D6EE079
:1044A00086E00E94ED0D0E94BF0D0E94950D6CE00C
:1044B00080E00E94ED0D80919A0290919B02892BE1
:1044C00021F48BE393E00E94470B8CE293E00E947F
:1044D000F0118EEA96E0909308028093070285E23D
:1044E0009FE0909306028093050289EE9DE09093F1
:1044F00004028093030280E091E090939D028093F8
:104500009C021092970280E00E941A0E682F6D7F25
:1045100080E00E94ED0D60E673E082E294E00E948C
:10452000DE110E94660981E08093F20288E68093A2
:10453000130310921903109218030E949E0965EA52
:1045400073E0882311F06FEA73E082E294E00E9446
:10455000DE110E94FA1063E973E0811157C04BE04D
:1045600050E067E873E0CE0101960E944730CE012B
:104570000A960E94C00B89A3E981E154E33120F53A
:104580000E2E000CFF0BE953FD4D0C94A8343B2577
:10459000E422E4224F25E4223925E422E422E42225
:1045A000DA22E422E42242254D254B25E422E422AE
:1045B000E42249258A81813609F457C28B818E36DF
:1045C00009F055C286E08AA3CE0105960E94C00B71
:1045D0008BA348E050E06EE773E0CE0101960E94A5
:1045E0004730CE0101960E94C00B8CA3CE010496E9
:1045F0000E94C00B8DA3CE0107960E94C00B8EA314
:10460000CE0181960E944E0B61E773E082E294E056
:104610000E94DE1187EB93E19093600280935F022A
:1046200084EA95E19093640280936302109285027C
:1046300010928602109287021092880210928102D4
:104640001092820210928302109284021092090248
:1046500010920A0210920B0210920C0210928A021F
:104660001092890282E090E090936202809361024E
:104670001092800210927F021092800010928100AE
:1046800080918100886180938100809180008260A8
:104690008093800084E080935E026DEC73E082E2A0
:1046A00094E00E94AF062AE042E15AE760E070E041
:1046B00082E294E00E947D146DEB73E082E294E06C
:1046C0000E94AF0660915E0282E294E00E9427168B
:1046D0008FB7F89421E13AE7309387002093860062
:1046E0008FBF87E896E090935D0280935C02789498
:1046F00080916F00846080936F0086E192E09093D8
:1047000015028093140226E532E0309313022093C1
:104710001202909311028093100210E210930F0284
:10472000109259021092580286E392E090930E0282
:1047300080930D0282E294E090936B0280936A0270
:1047400061E08AE00E948D0860E08AE00E945F08D4
:104750001092D4041092D5041092D6040E94C70F70
:1047600061E080E00E94031067ED74E080918B02AD
:1047700090918C020E94281B62EE74E00E94281B1C
:1047800090938C0280938B0286E195E09093F404E1
:104790008093F30488E592E09093F6048093F50407
:1047A0001093F70481E08093F80480E290E0909306
:1047B000FA048093F90469E174E082E294E00E94D3
:1047C000AF064091FF045091000560910105709182
:1047D000020582E294E00E9491156091FF047091BD
:1047E000000580910105909102050091FB04109154
:1047F000FC042091FD043091FE04601B710B820BC0
:10480000930B2091F9043091FA0450E040E00E94AB
:1048100086346B017C016CE074E082E294E00E94DB
:10482000AF06B60182E294E00E94C9148091FF04B1
:1048300090910005A0910105B09102058C199D0988
:10484000AE09BF098093FF0490930005A093010572
:10485000B093020560E074E082E294E00E94AF064B
:104860004091FF045091000560910105709102058F
:1048700082E294E00E9491150091F3041091F404F7
:1048800061E0F80180810E948D0861E0D8018C917F
:104890000E945F08F80181818F3F49F061E00E942A
:1048A0008D0861E0D80111968C910E945F0881E526
:1048B00091E00E94400D0E94F10A61E070E080E00A
:1048C00090E00E94EE08C8010E943E0FC8010E94BD
:1048D000820F60E0F80180810E945F0881E00E9401
:1048E000DB0C80E00E94DB0C61E0D8018C910E941F
:1048F0005F08C8010E94300DC8010E943E0FC80128
:104900000E94820F60E0F80180810E945F0881E3CD
:104910000E94DB0C80E00E94DB0C61E0D8018C91EE
:104920000E945F08C8010E94300D8091F804880F32
:10493000809314056CEE73E082E294E00E94AF066F
:104940004091FB045091FC046091FD047091FE04C1
:1049500082E294E00E9491156AED73E082E294E0B5
:104960000E94AF064091FF0450910005609101053F
:104970007091020582E294E00E9491158DEE94E020
:10498000909304058093030584E08093EF041AE07C
:104990001093F0048DEE94E00E94831AE090ED04F1
:1049A000F090EE048250819FE00CF11C11246DEF19
:1049B000C62E64E0D62E03EF14E0F701EF5EF4405C
:1049C0007F01C701800F911F0E949131D80152963B
:1049D0008C930F5F1F4FC016D10699F710921005E8
:1049E00010920F0584E796E09093120580931105CD
:1049F00081E0809315050E9466090E9466098FE296
:104A000095E00E94051B8091430564E274E08111EA
:104A100002C069E374E082E294E00E94DE1189E161
:104A200095E00E94E21A80912D0564E274E0811104
:104A300002C069E374E082E294E00E94DE11109209
:104A40005702109256028FE596E0909345058093A9
:104A50004405E0918B02F0918C0280E0309709F1DF
:104A60008F5F0280F381E02DF9CF81E0ACCD87E04C
:104A7000AACD82E0A8CD8B81823711F484E0A3CD4A
:104A800088E0A1CD8B81823711F483E09CCD85E055
:104A90009ACD89E098CD8AE096CD8BE094CD8CE0DC
:104AA00092CD809348056FE474E082E294E00E9426
:104AB000AF066091480582E294E00E9427161091AB
:104AC0004805812F90E0880F991F0E94AE34FC01A9
:104AD000909347058093460590E0191721F01192B5
:104AE00011929F5FFACF8AE099E190937C028093C4
:104AF0007B028FEC9EE0909371028093700283E4BE
:104B00009DE090936F0280936E0288E696E090930A
:104B100077028093760210926D0210927A021092C0
:104B2000790211E01093780282E294E090936B0294
:104B300080936A028DE594E00E94F01110936D025B
:104B4000ECE1F3E0F8A7EFA37F010EE310E0C8016A
:104B50000E949131D7018D937D010F5F1F4F043467
:104B60001105A9F70E943E1660E080E10E948D08C1
:104B70000E943B08892B09F4CBC260ED77E080E00E
:104B800090E00E94EE080E943B08019709F0C0C225
:104B900063E077E082E294E00E94DE116BE075E072
:104BA00082E294E00E94DE1168ED74E082E294E01B
:104BB0000E94DE1165EA74E082E294E00E94DE1158
:104BC00062E774E082E294E00E94DE1148EC642E19
:104BD00062E675E082E294E00E94DE116DE475E029
:104BE00082E294E00E94DE116EE375E082E294E0DE
:104BF0000E94DE110E941515182F813009F0ECC1BA
:104C00007724739461EC75E082E294E00E94DE11F7
:104C100060EB75E082E294E00E94DE1166EA75E0E6
:104C200082E294E00E94DE116BE975E082E294E09A
:104C30000E94DE1167E875E082E294E00E94DE11D6
:104C400064E775E082E294E00E94DE110E9415158F
:104C5000833009F4A8C178F4813009F4A0C082300F
:104C600009F442C18111B1C166E676E082E294E0C6
:104C70000E94DE11ADCF843009F49EC1853091F7DA
:104C800068E776E082E294E00E94DE115AE9852E20
:104C900059E9952E59E1A52E5FE3B52EC12CD12CF3
:104CA00060E8E62E6FE3F62E00E010E42CE935E430
:104CB00040E050E06AE774E48EE295E00E945C1DFB
:104CC000212C312C7AE7472E74E4572E2092370599
:104CD000309238054092390550923A056DEC7CECE3
:104CE0008CE890E460933F05709340058093410504
:104CF00090934205AB01BC018EE295E00E94A6189C
:104D000060933B0570933C0580933D0590933E0571
:104D1000709243058FE295E00E94521A812C912CEB
:104D2000E8ECAE2EE2E4BE2EC12CD12CF0E2EF2E48
:104D3000F1E4FF2E00E010E020E83FE34AE959E902
:104D400069E270E488E195E00E945C1D20922105F3
:104D50003092220540922305509224058DEC9CEC64
:104D6000ACE6B0E48093290590932A05A0932B0527
:104D7000B0932C05AC01BD0188E195E00E94A61816
:104D80006093250570932605809327059093280549
:104D900070922D0589E195E00E94211A33CF6CE9CC
:104DA00076E082E294E00E94DE1164E076E082E246
:104DB00094E00E94DE11C090FB04D090FC04E090CF
:104DC000FD04F090FE040CE0F694E794D794C794A9
:104DD0000A95D1F716018091FF0490910005A091EA
:104DE0000105B09102052CE0B695A795979587959A
:104DF0002A95D1F72C018601102F00271295107FDC
:104E000042145304C8F06FEE75E082E294E00E9411
:104E1000AF06B10182E294E00E94C914A80170E0DB
:104E200060E08091F3049091F4040E94980FBFEF2A
:104E30002B1A3B0A105FE4CFB701A601A4E0440F90
:104E4000551F661F771FAA95D1F7407F6F70772790
:104E50008091F3049091F4040E944D188091FB041A
:104E60009091FC04A091FD04B091FE04809305058F
:104E700090930605A0930705B09308058093090554
:104E800090930A05A0930B05B0930C058091FF0445
:104E900090910005A0910105B09102051CE0B69526
:104EA000A795979587951A95D1F790930E058093BE
:104EB0000D0564ED75E082E294E00E94AF0660911A
:104EC0000D0570910E0582E294E00E94C914809154
:104ED0000305909104050E94B511809103059091FE
:104EE00004050E94A11A8ECE6FE376E082E294E080
:104EF0000E94DE118091FB049091FC04A091FD04BE
:104F0000B091FE048093050590930605A0930705D4
:104F1000B09308058093090590930A05A0930B05AB
:104F2000B0930C0580910305909104050E94B51182
:104F300080910305909104050E94A11A0091F30449
:104F40001091F4046EE176E082E294E00E94DE11BA
:104F5000C8010E94820F60E0F80180810E945F0812
:104F600080E60E94DB0C61E0D8018C910E945F0812
:104F7000C8010E94300DC8010E943E0F69E176E031
:104F800082E294E00E94DE1180919E02882321F04B
:104F90008DE296E00E94F011CE0101960E94EF1979
:104FA00010921C032FCE65E976E082E294E00E9425
:104FB000DE1110921D0326CE6DE876E082E294E0C9
:104FC0000E94DE1170921D031DCE6AE576E082E23A
:104FD00094E00E94DE1116CE823009F077C066E0C0
:104FE00071E082E294E00E94DE1161EF70E082E203
:104FF00094E00E94DE116AEE70E082E294E00E948A
:10500000DE1164ED76E082E294E00E94AF0642E0B9
:10501000E42EF12CDD24D39430EE832E33E9932E4D
:1050200034E0A32EB12C82E294E00E946307892B26
:1050300069F491E0891A9108A108B10839F061E09A
:1050400070E080E090E00E94EE08EDCF0E94740DC9
:105050008E010F5F1F4FB02EC12E97FD06C0D801E5
:105060008D938D010E94740DF8CFF8011082F2E04B
:105070008B2D9C2DDF16C9F00E94203070931F03EA
:1050800060931E0382E294E00E94C914EA94EF2820
:10509000D1F06FEB76E082E294E00E94AF06EE245E
:1050A000E394F12C22E0D22EB7CF0E9402309093ED
:1050B000210380932003BC0182E294E00E94C91482
:1050C00060921C03E3CF6CEA76E0D0CD62EF76E02D
:1050D00082E294E00E94DE1111117ACD61EE76E059
:1050E00082E294E00E94DE110EE310E0AFA1B8A5C9
:1050F0006D91B8A7AFA31A830983CE0101960E94D0
:10510000D6190F5F1F4F0434110581F70E943E1618
:1051100069E475E080918B0290918C020E94281BBB
:1051200090938C0280938B0261E177E082E294E0BD
:105130000E94AF0660E070E282E294E00E94C9142F
:105140009FB7F89414BE80916000886180936000DE
:1051500081E2809360009FBF789410925B0210926E
:105160005A0268EE73E080E090E00E94EE0884E569
:1051700091E00E94F11610929602109295028E0113
:105180000F5F1F4F22242394312C80919502909120
:1051900096028130910501F1C0F0029701F1E09093
:1051A0009502F0909602B2E0EB16F10409F4BFC04C
:1051B000C8F4E114F10461F1EA94EF2809F482C023
:1051C000109296021092950216C060E277E082E299
:1051D00094E00E94DE11E3CF6DE477E0F8CF68E35E
:1051E00077E0F5CF23E0E216F10409F411C234E0D0
:1051F000E316F10429F7A89580E090E0892B29F2C5
:105200000E946F07882309F4C0CF0E940000BDCF21
:105210006BE977E082E294E00E94DE1180E00E9478
:105220001A0EF82E65E977E082E294E00E94AF065C
:105230002F2D30E035952795359527952370332709
:1052400081E090E0232B11F490E080E00E94DF14D5
:105250006FE877E082E294E00E94AF0681E090E0A0
:105260000E94DF1467E877E082E294E00E94AF06D4
:1052700081E090E00E94DF1469E777E082E294E049
:105280000E94AF0681E090E00E94DF1463E677E0C1
:1052900082E294E00E94DE1180911C03883C29F494
:1052A0003092960220929502A6CF68E97AE082E2D7
:1052B00094E00E94DE1164E070E0709396026093C7
:1052C000950299CF62E082E00E948D088DE693E11D
:1052D0009093060180930501809169008C7F826024
:1052E00080936900E89A80916000806480936000F8
:1052F00010927E0210927D028091200390912103F2
:10530000B0E0A0E08093D9049093DA04A093DB048A
:10531000B093DC0461EB77E082E294E00E94DE115E
:1053200082E090E0909396028093950264CF0E9471
:10533000161360939102709392028093930290935C
:1053400094026CE278E082E294E00E94AF06409121
:10535000910250919202609193027091940282E2C4
:1053600094E00E9491156091910270919202809157
:10537000930290919402611571058105910509F4DC
:1053800062C0609385027093860280938702909337
:105390008802E0916302F0916402309709F0099568
:1053A000109262021092610280918100887F809346
:1053B00081008091810090915E02892B8093810011
:1053C000E0906102F09062026CEF77E082E294E09C
:1053D0000E94AF0691E0E916F10409F474C008F4E4
:1053E0006BC0B2E0EB16F10409F470C068ED77E031
:1053F00082E294E00E94DE11409185025091860283
:105400006091870270918802C8010E94CD0B86E0EE
:10541000F801ABECB4E001900D928A95E1F7809130
:10542000CE048093800280937F02809161029091EC
:105430006202029709F04DC068E873E180E090E0F5
:105440000E94EE08D8CEE0915F02F09160023097A2
:1054500031F10995611571058105910569F0609338
:10546000850270938602809387029093880230921F
:1054700062022092610298CF1092850210928602F9
:105480001092870210928802F0926202E09261020A
:1054900064E178E082E294E00E94DE1185CF109210
:1054A0008502109286021092870210928802F09272
:1054B0006202E092610278CF61EF77E082E294E0ED
:1054C0000E94AF0693CF66EE77E0F8CF6DED77E000
:1054D000F5CF6DE678E082E294E00E94DE1168018B
:1054E000AAE2EA2EF12CC7010E949131F6018193C4
:1054F0006F01FFEFEF1AFF0A22E3E216F10499F7BA
:1055000068E0C8010E9405168E81883C19F48F81DD
:105510008C3CC1F180919E02882321F082E898E0C2
:105520000E94F01162E080E00E94480E62E070E0AC
:1055300080E090E00E94EE080E94D40E48E0B8019E
:105540008CEC0E94F711009709F458C0FC01AC01E3
:10555000495F5F4F30E020E06191260F311D4E170B
:105560005F07D1F7DC0117968C91821741F080918B
:105570009E02882321F082E598E00E94F011C80184
:105580000E94EF1985E0F801A5E6B2E001900D92C6
:105590008A95E1F780919E02882349F087E398E09D
:1055A0000E94470B65E085E692E00E940516E3E065
:1055B000F0E0F0939602E09395028091850290913D
:1055C0008602A0918702B091880280939102909305
:1055D0009202A0939302B0939402809191029091D1
:1055E0009202A0919302B091940280938D029093C5
:1055F0008E02A0938F02B0939002FDCD80919E0207
:10560000882309F4BCCF82E498E00E94470BB7CF0F
:10561000E091F504F091F60480819181892B09F4E1
:1056200017C1E0911105F0911205309709F0099525
:105630006090F3047090F4044090F9045090FA04E0
:10564000E091F504F091F604208131813CA72BA76D
:105650008090050590900605A0900705B09008057C
:10566000C401992760E071E0681B790BCB01D12C54
:10567000C12C4114510409F444C0720184159505EC
:1056800008F47C01C3010E943E0FC3010E94820FF7
:1056900060E0D3018C910E945F0882E00E94DB0CE5
:1056A0008A2D0E94DB0C892D0E94DB0C882D0E9424
:1056B000DB0CEBA5FCA5EC0DFD1DFAA7E9A7F8A7EF
:1056C000EFA3AFA1B8A58D91B8A7AFA30E94DB0C43
:1056D0008FA198A5E9A5FAA58E1B9F0B8E159F0596
:1056E00080F361E0D3018C910E945F088E0C9F1CB7
:1056F000A11CB11CCE0CDF1C4E185F0880E091E0AD
:10570000B8CFE0910F05F0911005309709F0099599
:10571000809115058823C9F063EE78E082E294E079
:105720000E94AF064091050550910605609107055E
:10573000709108052AE082E294E00E947D146FEDEA
:1057400078E082E294E00E94DE112091F904309129
:10575000FA048091050590910605A0910705B09186
:105760000805820F931FA11DB11D8093050590931D
:105770000605A0930705B09308054091FF045091DA
:105780000005609101057091020584179507A60731
:10579000B70708F450C08091FB049091FC04A091DD
:1057A000FD04B091FE048093050590930605A09337
:1057B0000705B09308056AEC78E082E294E00E9465
:1057C000AF0640910505509106056091070570915F
:1057D0000805ECE07695679557954795EA95D1F7DA
:1057E00082E294E00E9491154091050550910605D2
:1057F00060910705709108058091F3049091F4047D
:105800000E94980F8091050590910605A0910705CB
:10581000B0910805FCE0B695A79597958795FA9500
:10582000D1F790930E0580930D058091030590911B
:1058300004050E94A11A809113059091F804890F24
:1058400080931305E091F504F091F6041182108223
:105850009091130580911405981708F471C06DEAB2
:1058600078E082E294E00E94DE118091050590913B
:105870000605A0910705B09108053CE0B695A795EF
:10588000979587953A95D1F720910D0530910E05A2
:105890002817390709F04CC07C01EFEFEE1AFE0A19
:1058A0008091FF0490910005A0910105B09102053F
:1058B0002CE0B695A795979587952A95D1F78E15E3
:1058C0009F05B0F163E978E082E294E00E94AF06C0
:1058D000B70182E294E00E94C914A70170E060E081
:1058E000FCE0440F551F661F771FFA95D1F7809192
:1058F000F3049091F4040E94980FF0920E05E09248
:105900000D0580910305909104050E94A11A409114
:105910000D0550910E05A4E0440F551FAA95E1F71F
:1059200070E060E08091F3049091F4040E944D18BF
:1059300080910305909104050E94A11A109213050D
:1059400080917D0290917E028130910509F453C0CF
:1059500070F0029709F4EBC065E779E082E294E029
:105960000E94DE1110927E0210927D0272C0809120
:10597000850290918602A0918702B091880280935F
:10598000910290939202A0939302B093940280911B
:10599000910290919202A0919302B0919402409151
:1059A0008D0250918E0260918F0270919002841B43
:1059B000950BA60BB70B0F97A105B10508F449C0CD
:1059C0008091910290919202A0919302B0919402E1
:1059D00080938D0290938E02A0938F02B0939002D9
:1059E00030927E0220927D0267EC79E082E294E0C0
:1059F0000E94DE112EC00E941613672B682B692BA4
:105A000039F40E941613672B682B692B09F4F3C233
:105A100085E692E00E948F1162E080E00E94480ECD
:105A200062E070E080E090E00E94EE080E94D40EF8
:105A300080919E02882321F083EF98E00E94F0116C
:105A400081E080936D0222E030E030937E0220936B
:105A50007D0280917D0290917E028130910509F452
:105A6000F4C0029709F4F8C08091890290918A02EB
:105A70008130910509F421C108F4F1C0823091050B
:105A800009F499C2039709F4A7C2E0908B02F09041
:105A90008C02C0904605D0904705E0914405F091F6
:105AA00045050995D701ED91FC9186809780A084EA
:105AB000B1842B013C01481859086A087B08828090
:105AC0009380A480B580481459046A047B0408F4C8
:105AD0008EC26683778380879187D601ED93FD938D
